{
  "_format": "hh-sol-artifact-1",
  "contractName": "EscapeVerifier",
  "sourceName": "src/core/EscapeVerifier.sol",
  "abi": [
    {
      "inputs": [
        {
          "internalType": "address",
          "name": "target",
          "type": "address"
        }
      ],
      "name": "AddressEmptyCode",
      "type": "error"
    },
    {
      "inputs": [
        {
          "internalType": "address",
          "name": "implementation",
          "type": "address"
        }
      ],
      "name": "ERC1967InvalidImplementation",
      "type": "error"
    },
    {
      "inputs": [],
      "name": "ERC1967NonPayable",
      "type": "error"
    },
    {
      "inputs": [],
      "name": "FailedInnerCall",
      "type": "error"
    },
    {
      "inputs": [],
      "name": "InvalidInitialization",
      "type": "error"
    },
    {
      "inputs": [],
      "name": "NotInitializing",
      "type": "error"
    },
    {
      "inputs": [
        {
          "internalType": "address",
          "name": "owner",
          "type": "address"
        }
      ],
      "name": "OwnableInvalidOwner",
      "type": "error"
    },
    {
      "inputs": [
        {
          "internalType": "address",
          "name": "account",
          "type": "address"
        }
      ],
      "name": "OwnableUnauthorizedAccount",
      "type": "error"
    },
    {
      "inputs": [],
      "name": "ReentrancyGuardReentrantCall",
      "type": "error"
    },
    {
      "inputs": [],
      "name": "UUPSUnauthorizedCallContext",
      "type": "error"
    },
    {
      "inputs": [
        {
          "internalType": "bytes32",
          "name": "slot",
          "type": "bytes32"
        }
      ],
      "name": "UUPSUnsupportedProxiableUUID",
      "type": "error"
    },
    {
      "anonymous": false,
      "inputs": [
        {
          "indexed": false,
          "internalType": "uint32",
          "name": "escapeId",
          "type": "uint32"
        },
        {
          "indexed": false,
          "internalType": "uint32",
          "name": "timestamp",
          "type": "uint32"
        },
        {
          "indexed": false,
          "internalType": "uint32",
          "name": "tokenId",
          "type": "uint32"
        },
        {
          "indexed": false,
          "internalType": "uint64",
          "name": "amount",
          "type": "uint64"
        },
        {
          "indexed": false,
          "internalType": "address",
          "name": "recipient",
          "type": "address"
        }
      ],
      "name": "EscapeWithdrawalEvent",
      "type": "event"
    },
    {
      "anonymous": false,
      "inputs": [
        {
          "indexed": false,
          "internalType": "uint64",
          "name": "version",
          "type": "uint64"
        }
      ],
      "name": "Initialized",
      "type": "event"
    },
    {
      "anonymous": false,
      "inputs": [
        {
          "indexed": true,
          "internalType": "uint32",
          "name": "escapeId",
          "type": "uint32"
        },
        {
          "indexed": false,
          "internalType": "uint32",
          "name": "timestamp",
          "type": "uint32"
        },
        {
          "components": [
            {
              "internalType": "uint64",
              "name": "index",
              "type": "uint64"
            },
            {
              "internalType": "uint256",
              "name": "addressX",
              "type": "uint256"
            },
            {
              "internalType": "uint256",
              "name": "addressY",
              "type": "uint256"
            },
            {
              "internalType": "uint32",
              "name": "token",
              "type": "uint32"
            },
            {
              "internalType": "uint64",
              "name": "amount",
              "type": "uint64"
            },
            {
              "internalType": "uint256",
              "name": "blinding",
              "type": "uint256"
            }
          ],
          "indexed": false,
          "internalType": "struct Note[]",
          "name": "escape_notes",
          "type": "tuple[]"
        },
        {
          "indexed": false,
          "internalType": "uint256[2]",
          "name": "signature",
          "type": "uint256[2]"
        }
      ],
      "name": "NoteEscapeEvent",
      "type": "event"
    },
    {
      "anonymous": false,
      "inputs": [
        {
          "indexed": false,
          "internalType": "uint32",
          "name": "escapeId",
          "type": "uint32"
        },
        {
          "indexed": false,
          "internalType": "uint32",
          "name": "timestamp",
          "type": "uint32"
        },
        {
          "components": [
            {
              "internalType": "uint64",
              "name": "tab_idx",
              "type": "uint64"
            },
            {
              "internalType": "uint32",
              "name": "base_token",
              "type": "uint32"
            },
            {
              "internalType": "uint32",
              "name": "quote_token",
              "type": "uint32"
            },
            {
              "internalType": "uint256",
              "name": "base_blinding",
              "type": "uint256"
            },
            {
              "internalType": "uint256",
              "name": "quote_blinding",
              "type": "uint256"
            },
            {
              "internalType": "uint256",
              "name": "pub_key",
              "type": "uint256"
            },
            {
              "internalType": "uint64",
              "name": "base_amount",
              "type": "uint64"
            },
            {
              "internalType": "uint64",
              "name": "quote_amount",
              "type": "uint64"
            }
          ],
          "indexed": false,
          "internalType": "struct OrderTab",
          "name": "orderTab",
          "type": "tuple"
        },
        {
          "indexed": false,
          "internalType": "uint256[2]",
          "name": "signature",
          "type": "uint256[2]"
        }
      ],
      "name": "OrderTabEscapeEvent",
      "type": "event"
    },
    {
      "anonymous": false,
      "inputs": [
        {
          "indexed": true,
          "internalType": "address",
          "name": "previousOwner",
          "type": "address"
        },
        {
          "indexed": true,
          "internalType": "address",
          "name": "newOwner",
          "type": "address"
        }
      ],
      "name": "OwnershipTransferred",
      "type": "event"
    },
    {
      "anonymous": false,
      "inputs": [
        {
          "indexed": false,
          "internalType": "uint32",
          "name": "escapeId",
          "type": "uint32"
        },
        {
          "indexed": false,
          "internalType": "uint64",
          "name": "closePrice",
          "type": "uint64"
        },
        {
          "components": [
            {
              "internalType": "uint64",
              "name": "index",
              "type": "uint64"
            },
            {
              "internalType": "uint32",
              "name": "synthetic_token",
              "type": "uint32"
            },
            {
              "internalType": "uint256",
              "name": "position_address",
              "type": "uint256"
            },
            {
              "internalType": "bool",
              "name": "allow_partial_liquidations",
              "type": "bool"
            },
            {
              "internalType": "uint32",
              "name": "vlp_token",
              "type": "uint32"
            },
            {
              "internalType": "uint64",
              "name": "max_vlp_supply",
              "type": "uint64"
            },
            {
              "internalType": "bool",
              "name": "order_side",
              "type": "bool"
            },
            {
              "internalType": "uint64",
              "name": "position_size",
              "type": "uint64"
            },
            {
              "internalType": "uint64",
              "name": "margin",
              "type": "uint64"
            },
            {
              "internalType": "uint64",
              "name": "entry_price",
              "type": "uint64"
            },
            {
              "internalType": "uint64",
              "name": "liquidation_price",
              "type": "uint64"
            },
            {
              "internalType": "uint64",
              "name": "bankruptcy_price",
              "type": "uint64"
            },
            {
              "internalType": "uint32",
              "name": "last_funding_idx",
              "type": "uint32"
            },
            {
              "internalType": "uint64",
              "name": "vlp_supply",
              "type": "uint64"
            }
          ],
          "indexed": false,
          "internalType": "struct Position",
          "name": "position_a",
          "type": "tuple"
        },
        {
          "components": [
            {
              "internalType": "uint64",
              "name": "initial_margin",
              "type": "uint64"
            },
            {
              "internalType": "uint32",
              "name": "collateral_token",
              "type": "uint32"
            },
            {
              "components": [
                {
                  "internalType": "uint64",
                  "name": "index",
                  "type": "uint64"
                },
                {
                  "internalType": "uint256",
                  "name": "addressX",
                  "type": "uint256"
                },
                {
                  "internalType": "uint256",
                  "name": "addressY",
                  "type": "uint256"
                },
                {
                  "internalType": "uint32",
                  "name": "token",
                  "type": "uint32"
                },
                {
                  "internalType": "uint64",
                  "name": "amount",
                  "type": "uint64"
                },
                {
                  "internalType": "uint256",
                  "name": "blinding",
                  "type": "uint256"
                }
              ],
              "internalType": "struct Note[]",
              "name": "notes_in",
              "type": "tuple[]"
            },
            {
              "components": [
                {
                  "internalType": "uint64",
                  "name": "index",
                  "type": "uint64"
                },
                {
                  "internalType": "uint256",
                  "name": "addressX",
                  "type": "uint256"
                },
                {
                  "internalType": "uint256",
                  "name": "addressY",
                  "type": "uint256"
                },
                {
                  "internalType": "uint32",
                  "name": "token",
                  "type": "uint32"
                },
                {
                  "internalType": "uint64",
                  "name": "amount",
                  "type": "uint64"
                },
                {
                  "internalType": "uint256",
                  "name": "blinding",
                  "type": "uint256"
                }
              ],
              "internalType": "struct Note",
              "name": "refund_note",
              "type": "tuple"
            },
            {
              "internalType": "uint256",
              "name": "position_address",
              "type": "uint256"
            },
            {
              "internalType": "bool",
              "name": "allow_partial_liquidations",
              "type": "bool"
            }
          ],
          "indexed": false,
          "internalType": "struct OpenOrderFields",
          "name": "openOrderFields_b",
          "type": "tuple"
        },
        {
          "indexed": false,
          "internalType": "address",
          "name": "recipient",
          "type": "address"
        },
        {
          "indexed": false,
          "internalType": "uint256[2]",
          "name": "signature_a",
          "type": "uint256[2]"
        },
        {
          "indexed": false,
          "internalType": "uint256[2]",
          "name": "signature_b",
          "type": "uint256[2]"
        }
      ],
      "name": "PositionEscapeEventA",
      "type": "event"
    },
    {
      "anonymous": false,
      "inputs": [
        {
          "indexed": false,
          "internalType": "uint32",
          "name": "escapeId",
          "type": "uint32"
        },
        {
          "indexed": false,
          "internalType": "uint64",
          "name": "closePrice",
          "type": "uint64"
        },
        {
          "components": [
            {
              "internalType": "uint64",
              "name": "index",
              "type": "uint64"
            },
            {
              "internalType": "uint32",
              "name": "synthetic_token",
              "type": "uint32"
            },
            {
              "internalType": "uint256",
              "name": "position_address",
              "type": "uint256"
            },
            {
              "internalType": "bool",
              "name": "allow_partial_liquidations",
              "type": "bool"
            },
            {
              "internalType": "uint32",
              "name": "vlp_token",
              "type": "uint32"
            },
            {
              "internalType": "uint64",
              "name": "max_vlp_supply",
              "type": "uint64"
            },
            {
              "internalType": "bool",
              "name": "order_side",
              "type": "bool"
            },
            {
              "internalType": "uint64",
              "name": "position_size",
              "type": "uint64"
            },
            {
              "internalType": "uint64",
              "name": "margin",
              "type": "uint64"
            },
            {
              "internalType": "uint64",
              "name": "entry_price",
              "type": "uint64"
            },
            {
              "internalType": "uint64",
              "name": "liquidation_price",
              "type": "uint64"
            },
            {
              "internalType": "uint64",
              "name": "bankruptcy_price",
              "type": "uint64"
            },
            {
              "internalType": "uint32",
              "name": "last_funding_idx",
              "type": "uint32"
            },
            {
              "internalType": "uint64",
              "name": "vlp_supply",
              "type": "uint64"
            }
          ],
          "indexed": false,
          "internalType": "struct Position",
          "name": "position_a",
          "type": "tuple"
        },
        {
          "components": [
            {
              "internalType": "uint64",
              "name": "index",
              "type": "uint64"
            },
            {
              "internalType": "uint32",
              "name": "synthetic_token",
              "type": "uint32"
            },
            {
              "internalType": "uint256",
              "name": "position_address",
              "type": "uint256"
            },
            {
              "internalType": "bool",
              "name": "allow_partial_liquidations",
              "type": "bool"
            },
            {
              "internalType": "uint32",
              "name": "vlp_token",
              "type": "uint32"
            },
            {
              "internalType": "uint64",
              "name": "max_vlp_supply",
              "type": "uint64"
            },
            {
              "internalType": "bool",
              "name": "order_side",
              "type": "bool"
            },
            {
              "internalType": "uint64",
              "name": "position_size",
              "type": "uint64"
            },
            {
              "internalType": "uint64",
              "name": "margin",
              "type": "uint64"
            },
            {
              "internalType": "uint64",
              "name": "entry_price",
              "type": "uint64"
            },
            {
              "internalType": "uint64",
              "name": "liquidation_price",
              "type": "uint64"
            },
            {
              "internalType": "uint64",
              "name": "bankruptcy_price",
              "type": "uint64"
            },
            {
              "internalType": "uint32",
              "name": "last_funding_idx",
              "type": "uint32"
            },
            {
              "internalType": "uint64",
              "name": "vlp_supply",
              "type": "uint64"
            }
          ],
          "indexed": false,
          "internalType": "struct Position",
          "name": "position_b",
          "type": "tuple"
        },
        {
          "indexed": false,
          "internalType": "address",
          "name": "recipient",
          "type": "address"
        },
        {
          "indexed": false,
          "internalType": "uint256[2]",
          "name": "signature_a",
          "type": "uint256[2]"
        },
        {
          "indexed": false,
          "internalType": "uint256[2]",
          "name": "signature_b",
          "type": "uint256[2]"
        }
      ],
      "name": "PositionEscapeEventB",
      "type": "event"
    },
    {
      "anonymous": false,
      "inputs": [
        {
          "indexed": true,
          "internalType": "address",
          "name": "implementation",
          "type": "address"
        }
      ],
      "name": "Upgraded",
      "type": "event"
    },
    {
      "inputs": [],
      "name": "UPGRADE_INTERFACE_VERSION",
      "outputs": [
        {
          "internalType": "string",
          "name": "",
          "type": "string"
        }
      ],
      "stateMutability": "view",
      "type": "function"
    },
    {
      "inputs": [
        {
          "internalType": "uint32",
          "name": "escapeId",
          "type": "uint32"
        },
        {
          "components": [
            {
              "internalType": "uint64",
              "name": "index",
              "type": "uint64"
            },
            {
              "internalType": "uint256",
              "name": "addressX",
              "type": "uint256"
            },
            {
              "internalType": "uint256",
              "name": "addressY",
              "type": "uint256"
            },
            {
              "internalType": "uint32",
              "name": "token",
              "type": "uint32"
            },
            {
              "internalType": "uint64",
              "name": "amount",
              "type": "uint64"
            },
            {
              "internalType": "uint256",
              "name": "blinding",
              "type": "uint256"
            }
          ],
          "internalType": "struct Note[]",
          "name": "notes",
          "type": "tuple[]"
        }
      ],
      "name": "hashNoteEscapeMessage",
      "outputs": [
        {
          "internalType": "uint256",
          "name": "",
          "type": "uint256"
        }
      ],
      "stateMutability": "view",
      "type": "function"
    },
    {
      "inputs": [
        {
          "internalType": "uint32",
          "name": "escapeId",
          "type": "uint32"
        },
        {
          "components": [
            {
              "internalType": "uint64",
              "name": "index",
              "type": "uint64"
            },
            {
              "internalType": "uint32",
              "name": "synthetic_token",
              "type": "uint32"
            },
            {
              "internalType": "uint256",
              "name": "position_address",
              "type": "uint256"
            },
            {
              "internalType": "bool",
              "name": "allow_partial_liquidations",
              "type": "bool"
            },
            {
              "internalType": "uint32",
              "name": "vlp_token",
              "type": "uint32"
            },
            {
              "internalType": "uint64",
              "name": "max_vlp_supply",
              "type": "uint64"
            },
            {
              "internalType": "bool",
              "name": "order_side",
              "type": "bool"
            },
            {
              "internalType": "uint64",
              "name": "position_size",
              "type": "uint64"
            },
            {
              "internalType": "uint64",
              "name": "margin",
              "type": "uint64"
            },
            {
              "internalType": "uint64",
              "name": "entry_price",
              "type": "uint64"
            },
            {
              "internalType": "uint64",
              "name": "liquidation_price",
              "type": "uint64"
            },
            {
              "internalType": "uint64",
              "name": "bankruptcy_price",
              "type": "uint64"
            },
            {
              "internalType": "uint32",
              "name": "last_funding_idx",
              "type": "uint32"
            },
            {
              "internalType": "uint64",
              "name": "vlp_supply",
              "type": "uint64"
            }
          ],
          "internalType": "struct Position",
          "name": "position_a",
          "type": "tuple"
        },
        {
          "internalType": "uint64",
          "name": "closePrice",
          "type": "uint64"
        },
        {
          "internalType": "uint256",
          "name": "hashInp4",
          "type": "uint256"
        },
        {
          "internalType": "address",
          "name": "recipient",
          "type": "address"
        }
      ],
      "name": "hashPositionEscapeMessage",
      "outputs": [
        {
          "internalType": "uint256",
          "name": "",
          "type": "uint256"
        }
      ],
      "stateMutability": "view",
      "type": "function"
    },
    {
      "inputs": [
        {
          "internalType": "address",
          "name": "initialOwner",
          "type": "address"
        }
      ],
      "name": "initialize",
      "outputs": [],
      "stateMutability": "nonpayable",
      "type": "function"
    },
    {
      "inputs": [],
      "name": "owner",
      "outputs": [
        {
          "internalType": "address",
          "name": "",
          "type": "address"
        }
      ],
      "stateMutability": "view",
      "type": "function"
    },
    {
      "inputs": [],
      "name": "proxiableUUID",
      "outputs": [
        {
          "internalType": "bytes32",
          "name": "",
          "type": "bytes32"
        }
      ],
      "stateMutability": "view",
      "type": "function"
    },
    {
      "inputs": [],
      "name": "renounceOwnership",
      "outputs": [],
      "stateMutability": "nonpayable",
      "type": "function"
    },
    {
      "inputs": [
        {
          "internalType": "uint32",
          "name": "",
          "type": "uint32"
        },
        {
          "internalType": "uint32",
          "name": "",
          "type": "uint32"
        }
      ],
      "name": "s_escapeAmounts",
      "outputs": [
        {
          "internalType": "uint64",
          "name": "",
          "type": "uint64"
        }
      ],
      "stateMutability": "view",
      "type": "function"
    },
    {
      "inputs": [],
      "name": "s_escapeCount",
      "outputs": [
        {
          "internalType": "uint32",
          "name": "",
          "type": "uint32"
        }
      ],
      "stateMutability": "view",
      "type": "function"
    },
    {
      "inputs": [
        {
          "internalType": "uint32",
          "name": "",
          "type": "uint32"
        }
      ],
      "name": "s_forcedEscapes",
      "outputs": [
        {
          "internalType": "uint32",
          "name": "escapeId",
          "type": "uint32"
        },
        {
          "internalType": "uint32",
          "name": "timestamp",
          "type": "uint32"
        },
        {
          "internalType": "uint256",
          "name": "escapeHash",
          "type": "uint256"
        },
        {
          "internalType": "address",
          "name": "caller",
          "type": "address"
        }
      ],
      "stateMutability": "view",
      "type": "function"
    },
    {
      "inputs": [
        {
          "internalType": "address",
          "name": "",
          "type": "address"
        },
        {
          "internalType": "uint32",
          "name": "",
          "type": "uint32"
        }
      ],
      "name": "s_successfulEscapes",
      "outputs": [
        {
          "internalType": "bool",
          "name": "",
          "type": "bool"
        }
      ],
      "stateMutability": "view",
      "type": "function"
    },
    {
      "inputs": [
        {
          "internalType": "address",
          "name": "_invisible",
          "type": "address"
        }
      ],
      "name": "setInvisibleAddress",
      "outputs": [],
      "stateMutability": "nonpayable",
      "type": "function"
    },
    {
      "inputs": [
        {
          "internalType": "address",
          "name": "_structHasher",
          "type": "address"
        }
      ],
      "name": "setStructHasher",
      "outputs": [],
      "stateMutability": "nonpayable",
      "type": "function"
    },
    {
      "inputs": [
        {
          "components": [
            {
              "internalType": "uint64",
              "name": "index",
              "type": "uint64"
            },
            {
              "internalType": "uint256",
              "name": "addressX",
              "type": "uint256"
            },
            {
              "internalType": "uint256",
              "name": "addressY",
              "type": "uint256"
            },
            {
              "internalType": "uint32",
              "name": "token",
              "type": "uint32"
            },
            {
              "internalType": "uint64",
              "name": "amount",
              "type": "uint64"
            },
            {
              "internalType": "uint256",
              "name": "blinding",
              "type": "uint256"
            }
          ],
          "internalType": "struct Note[]",
          "name": "notes",
          "type": "tuple[]"
        },
        {
          "internalType": "uint256[2]",
          "name": "signature",
          "type": "uint256[2]"
        }
      ],
      "name": "startNoteEscape",
      "outputs": [],
      "stateMutability": "nonpayable",
      "type": "function"
    },
    {
      "inputs": [
        {
          "components": [
            {
              "internalType": "uint64",
              "name": "tab_idx",
              "type": "uint64"
            },
            {
              "internalType": "uint32",
              "name": "base_token",
              "type": "uint32"
            },
            {
              "internalType": "uint32",
              "name": "quote_token",
              "type": "uint32"
            },
            {
              "internalType": "uint256",
              "name": "base_blinding",
              "type": "uint256"
            },
            {
              "internalType": "uint256",
              "name": "quote_blinding",
              "type": "uint256"
            },
            {
              "internalType": "uint256",
              "name": "pub_key",
              "type": "uint256"
            },
            {
              "internalType": "uint64",
              "name": "base_amount",
              "type": "uint64"
            },
            {
              "internalType": "uint64",
              "name": "quote_amount",
              "type": "uint64"
            }
          ],
          "internalType": "struct OrderTab",
          "name": "orderTab",
          "type": "tuple"
        },
        {
          "internalType": "uint256[2]",
          "name": "signature",
          "type": "uint256[2]"
        }
      ],
      "name": "startOrderTabEscape",
      "outputs": [],
      "stateMutability": "nonpayable",
      "type": "function"
    },
    {
      "inputs": [
        {
          "components": [
            {
              "internalType": "uint64",
              "name": "index",
              "type": "uint64"
            },
            {
              "internalType": "uint32",
              "name": "synthetic_token",
              "type": "uint32"
            },
            {
              "internalType": "uint256",
              "name": "position_address",
              "type": "uint256"
            },
            {
              "internalType": "bool",
              "name": "allow_partial_liquidations",
              "type": "bool"
            },
            {
              "internalType": "uint32",
              "name": "vlp_token",
              "type": "uint32"
            },
            {
              "internalType": "uint64",
              "name": "max_vlp_supply",
              "type": "uint64"
            },
            {
              "internalType": "bool",
              "name": "order_side",
              "type": "bool"
            },
            {
              "internalType": "uint64",
              "name": "position_size",
              "type": "uint64"
            },
            {
              "internalType": "uint64",
              "name": "margin",
              "type": "uint64"
            },
            {
              "internalType": "uint64",
              "name": "entry_price",
              "type": "uint64"
            },
            {
              "internalType": "uint64",
              "name": "liquidation_price",
              "type": "uint64"
            },
            {
              "internalType": "uint64",
              "name": "bankruptcy_price",
              "type": "uint64"
            },
            {
              "internalType": "uint32",
              "name": "last_funding_idx",
              "type": "uint32"
            },
            {
              "internalType": "uint64",
              "name": "vlp_supply",
              "type": "uint64"
            }
          ],
          "internalType": "struct Position",
          "name": "position_a",
          "type": "tuple"
        },
        {
          "internalType": "uint64",
          "name": "closePrice",
          "type": "uint64"
        },
        {
          "components": [
            {
              "internalType": "uint64",
              "name": "index",
              "type": "uint64"
            },
            {
              "internalType": "uint32",
              "name": "synthetic_token",
              "type": "uint32"
            },
            {
              "internalType": "uint256",
              "name": "position_address",
              "type": "uint256"
            },
            {
              "internalType": "bool",
              "name": "allow_partial_liquidations",
              "type": "bool"
            },
            {
              "internalType": "uint32",
              "name": "vlp_token",
              "type": "uint32"
            },
            {
              "internalType": "uint64",
              "name": "max_vlp_supply",
              "type": "uint64"
            },
            {
              "internalType": "bool",
              "name": "order_side",
              "type": "bool"
            },
            {
              "internalType": "uint64",
              "name": "position_size",
              "type": "uint64"
            },
            {
              "internalType": "uint64",
              "name": "margin",
              "type": "uint64"
            },
            {
              "internalType": "uint64",
              "name": "entry_price",
              "type": "uint64"
            },
            {
              "internalType": "uint64",
              "name": "liquidation_price",
              "type": "uint64"
            },
            {
              "internalType": "uint64",
              "name": "bankruptcy_price",
              "type": "uint64"
            },
            {
              "internalType": "uint32",
              "name": "last_funding_idx",
              "type": "uint32"
            },
            {
              "internalType": "uint64",
              "name": "vlp_supply",
              "type": "uint64"
            }
          ],
          "internalType": "struct Position",
          "name": "position_b",
          "type": "tuple"
        },
        {
          "internalType": "address",
          "name": "recipient",
          "type": "address"
        },
        {
          "internalType": "uint256[2]",
          "name": "signature_a",
          "type": "uint256[2]"
        },
        {
          "internalType": "uint256[2]",
          "name": "signature_b",
          "type": "uint256[2]"
        }
      ],
      "name": "startPositionEscape",
      "outputs": [],
      "stateMutability": "nonpayable",
      "type": "function"
    },
    {
      "inputs": [
        {
          "components": [
            {
              "internalType": "uint64",
              "name": "index",
              "type": "uint64"
            },
            {
              "internalType": "uint32",
              "name": "synthetic_token",
              "type": "uint32"
            },
            {
              "internalType": "uint256",
              "name": "position_address",
              "type": "uint256"
            },
            {
              "internalType": "bool",
              "name": "allow_partial_liquidations",
              "type": "bool"
            },
            {
              "internalType": "uint32",
              "name": "vlp_token",
              "type": "uint32"
            },
            {
              "internalType": "uint64",
              "name": "max_vlp_supply",
              "type": "uint64"
            },
            {
              "internalType": "bool",
              "name": "order_side",
              "type": "bool"
            },
            {
              "internalType": "uint64",
              "name": "position_size",
              "type": "uint64"
            },
            {
              "internalType": "uint64",
              "name": "margin",
              "type": "uint64"
            },
            {
              "internalType": "uint64",
              "name": "entry_price",
              "type": "uint64"
            },
            {
              "internalType": "uint64",
              "name": "liquidation_price",
              "type": "uint64"
            },
            {
              "internalType": "uint64",
              "name": "bankruptcy_price",
              "type": "uint64"
            },
            {
              "internalType": "uint32",
              "name": "last_funding_idx",
              "type": "uint32"
            },
            {
              "internalType": "uint64",
              "name": "vlp_supply",
              "type": "uint64"
            }
          ],
          "internalType": "struct Position",
          "name": "position_a",
          "type": "tuple"
        },
        {
          "internalType": "uint64",
          "name": "closePrice",
          "type": "uint64"
        },
        {
          "components": [
            {
              "internalType": "uint64",
              "name": "initial_margin",
              "type": "uint64"
            },
            {
              "internalType": "uint32",
              "name": "collateral_token",
              "type": "uint32"
            },
            {
              "components": [
                {
                  "internalType": "uint64",
                  "name": "index",
                  "type": "uint64"
                },
                {
                  "internalType": "uint256",
                  "name": "addressX",
                  "type": "uint256"
                },
                {
                  "internalType": "uint256",
                  "name": "addressY",
                  "type": "uint256"
                },
                {
                  "internalType": "uint32",
                  "name": "token",
                  "type": "uint32"
                },
                {
                  "internalType": "uint64",
                  "name": "amount",
                  "type": "uint64"
                },
                {
                  "internalType": "uint256",
                  "name": "blinding",
                  "type": "uint256"
                }
              ],
              "internalType": "struct Note[]",
              "name": "notes_in",
              "type": "tuple[]"
            },
            {
              "components": [
                {
                  "internalType": "uint64",
                  "name": "index",
                  "type": "uint64"
                },
                {
                  "internalType": "uint256",
                  "name": "addressX",
                  "type": "uint256"
                },
                {
                  "internalType": "uint256",
                  "name": "addressY",
                  "type": "uint256"
                },
                {
                  "internalType": "uint32",
                  "name": "token",
                  "type": "uint32"
                },
                {
                  "internalType": "uint64",
                  "name": "amount",
                  "type": "uint64"
                },
                {
                  "internalType": "uint256",
                  "name": "blinding",
                  "type": "uint256"
                }
              ],
              "internalType": "struct Note",
              "name": "refund_note",
              "type": "tuple"
            },
            {
              "internalType": "uint256",
              "name": "position_address",
              "type": "uint256"
            },
            {
              "internalType": "bool",
              "name": "allow_partial_liquidations",
              "type": "bool"
            }
          ],
          "internalType": "struct OpenOrderFields",
          "name": "openOrderFields_b",
          "type": "tuple"
        },
        {
          "internalType": "address",
          "name": "recipient",
          "type": "address"
        },
        {
          "internalType": "uint256[2]",
          "name": "signature_a",
          "type": "uint256[2]"
        },
        {
          "internalType": "uint256[2]",
          "name": "signature_b",
          "type": "uint256[2]"
        }
      ],
      "name": "startPositionEscape",
      "outputs": [],
      "stateMutability": "nonpayable",
      "type": "function"
    },
    {
      "inputs": [
        {
          "internalType": "uint8",
          "name": "option",
          "type": "uint8"
        }
      ],
      "name": "test",
      "outputs": [],
      "stateMutability": "nonpayable",
      "type": "function"
    },
    {
      "inputs": [
        {
          "internalType": "address",
          "name": "newOwner",
          "type": "address"
        }
      ],
      "name": "transferOwnership",
      "outputs": [],
      "stateMutability": "nonpayable",
      "type": "function"
    },
    {
      "inputs": [
        {
          "components": [
            {
              "internalType": "uint256",
              "name": "batched_escape_info",
              "type": "uint256"
            },
            {
              "internalType": "uint256",
              "name": "escape_message_hash",
              "type": "uint256"
            },
            {
              "internalType": "uint256",
              "name": "signature_r",
              "type": "uint256"
            },
            {
              "internalType": "uint256",
              "name": "signature_s",
              "type": "uint256"
            }
          ],
          "internalType": "struct EscapeOutput[]",
          "name": "escapeOutputs",
          "type": "tuple[]"
        }
      ],
      "name": "updatePendingEscapes",
      "outputs": [],
      "stateMutability": "nonpayable",
      "type": "function"
    },
    {
      "inputs": [
        {
          "components": [
            {
              "internalType": "uint256",
              "name": "batched_escape_info",
              "type": "uint256"
            },
            {
              "internalType": "address",
              "name": "recipient",
              "type": "address"
            },
            {
              "internalType": "uint256",
              "name": "escape_message_hash",
              "type": "uint256"
            },
            {
              "internalType": "uint256",
              "name": "signature_a_r",
              "type": "uint256"
            },
            {
              "internalType": "uint256",
              "name": "signature_a_s",
              "type": "uint256"
            },
            {
              "internalType": "uint256",
              "name": "signature_b_r",
              "type": "uint256"
            },
            {
              "internalType": "uint256",
              "name": "signature_b_s",
              "type": "uint256"
            }
          ],
          "internalType": "struct PositionEscapeOutput[]",
          "name": "escapeOutputs",
          "type": "tuple[]"
        }
      ],
      "name": "updatePendingPositionEscapes",
      "outputs": [],
      "stateMutability": "nonpayable",
      "type": "function"
    },
    {
      "inputs": [
        {
          "internalType": "address",
          "name": "newImplementation",
          "type": "address"
        },
        {
          "internalType": "bytes",
          "name": "data",
          "type": "bytes"
        }
      ],
      "name": "upgradeToAndCall",
      "outputs": [],
      "stateMutability": "payable",
      "type": "function"
    },
    {
      "inputs": [],
      "name": "version",
      "outputs": [
        {
          "internalType": "uint256",
          "name": "",
          "type": "uint256"
        }
      ],
      "stateMutability": "view",
      "type": "function"
    },
    {
      "inputs": [
        {
          "internalType": "uint32",
          "name": "escapeId",
          "type": "uint32"
        },
        {
          "internalType": "uint32",
          "name": "tokenId",
          "type": "uint32"
        }
      ],
      "name": "withdrawForcedEscape",
      "outputs": [],
      "stateMutability": "nonpayable",
      "type": "function"
    }
  ],
  "bytecode": "0x60a0806040523461002a5730608052613f1e90816100308239608051818181612168015261225f0152f35b600080fdfe6080604052600436101561001257600080fd5b6000803560e01c80630729c105146130135780631ac8bd1814612da55780633031b17014612876578063350eccc9146128225780633e5a442b146124c35780634d90b6e0146124845780634f1ef286146121e257806352d1902d1461214d57806352fa4c5314611f7f57806354fd4d5014611f615780635df99ff414611f3e57806364092f4f14611ed9578063715018a614611e5d57806380be89d814611afa5780638da5cb5b14611ab4578063ad3cb1cc14611a1d578063b657b839146119c6578063c4d66de814611871578063c5a239da146115ed578063dd576f7a1461159e578063f1820bdc14610c6a578063f2fde38b14610c3d578063f41749a5146104fc5763fbaf89651461012557600080fd5b346104f95760603660031901126104f95760043567ffffffffffffffff81116104f557610156903690600401613177565b919091366064116104f55761017c600167080000000000001160c01b0160243510613356565b610197600167080000000000001160c01b0160443510613356565b81549063ffffffff6101aa8184166133a1565b1663ffffffff1983161783556101c7818563ffffffff8516613922565b926040516101d481613068565b818152816020820152604051946101ea86613084565b63ffffffff8516865263ffffffff42166020870152604086015260405161021081613068565b6024815b606482106104e5575050606086015260808501523360a085015263ffffffff831681526001602052604081209263ffffffff85511684549067ffffffff00000000602088015160201b169167ffffffffffffffff19161717845560408501516001850155606085015195825b60028110156102a057600190602089519901986002828901015501610280565b5085856080820151855b600281106104ce57505060a060066001600160a01b039201920151166001600160a01b0319825416179055825b84811061033757507f3b9e8d140207afbab1b39f2b424c559ff1ea3ad08b04d21fba45ae1ad2a8a78b908463ffffffff6103266040519384938342168552608060208601526080850191613c3b565b94604060248185013716930390a280f35b6001600160a01b0360045416602063ffffffff6024610362606061035c878c8a6138b4565b0161332d565b604051948593849263f6f01b8760e01b84521660048301525afa9081156104c3578591610494575b501561045057806103ba600167080000000000001160c01b0160206103b26001958a886138b4565b013510613356565b6103d9600167080000000000001160c01b0160a06103b2848a886138b4565b6103ef60806103e98389876138b4565b01613437565b63ffffffff8516865260026020526040862063ffffffff610416606061035c868c8a6138b4565b1660005260205260406000209067ffffffffffffffff61043a835492828416613290565b169067ffffffffffffffff1916179055016102d7565b606460405162461bcd60e51b815260206004820152601460248201527f546f6b656e206e6f7420726567697374657265640000000000000000000000006044820152fd5b6104b6915060203d6020116104bc575b6104ae81836130bd565b81019061333e565b8661038a565b503d6104a4565b6040513d87823e3d90fd5b6001906020835193019260048286010155016102aa565b8135815260209182019101610214565b5080fd5b80fd5b50346104f957600319903682016102a081126104f5576101c0136104f95761052261314a565b9167ffffffffffffffff6101e435116104f557610160906101e435360301126104f9576001600160a01b0361020435166102043503610aa55736610264116104f957366102a4116104f95780549163ffffffff6105808185166133a1565b1663ffffffff1984161782556105ad600167080000000000001160c01b016101246101e435013510613356565b81805b6105c660446101e435016101e435600401613d7b565b90508410156106955761068d60019161060c61d90363ffffffff610605606061035c8b6105ff60446101e435016101e435600401613d7b565b906138b4565b1614613db1565b61063a600167080000000000001160c01b0160206103b2896105ff60446101e435016101e435600401613d7b565b610668600167080000000000001160c01b0160a06103b2896105ff60446101e435016101e435600401613d7b565b61068760806103e9886105ff60446101e435016101e435600401613d7b565b90613290565b9301926105b0565b849060e46101e4350167ffffffffffffffff6106b082613437565b16610b85575b67ffffffffffffffff6106c98192613437565b1691160367ffffffffffffffff8111610b715767ffffffffffffffff806106f56101e435600401613437565b16911603610b2d5761d90363ffffffff61071460246101e4350161332d565b1603610ae9576001600160a01b0360055416602060405180927f8ed2ff18000000000000000000000000000000000000000000000000000000008252826004830152818061076b602482016101e435600401613c74565b03915afa8015610ade578390610aaa575b610793915061020435908563ffffffff85166136aa565b9167ffffffffffffffff841615610aa55760843563ffffffff8116809103610aa557610a3b576107d4600167080000000000001160c01b0160443510613356565b6107f0600167080000000000001160c01b016102243510613356565b61080c600167080000000000001160c01b016102443510613356565b610828600167080000000000001160c01b016102643510613356565b610844600167080000000000001160c01b016102843510613356565b6040519261085184613084565b63ffffffff8316845263ffffffff42166020850152604084015260405161087781613068565b610224815b6102648210610a2b575050606084015260405161089881613068565b610264815b6102a48210610a1b57505060808401526001600160a01b03610204351660a084015263ffffffff8216600052600160205260406000209363ffffffff84511685549067ffffffff00000000602087015160201b169167ffffffffffffffff1916171785556040840151600186015560608401519260005b600281101561093457600190602086519601956002828a01015501610914565b5085935084608081015160005b60028110610a04575050916109d567ffffffffffffffff927f11732e657240425ed105b3b18626aefac55a7336ce4ed7e241fed7931dc03c51946001600160a01b0360a060068a01920151166001600160a01b031982541617905560405193849363ffffffff6102c0931685521660208401526109c060408401613561565b8061020084015282016101e435600401613c74565b6001600160a01b036102043516610220830152604061022461024084013760406102646102808401370390a180f35b600190602083519301926004828a01015501610941565b813581526020918201910161089d565b813581526020918201910161087c565b608460405162461bcd60e51b815260206004820152603860248201527f43616e6e6f7420666f72636520657363617065206120736d61727420636f6e7460448201527f7261637420696e697469746174656420706f736974696f6e00000000000000006064820152fd5b600080fd5b506020813d602011610ad6575b81610ac4602093836130bd565b81010312610aa557610793905161077c565b3d9150610ab7565b6040513d85823e3d90fd5b606460405162461bcd60e51b815260206004820152601860248201527f496e76616c696420636f6c6c61746572616c20746f6b656e00000000000000006044820152fd5b606460405162461bcd60e51b815260206004820152601660248201527f496e76616c696420696e697469616c206d617267696e000000000000000000006044820152fd5b602483634e487b7160e01b81526011600452fd5b610b9f61d90363ffffffff61060560c46101e4350161332d565b610bae60646101e43501613437565b610bc460446101e435016101e435600401613d7b565b15610c295767ffffffffffffffff610bdc8192613437565b16911603156106b657606460405162461bcd60e51b815260206004820152601960248201527f696e76616c696420726566756e645f6e6f74655f696e646578000000000000006044820152fd5b602486634e487b7160e01b81526032600452fd5b50346104f95760203660031901126104f957610c67610c5a613052565b610c62613d18565b613b9d565b80f35b50346104f95760203660031901126104f95760043560ff81168091036104f55780610d85575060017f3b9e8d140207afbab1b39f2b424c559ff1ea3ad08b04d21fba45ae1ad2a8a78b610d74610cbe613a86565b604051610cca81613084565b8481527a0499cceb47a74b59b2ee32548378da0a9f09b1a903be4d64d8d8ed908160208201527a0819ea277dec0e5a77188ddd37b39cc5edceaba903be4d64d8d8ed604082015263d623f7fd60608201526305f5e10060808201528160a0820152610d3483613219565b52610d3e82613219565b5060405190610d4c82613068565b8082526020820152610d7f6040519384936239e57e8552608060208601526080850190613af0565b916040840190613b75565b0390a280f35b600190808203610f18575050604051610100908181019181831067ffffffffffffffff841117610f0257610efe610180927f0ca0b32713afb658f82cf58cf8a093dd7f2415a2f2c91017c828a42260d151c094604052600b815263d623f7fd6020820152638fdd705b604082015267ffffffffffffffff60e07a0499cceb47a74b59b2ee32548378da0a9f09b1a903be4d64d8d8ed928360608201527a05c82ed8767257750016403744a2b840abe7387f8cf4c69311fba860808201527a17c79343f08fa5a0231be3945c174ce7161337360a28128862594f60a08201526314dc938060c082015263773594008282015260405193610e8385613068565b808552602085015260405195600287526239e57e6020880152838251166040880152602082015163ffffffff80911660608901526040830151166080880152606082015160a0880152608082015160c088015260a0820151838801528360c08301511690870152015116610120840152610140830190613b75565ba180f35b634e487b7160e01b600052604160045260246000fd5b6002810361123957506104607fae88e4192d823d2d7e9b1e5b0908ffad965c8b4dcb5fdc88c655c9b2755bfcc291610efe60405191610f56836130a0565b6007835261122e631b0bc2a88060208601528785817a0499cceb47a74b59b2ee32548378da0a9f09b1a903be4d64d8d8ed958660408401528060608401528160808401528160a08401528060c08401526302ebae406305f5e1008060e08601526101008181870152610120918287015261014085818801526308f0d1806101609387858a01526101809688888b0152886101a0809b01526040519b610ffa8d6130a0565b60078d5260208d01528d60408d01528060608d01528860808d01528860a08d015260c08c0152630bebc20060e08c01526302faf08080948c01528a01528801528601528401528201526112086040519161105383613068565b8483528460208401526040519461106986613068565b808652602086015261114060405197600389526305e308c860208a0152604089019067ffffffffffffffff808251168352602082015163ffffffff8091166020850152604083015160408501526060830151151560608501528060808401511660808501528160a08401511660a085015260c0830151151560c08501528160e08401511660e085015261010082818501511690850152610120828185015116908501526101408281850151169085015261016082818501511690850152610180908184015116908401526101a08092015116910152565b805167ffffffffffffffff908116610200890152602082015163ffffffff9081166102208a015260408301516102408a0152606083015115156102608a0152608083015181166102808a015260a083015182166102a08a015260c083015115156102c08a015260e083015182166102e08a015261010083015182166103008a015261012083015182166103208a015261014083015182166103408a015261016083015182166103608a0152610180830151166103808901526101a090910151166103a0870152565b732b2ea7ec7e366666772daaf496817c14b8c0ae746103c08601526103e0850190613b75565b610420830190613b75565b600314611245575b5080f35b60405190611252826130a0565b60078252631b0bc2a88060208401527a0499cceb47a74b59b2ee32548378da0a9f09b1a903be4d64d8d8ed8060408501528260608501528460808501528460a08501528260c08501526305f5e100928360e086015283610100860152836101208601528561014086015261016090868287015286610180870152866101a08701526112db613a86565b604051946112e886613084565b8286528460208701527a0819ea277dec0e5a77188ddd37b39cc5edceaba903be4d64d8d8ed958660408201526060810163d623f7fd90528760808201528560a082015261133483613219565b5261133e82613219565b506040519561134c87613084565b60078752856020880152604087015260608601528560808601528360a08601526040519561137987613084565b8652602086019261d90384526040870191825260608701958652608087019185835260a08801938452604051946113af86613068565b868652866020870152604051966113c588613068565b8088526020880152604051998a996102c09160048c5260208c016305e308c8905260408c016114a39167ffffffffffffffff808251168352602082015163ffffffff8091166020850152604083015160408501526060830151151560608501528060808401511660808501528160a08401511660a085015260c0830151151560c08501528160e08401511660e085015261010082818501511690850152610120828185015116908501526101408281850151169085015261016082818501511690850152610180908184015116908401526101a08092015116910152565b816102008c01525167ffffffffffffffff16908a01525163ffffffff166102e0890152519061030088015261042087016114dc91613af0565b9451805167ffffffffffffffff90811661032089015260208201516103408901526040820151610360890152606082015163ffffffff166103808901526080820151166103a088015260a001516103c0870152516103e08601525115156104008501526102208401732b2ea7ec7e366666772daaf496817c14b8c0ae749052610240840161156991613b75565b610280830161157791613b75565b037f11732e657240425ed105b3b18626aefac55a7336ce4ed7e241fed7931dc03c5191a180f35b50346104f95760403660031901126104f9576115b861310a565b906024359067ffffffffffffffff82116104f95760206115e5846115df3660048701613177565b91613922565b604051908152f35b50346104f9576102403660031901126104f95761160861310a565b906101c03660231901126104f957506101e43567ffffffffffffffff91828216809203610aa557610224356001600160a01b0393848216809203610aa5576040519161165383613084565b6005835260209560a0368886013763ffffffff80951661167285613219565b52600554169160405194633643eae560e11b8652602435828116809103610aa5576004870152604435818116809103610aa55760248701526064356044870152608435801515809103610aa557606487015260a435818116809103610aa557608487015260c435828116809103610aa55760a487015260e435801515809103610aa55760c4870152610104908135838116809103610aa55760e488015261012491823590848216809203610aa55788015261014491823590848216809203610aa55788015261016491823590848216809203610aa55788015261018491823590848216809203610aa5578801526101a4918235918216809203610aa5578701526101c48035928316809303610aa5578892879283015281855afa801561183257869460009161183e575b50946117e9956117ab8561323c565b526117b58461324c565b52610204356117c38461325c565b526117cd8361326c565b526040518080958194634eeb4f3560e11b83526004830161366e565b03915afa90811561183257600091611805575b50604051908152f35b90508181813d831161182b575b61181c81836130bd565b81010312610aa55751386117fc565b503d611812565b6040513d6000823e3d90fd5b85819692503d831161186a575b61185581836130bd565b81010312610aa55792518593906117e961179c565b503d61184b565b50346104f95760203660031901126104f95761188b613052565b7ff0c57e16840df040f15088dc2f81fe391c3923bec73e23a9662efc9c229c6a0090815460ff8160401c16159167ffffffffffffffff8216801590816119be575b60011490816119b4575b1590816119ab575b506119815767ffffffffffffffff198216600117845561190f9183611962575b50611907613dfc565b610c62613dfc565b611917613dfc565b6001600655611924575080f35b68ff00000000000000001981541690557fc7f505b2f371ae2175ee4913f4499e1f2633a7b5936321eed1cdaeb6115181d2602060405160018152a180f35b68ffffffffffffffffff191668010000000000000001178455386118fe565b60046040517ff92ee8a9000000000000000000000000000000000000000000000000000000008152fd5b905015386118de565b303b1591506118d6565b8491506118cc565b50346104f95760403660031901126104f9576119e061310a565b60406119ea6130f7565b9263ffffffff80931681526002602052209116600052602052602067ffffffffffffffff60406000205416604051908152f35b50346104f957806003193601126104f957604051611a3a81613068565b600581526020917f352e302e30000000000000000000000000000000000000000000000000000000602083015260405192839160208352835191826020850152815b838110611a9d57505060408094508284010152601f80199101168101030190f35b808601820151878201604001528694508101611a7c565b50346104f957806003193601126104f95760206001600160a01b037f9016d09d72d40fdae2fd8ceac6b6234c7706214fd39c1cd1e609a0528c1993005416604051908152f35b50346104f95736600319019061044082126104f9576101c08092126104f957611b2161314a565b91366101e31901126104f9576103a435916001600160a01b0383168303610aa55736610404116104f55736610444116104f55781549163ffffffff611b678185166133a1565b1663ffffffff198416178155600167080000000000001160c01b0192611b91846102243510613356565b6101c460206001600160a01b036005541660405192838092633643eae560e11b8252611bbf6004830161344c565b5afa8015610ade5786908490611e27575b611be292508563ffffffff85166136aa565b9367ffffffffffffffff841615610aa55760843563ffffffff8116809103610aa557610a3b5780611c19611c4d9260443510613356565b611c27816103c43510613356565b611c35816103e43510613356565b611c43816104043510613356565b6104243510613356565b60405193611c5a85613084565b63ffffffff8216855263ffffffff421660208601526040850152604051611c8081613068565b6103c4815b6104048210611e175750506060850152604051611ca181613068565b610404815b6104448210611e0757505060808501526001600160a01b03851660a085015263ffffffff8116600052600160205260406000209463ffffffff85511686549067ffffffff00000000602088015160201b169167ffffffffffffffff1916171786556040850151600187015560608501519360005b6002811015611d3a57600190602087519701966002828b01015501611d1a565b5086945085608081015160005b60028110611df05750506104609267ffffffffffffffff7fae88e4192d823d2d7e9b1e5b0908ffad965c8b4dcb5fdc88c655c9b2755bfcc295936001600160a01b03938460a060068c01920151166001600160a01b031982541617905563ffffffff60405195168552166020840152611dc260408401613561565b611dcf610200840161344c565b166103c082015260406103c46103e08301376040610404610420830137a180f35b600190602083519301926004828b01015501611d47565b8135815260209182019101611ca6565b8135815260209182019101611c85565b50506020813d602011611e55575b81611e42602093836130bd565b81010312610aa55785611be29151611bd0565b3d9150611e35565b50346104f957806003193601126104f957611e76613d18565b60006001600160a01b037f9016d09d72d40fdae2fd8ceac6b6234c7706214fd39c1cd1e609a0528c1993008054906001600160a01b031982169055167f8be0079c531659141344cd1fd0a4f28419497f9722a3daafe3b4186f6b6457e08280a380f35b50346104f95760203660031901126104f957608090604063ffffffff9182611eff61310a565b168152600160205220908154916001600160a01b0360066001830154920154169160405193818116855260201c16602084015260408301526060820152f35b50346104f957806003193601126104f95763ffffffff6020915416604051908152f35b50346104f957806003193601126104f9576020600654604051908152f35b50346104f9576020806003193601126104f55767ffffffffffffffff906004358281116121495736602382011215612149576024906004810135611fc2816130df565b94611fd060405196876130bd565b81865260248587019260071b8401019236841161214557602401915b8383106120dc578787876001600160a01b039061200e826004541633146131a8565b835b83518110156120d857806120266001928661327c565b51805183918663ffffffff8360101c169287830151906060604085015194015193858d52868a5260408d209287840154036120cc576002830154036120c15760039384830154036120c15760081c60ff168514612097575b50505087528352612091604087206132d9565b01612010565b6006015416895285526040882081600052855260406000208260ff1982541617905588868161207e565b505050505050612091565b50505050505050612091565b8480f35b60808084360312612141576040519081018181108482111761212c579187916080936040528535815282860135838201526040860135604082015260608087013590820152815201920191611fec565b86634e487b7160e01b60005260416004526000fd5b8880fd5b8780fd5b8380fd5b50346104f957806003193601126104f9576001600160a01b037f00000000000000000000000000000000000000000000000000000000000000001630036121b85760206040517f360894a13ba1a3210667c828492db98dca3e2076cc3735a920a3ca505d382bbc8152f35b60046040517fe07c8dba000000000000000000000000000000000000000000000000000000008152fd5b5060403660031901126104f9576121f7613052565b602491823567ffffffffffffffff81116104f557366023820112156104f55780600401356122248161312e565b9361223260405195866130bd565b818552602091828601933688838301011161248057818692898693018737870101526001600160a01b03807f000000000000000000000000000000000000000000000000000000000000000016803014908115612452575b506121b857612297613d18565b8116946040517f52d1902d00000000000000000000000000000000000000000000000000000000815283816004818a5afa86918161241f575b506122ec57878760405190634c9c8ce360e01b82526004820152fd5b8690887f360894a13ba1a3210667c828492db98dca3e2076cc3735a920a3ca505d382bbc918281036123f15750843b156123db575080546001600160a01b031916821790556040518692917fbc7cd75a20ee27fd9adebab32041f755214dbc6bffa90cc0225b39da2e5c2d3b8480a28151156123a457506112419482915190845af4903d1561239b573d61237f8161312e565b9061238d60405192836130bd565b81528581943d92013e613e55565b60609250613e55565b945050505050346123b3575080f35b807fb398979f0000000000000000000000000000000000000000000000000000000060049252fd5b8260405190634c9c8ce360e01b82526004820152fd5b604051907faa1d49a40000000000000000000000000000000000000000000000000000000082526004820152fd5b9091508481813d831161244b575b61243781836130bd565b81010312612447575190386122d0565b8680fd5b503d61242d565b9050817f360894a13ba1a3210667c828492db98dca3e2076cc3735a920a3ca505d382bbc541614153861228a565b8580fd5b50346104f95760203660031901126104f9576001600160a01b036124a6613052565b6124ae613d18565b166001600160a01b0319600554161760055580f35b50346104f95760403660031901126104f9576124dd61310a565b6124e56130f7565b907f9b779b17422d0df92223018b32b4d1fa46e071723d6817e2486d003becc55f009060028254146127f8576002825563ffffffff92338552602090600382528460408720931692838752825260ff604087205416156127b457828652600282528460408720911690818752825267ffffffffffffffff918260408820541692831561277057848852600282526040882083895282526040882067ffffffffffffffff1981541690556001600160a01b039088826004541692604051937f6d3ed7470000000000000000000000000000000000000000000000000000000085528760048601528660248601528585604481845afa948515610ade57839561273d575b506040517f543d7a190000000000000000000000000000000000000000000000000000000081528760048201528681602481855afa9081156127325784916126fc575b50813b15612149578360649260405197889586947f5250e16800000000000000000000000000000000000000000000000000000000865216600485015233602485015260448401525af180156126f1576126cc575b5050917f015f0cd55798d1984fe6c6778bca0370117205807f686a114c5836c50c44485c939160a09360019760405194855242169084015260408301526060820152336080820152a15580f35b81116126dd576040528160a061267f565b602488634e487b7160e01b81526041600452fd5b6040513d8b823e3d90fd5b90508681813d831161272b575b61271381836130bd565b8101031261214957518281168103612149573861262a565b503d612709565b6040513d86823e3d90fd5b9094508581813d8311612769575b61275581836130bd565b81010312612765575193386125e7565b8280fd5b503d61274b565b6064826040519062461bcd60e51b82526004820152601a60248201527f4e6f206573636170656420616d6f756e7420746f20636c61696d0000000000006044820152fd5b6064826040519062461bcd60e51b82526004820152601660248201527f496e76616c69642065736361706520617474656d7074000000000000000000006044820152fd5b60046040517f3ee5aeb5000000000000000000000000000000000000000000000000000000008152fd5b50346104f95760403660031901126104f95760ff6040602092612843613052565b6001600160a01b036128536130f7565b911682526003855263ffffffff8383209116825284522054166040519015158152f35b50346104f957366003190161014081126104f557610100136104f9576101443681116104f5576001600160a01b03600454166128b0613307565b60405163ffffffff63f6f01b8760e01b92838352166004820152602081602481865afa9081156104c3578591612d86575b5015612d425763ffffffff9160246020926128fa61331a565b92604051958694859384521660048301525afa908115610ade578391612d23575b5015612cdf57612972600167080000000000001160c01b016129408160643510613356565b61294d8160843510613356565b61295a8160a43510613356565b612968816101043510613356565b6101243510613356565b815463ffffffff6129848183166133a1565b1663ffffffff1982161783556001600160a01b0360055416916040517f770f9bfa0000000000000000000000000000000000000000000000000000000081526129cf600482016133b6565b60208161010481875afa80156104c3578590612ca8575b602091506044604051809681937f511c53ff000000000000000000000000000000000000000000000000000000008352600483015263ffffffff871660248301525afa928315612732578493612c74575b5060405190612a4582613068565b84825284602083015260405193612a5b85613084565b63ffffffff8416855263ffffffff42166020860152604085015260405190612a8282613068565b610104825b828210612c6457505050606084015260808301523360a083015263ffffffff811683526001602052604083209263ffffffff83511684549067ffffffff00000000602086015160201b169167ffffffffffffffff19161717845560408301516001850155606083015191815b6002811015612b1357600190602085519501946002828901015501612af3565b5083856080820151845b60028110612c4d57505060a060066001600160a01b039201920151166001600160a01b031982541617905560c4359067ffffffffffffffff9182811681036121495760026020526040842063ffffffff612b75613307565b168552602052604084209083612b8f835492828416613290565b169067ffffffffffffffff191617905560e435908282168203612149577f0ca0b32713afb658f82cf58cf8a093dd7f2415a2f2c91017c828a42260d151c0926101809263ffffffff8316865260026020526040862063ffffffff612bf161331a565b1687526020526040862091612c0a835492828416613290565b169067ffffffffffffffff191617905563ffffffff6040519116815263ffffffff42166020820152612c3e604082016133b6565b6040610104610140830137a180f35b600190602083519301926004828601015501612b1d565b8135815260209182019101612a87565b9092506020813d602011612ca0575b81612c90602093836130bd565b8101031261214957519138612a37565b3d9150612c83565b506020813d602011612cd7575b81612cc2602093836130bd565b81010312612cd357602090516129e6565b8480fd5b3d9150612cb5565b606460405162461bcd60e51b815260206004820152601a60248201527f51756f746520546f6b656e206e6f7420726567697374657265640000000000006044820152fd5b612d3c915060203d6020116104bc576104ae81836130bd565b3861291b565b606460405162461bcd60e51b815260206004820152601960248201527f4261736520746f6b656e206e6f742072656769737465726564000000000000006044820152fd5b612d9f915060203d6020116104bc576104ae81836130bd565b386128e1565b50346104f9576020806003193601126104f5576004359167ffffffffffffffff908184116104f957366023850112156104f9576024936004810135612de9816130df565b95612df760405197886130bd565b818752602460e0878901930284010192368411612cd357602401915b838310612f8257505050506001600160a01b0390612e36826004541633146131a8565b805b85518110156112415780612e4e6001928861327c565b51805187849263ffffffff8360081c16928883830151169160408101518a8a606084015193896080820151988a60c060a085015194015194525260408d20938a85015403612f73576002948585015403612f73576003978885015403612f7357600484015403612f6557600583015403612f58576006859201541603612f4d578560ff831614612ef2575b50505050508652612eec604084206132d9565b01612e38565b8b526040882061d90389528b5260408820908a612f188184549360281c16828416613290565b169067ffffffffffffffff191617905586528852604085209085528752604084208160ff198254161790553880808080612ed9565b505050505050612eec565b5050505050505050612eec565b505050505050505050612eec565b50505050505050505050612eec565b60e083360312612cd35760405160e08101818110888211176130005760405283358152878401356001600160a01b038116810361244757918160e0938a8094015260408601356040820152606080870135908201526080808701359082015260a0808701359082015260c08087013590820152815201920191612e13565b8387634e487b7160e01b81526041600452fd5b50346104f95760203660031901126104f9576001600160a01b03613035613052565b61303d613d18565b166001600160a01b0319600454161760045580f35b600435906001600160a01b0382168203610aa557565b6040810190811067ffffffffffffffff821117610f0257604052565b60c0810190811067ffffffffffffffff821117610f0257604052565b6101c0810190811067ffffffffffffffff821117610f0257604052565b90601f8019910116810190811067ffffffffffffffff821117610f0257604052565b67ffffffffffffffff8111610f025760051b60200190565b6024359063ffffffff82168203610aa557565b6004359063ffffffff82168203610aa557565b359063ffffffff82168203610aa557565b67ffffffffffffffff8111610f0257601f01601f191660200190565b6101c4359067ffffffffffffffff82168203610aa557565b359067ffffffffffffffff82168203610aa557565b9181601f84011215610aa55782359167ffffffffffffffff8311610aa55760208085019460c08502010111610aa557565b156131af57565b608460405162461bcd60e51b815260206004820152602e60248201527f4f6e6c7920696e76697369626c6520636f6e74726163742063616e2063616c6c60448201527f20746869732066756e6374696f6e0000000000000000000000000000000000006064820152fd5b8051156132265760200190565b634e487b7160e01b600052603260045260246000fd5b8051600110156132265760400190565b8051600210156132265760600190565b8051600310156132265760800190565b8051600410156132265760a00190565b80518210156132265760209160051b010190565b91909167ffffffffffffffff808094169116019182116132ac57565b634e487b7160e01b600052601160045260246000fd5b8181106132cd575050565b600081556001016132c2565b600090818155816001820155613304600660048301926132fc84600283016132c2565b0180926132c2565b55565b60243563ffffffff81168103610aa55790565b60443563ffffffff81168103610aa55790565b3563ffffffff81168103610aa55790565b90816020910312610aa557518015158103610aa55790565b1561335d57565b606460405162461bcd60e51b815260206004820152601360248201527f6e756d626572206e6f7420696e2072616e6765000000000000000000000000006044820152fd5b63ffffffff8091169081146132ac5760010190565b6004359067ffffffffffffffff91828116809103610aa557815260243563ffffffff90818116809103610aa5576020830152604435908116809103610aa55760408201526064356060820152608435608082015260a43560a082015260c435828116809103610aa55760c082015260e435918216809203610aa55760e00152565b3567ffffffffffffffff81168103610aa55790565b6101e4359067ffffffffffffffff91828116809103610aa55781526102043563ffffffff90818116809103610aa557602083015261022435604083015261024435801515809103610aa557606083015261026435818116809103610aa557608083015261028435838116809103610aa55760a08301526102a435801515809103610aa55760c08301526102c435838116809103610aa55760e08301526102e435838116809103610aa55761010083015261030435838116809103610aa55761012083015261032435838116809103610aa55761014083015261034435838116809103610aa55761016083015261036435908116809103610aa55761018082015261038435918216809203610aa5576101a00152565b6004359067ffffffffffffffff91828116809103610aa557815260243563ffffffff90818116809103610aa55760208301526044356040830152606435801515809103610aa5576060830152608435818116809103610aa557608083015260a435838116809103610aa55760a083015260c435801515809103610aa55760c083015260e435838116809103610aa55760e083015261010435838116809103610aa55761010083015261012435838116809103610aa55761012083015261014435838116809103610aa55761014083015261016435838116809103610aa55761016083015261018435908116809103610aa5576101808201526101a435918216809203610aa5576101a00152565b602090602060408183019282815285518094520193019160005b828110613696575050505090565b835185529381019392810192600101613688565b9091604051906136b982613084565b6005825260209460a0368785013763ffffffff8094166136d884613219565b526001600160a01b039081600554169260405195633643eae560e11b87526004359067ffffffffffffffff91828116809103610aa5576004890152602435818116809103610aa55760248901526044356044890152606435801515809103610aa5576064890152608435818116809103610aa557608489015260a435828116809103610aa55760a489015260c435801515809103610aa55760c489015260e435828116809103610aa55760e4890152610104803590838216809203610aa557890152610124803590838216809203610aa557890152610144803590838216809203610aa557890152610164803590838216809203610aa5578901526101848035918216809203610aa5578801526101a4803590828216809203610aa55788015288876101c481885afa8015611832578997600091613881575b5097613840986138208861323c565b521661382b8661324c565b526138358561325c565b52166117cd8361326c565b03915afa9182156118325760009261385757505090565b90809250813d831161387a575b61386e81836130bd565b81010312610aa5575190565b503d613864565b88819992503d83116138ad575b61389881836130bd565b81010312610aa5579551889690613840613811565b503d61388e565b91908110156132265760c0020190565b60a0809167ffffffffffffffff806138db83613162565b168552602082013560208601526040820135604086015263ffffffff6139036060840161311d565b16606086015261391560808301613162565b1660808501520135910152565b91906001808301928381116132ac5761393a846130df565b9161395660409561394e60405195866130bd565b8085526130df565b9363ffffffff6020978896601f190136888801371661397485613219565b526000956001600160a01b0360055416935b8088106139b1575050505061384093506040518080958194634eeb4f3560e11b83526004830161366e565b919395509193956139c38183866138b4565b8351907f071ecaad0000000000000000000000000000000000000000000000000000000082526139f8600491828401906138c4565b898260c4818b5afa918215613a7b57600092613a4c575b5086830190818411613a37575090613a298793928a61327c565b520195939187959391613986565b601190634e487b7160e01b6000525260246000fd5b90918a82813d8311613a74575b613a6381836130bd565b810103126104f95750519038613a0f565b503d613a59565b85513d6000823e3d90fd5b60409060405191613a9683613068565b60018352829160005b602080821015613ae857835160209291613ab882613084565b600082526000818301526000868301526000606083015260006080830152600060a0830152828801015201613a9f565b505091925050565b90815180825260208080930193019160005b828110613b10575050505090565b909192938260c082613b69600194895160a0809167ffffffffffffffff808251168552602082015160208601526040820151604086015263ffffffff606083015116606086015260808201511660808501520151910152565b01950193929101613b02565b6000915b60028310613b8657505050565b600190825181526020809101920192019190613b79565b6001600160a01b03809116908115613c0a577f9016d09d72d40fdae2fd8ceac6b6234c7706214fd39c1cd1e609a0528c199300805490836001600160a01b03198316179055167f8be0079c531659141344cd1fd0a4f28419497f9722a3daafe3b4186f6b6457e0600080a3565b60246040517f1e4fbdf700000000000000000000000000000000000000000000000000000000815260006004820152fd5b9160209082815201919060005b818110613c555750505090565b90919280613c65600192866138c4565b60c09081019401929101613c48565b9061016067ffffffffffffffff80613c8b85613162565b16835263ffffffff613c9f6020860161311d565b1660208401526040840135601e1985360301811215610aa5578401602081359101918111610aa55760c0810236038213610aa55782613ce5936040860152840191613c3b565b91613cf660608301606083016138c4565b61012080820135908301526101408091013591821515809303610aa557015290565b6001600160a01b037f9016d09d72d40fdae2fd8ceac6b6234c7706214fd39c1cd1e609a0528c19930054163303613d4b57565b60246040517f118cdaa7000000000000000000000000000000000000000000000000000000008152336004820152fd5b903590601e1981360301821215610aa5570180359067ffffffffffffffff8211610aa5576020019160c0820236038313610aa557565b15613db857565b606460405162461bcd60e51b815260206004820152601d60248201527f496e76616c696420636f6c6c61746572616c206e6f746520746f6b656e0000006044820152fd5b60ff7ff0c57e16840df040f15088dc2f81fe391c3923bec73e23a9662efc9c229c6a005460401c1615613e2b57565b60046040517fd7e6bcf8000000000000000000000000000000000000000000000000000000008152fd5b90613e945750805115613e6a57805190602001fd5b60046040517f1425ea42000000000000000000000000000000000000000000000000000000008152fd5b81511580613edf575b613ea5575090565b6024906001600160a01b03604051917f9996b315000000000000000000000000000000000000000000000000000000008352166004820152fd5b50803b15613e9d56fea26469706673582212209b2b1fee8d79c98fa59848d44f2d76883ef89f69adc1de6c2ba2ff41d3db542464736f6c63430008160033",
  "linkReferences": {},
  "deployedLinkReferences": {}
}