{
  "_format": "hh-sol-artifact-1",
  "contractName": "EscapeVerifier",
  "sourceName": "src/core/L1/EscapeVerifier.sol",
  "abi": [
    {
      "inputs": [
        {
          "internalType": "address",
          "name": "target",
          "type": "address"
        }
      ],
      "name": "AddressEmptyCode",
      "type": "error"
    },
    {
      "inputs": [
        {
          "internalType": "address",
          "name": "implementation",
          "type": "address"
        }
      ],
      "name": "ERC1967InvalidImplementation",
      "type": "error"
    },
    {
      "inputs": [],
      "name": "ERC1967NonPayable",
      "type": "error"
    },
    {
      "inputs": [],
      "name": "FailedInnerCall",
      "type": "error"
    },
    {
      "inputs": [],
      "name": "InvalidInitialization",
      "type": "error"
    },
    {
      "inputs": [],
      "name": "NotInitializing",
      "type": "error"
    },
    {
      "inputs": [
        {
          "internalType": "address",
          "name": "owner",
          "type": "address"
        }
      ],
      "name": "OwnableInvalidOwner",
      "type": "error"
    },
    {
      "inputs": [
        {
          "internalType": "address",
          "name": "account",
          "type": "address"
        }
      ],
      "name": "OwnableUnauthorizedAccount",
      "type": "error"
    },
    {
      "inputs": [],
      "name": "ReentrancyGuardReentrantCall",
      "type": "error"
    },
    {
      "inputs": [],
      "name": "UUPSUnauthorizedCallContext",
      "type": "error"
    },
    {
      "inputs": [
        {
          "internalType": "bytes32",
          "name": "slot",
          "type": "bytes32"
        }
      ],
      "name": "UUPSUnsupportedProxiableUUID",
      "type": "error"
    },
    {
      "anonymous": false,
      "inputs": [
        {
          "indexed": false,
          "internalType": "uint32",
          "name": "escapeId",
          "type": "uint32"
        },
        {
          "indexed": false,
          "internalType": "uint32",
          "name": "timestamp",
          "type": "uint32"
        },
        {
          "indexed": false,
          "internalType": "uint32",
          "name": "tokenId",
          "type": "uint32"
        },
        {
          "indexed": false,
          "internalType": "uint64",
          "name": "amount",
          "type": "uint64"
        },
        {
          "indexed": false,
          "internalType": "address",
          "name": "recipient",
          "type": "address"
        }
      ],
      "name": "EscapeWithdrawalEvent",
      "type": "event"
    },
    {
      "anonymous": false,
      "inputs": [
        {
          "indexed": false,
          "internalType": "uint64",
          "name": "version",
          "type": "uint64"
        }
      ],
      "name": "Initialized",
      "type": "event"
    },
    {
      "anonymous": false,
      "inputs": [
        {
          "indexed": true,
          "internalType": "uint32",
          "name": "escapeId",
          "type": "uint32"
        },
        {
          "indexed": false,
          "internalType": "uint32",
          "name": "timestamp",
          "type": "uint32"
        },
        {
          "components": [
            {
              "internalType": "uint64",
              "name": "index",
              "type": "uint64"
            },
            {
              "internalType": "uint256",
              "name": "addressX",
              "type": "uint256"
            },
            {
              "internalType": "uint256",
              "name": "addressY",
              "type": "uint256"
            },
            {
              "internalType": "uint32",
              "name": "token",
              "type": "uint32"
            },
            {
              "internalType": "uint64",
              "name": "amount",
              "type": "uint64"
            },
            {
              "internalType": "uint256",
              "name": "blinding",
              "type": "uint256"
            }
          ],
          "indexed": false,
          "internalType": "struct Note[]",
          "name": "escape_notes",
          "type": "tuple[]"
        },
        {
          "indexed": false,
          "internalType": "uint256[2]",
          "name": "signature",
          "type": "uint256[2]"
        }
      ],
      "name": "NoteEscapeEvent",
      "type": "event"
    },
    {
      "anonymous": false,
      "inputs": [
        {
          "indexed": false,
          "internalType": "uint32",
          "name": "escapeId",
          "type": "uint32"
        },
        {
          "indexed": false,
          "internalType": "uint32",
          "name": "timestamp",
          "type": "uint32"
        },
        {
          "components": [
            {
              "internalType": "uint64",
              "name": "tab_idx",
              "type": "uint64"
            },
            {
              "internalType": "uint32",
              "name": "base_token",
              "type": "uint32"
            },
            {
              "internalType": "uint32",
              "name": "quote_token",
              "type": "uint32"
            },
            {
              "internalType": "uint256",
              "name": "base_blinding",
              "type": "uint256"
            },
            {
              "internalType": "uint256",
              "name": "quote_blinding",
              "type": "uint256"
            },
            {
              "internalType": "uint256",
              "name": "pub_key",
              "type": "uint256"
            },
            {
              "internalType": "uint64",
              "name": "base_amount",
              "type": "uint64"
            },
            {
              "internalType": "uint64",
              "name": "quote_amount",
              "type": "uint64"
            }
          ],
          "indexed": false,
          "internalType": "struct OrderTab",
          "name": "orderTab",
          "type": "tuple"
        },
        {
          "indexed": false,
          "internalType": "uint256[2]",
          "name": "signature",
          "type": "uint256[2]"
        }
      ],
      "name": "OrderTabEscapeEvent",
      "type": "event"
    },
    {
      "anonymous": false,
      "inputs": [
        {
          "indexed": true,
          "internalType": "address",
          "name": "previousOwner",
          "type": "address"
        },
        {
          "indexed": true,
          "internalType": "address",
          "name": "newOwner",
          "type": "address"
        }
      ],
      "name": "OwnershipTransferred",
      "type": "event"
    },
    {
      "anonymous": false,
      "inputs": [
        {
          "indexed": false,
          "internalType": "uint32",
          "name": "escapeId",
          "type": "uint32"
        },
        {
          "indexed": false,
          "internalType": "uint64",
          "name": "closePrice",
          "type": "uint64"
        },
        {
          "components": [
            {
              "internalType": "uint64",
              "name": "index",
              "type": "uint64"
            },
            {
              "internalType": "uint32",
              "name": "synthetic_token",
              "type": "uint32"
            },
            {
              "internalType": "uint256",
              "name": "position_address",
              "type": "uint256"
            },
            {
              "internalType": "bool",
              "name": "allow_partial_liquidations",
              "type": "bool"
            },
            {
              "internalType": "uint32",
              "name": "vlp_token",
              "type": "uint32"
            },
            {
              "internalType": "bool",
              "name": "order_side",
              "type": "bool"
            },
            {
              "internalType": "uint64",
              "name": "position_size",
              "type": "uint64"
            },
            {
              "internalType": "uint64",
              "name": "margin",
              "type": "uint64"
            },
            {
              "internalType": "uint64",
              "name": "entry_price",
              "type": "uint64"
            },
            {
              "internalType": "uint64",
              "name": "liquidation_price",
              "type": "uint64"
            },
            {
              "internalType": "uint64",
              "name": "bankruptcy_price",
              "type": "uint64"
            },
            {
              "internalType": "uint32",
              "name": "last_funding_idx",
              "type": "uint32"
            },
            {
              "internalType": "uint64",
              "name": "vlp_supply",
              "type": "uint64"
            }
          ],
          "indexed": false,
          "internalType": "struct Position",
          "name": "position_a",
          "type": "tuple"
        },
        {
          "components": [
            {
              "internalType": "uint64",
              "name": "initial_margin",
              "type": "uint64"
            },
            {
              "internalType": "uint32",
              "name": "collateral_token",
              "type": "uint32"
            },
            {
              "components": [
                {
                  "internalType": "uint64",
                  "name": "index",
                  "type": "uint64"
                },
                {
                  "internalType": "uint256",
                  "name": "addressX",
                  "type": "uint256"
                },
                {
                  "internalType": "uint256",
                  "name": "addressY",
                  "type": "uint256"
                },
                {
                  "internalType": "uint32",
                  "name": "token",
                  "type": "uint32"
                },
                {
                  "internalType": "uint64",
                  "name": "amount",
                  "type": "uint64"
                },
                {
                  "internalType": "uint256",
                  "name": "blinding",
                  "type": "uint256"
                }
              ],
              "internalType": "struct Note[]",
              "name": "notes_in",
              "type": "tuple[]"
            },
            {
              "components": [
                {
                  "internalType": "uint64",
                  "name": "index",
                  "type": "uint64"
                },
                {
                  "internalType": "uint256",
                  "name": "addressX",
                  "type": "uint256"
                },
                {
                  "internalType": "uint256",
                  "name": "addressY",
                  "type": "uint256"
                },
                {
                  "internalType": "uint32",
                  "name": "token",
                  "type": "uint32"
                },
                {
                  "internalType": "uint64",
                  "name": "amount",
                  "type": "uint64"
                },
                {
                  "internalType": "uint256",
                  "name": "blinding",
                  "type": "uint256"
                }
              ],
              "internalType": "struct Note",
              "name": "refund_note",
              "type": "tuple"
            },
            {
              "internalType": "uint256",
              "name": "position_address",
              "type": "uint256"
            },
            {
              "internalType": "bool",
              "name": "allow_partial_liquidations",
              "type": "bool"
            }
          ],
          "indexed": false,
          "internalType": "struct OpenOrderFields",
          "name": "openOrderFields_b",
          "type": "tuple"
        },
        {
          "indexed": false,
          "internalType": "address",
          "name": "recipient",
          "type": "address"
        },
        {
          "indexed": false,
          "internalType": "uint256[2]",
          "name": "signature_a",
          "type": "uint256[2]"
        },
        {
          "indexed": false,
          "internalType": "uint256[2]",
          "name": "signature_b",
          "type": "uint256[2]"
        }
      ],
      "name": "PositionEscapeEventA",
      "type": "event"
    },
    {
      "anonymous": false,
      "inputs": [
        {
          "indexed": false,
          "internalType": "uint32",
          "name": "escapeId",
          "type": "uint32"
        },
        {
          "indexed": false,
          "internalType": "uint64",
          "name": "closePrice",
          "type": "uint64"
        },
        {
          "components": [
            {
              "internalType": "uint64",
              "name": "index",
              "type": "uint64"
            },
            {
              "internalType": "uint32",
              "name": "synthetic_token",
              "type": "uint32"
            },
            {
              "internalType": "uint256",
              "name": "position_address",
              "type": "uint256"
            },
            {
              "internalType": "bool",
              "name": "allow_partial_liquidations",
              "type": "bool"
            },
            {
              "internalType": "uint32",
              "name": "vlp_token",
              "type": "uint32"
            },
            {
              "internalType": "bool",
              "name": "order_side",
              "type": "bool"
            },
            {
              "internalType": "uint64",
              "name": "position_size",
              "type": "uint64"
            },
            {
              "internalType": "uint64",
              "name": "margin",
              "type": "uint64"
            },
            {
              "internalType": "uint64",
              "name": "entry_price",
              "type": "uint64"
            },
            {
              "internalType": "uint64",
              "name": "liquidation_price",
              "type": "uint64"
            },
            {
              "internalType": "uint64",
              "name": "bankruptcy_price",
              "type": "uint64"
            },
            {
              "internalType": "uint32",
              "name": "last_funding_idx",
              "type": "uint32"
            },
            {
              "internalType": "uint64",
              "name": "vlp_supply",
              "type": "uint64"
            }
          ],
          "indexed": false,
          "internalType": "struct Position",
          "name": "position_a",
          "type": "tuple"
        },
        {
          "components": [
            {
              "internalType": "uint64",
              "name": "index",
              "type": "uint64"
            },
            {
              "internalType": "uint32",
              "name": "synthetic_token",
              "type": "uint32"
            },
            {
              "internalType": "uint256",
              "name": "position_address",
              "type": "uint256"
            },
            {
              "internalType": "bool",
              "name": "allow_partial_liquidations",
              "type": "bool"
            },
            {
              "internalType": "uint32",
              "name": "vlp_token",
              "type": "uint32"
            },
            {
              "internalType": "bool",
              "name": "order_side",
              "type": "bool"
            },
            {
              "internalType": "uint64",
              "name": "position_size",
              "type": "uint64"
            },
            {
              "internalType": "uint64",
              "name": "margin",
              "type": "uint64"
            },
            {
              "internalType": "uint64",
              "name": "entry_price",
              "type": "uint64"
            },
            {
              "internalType": "uint64",
              "name": "liquidation_price",
              "type": "uint64"
            },
            {
              "internalType": "uint64",
              "name": "bankruptcy_price",
              "type": "uint64"
            },
            {
              "internalType": "uint32",
              "name": "last_funding_idx",
              "type": "uint32"
            },
            {
              "internalType": "uint64",
              "name": "vlp_supply",
              "type": "uint64"
            }
          ],
          "indexed": false,
          "internalType": "struct Position",
          "name": "position_b",
          "type": "tuple"
        },
        {
          "indexed": false,
          "internalType": "address",
          "name": "recipient",
          "type": "address"
        },
        {
          "indexed": false,
          "internalType": "uint256[2]",
          "name": "signature_a",
          "type": "uint256[2]"
        },
        {
          "indexed": false,
          "internalType": "uint256[2]",
          "name": "signature_b",
          "type": "uint256[2]"
        }
      ],
      "name": "PositionEscapeEventB",
      "type": "event"
    },
    {
      "anonymous": false,
      "inputs": [
        {
          "indexed": false,
          "internalType": "bool",
          "name": "is_valid",
          "type": "bool"
        },
        {
          "indexed": false,
          "internalType": "enum EscapeType",
          "name": "escape_type",
          "type": "uint8"
        },
        {
          "indexed": false,
          "internalType": "uint32",
          "name": "escape_id",
          "type": "uint32"
        },
        {
          "indexed": false,
          "internalType": "uint256",
          "name": "escape_message_hash",
          "type": "uint256"
        },
        {
          "indexed": false,
          "internalType": "uint256",
          "name": "signature_r",
          "type": "uint256"
        },
        {
          "indexed": false,
          "internalType": "uint256",
          "name": "signature_s",
          "type": "uint256"
        }
      ],
      "name": "TestEvent",
      "type": "event"
    },
    {
      "anonymous": false,
      "inputs": [
        {
          "indexed": true,
          "internalType": "address",
          "name": "implementation",
          "type": "address"
        }
      ],
      "name": "Upgraded",
      "type": "event"
    },
    {
      "inputs": [],
      "name": "UPGRADE_INTERFACE_VERSION",
      "outputs": [
        {
          "internalType": "string",
          "name": "",
          "type": "string"
        }
      ],
      "stateMutability": "view",
      "type": "function"
    },
    {
      "inputs": [
        {
          "components": [
            {
              "internalType": "uint64",
              "name": "index",
              "type": "uint64"
            },
            {
              "internalType": "uint256",
              "name": "addressX",
              "type": "uint256"
            },
            {
              "internalType": "uint256",
              "name": "addressY",
              "type": "uint256"
            },
            {
              "internalType": "uint32",
              "name": "token",
              "type": "uint32"
            },
            {
              "internalType": "uint64",
              "name": "amount",
              "type": "uint64"
            },
            {
              "internalType": "uint256",
              "name": "blinding",
              "type": "uint256"
            }
          ],
          "internalType": "struct Note[]",
          "name": "notes",
          "type": "tuple[]"
        }
      ],
      "name": "hashNoteEscapeMessage",
      "outputs": [
        {
          "internalType": "uint256",
          "name": "",
          "type": "uint256"
        }
      ],
      "stateMutability": "view",
      "type": "function"
    },
    {
      "inputs": [
        {
          "components": [
            {
              "internalType": "uint64",
              "name": "index",
              "type": "uint64"
            },
            {
              "internalType": "uint32",
              "name": "synthetic_token",
              "type": "uint32"
            },
            {
              "internalType": "uint256",
              "name": "position_address",
              "type": "uint256"
            },
            {
              "internalType": "bool",
              "name": "allow_partial_liquidations",
              "type": "bool"
            },
            {
              "internalType": "uint32",
              "name": "vlp_token",
              "type": "uint32"
            },
            {
              "internalType": "bool",
              "name": "order_side",
              "type": "bool"
            },
            {
              "internalType": "uint64",
              "name": "position_size",
              "type": "uint64"
            },
            {
              "internalType": "uint64",
              "name": "margin",
              "type": "uint64"
            },
            {
              "internalType": "uint64",
              "name": "entry_price",
              "type": "uint64"
            },
            {
              "internalType": "uint64",
              "name": "liquidation_price",
              "type": "uint64"
            },
            {
              "internalType": "uint64",
              "name": "bankruptcy_price",
              "type": "uint64"
            },
            {
              "internalType": "uint32",
              "name": "last_funding_idx",
              "type": "uint32"
            },
            {
              "internalType": "uint64",
              "name": "vlp_supply",
              "type": "uint64"
            }
          ],
          "internalType": "struct Position",
          "name": "position_a",
          "type": "tuple"
        },
        {
          "internalType": "uint64",
          "name": "closePrice",
          "type": "uint64"
        },
        {
          "internalType": "uint256",
          "name": "hashInp4",
          "type": "uint256"
        },
        {
          "internalType": "address",
          "name": "recipient",
          "type": "address"
        }
      ],
      "name": "hashPositionEscapeMessage",
      "outputs": [
        {
          "internalType": "uint256",
          "name": "",
          "type": "uint256"
        }
      ],
      "stateMutability": "view",
      "type": "function"
    },
    {
      "inputs": [
        {
          "internalType": "address",
          "name": "initialOwner",
          "type": "address"
        }
      ],
      "name": "initialize",
      "outputs": [],
      "stateMutability": "nonpayable",
      "type": "function"
    },
    {
      "inputs": [],
      "name": "owner",
      "outputs": [
        {
          "internalType": "address",
          "name": "",
          "type": "address"
        }
      ],
      "stateMutability": "view",
      "type": "function"
    },
    {
      "inputs": [],
      "name": "proxiableUUID",
      "outputs": [
        {
          "internalType": "bytes32",
          "name": "",
          "type": "bytes32"
        }
      ],
      "stateMutability": "view",
      "type": "function"
    },
    {
      "inputs": [],
      "name": "renounceOwnership",
      "outputs": [],
      "stateMutability": "nonpayable",
      "type": "function"
    },
    {
      "inputs": [
        {
          "internalType": "uint32",
          "name": "",
          "type": "uint32"
        },
        {
          "internalType": "uint32",
          "name": "",
          "type": "uint32"
        }
      ],
      "name": "s_escapeAmounts",
      "outputs": [
        {
          "internalType": "uint64",
          "name": "",
          "type": "uint64"
        }
      ],
      "stateMutability": "view",
      "type": "function"
    },
    {
      "inputs": [
        {
          "internalType": "uint32",
          "name": "",
          "type": "uint32"
        }
      ],
      "name": "s_forcedEscapes",
      "outputs": [
        {
          "internalType": "uint32",
          "name": "escapeId",
          "type": "uint32"
        },
        {
          "internalType": "uint32",
          "name": "timestamp",
          "type": "uint32"
        },
        {
          "internalType": "uint256",
          "name": "escapeHash",
          "type": "uint256"
        },
        {
          "internalType": "address",
          "name": "caller",
          "type": "address"
        }
      ],
      "stateMutability": "view",
      "type": "function"
    },
    {
      "inputs": [
        {
          "internalType": "address",
          "name": "",
          "type": "address"
        },
        {
          "internalType": "uint32",
          "name": "",
          "type": "uint32"
        }
      ],
      "name": "s_successfulEscapes",
      "outputs": [
        {
          "internalType": "bool",
          "name": "",
          "type": "bool"
        }
      ],
      "stateMutability": "view",
      "type": "function"
    },
    {
      "inputs": [
        {
          "internalType": "address",
          "name": "_invisible",
          "type": "address"
        }
      ],
      "name": "setInvisibleAddress",
      "outputs": [],
      "stateMutability": "nonpayable",
      "type": "function"
    },
    {
      "inputs": [
        {
          "internalType": "address",
          "name": "_structHasher",
          "type": "address"
        }
      ],
      "name": "setStructHasher",
      "outputs": [],
      "stateMutability": "nonpayable",
      "type": "function"
    },
    {
      "inputs": [
        {
          "components": [
            {
              "internalType": "uint64",
              "name": "index",
              "type": "uint64"
            },
            {
              "internalType": "uint256",
              "name": "addressX",
              "type": "uint256"
            },
            {
              "internalType": "uint256",
              "name": "addressY",
              "type": "uint256"
            },
            {
              "internalType": "uint32",
              "name": "token",
              "type": "uint32"
            },
            {
              "internalType": "uint64",
              "name": "amount",
              "type": "uint64"
            },
            {
              "internalType": "uint256",
              "name": "blinding",
              "type": "uint256"
            }
          ],
          "internalType": "struct Note[]",
          "name": "notes",
          "type": "tuple[]"
        },
        {
          "internalType": "uint256[2]",
          "name": "signature",
          "type": "uint256[2]"
        }
      ],
      "name": "startNoteEscape",
      "outputs": [],
      "stateMutability": "nonpayable",
      "type": "function"
    },
    {
      "inputs": [
        {
          "components": [
            {
              "internalType": "uint64",
              "name": "tab_idx",
              "type": "uint64"
            },
            {
              "internalType": "uint32",
              "name": "base_token",
              "type": "uint32"
            },
            {
              "internalType": "uint32",
              "name": "quote_token",
              "type": "uint32"
            },
            {
              "internalType": "uint256",
              "name": "base_blinding",
              "type": "uint256"
            },
            {
              "internalType": "uint256",
              "name": "quote_blinding",
              "type": "uint256"
            },
            {
              "internalType": "uint256",
              "name": "pub_key",
              "type": "uint256"
            },
            {
              "internalType": "uint64",
              "name": "base_amount",
              "type": "uint64"
            },
            {
              "internalType": "uint64",
              "name": "quote_amount",
              "type": "uint64"
            }
          ],
          "internalType": "struct OrderTab",
          "name": "orderTab",
          "type": "tuple"
        },
        {
          "internalType": "uint256[2]",
          "name": "signature",
          "type": "uint256[2]"
        }
      ],
      "name": "startOrderTabEscape",
      "outputs": [],
      "stateMutability": "nonpayable",
      "type": "function"
    },
    {
      "inputs": [
        {
          "components": [
            {
              "internalType": "uint64",
              "name": "index",
              "type": "uint64"
            },
            {
              "internalType": "uint32",
              "name": "synthetic_token",
              "type": "uint32"
            },
            {
              "internalType": "uint256",
              "name": "position_address",
              "type": "uint256"
            },
            {
              "internalType": "bool",
              "name": "allow_partial_liquidations",
              "type": "bool"
            },
            {
              "internalType": "uint32",
              "name": "vlp_token",
              "type": "uint32"
            },
            {
              "internalType": "bool",
              "name": "order_side",
              "type": "bool"
            },
            {
              "internalType": "uint64",
              "name": "position_size",
              "type": "uint64"
            },
            {
              "internalType": "uint64",
              "name": "margin",
              "type": "uint64"
            },
            {
              "internalType": "uint64",
              "name": "entry_price",
              "type": "uint64"
            },
            {
              "internalType": "uint64",
              "name": "liquidation_price",
              "type": "uint64"
            },
            {
              "internalType": "uint64",
              "name": "bankruptcy_price",
              "type": "uint64"
            },
            {
              "internalType": "uint32",
              "name": "last_funding_idx",
              "type": "uint32"
            },
            {
              "internalType": "uint64",
              "name": "vlp_supply",
              "type": "uint64"
            }
          ],
          "internalType": "struct Position",
          "name": "position_a",
          "type": "tuple"
        },
        {
          "internalType": "uint64",
          "name": "closePrice",
          "type": "uint64"
        },
        {
          "components": [
            {
              "internalType": "uint64",
              "name": "index",
              "type": "uint64"
            },
            {
              "internalType": "uint32",
              "name": "synthetic_token",
              "type": "uint32"
            },
            {
              "internalType": "uint256",
              "name": "position_address",
              "type": "uint256"
            },
            {
              "internalType": "bool",
              "name": "allow_partial_liquidations",
              "type": "bool"
            },
            {
              "internalType": "uint32",
              "name": "vlp_token",
              "type": "uint32"
            },
            {
              "internalType": "bool",
              "name": "order_side",
              "type": "bool"
            },
            {
              "internalType": "uint64",
              "name": "position_size",
              "type": "uint64"
            },
            {
              "internalType": "uint64",
              "name": "margin",
              "type": "uint64"
            },
            {
              "internalType": "uint64",
              "name": "entry_price",
              "type": "uint64"
            },
            {
              "internalType": "uint64",
              "name": "liquidation_price",
              "type": "uint64"
            },
            {
              "internalType": "uint64",
              "name": "bankruptcy_price",
              "type": "uint64"
            },
            {
              "internalType": "uint32",
              "name": "last_funding_idx",
              "type": "uint32"
            },
            {
              "internalType": "uint64",
              "name": "vlp_supply",
              "type": "uint64"
            }
          ],
          "internalType": "struct Position",
          "name": "position_b",
          "type": "tuple"
        },
        {
          "internalType": "address",
          "name": "recipient",
          "type": "address"
        },
        {
          "internalType": "uint256[2]",
          "name": "signature_a",
          "type": "uint256[2]"
        },
        {
          "internalType": "uint256[2]",
          "name": "signature_b",
          "type": "uint256[2]"
        }
      ],
      "name": "startPositionEscape1",
      "outputs": [],
      "stateMutability": "nonpayable",
      "type": "function"
    },
    {
      "inputs": [
        {
          "components": [
            {
              "internalType": "uint64",
              "name": "index",
              "type": "uint64"
            },
            {
              "internalType": "uint32",
              "name": "synthetic_token",
              "type": "uint32"
            },
            {
              "internalType": "uint256",
              "name": "position_address",
              "type": "uint256"
            },
            {
              "internalType": "bool",
              "name": "allow_partial_liquidations",
              "type": "bool"
            },
            {
              "internalType": "uint32",
              "name": "vlp_token",
              "type": "uint32"
            },
            {
              "internalType": "bool",
              "name": "order_side",
              "type": "bool"
            },
            {
              "internalType": "uint64",
              "name": "position_size",
              "type": "uint64"
            },
            {
              "internalType": "uint64",
              "name": "margin",
              "type": "uint64"
            },
            {
              "internalType": "uint64",
              "name": "entry_price",
              "type": "uint64"
            },
            {
              "internalType": "uint64",
              "name": "liquidation_price",
              "type": "uint64"
            },
            {
              "internalType": "uint64",
              "name": "bankruptcy_price",
              "type": "uint64"
            },
            {
              "internalType": "uint32",
              "name": "last_funding_idx",
              "type": "uint32"
            },
            {
              "internalType": "uint64",
              "name": "vlp_supply",
              "type": "uint64"
            }
          ],
          "internalType": "struct Position",
          "name": "position_a",
          "type": "tuple"
        },
        {
          "internalType": "uint64",
          "name": "closePrice",
          "type": "uint64"
        },
        {
          "components": [
            {
              "internalType": "uint64",
              "name": "initial_margin",
              "type": "uint64"
            },
            {
              "internalType": "uint32",
              "name": "collateral_token",
              "type": "uint32"
            },
            {
              "components": [
                {
                  "internalType": "uint64",
                  "name": "index",
                  "type": "uint64"
                },
                {
                  "internalType": "uint256",
                  "name": "addressX",
                  "type": "uint256"
                },
                {
                  "internalType": "uint256",
                  "name": "addressY",
                  "type": "uint256"
                },
                {
                  "internalType": "uint32",
                  "name": "token",
                  "type": "uint32"
                },
                {
                  "internalType": "uint64",
                  "name": "amount",
                  "type": "uint64"
                },
                {
                  "internalType": "uint256",
                  "name": "blinding",
                  "type": "uint256"
                }
              ],
              "internalType": "struct Note[]",
              "name": "notes_in",
              "type": "tuple[]"
            },
            {
              "components": [
                {
                  "internalType": "uint64",
                  "name": "index",
                  "type": "uint64"
                },
                {
                  "internalType": "uint256",
                  "name": "addressX",
                  "type": "uint256"
                },
                {
                  "internalType": "uint256",
                  "name": "addressY",
                  "type": "uint256"
                },
                {
                  "internalType": "uint32",
                  "name": "token",
                  "type": "uint32"
                },
                {
                  "internalType": "uint64",
                  "name": "amount",
                  "type": "uint64"
                },
                {
                  "internalType": "uint256",
                  "name": "blinding",
                  "type": "uint256"
                }
              ],
              "internalType": "struct Note",
              "name": "refund_note",
              "type": "tuple"
            },
            {
              "internalType": "uint256",
              "name": "position_address",
              "type": "uint256"
            },
            {
              "internalType": "bool",
              "name": "allow_partial_liquidations",
              "type": "bool"
            }
          ],
          "internalType": "struct OpenOrderFields",
          "name": "openOrderFields_b",
          "type": "tuple"
        },
        {
          "internalType": "address",
          "name": "recipient",
          "type": "address"
        },
        {
          "internalType": "uint256[2]",
          "name": "signature_a",
          "type": "uint256[2]"
        },
        {
          "internalType": "uint256[2]",
          "name": "signature_b",
          "type": "uint256[2]"
        }
      ],
      "name": "startPositionEscape2",
      "outputs": [],
      "stateMutability": "nonpayable",
      "type": "function"
    },
    {
      "inputs": [
        {
          "internalType": "address",
          "name": "newOwner",
          "type": "address"
        }
      ],
      "name": "transferOwnership",
      "outputs": [],
      "stateMutability": "nonpayable",
      "type": "function"
    },
    {
      "inputs": [
        {
          "components": [
            {
              "internalType": "uint256",
              "name": "batched_escape_info",
              "type": "uint256"
            },
            {
              "internalType": "uint256",
              "name": "escape_message_hash",
              "type": "uint256"
            },
            {
              "internalType": "uint256",
              "name": "signature_r",
              "type": "uint256"
            },
            {
              "internalType": "uint256",
              "name": "signature_s",
              "type": "uint256"
            }
          ],
          "internalType": "struct EscapeOutput[]",
          "name": "escapeOutputs",
          "type": "tuple[]"
        }
      ],
      "name": "updatePendingEscapes",
      "outputs": [],
      "stateMutability": "nonpayable",
      "type": "function"
    },
    {
      "inputs": [
        {
          "components": [
            {
              "internalType": "uint256",
              "name": "batched_escape_info",
              "type": "uint256"
            },
            {
              "internalType": "address",
              "name": "recipient",
              "type": "address"
            },
            {
              "internalType": "uint256",
              "name": "escape_message_hash",
              "type": "uint256"
            },
            {
              "internalType": "uint256",
              "name": "signature_a_r",
              "type": "uint256"
            },
            {
              "internalType": "uint256",
              "name": "signature_a_s",
              "type": "uint256"
            },
            {
              "internalType": "uint256",
              "name": "signature_b_r",
              "type": "uint256"
            },
            {
              "internalType": "uint256",
              "name": "signature_b_s",
              "type": "uint256"
            }
          ],
          "internalType": "struct PositionEscapeOutput[]",
          "name": "escapeOutputs",
          "type": "tuple[]"
        }
      ],
      "name": "updatePendingPositionEscapes",
      "outputs": [],
      "stateMutability": "nonpayable",
      "type": "function"
    },
    {
      "inputs": [
        {
          "internalType": "address",
          "name": "newImplementation",
          "type": "address"
        },
        {
          "internalType": "bytes",
          "name": "data",
          "type": "bytes"
        }
      ],
      "name": "upgradeToAndCall",
      "outputs": [],
      "stateMutability": "payable",
      "type": "function"
    },
    {
      "inputs": [
        {
          "internalType": "uint32",
          "name": "escapeId",
          "type": "uint32"
        },
        {
          "internalType": "uint32",
          "name": "tokenId",
          "type": "uint32"
        }
      ],
      "name": "withdrawForcedEscape",
      "outputs": [],
      "stateMutability": "nonpayable",
      "type": "function"
    }
  ],
  "bytecode": "0x60a0806040523461002a57306080526131949081610030823960805181818161155201526116490152f35b600080fdfe6080604052600436101561001257600080fd5b600060e0813560e01c9081630729c105146123b55781631ac8bd1814612148575080633031b17014611c95578063350eccc914611c415780633e5a442b146118ed5780634853fd6c146118b15780634d90b6e0146118725780634f1ef286146115cc57806352d1902d1461153757806352fa4c531461136d57806364092f4f1461130857806367dcb99214610fa1578063715018a614610f2557806372af7700146107b55780638da5cb5b1461076f578063ad3cb1cc146106d8578063b657b83914610681578063c0390e4e1461063c578063c4d66de8146104e7578063f2fde38b146104ba5763fbaf89651461010857600080fd5b346104b7576060806003193601126104b35767ffffffffffffffff916004358381116104b35761013c903690600401612529565b606490366064116104af57600167080000000000001160c01b019360249561016786602435106126bb565b60449661017787604435106126bb565b63ffffffff98894216978454998b8b169a8c6101928d612706565b169063ffffffff1916178655855b87811061034a575050505050506101b78285612dac565b95604051946101c586612421565b8286526020938385880152604051956101dd87612453565b83875285870199898b5260408801908152604051916101fb83612421565b602488845b83831061033a5750505050606088019182526080880198895260a088019a338c5285875260019c600189526040882099511667ffffffff000000008a5492518a1b169167ffffffffffffffff1916171788555160018801555197845b6002998a82101561027b579081888e935191019b828b0101550161025c565b5050898b9293949695978951895b60028110610326575050906001600160a01b036006869493019151166001600160a01b03198254161790556080604051968188019288528701525260a084019291865b8181106103075787877f3b9e8d140207afbab1b39f2b424c559ff1ea3ad08b04d21fba45ae1ad2a8a78b88808960406024818401370390a280f35b90918461031685968396612c67565b60c09081019501939291016102cc565b815183820160040155908801908501610289565b82358152918101918a9101610200565b8c8a61036d88610367858d6001600160a01b036004541695612d9c565b01612692565b9060405192839263f6f01b8760e01b8452166004830152818860209485935afa9081156104a4578991610477575b501561043657908c8b8f936001946104068b6103678f8f9060408a926103f88f6103f286868e6103ed8f956103e0816080986103d8888888612d9c565b0135106126bb565b60a06103d8868686612d9c565b612d9c565b0161279c565b9a8152600289522097612d9c565b1660005252604060002090866104208354928284166125f5565b169067ffffffffffffffff1916179055016101a0565b89907f546f6b656e206e6f742072656769737465726564000000000000000000000000846014896040519462461bcd60e51b86526004860152840152820152fd5b6104979150823d841161049d575b61048f818361246f565b8101906126a3565b3861039b565b503d610485565b6040513d8b823e3d90fd5b8380fd5b5080fd5b80fd5b50346104b75760203660031901126104b7576104e46104d76123f4565b6104df612f8e565b612ef0565b80f35b50346104b75760203660031901126104b7576105016123f4565b7ff0c57e16840df040f15088dc2f81fe391c3923bec73e23a9662efc9c229c6a0090815460ff8160401c16159167ffffffffffffffff821680159081610634575b600114908161062a575b159081610621575b506105f75767ffffffffffffffff198216600117845561058591836105d8575b5061057d613072565b6104df613072565b61058d613072565b600160065561059a575080f35b68ff00000000000000001981541690557fc7f505b2f371ae2175ee4913f4499e1f2633a7b5936321eed1cdaeb6115181d2602060405160018152a180f35b68ffffffffffffffffff19166801000000000000000117845538610574565b60046040517ff92ee8a9000000000000000000000000000000000000000000000000000000008152fd5b90501538610554565b303b15915061054c565b849150610542565b50346104b75760203660031901126104b7576004359067ffffffffffffffff82116104b75760206106796106733660048601612529565b90612dac565b604051908152f35b50346104b75760403660031901126104b75761069b6124bc565b60406106a56124a9565b9263ffffffff80931681526002602052209116600052602052602067ffffffffffffffff60406000205416604051908152f35b50346104b757806003193601126104b7576040516106f581612421565b600581526020917f352e302e30000000000000000000000000000000000000000000000000000000602083015260405192839160208352835191826020850152815b83811061075857505060408094508284010152601f80199101168101030190f35b808601820151878201604001528694508101610737565b50346104b757806003193601126104b75760206001600160a01b037f9016d09d72d40fdae2fd8ceac6b6234c7706214fd39c1cd1e609a0528c1993005416604051908152f35b50346104b7576003199036820161028081126104b3576101a0136104b7576107db6124e0565b9167ffffffffffffffff6101c435116104b357610160906101c435360301126104b75761080661240a565b36610244116104b35736610284116104b35781549263ffffffff61082b818616612706565b1663ffffffff198516178355610858600167080000000000001160c01b016101246101c4350135106126bb565b829383945b61087360446101c435016101c435600401612ff1565b90508610156109445761093c6001916108bb638fdd705b63ffffffff6108b460606103678d6108ae60446101c435016101c435600401612ff1565b90612d9c565b1614613027565b6108e9600167080000000000001160c01b0160206103d88b6108ae60446101c435016101c435600401612ff1565b610917600167080000000000001160c01b0160a06103d88b6108ae60446101c435016101c435600401612ff1565b61093660806103f28a6108ae60446101c435016101c435600401612ff1565b906125f5565b95019461085d565b849067ffffffffffffffff61095e60e46101c4350161279c565b16610e6b575b67ffffffffffffffff8061097d60e46101c4350161279c565b1691160367ffffffffffffffff8111610e575767ffffffffffffffff806109a96101c43560040161279c565b16911603610e1357638fdd705b63ffffffff6109ca60246101c43501612692565b1603610dcf576001600160a01b0360055416602060405180927f8ed2ff180000000000000000000000000000000000000000000000000000000082528260048301528180610a21602482016101c435600401612cc5565b03915afa8015610dc45785908390610d8e575b610a3f9250856129e7565b9267ffffffffffffffff811615610d4a5760843563ffffffff8116809103610d4557610cdb57610a80600167080000000000001160c01b01604435106126bb565b610a9c600167080000000000001160c01b0161020435106126bb565b610ab8600167080000000000001160c01b0161022435106126bb565b610ad4600167080000000000001160c01b0161024435106126bb565b610af0600167080000000000001160c01b0161026435106126bb565b60405193610afd85612453565b63ffffffff8416855263ffffffff421660208601526040850152604051610b2381612421565b610204815b6102448210610ccb5750506060850152604051610b4481612421565b610244815b6102848210610cbb57505060808501526001600160a01b03851660a085015263ffffffff8316600052600160205260406000209463ffffffff85511686549067ffffffff00000000602088015160201b169167ffffffffffffffff1916171786556040850151600187015560608501519360005b6002811015610bdd57600190602087519701966002828b01015501610bbd565b5086945085608081015160005b60028110610ca4575050916001600160a01b03610c807ff191481ea3b8590a49cd2d964fdf7e63b747814ba6a9e1c91b76ba835000e41a959367ffffffffffffffff958360a060068c01920151166001600160a01b031982541617905560405195869563ffffffff6102a093168752166020860152610c6b604086016128b2565b806101e086015284016101c435600401612cc5565b9116610200830152604061020461022084013760406102446102608401370390a180f35b600190602083519301926004828b01015501610bea565b8135815260209182019101610b49565b8135815260209182019101610b28565b608460405162461bcd60e51b815260206004820152603860248201527f43616e6e6f7420666f72636520657363617065206120736d61727420636f6e7460448201527f7261637420696e697469746174656420706f736974696f6e00000000000000006064820152fd5b600080fd5b606460405162461bcd60e51b815260206004820152601360248201527f496e76616c696420636c6f7365207072696365000000000000000000000000006044820152fd5b50506020813d602011610dbc575b81610da96020938361246f565b81010312610d455784610a3f9151610a34565b3d9150610d9c565b6040513d84823e3d90fd5b606460405162461bcd60e51b815260206004820152601860248201527f496e76616c696420636f6c6c61746572616c20746f6b656e00000000000000006044820152fd5b606460405162461bcd60e51b815260206004820152601660248201527f496e76616c696420696e697469616c206d617267696e000000000000000000006044820152fd5b602482634e487b7160e01b81526011600452fd5b610e87638fdd705b63ffffffff6108b460c46101c43501612692565b610e9660646101c4350161279c565b610eac60446101c435016101c435600401612ff1565b15610f115767ffffffffffffffff610ec4819261279c565b169116031561096457606460405162461bcd60e51b815260206004820152601960248201527f696e76616c696420726566756e645f6e6f74655f696e646578000000000000006044820152fd5b602484634e487b7160e01b81526032600452fd5b50346104b757806003193601126104b757610f3e612f8e565b60006001600160a01b037f9016d09d72d40fdae2fd8ceac6b6234c7706214fd39c1cd1e609a0528c1993008054906001600160a01b031982169055167f8be0079c531659141344cd1fd0a4f28419497f9722a3daafe3b4186f6b6457e08280a380f35b50346104b75736600319019061040082126104b7576101a08092126104b757610fc86124e0565b91366101c31901126104b75761036435916001600160a01b0383168303610d4557366103c4116104b35736610404116104b35781549163ffffffff61100e818516612706565b1663ffffffff198416178155600167080000000000001160c01b01926110388461020435106126bb565b6101a460206001600160a01b03600554166040519283809263625292c160e11b8252611066600483016127b1565b5afa80156112fd57869084906112c7575b6110829250856129e7565b9367ffffffffffffffff841615610d4a5760843563ffffffff8116809103610d4557610cdb57806110b96110ed92604435106126bb565b6110c78161038435106126bb565b6110d5816103a435106126bb565b6110e3816103c435106126bb565b6103e435106126bb565b604051936110fa85612453565b63ffffffff8216855263ffffffff42166020860152604085015260405161112081612421565b610384815b6103c482106112b7575050606085015260405161114181612421565b6103c4815b61040482106112a757505060808501526001600160a01b03851660a085015263ffffffff8116600052600160205260406000209463ffffffff85511686549067ffffffff00000000602088015160201b169167ffffffffffffffff1916171786556040850151600187015560608501519360005b60028110156111da57600190602087519701966002828b010155016111ba565b5086945085608081015160005b600281106112905750506104209267ffffffffffffffff7fdef64957555573153d1354f6da04b9150cefea260e9c151bacce4bd489cc3ef095936001600160a01b03938460a060068c01920151166001600160a01b031982541617905563ffffffff60405195168552166020840152611262604084016128b2565b61126f6101e084016127b1565b1661038082015260406103846103a083013760406103c46103e0830137a180f35b600190602083519301926004828b010155016111e7565b8135815260209182019101611146565b8135815260209182019101611125565b50506020813d6020116112f5575b816112e26020938361246f565b81010312610d4557856110829151611077565b3d91506112d5565b6040513d85823e3d90fd5b50346104b75760203660031901126104b757608090604063ffffffff918261132e6124bc565b168152600160205220908154916001600160a01b0360066001830154920154169160405193818116855260201c16602084015260408301526060820152f35b50346104b7576020806003193601126104b35767ffffffffffffffff906004358281116104af57366023820112156104af5760249060048101356113b081612491565b946113be604051968761246f565b81865260248587019260071b8401019236841161153357602401915b8383106114ca578787876001600160a01b03906113fc8260045416331461255a565b835b83518110156114c65780611414600192866125cb565b51805183918663ffffffff8360101c169287830151906060604085015194015193858d52868a5260408d209287840154036114ba576002830154036114af5760039384830154036114af5760081c60ff168514611485575b5050508752835261147f6040872061263e565b016113fe565b6006015416895285526040882081600052855260406000208260ff1982541617905588868161146c565b50505050505061147f565b5050505050505061147f565b8480f35b6080808436031261152f576040519081018181108482111761151a5791879160809360405285358152828601358382015260408601356040820152606080870135908201528152019201916113da565b86634e487b7160e01b60005260416004526000fd5b8880fd5b8780fd5b50346104b757806003193601126104b7576001600160a01b037f00000000000000000000000000000000000000000000000000000000000000001630036115a25760206040517f360894a13ba1a3210667c828492db98dca3e2076cc3735a920a3ca505d382bbc8152f35b60046040517fe07c8dba000000000000000000000000000000000000000000000000000000008152fd5b5060403660031901126104b7576115e16123f4565b602491823567ffffffffffffffff81116104b357366023820112156104b357806004013561160e8161250d565b9361161c604051958661246f565b818552602091828601933688838301011161186e57818692898693018737870101526001600160a01b03807f000000000000000000000000000000000000000000000000000000000000000016803014908115611840575b506115a257611681612f8e565b8116946040517f52d1902d00000000000000000000000000000000000000000000000000000000815283816004818a5afa86918161180d575b506116d657878760405190634c9c8ce360e01b82526004820152fd5b8690887f360894a13ba1a3210667c828492db98dca3e2076cc3735a920a3ca505d382bbc918281036117df5750843b156117c9575080546001600160a01b031916821790556040518692917fbc7cd75a20ee27fd9adebab32041f755214dbc6bffa90cc0225b39da2e5c2d3b8480a281511561179257506117859482915190845af4903d15611789573d6117698161250d565b90611777604051928361246f565b81528581943d92013e6130cb565b5080f35b606092506130cb565b945050505050346117a1575080f35b807fb398979f0000000000000000000000000000000000000000000000000000000060049252fd5b8260405190634c9c8ce360e01b82526004820152fd5b604051907faa1d49a40000000000000000000000000000000000000000000000000000000082526004820152fd5b9091508481813d8311611839575b611825818361246f565b81010312611835575190386116ba565b8680fd5b503d61181b565b9050817f360894a13ba1a3210667c828492db98dca3e2076cc3735a920a3ca505d382bbc5416141538611674565b8580fd5b50346104b75760203660031901126104b7576001600160a01b036118946123f4565b61189c612f8e565b166001600160a01b0319600554161760055580f35b50346104b757366003190161020081126104b3576101a0136104b75760206106796118da6124e0565b6118e261240a565b906101c435906129e7565b50346104b75760403660031901126104b7576119076124bc565b61190f6124a9565b907f9b779b17422d0df92223018b32b4d1fa46e071723d6817e2486d003becc55f00906002825414611c17576002825563ffffffff92338552602090600382528460408720931692838752825260ff60408720541615611bd357828652600282528460408720911690818752825267ffffffffffffffff9182604088205416928315611b8f57848852600282526040882083895282526040882067ffffffffffffffff1981541690556001600160a01b039088826004541692604051937f6d3ed7470000000000000000000000000000000000000000000000000000000085528760048601528660248601528585604481845afa9485156112fd578395611b5c575b506040517f543d7a190000000000000000000000000000000000000000000000000000000081528760048201528681602481855afa908115611b51578491611b1b575b50813b156104af578360649260405197889586947f5250e16800000000000000000000000000000000000000000000000000000000865216600485015233602485015260448401525af180156104a457611af6575b5050917f015f0cd55798d1984fe6c6778bca0370117205807f686a114c5836c50c44485c939160a09360019760405194855242169084015260408301526060820152336080820152a15580f35b8111611b07576040528160a0611aa9565b602488634e487b7160e01b81526041600452fd5b90508681813d8311611b4a575b611b32818361246f565b810103126104af575182811681036104af5738611a54565b503d611b28565b6040513d86823e3d90fd5b9094508581813d8311611b88575b611b74818361246f565b81010312611b8457519338611a11565b8280fd5b503d611b6a565b6064826040519062461bcd60e51b82526004820152601a60248201527f4e6f206573636170656420616d6f756e7420746f20636c61696d0000000000006044820152fd5b6064826040519062461bcd60e51b82526004820152601660248201527f496e76616c69642065736361706520617474656d7074000000000000000000006044820152fd5b60046040517f3ee5aeb5000000000000000000000000000000000000000000000000000000008152fd5b50346104b75760403660031901126104b75760ff6040602092611c626123f4565b6001600160a01b03611c726124a9565b911682526003855263ffffffff8383209116825284522054166040519015158152f35b50346104b757366003190161014081126104b357610100136104b7576101443681116104b3576001600160a01b0360045416611ccf61266c565b60405163ffffffff63f6f01b8760e01b92838352166004820152602081602481865afa90811561213d57859161211e575b50156120da5763ffffffff916024602092611d1961267f565b92604051958694859384521660048301525afa9081156112fd5783916120bb575b50156120775761010490611d93600167080000000000001160c01b01611d6381606435106126bb565b611d7081608435106126bb565b611d7d8160a435106126bb565b611d89818535106126bb565b61012435106126bb565b82549063ffffffff611da6818416612706565b1663ffffffff19831617845560206001600160a01b0360055416604051948580927f770f9bfa000000000000000000000000000000000000000000000000000000008252611df66004830161271b565b5afa928315611b51578493612043575b5060405190611e1482612421565b84825284602083015260405193611e2a85612453565b63ffffffff8416855263ffffffff42166020860152604085015260405190611e5182612421565b610104825b82821061203357505050606084015260808301523360a083015263ffffffff811683526001602052604083209263ffffffff83511684549067ffffffff00000000602086015160201b169167ffffffffffffffff19161717845560408301516001850155606083015191815b6002811015611ee257600190602085519501946002828901015501611ec2565b5083856080820151845b6002811061201c57505060a060066001600160a01b039201920151166001600160a01b031982541617905560c4359067ffffffffffffffff9182811681036104af5760026020526040842063ffffffff611f4461266c565b168552602052604084209083611f5e8354928284166125f5565b169067ffffffffffffffff191617905560e4359082821682036104af577f0ca0b32713afb658f82cf58cf8a093dd7f2415a2f2c91017c828a42260d151c0926101809263ffffffff8316865260026020526040862063ffffffff611fc061267f565b1687526020526040862091611fd98354928284166125f5565b169067ffffffffffffffff191617905563ffffffff6040519116815263ffffffff4216602082015261200d6040820161271b565b6040610104610140830137a180f35b600190602083519301926004828601015501611eec565b8135815260209182019101611e56565b9092506020813d60201161206f575b8161205f6020938361246f565b810103126104af57519138611e06565b3d9150612052565b606460405162461bcd60e51b815260206004820152601a60248201527f51756f746520546f6b656e206e6f7420726567697374657265640000000000006044820152fd5b6120d4915060203d60201161049d5761048f818361246f565b38611d3a565b606460405162461bcd60e51b815260206004820152601960248201527f4261736520746f6b656e206e6f742072656769737465726564000000000000006044820152fd5b612137915060203d60201161049d5761048f818361246f565b38611d00565b6040513d87823e3d90fd5b9050346104b35760209081600319360112611b84576004359267ffffffffffffffff918285116104b357366023860112156104b357602494600481013561218e81612491565b9661219c604051988961246f565b818852602460e0888a0193028401019236841161186e57602401915b83831061232a5750505050506001600160a01b03906121dc8260045416331461255a565b805b855181101561178557806121f4600192886125cb565b51805187849263ffffffff8360081c16928883830151169160408101518a8a606084015193896080820151988a60c060a085015194015194525260408d20938a8501540361231b57600294858501540361231b57600397888501540361231b5760048401540361230d576005830154036123005760068592015416036122f5578560ff831614612298575b505050505086526122926040842061263e565b016121de565b8b5260408820638fdd705b89528b5260408820908a6122c08184549360281c168284166125f5565b169067ffffffffffffffff191617905586528852604085209085528752604084208160ff19825416179055388080808061227f565b505050505050612292565b5050505050505050612292565b505050505050505050612292565b50505050505050505050612292565b848336031261186e57604051858101818110898211176123a25760405283358152888401356001600160a01b0381168103611533578982015260408481013590820152606080850135908201526080808501359082015260a0808501359082015260c0808501359082015281529184019187016121b8565b8388634e487b7160e01b81526041600452fd5b82346104b75760203660031901126104b7576001600160a01b036123d76123f4565b6123df612f8e565b166001600160a01b0319600454161760045580f35b600435906001600160a01b0382168203610d4557565b6101e435906001600160a01b0382168203610d4557565b6040810190811067ffffffffffffffff82111761243d57604052565b634e487b7160e01b600052604160045260246000fd5b60c0810190811067ffffffffffffffff82111761243d57604052565b90601f8019910116810190811067ffffffffffffffff82111761243d57604052565b67ffffffffffffffff811161243d5760051b60200190565b6024359063ffffffff82168203610d4557565b6004359063ffffffff82168203610d4557565b359063ffffffff82168203610d4557565b6101a4359067ffffffffffffffff82168203610d4557565b359067ffffffffffffffff82168203610d4557565b67ffffffffffffffff811161243d57601f01601f191660200190565b9181601f84011215610d455782359167ffffffffffffffff8311610d455760208085019460c08502010111610d4557565b1561256157565b608460405162461bcd60e51b815260206004820152602e60248201527f4f6e6c7920696e76697369626c6520636f6e74726163742063616e2063616c6c60448201527f20746869732066756e6374696f6e0000000000000000000000000000000000006064820152fd5b80518210156125df5760209160051b010190565b634e487b7160e01b600052603260045260246000fd5b91909167ffffffffffffffff8080941691160191821161261157565b634e487b7160e01b600052601160045260246000fd5b818110612632575050565b60008155600101612627565b600090818155816001820155612669600660048301926126618460028301612627565b018092612627565b55565b60243563ffffffff81168103610d455790565b60443563ffffffff81168103610d455790565b3563ffffffff81168103610d455790565b90816020910312610d4557518015158103610d455790565b156126c257565b606460405162461bcd60e51b815260206004820152601360248201527f6e756d626572206e6f7420696e2072616e6765000000000000000000000000006044820152fd5b63ffffffff8091169081146126115760010190565b6004359067ffffffffffffffff91828116809103610d4557815260243563ffffffff90818116809103610d45576020830152604435908116809103610d455760408201526064356060820152608435608082015260a43560a082015260c435828116809103610d455760c082015260e435918216809203610d455760e00152565b3567ffffffffffffffff81168103610d455790565b6101c4359067ffffffffffffffff91828116809103610d455781526101e43563ffffffff90818116809103610d4557602083015261020435604083015261022435801515809103610d4557606083015261024435818116809103610d4557608083015261026435801515809103610d455760a083015261028435838116809103610d455760c08301526102a435838116809103610d455760e08301526102c435838116809103610d45576101008301526102e435838116809103610d455761012083015261030435838116809103610d455761014083015261032435908116809103610d455761016082015261034435918216809203610d45576101800152565b6004359067ffffffffffffffff91828116809103610d4557815260243563ffffffff90818116809103610d455760208301526044356040830152606435801515809103610d45576060830152608435818116809103610d4557608083015260a435801515809103610d455760a083015260c435838116809103610d455760c083015260e435838116809103610d455760e083015261010435838116809103610d455761010083015261012435838116809103610d455761012083015261014435838116809103610d455761014083015261016435908116809103610d455761016082015261018435918216809203610d45576101800152565b602090602060408183019282815285518094520193019160005b8281106129d3575050505090565b8351855293810193928101926001016129c5565b9160409283519160a0830167ffffffffffffffff908481108282111761243d5786526004918285526020958686019060803683376001600160a01b03938460055416968a5163625292c160e11b81528735838116809103610d455788820152602494853563ffffffff90818116809103610d4557878401526044356044840152606435801515809103610d45576064840152608435818116809103610d4557608484015260a435801515809103610d455760a484015260c435858116809103610d455760c484015260e435858116809103610d455760e4840152610104803590868216809203610d4557840152610124803590868216809203610d4557840152610144803590868216809203610d45578401526101648035918216809203610d4557830152610184803590858216809203610d45578301528b826101a4818d5afa918215612c5c57600092612c2d575b508a5115612c195752885160011015612c05571689880152865160021015612bf1576060870152855160031015612bde57501660808401528451634eeb4f3560e11b8152939283928592909183918291612b929183016129ab565b03915afa928315612bd45750600092612baa57505090565b90809250813d8311612bcd575b612bc1818361246f565b81010312610d45575190565b503d612bb7565b513d6000823e3d90fd5b603284634e487b7160e01b600052526000fd5b50603284634e487b7160e01b600052526000fd5b83603288634e487b7160e01b600052526000fd5b8560328a634e487b7160e01b600052526000fd5b9091508b81813d8311612c55575b612c45818361246f565b81010312610d4557519038612b37565b503d612c3b565b8d513d6000823e3d90fd5b60a0809167ffffffffffffffff80612c7e836124f8565b168552602082013560208601526040820135604086015263ffffffff612ca6606084016124cf565b166060860152612cb8608083016124f8565b1660808501520135910152565b67ffffffffffffffff919061016080830184612ce0846124f8565b16845263ffffffff612cf4602085016124cf565b1660208501526040830135601e1984360301811215610d4557830191602083359301958311610d455760c09160c0840236038713610d4557839293916040870152526101808401949160005b828110612d7d5750505050612d5b6060830160608301612c67565b61012080820135908301526101408091013591821515809303610d4557015290565b90919295828082612d906001948b612c67565b01970193929101612d40565b91908110156125df5760c0020190565b90612db681612491565b90604090612dc7604051938461246f565b808352612dd381612491565b602094859391601f190136868601376005546001600160a01b03169260005b818110612e40575050505091612e1d926040518080958194634eeb4f3560e11b8352600483016129ab565b03915afa918215612e3457600092612baa57505090565b6040513d6000823e3d90fd5b909192939450612e51818385612d9c565b612e848551917f071ecaad0000000000000000000000000000000000000000000000000000000083526004830190612c67565b878160c481895afa908115612ee557600091612eb7575b5090600191612eaa82896125cb565b5201908694939291612df2565b908882813d8311612ede575b612ecd818361246f565b810103126104b75750516001612e9b565b503d612ec3565b85513d6000823e3d90fd5b6001600160a01b03809116908115612f5d577f9016d09d72d40fdae2fd8ceac6b6234c7706214fd39c1cd1e609a0528c199300805490836001600160a01b03198316179055167f8be0079c531659141344cd1fd0a4f28419497f9722a3daafe3b4186f6b6457e0600080a3565b60246040517f1e4fbdf700000000000000000000000000000000000000000000000000000000815260006004820152fd5b6001600160a01b037f9016d09d72d40fdae2fd8ceac6b6234c7706214fd39c1cd1e609a0528c19930054163303612fc157565b60246040517f118cdaa7000000000000000000000000000000000000000000000000000000008152336004820152fd5b903590601e1981360301821215610d45570180359067ffffffffffffffff8211610d45576020019160c0820236038313610d4557565b1561302e57565b606460405162461bcd60e51b815260206004820152601d60248201527f496e76616c696420636f6c6c61746572616c206e6f746520746f6b656e0000006044820152fd5b60ff7ff0c57e16840df040f15088dc2f81fe391c3923bec73e23a9662efc9c229c6a005460401c16156130a157565b60046040517fd7e6bcf8000000000000000000000000000000000000000000000000000000008152fd5b9061310a57508051156130e057805190602001fd5b60046040517f1425ea42000000000000000000000000000000000000000000000000000000008152fd5b81511580613155575b61311b575090565b6024906001600160a01b03604051917f9996b315000000000000000000000000000000000000000000000000000000008352166004820152fd5b50803b1561311356fea2646970667358221220326fae19258c6a073b5aa8d546c11e2810bd3cfeae43433df7dda5770a7668e064736f6c63430008160033",
  "linkReferences": {},
  "deployedLinkReferences": {}
}