{
  "_format": "hh-sol-artifact-1",
  "contractName": "InvisibleL2",
  "sourceName": "src/InvisibleL2.sol",
  "abi": [
    {
      "inputs": [
        {
          "internalType": "address",
          "name": "target",
          "type": "address"
        }
      ],
      "name": "AddressEmptyCode",
      "type": "error"
    },
    {
      "inputs": [
        {
          "internalType": "address",
          "name": "implementation",
          "type": "address"
        }
      ],
      "name": "ERC1967InvalidImplementation",
      "type": "error"
    },
    {
      "inputs": [],
      "name": "ERC1967NonPayable",
      "type": "error"
    },
    {
      "inputs": [],
      "name": "FailedInnerCall",
      "type": "error"
    },
    {
      "inputs": [],
      "name": "InvalidInitialization",
      "type": "error"
    },
    {
      "inputs": [],
      "name": "NotInitializing",
      "type": "error"
    },
    {
      "inputs": [
        {
          "internalType": "address",
          "name": "owner",
          "type": "address"
        }
      ],
      "name": "OwnableInvalidOwner",
      "type": "error"
    },
    {
      "inputs": [
        {
          "internalType": "address",
          "name": "account",
          "type": "address"
        }
      ],
      "name": "OwnableUnauthorizedAccount",
      "type": "error"
    },
    {
      "inputs": [],
      "name": "ReentrancyGuardReentrantCall",
      "type": "error"
    },
    {
      "inputs": [],
      "name": "UUPSUnauthorizedCallContext",
      "type": "error"
    },
    {
      "inputs": [
        {
          "internalType": "bytes32",
          "name": "slot",
          "type": "bytes32"
        }
      ],
      "name": "UUPSUnsupportedProxiableUUID",
      "type": "error"
    },
    {
      "anonymous": false,
      "inputs": [
        {
          "indexed": false,
          "internalType": "uint256",
          "name": "pubKey",
          "type": "uint256"
        },
        {
          "indexed": false,
          "internalType": "address",
          "name": "tokenAddress",
          "type": "address"
        },
        {
          "indexed": false,
          "internalType": "uint256",
          "name": "timestamp",
          "type": "uint256"
        }
      ],
      "name": "DepositCancelEvent",
      "type": "event"
    },
    {
      "anonymous": false,
      "inputs": [
        {
          "indexed": false,
          "internalType": "uint64",
          "name": "depositId",
          "type": "uint64"
        },
        {
          "indexed": false,
          "internalType": "uint256",
          "name": "pubKey",
          "type": "uint256"
        },
        {
          "indexed": false,
          "internalType": "uint32",
          "name": "tokenId",
          "type": "uint32"
        },
        {
          "indexed": false,
          "internalType": "uint64",
          "name": "depositAmountScaled",
          "type": "uint64"
        },
        {
          "indexed": false,
          "internalType": "uint256",
          "name": "timestamp",
          "type": "uint256"
        }
      ],
      "name": "DepositEvent",
      "type": "event"
    },
    {
      "anonymous": false,
      "inputs": [
        {
          "indexed": false,
          "internalType": "uint64",
          "name": "version",
          "type": "uint64"
        }
      ],
      "name": "Initialized",
      "type": "event"
    },
    {
      "anonymous": false,
      "inputs": [
        {
          "indexed": false,
          "internalType": "address",
          "name": "tokenAddress",
          "type": "address"
        },
        {
          "indexed": false,
          "internalType": "uint32",
          "name": "tokenId",
          "type": "uint32"
        },
        {
          "indexed": false,
          "internalType": "uint8",
          "name": "scaleFactor",
          "type": "uint8"
        }
      ],
      "name": "NewTokenRegisteredEvent",
      "type": "event"
    },
    {
      "anonymous": false,
      "inputs": [
        {
          "indexed": true,
          "internalType": "address",
          "name": "previousOwner",
          "type": "address"
        },
        {
          "indexed": true,
          "internalType": "address",
          "name": "newOwner",
          "type": "address"
        }
      ],
      "name": "OwnershipTransferred",
      "type": "event"
    },
    {
      "anonymous": false,
      "inputs": [
        {
          "indexed": false,
          "internalType": "uint256",
          "name": "timestamp",
          "type": "uint256"
        },
        {
          "indexed": false,
          "internalType": "uint64",
          "name": "txBatchId",
          "type": "uint64"
        }
      ],
      "name": "ProcessedWithdrawals",
      "type": "event"
    },
    {
      "anonymous": false,
      "inputs": [
        {
          "indexed": false,
          "internalType": "uint256",
          "name": "timestamp",
          "type": "uint256"
        },
        {
          "indexed": false,
          "internalType": "uint64",
          "name": "txBatchId",
          "type": "uint64"
        }
      ],
      "name": "UpdatedPendingDepositsEvent",
      "type": "event"
    },
    {
      "anonymous": false,
      "inputs": [
        {
          "indexed": true,
          "internalType": "address",
          "name": "implementation",
          "type": "address"
        }
      ],
      "name": "Upgraded",
      "type": "event"
    },
    {
      "anonymous": false,
      "inputs": [
        {
          "indexed": false,
          "internalType": "address",
          "name": "tokenAddress",
          "type": "address"
        }
      ],
      "name": "VaultRegisteredEvent",
      "type": "event"
    },
    {
      "anonymous": false,
      "inputs": [
        {
          "indexed": false,
          "internalType": "address",
          "name": "withdrawer",
          "type": "address"
        },
        {
          "indexed": false,
          "internalType": "address",
          "name": "tokenAddress",
          "type": "address"
        },
        {
          "indexed": false,
          "internalType": "uint256",
          "name": "withdrawalAmount",
          "type": "uint256"
        },
        {
          "indexed": false,
          "internalType": "uint256",
          "name": "timestamp",
          "type": "uint256"
        }
      ],
      "name": "WithdrawalEvent",
      "type": "event"
    },
    {
      "inputs": [],
      "name": "CALLBACK_SUCCESS",
      "outputs": [
        {
          "internalType": "bytes32",
          "name": "",
          "type": "bytes32"
        }
      ],
      "stateMutability": "view",
      "type": "function"
    },
    {
      "inputs": [],
      "name": "UPGRADE_INTERFACE_VERSION",
      "outputs": [
        {
          "internalType": "string",
          "name": "",
          "type": "string"
        }
      ],
      "stateMutability": "view",
      "type": "function"
    },
    {
      "inputs": [
        {
          "internalType": "address",
          "name": "recipient",
          "type": "address"
        },
        {
          "internalType": "address",
          "name": "token",
          "type": "address"
        }
      ],
      "name": "claimPendingWithdrawal",
      "outputs": [],
      "stateMutability": "nonpayable",
      "type": "function"
    },
    {
      "inputs": [
        {
          "internalType": "address",
          "name": "tokenAddress",
          "type": "address"
        },
        {
          "internalType": "address payable",
          "name": "recipient",
          "type": "address"
        },
        {
          "internalType": "uint256",
          "name": "escapeAmount",
          "type": "uint256"
        }
      ],
      "name": "executeEscape",
      "outputs": [],
      "stateMutability": "nonpayable",
      "type": "function"
    },
    {
      "inputs": [],
      "name": "feePercent",
      "outputs": [
        {
          "internalType": "uint256",
          "name": "",
          "type": "uint256"
        }
      ],
      "stateMutability": "view",
      "type": "function"
    },
    {
      "inputs": [
        {
          "internalType": "address",
          "name": "token",
          "type": "address"
        },
        {
          "internalType": "uint256",
          "name": "amount",
          "type": "uint256"
        }
      ],
      "name": "flashFee",
      "outputs": [
        {
          "internalType": "uint256",
          "name": "",
          "type": "uint256"
        }
      ],
      "stateMutability": "pure",
      "type": "function"
    },
    {
      "inputs": [
        {
          "internalType": "contract IERC3156FlashBorrower",
          "name": "receiver",
          "type": "address"
        },
        {
          "internalType": "address",
          "name": "token",
          "type": "address"
        },
        {
          "internalType": "uint256",
          "name": "amount",
          "type": "uint256"
        },
        {
          "internalType": "bytes",
          "name": "data",
          "type": "bytes"
        }
      ],
      "name": "flashLoan",
      "outputs": [
        {
          "internalType": "bool",
          "name": "",
          "type": "bool"
        }
      ],
      "stateMutability": "nonpayable",
      "type": "function"
    },
    {
      "inputs": [
        {
          "internalType": "uint256",
          "name": "starkKey",
          "type": "uint256"
        },
        {
          "internalType": "address",
          "name": "tokenAddress",
          "type": "address"
        }
      ],
      "name": "getPendingDepositAmount",
      "outputs": [
        {
          "internalType": "uint256",
          "name": "",
          "type": "uint256"
        }
      ],
      "stateMutability": "view",
      "type": "function"
    },
    {
      "inputs": [
        {
          "internalType": "uint256",
          "name": "starkKey",
          "type": "uint256"
        }
      ],
      "name": "getPendingETHDepositAmount",
      "outputs": [
        {
          "internalType": "uint256",
          "name": "",
          "type": "uint256"
        }
      ],
      "stateMutability": "view",
      "type": "function"
    },
    {
      "inputs": [
        {
          "internalType": "uint32",
          "name": "tokenId",
          "type": "uint32"
        }
      ],
      "name": "getScaleFactor",
      "outputs": [
        {
          "internalType": "uint8",
          "name": "",
          "type": "uint8"
        }
      ],
      "stateMutability": "view",
      "type": "function"
    },
    {
      "inputs": [
        {
          "internalType": "uint32",
          "name": "tokenId",
          "type": "uint32"
        }
      ],
      "name": "getTokenAddress",
      "outputs": [
        {
          "internalType": "address",
          "name": "",
          "type": "address"
        }
      ],
      "stateMutability": "view",
      "type": "function"
    },
    {
      "inputs": [
        {
          "internalType": "address",
          "name": "tokenAddress",
          "type": "address"
        }
      ],
      "name": "getTokenId",
      "outputs": [
        {
          "internalType": "uint32",
          "name": "",
          "type": "uint32"
        }
      ],
      "stateMutability": "view",
      "type": "function"
    },
    {
      "inputs": [
        {
          "internalType": "address",
          "name": "tokenAddress",
          "type": "address"
        }
      ],
      "name": "getTokenPrice",
      "outputs": [
        {
          "internalType": "uint8",
          "name": "",
          "type": "uint8"
        },
        {
          "internalType": "uint256",
          "name": "",
          "type": "uint256"
        }
      ],
      "stateMutability": "view",
      "type": "function"
    },
    {
      "inputs": [
        {
          "internalType": "address",
          "name": "initialOwner",
          "type": "address"
        },
        {
          "internalType": "uint32",
          "name": "_chainId",
          "type": "uint32"
        }
      ],
      "name": "initialize",
      "outputs": [],
      "stateMutability": "nonpayable",
      "type": "function"
    },
    {
      "inputs": [
        {
          "internalType": "uint32",
          "name": "tokenId",
          "type": "uint32"
        }
      ],
      "name": "isTokenRegistered",
      "outputs": [
        {
          "internalType": "bool",
          "name": "",
          "type": "bool"
        }
      ],
      "stateMutability": "view",
      "type": "function"
    },
    {
      "inputs": [
        {
          "internalType": "address",
          "name": "tokenAddress",
          "type": "address"
        }
      ],
      "name": "isVaultRegistered",
      "outputs": [
        {
          "internalType": "bool",
          "name": "",
          "type": "bool"
        }
      ],
      "stateMutability": "view",
      "type": "function"
    },
    {
      "inputs": [
        {
          "internalType": "address",
          "name": "tokenAddress",
          "type": "address"
        },
        {
          "internalType": "uint256",
          "name": "amount",
          "type": "uint256"
        },
        {
          "internalType": "uint256",
          "name": "starkKey",
          "type": "uint256"
        }
      ],
      "name": "makeDeposit",
      "outputs": [
        {
          "internalType": "uint64",
          "name": "newAmountDeposited",
          "type": "uint64"
        },
        {
          "internalType": "uint64",
          "name": "depositId",
          "type": "uint64"
        },
        {
          "internalType": "bytes32",
          "name": "depositHash",
          "type": "bytes32"
        }
      ],
      "stateMutability": "payable",
      "type": "function"
    },
    {
      "inputs": [
        {
          "internalType": "address",
          "name": "token",
          "type": "address"
        }
      ],
      "name": "maxFlashLoan",
      "outputs": [
        {
          "internalType": "uint256",
          "name": "",
          "type": "uint256"
        }
      ],
      "stateMutability": "view",
      "type": "function"
    },
    {
      "inputs": [],
      "name": "owner",
      "outputs": [
        {
          "internalType": "address",
          "name": "",
          "type": "address"
        }
      ],
      "stateMutability": "view",
      "type": "function"
    },
    {
      "inputs": [
        {
          "internalType": "uint32",
          "name": "txBatchId",
          "type": "uint32"
        },
        {
          "components": [
            {
              "internalType": "uint64",
              "name": "depositId",
              "type": "uint64"
            },
            {
              "internalType": "uint32",
              "name": "tokenId",
              "type": "uint32"
            },
            {
              "internalType": "uint64",
              "name": "amount",
              "type": "uint64"
            },
            {
              "internalType": "uint256",
              "name": "starkKey",
              "type": "uint256"
            }
          ],
          "internalType": "struct L2InteractionsStorage.DepositRequest[]",
          "name": "deposits",
          "type": "tuple[]"
        }
      ],
      "name": "processDepositHashes",
      "outputs": [],
      "stateMutability": "nonpayable",
      "type": "function"
    },
    {
      "inputs": [
        {
          "internalType": "uint32",
          "name": "txBatchId",
          "type": "uint32"
        },
        {
          "components": [
            {
              "internalType": "uint32",
              "name": "chainId",
              "type": "uint32"
            },
            {
              "internalType": "uint32",
              "name": "tokenId",
              "type": "uint32"
            },
            {
              "internalType": "uint64",
              "name": "amount",
              "type": "uint64"
            },
            {
              "internalType": "address",
              "name": "recipient",
              "type": "address"
            }
          ],
          "internalType": "struct L2InteractionsStorage.WithdrawalRequest[]",
          "name": "withdrawals",
          "type": "tuple[]"
        }
      ],
      "name": "processWithdrawals",
      "outputs": [],
      "stateMutability": "nonpayable",
      "type": "function"
    },
    {
      "inputs": [],
      "name": "proxiableUUID",
      "outputs": [
        {
          "internalType": "bytes32",
          "name": "",
          "type": "bytes32"
        }
      ],
      "stateMutability": "view",
      "type": "function"
    },
    {
      "inputs": [
        {
          "internalType": "address",
          "name": "depositor",
          "type": "address"
        },
        {
          "internalType": "uint32",
          "name": "depositId",
          "type": "uint32"
        }
      ],
      "name": "reclaimDeposit",
      "outputs": [],
      "stateMutability": "nonpayable",
      "type": "function"
    },
    {
      "inputs": [
        {
          "internalType": "address",
          "name": "tokenAddress",
          "type": "address"
        },
        {
          "internalType": "uint32",
          "name": "tokenId",
          "type": "uint32"
        },
        {
          "internalType": "uint8",
          "name": "offchainDecimals",
          "type": "uint8"
        }
      ],
      "name": "registerToken",
      "outputs": [],
      "stateMutability": "nonpayable",
      "type": "function"
    },
    {
      "inputs": [],
      "name": "renounceOwnership",
      "outputs": [],
      "stateMutability": "nonpayable",
      "type": "function"
    },
    {
      "inputs": [
        {
          "internalType": "uint64",
          "name": "depositId",
          "type": "uint64"
        }
      ],
      "name": "s_depositHashes",
      "outputs": [
        {
          "internalType": "bytes32",
          "name": "",
          "type": "bytes32"
        }
      ],
      "stateMutability": "view",
      "type": "function"
    },
    {
      "inputs": [],
      "name": "s_messageRelay",
      "outputs": [
        {
          "internalType": "address",
          "name": "",
          "type": "address"
        }
      ],
      "stateMutability": "view",
      "type": "function"
    },
    {
      "inputs": [
        {
          "internalType": "uint256",
          "name": "",
          "type": "uint256"
        },
        {
          "internalType": "uint32",
          "name": "",
          "type": "uint32"
        }
      ],
      "name": "s_pendingDeposits",
      "outputs": [
        {
          "internalType": "uint64",
          "name": "",
          "type": "uint64"
        }
      ],
      "stateMutability": "view",
      "type": "function"
    },
    {
      "inputs": [
        {
          "internalType": "uint256",
          "name": "amount",
          "type": "uint256"
        },
        {
          "internalType": "uint32",
          "name": "tokenId",
          "type": "uint32"
        }
      ],
      "name": "scaleDown",
      "outputs": [
        {
          "internalType": "uint64",
          "name": "amountScaled",
          "type": "uint64"
        }
      ],
      "stateMutability": "view",
      "type": "function"
    },
    {
      "inputs": [
        {
          "internalType": "uint64",
          "name": "amount",
          "type": "uint64"
        },
        {
          "internalType": "uint32",
          "name": "tokenId",
          "type": "uint32"
        }
      ],
      "name": "scaleUp",
      "outputs": [
        {
          "internalType": "uint256",
          "name": "amountScaled",
          "type": "uint256"
        }
      ],
      "stateMutability": "view",
      "type": "function"
    },
    {
      "inputs": [
        {
          "internalType": "address[]",
          "name": "tokenAddress",
          "type": "address[]"
        },
        {
          "internalType": "address[]",
          "name": "aggregatorAddresses",
          "type": "address[]"
        }
      ],
      "name": "setClAggregators",
      "outputs": [],
      "stateMutability": "nonpayable",
      "type": "function"
    },
    {
      "inputs": [
        {
          "internalType": "address",
          "name": "_relay",
          "type": "address"
        }
      ],
      "name": "setMessageRelay",
      "outputs": [],
      "stateMutability": "nonpayable",
      "type": "function"
    },
    {
      "inputs": [
        {
          "internalType": "address",
          "name": "tokenAddress",
          "type": "address"
        },
        {
          "internalType": "uint64",
          "name": "depositId",
          "type": "uint64"
        },
        {
          "internalType": "uint256",
          "name": "starkKey",
          "type": "uint256"
        }
      ],
      "name": "startCancelDeposit",
      "outputs": [],
      "stateMutability": "nonpayable",
      "type": "function"
    },
    {
      "inputs": [
        {
          "internalType": "uint64",
          "name": "depositId",
          "type": "uint64"
        },
        {
          "internalType": "uint256",
          "name": "starkKey",
          "type": "uint256"
        }
      ],
      "name": "startCancelETHDeposit",
      "outputs": [],
      "stateMutability": "nonpayable",
      "type": "function"
    },
    {
      "inputs": [
        {
          "internalType": "address",
          "name": "newOwner",
          "type": "address"
        }
      ],
      "name": "transferOwnership",
      "outputs": [],
      "stateMutability": "nonpayable",
      "type": "function"
    },
    {
      "inputs": [
        {
          "internalType": "address",
          "name": "newImplementation",
          "type": "address"
        },
        {
          "internalType": "bytes",
          "name": "data",
          "type": "bytes"
        }
      ],
      "name": "upgradeToAndCall",
      "outputs": [],
      "stateMutability": "payable",
      "type": "function"
    }
  ],
  "bytecode": "0x60a0806040523461002a573060805261339690816100308239608051818181610deb01526110f00152f35b600080fdfe6040608081526004908136101561001557600080fd5b600091823560e01c908163053d2ce714611afb57816305560c79146117fa578163105a88e3146117be57816312760a7b146117a65781632440fdc2146116cf5781632a2eb26a146116a25781633b0a18f91461141d578163423ec4be1461133057816346357c1e146112f85781634f1ef286146110735781635250e16814610e4757816352d1902d14610dce578163543d7a1914610d8557816357be454414610d3d5781635cffe9de14610970578163613255ab1461094a5781636d3ed7471461091c578163715018a6146108a1578163781f358a146108795781637fd6f15c1461085e5781638237e5381461082357816388526682146107ea5781638da5cb5b146107a357816399bf596414610747578163ad3cb1cc14610690578163c5e4c9f9146104a8578163d02641a014610475578163d28ff48f1461043e578163d9d98ce414610415578163deb6cecd146103c1578163e8da278a14610382578163f08a136414610317578163f1537686146102da578163f2fde38b146102aa578163f340470b146101ea575063f6f01b87146101af57600080fd5b346101e65760203660031901126101e65760ff8160209363ffffffff6101d3611b2b565b1681526005855220541690519015158152f35b5080fd5b919050346102a657806003193601126102a65767ffffffffffffffff9082358281116102a25761021d9036908501611c7e565b92909360243591821161029e5761023691369101611c7e565b909261024061299e565b855b81811061024d578680f35b8061026361025e600193858a61298e565b612071565b61027161025e83878a61298e565b906001600160a01b038091168a526009602052868a2091166001600160a01b031982541617905501610242565b8580fd5b8480fd5b8280fd5b83346102d75760203660031901126102d7576102d46102c7611b9b565b6102cf61299e565b6128f0565b80f35b80fd5b5050346101e65760203660031901126101e65763ffffffff816020936001600160a01b03610306611b9b565b168152600685522054169051908152f35b83346102d75760603660031901126102d757610331611b9b565b6024359067ffffffffffffffff821682036102a65761035b91610352612a4c565b60443591612f55565b60017f9b779b17422d0df92223018b32b4d1fa46e071723d6817e2486d003becc55f005580f35b83346102d75760203660031901126102d7576001600160a01b036103a4611b9b565b6103ac61299e565b166001600160a01b0319600a541617600a5580f35b9050346102a65760203660031901126102a65761040e9067ffffffffffffffff838580602097526006875263ffffffff828220541693358152600b8752818120848252875220541661268b565b9051908152f35b5050346101e657806003193601126101e657602090610432611b9b565b5061040e602435613140565b5050346101e65760203660031901126101e65760ff8160209363ffffffff610464611b2b565b168152600885522054169051908152f35b8284346102d75760203660031901126102d75750610499610494611b9b565b6127c9565b60ff8351921682526020820152f35b919050346102a657806003193601126102a6576104c3611b9b565b916104cc611b13565b917ff0c57e16840df040f15088dc2f81fe391c3923bec73e23a9662efc9c229c6a009384549260ff84841c16159167ffffffffffffffff851694851580610689575b6001809714908161067f575b159081610676575b5061064e5767ffffffffffffffff198116861788558361062f575b50610546613249565b61054e613249565b610557816128f0565b61055f613249565b6001600160a01b036001600160a01b031991168186541617855587805263ffffffff60209660068852858a2092631b0bc2a883199481868254161790558b5260078952868b2090815416905560088852858a2060ff1990600a8282541617905560058952868b2088828254161790558a80526002895287878c209182541617905516908254161790556105f0578480f35b7fc7f505b2f371ae2175ee4913f4499e1f2633a7b5936321eed1cdaeb6115181d29368ff000000000000000019815416905551908152a1388080808480f35b68ffffffffffffffffff1916680100000000000000011787553861053d565b8285517ff92ee8a9000000000000000000000000000000000000000000000000000000008152fd5b90501538610522565b303b15915061051a565b508361050e565b9050346102a657826003193601126102a6578151908282019082821067ffffffffffffffff83111761073457508252600581526020907f352e302e300000000000000000000000000000000000000000000000000000006020820152825193849260208452825192836020860152825b84811061071e57505050828201840152601f01601f19168101030190f35b8181018301518882018801528795508201610700565b846041602492634e487b7160e01b835252fd5b9050346102a657816003193601126102a65761040e9067ffffffffffffffff836020956001600160a01b0361077a611bb1565b1681526006875263ffffffff828220541693358152600b8752818120848252875220541661268b565b5050346101e657816003193601126101e6576020906001600160a01b037f9016d09d72d40fdae2fd8ceac6b6234c7706214fd39c1cd1e609a0528c19930054169051908152f35b8284346102d757816003193601126102d7575067ffffffffffffffff61081b602093610814611b13565b9035612782565b915191168152f35b5050346101e657816003193601126101e657602090517f439148f0bbc682ca079e46d6e2c2f0c1e3b820f1a291b069d8882abf8cf18dd98152f35b5050346101e657816003193601126101e65751908152602090f35b5050346101e657816003193601126101e6576020906001600160a01b03600a54169051908152f35b83346102d757806003193601126102d7576108ba61299e565b806001600160a01b037f9016d09d72d40fdae2fd8ceac6b6234c7706214fd39c1cd1e609a0528c1993008054906001600160a01b031982169055167f8be0079c531659141344cd1fd0a4f28419497f9722a3daafe3b4186f6b6457e08280a380f35b5050346101e657806003193601126101e65760209061040e61093c611bc7565b610944611b13565b9061268b565b5050346101e65760203660031901126101e65760209061040e61096b611b9b565b612557565b9050346102a65760803660031901126102a6578035926001600160a01b03938481168091036101e6576109a1611bb1565b604435906064359667ffffffffffffffff9182891161029e573660238a01121561029e578887013592831161029e57366024848b01011161029e57836109e682612557565b10610cd457169186519763a9059cbb60e01b8952602098898180610a23868a8d8401602090939291936001600160a01b0360408201951681520152565b03818a895af1908115610cca578791610cad575b5015610c6b578860249160c489610a4d86613140565b96808d5196879586947f23e30c8b00000000000000000000000000000000000000000000000000000000865233908601528b828601528960448601528a606486015260a060848601528260a4860152018484013781810183018b9052601f01601f1916810103018189895af18015610c61578690610c14575b7f439148f0bbc682ca079e46d6e2c2f0c1e3b820f1a291b069d8882abf8cf18dd9915003610bd25791610afe610b3a9492899461254a565b918588518096819582946323b872dd60e01b845230908c85016040919493929460608201956001600160a01b0380921683521660208201520152565b03925af1918215610bc75791610b9a575b5015610b5957505160018152f35b82606492519162461bcd60e51b8352820152601960248201527f466c6173684c656e6465723a205265706179206661696c6564000000000000006044820152fd5b610bba9150843d8611610bc0575b610bb28183611c40565b810190612532565b38610b4b565b503d610ba8565b8451903d90823e3d90fd5b6064868989519162461bcd60e51b8352820152601c60248201527f466c6173684c656e6465723a2043616c6c6261636b206661696c6564000000006044820152fd5b508881813d8311610c5a575b610c2a8183611c40565b8101031261029e577f439148f0bbc682ca079e46d6e2c2f0c1e3b820f1a291b069d8882abf8cf18dd99051610ac6565b503d610c20565b88513d88823e3d90fd5b6064878a8a519162461bcd60e51b8352820152601c60248201527f466c6173684c656e6465723a205472616e73666572206661696c6564000000006044820152fd5b610cc491508a3d8c11610bc057610bb28183611c40565b38610a37565b89513d89823e3d90fd5b60848760208a519162461bcd60e51b8352820152602e60248201527f466c6173684c656e6465723a20496e73756666696369656e742066756e64732060448201527f666f7220666c617368206c6f616e0000000000000000000000000000000000006064820152fd5b9050346102a657816003193601126102a6578160209367ffffffffffffffff92610d65611b13565b90358252600b865263ffffffff8383209116825285522054169051908152f35b5050346101e65760203660031901126101e6576020906001600160a01b0361081b610dae611b2b565b63ffffffff1660005260076020526001600160a01b036040600020541690565b8284346102d757806003193601126102d757506001600160a01b037f0000000000000000000000000000000000000000000000000000000000000000163003610e3a57602090517f360894a13ba1a3210667c828492db98dca3e2076cc3735a920a3ca505d382bbc8152f35b5163703e46dd60e11b8152fd5b919050346102a65760603660031901126102a657610e63611b9b565b6001600160a01b0391906024358381169081810361106f578460443593610e88612a4c565b169081885260209560028752610ea360ff878b2054166124e7565b8854163303611007578315610fc557879392919081610f3e57505082809281925af1610ecd6124b7565b5015610efd5750505060017f9b779b17422d0df92223018b32b4d1fa46e071723d6817e2486d003becc55f005580f35b60649350519162461bcd60e51b8352820152601460248201527f4661696c656420746f2073656e642045746865720000000000000000000000006044820152fd5b90915085938597610f7896519687958694859363a9059cbb60e01b85528401602090939291936001600160a01b0360408201951681520152565b03925af1918215610fb857610f9693508492610f9b575b505061246c565b61035b565b610fb19250803d10610bc057610bb28183611c40565b3880610f8f565b50505051903d90823e3d90fd5b6064878787519162461bcd60e51b8352820152601660248201527f4e6f2070656e64696e67207769746864726177616c73000000000000000000006044820152fd5b6084878787519162461bcd60e51b8352820152602a60248201527f4f6e6c792065736361706556657269666965722063616e2063616c6c2074686960448201527f732066756e6374696f6e000000000000000000000000000000000000000000006064820152fd5b8680fd5b918091506003193601126102a657611089611b9b565b90602493843567ffffffffffffffff81116101e657366023820112156101e65780850135936110b785611c62565b6110c385519182611c40565b85815260209586820193368a838301011161029e578186928b8a93018737830101526001600160a01b03807f0000000000000000000000000000000000000000000000000000000000000000168030149081156112ca575b506112bb5761112861299e565b8216958551907f52d1902d00000000000000000000000000000000000000000000000000000000825280828a818b5afa918291879361128b575b505061117e5750505050505191634c9c8ce360e01b8352820152fd5b86899689927f360894a13ba1a3210667c828492db98dca3e2076cc3735a920a3ca505d382bbc9081810361125d5750853b156112485780546001600160a01b0319168317905551869392917fbc7cd75a20ee27fd9adebab32041f755214dbc6bffa90cc0225b39da2e5c2d3b8580a282511561121357505061120f9382915190845af46112096124b7565b916132cd565b5080f35b9350935050503461122357505080f35b7fb398979f000000000000000000000000000000000000000000000000000000008152fd5b508793505191634c9c8ce360e01b8352820152fd5b848a918451917faa1d49a4000000000000000000000000000000000000000000000000000000008352820152fd5b9080929350813d83116112b4575b6112a38183611c40565b8101031261029e5751903880611162565b503d611299565b87865163703e46dd60e11b8152fd5b9050817f360894a13ba1a3210667c828492db98dca3e2076cc3735a920a3ca505d382bbc541614153861111b565b5050346101e65760203660031901126101e6578060209267ffffffffffffffff611320611bc7565b168152600f845220549051908152f35b839150346101e657826003193601126101e65761134b611b9b565b90611354611bb1565b9161135d612a4c565b6001600160a01b039283821693848652600e60205286862090821690818752602052868620549384156113da57508580978682979852600e602052808220838352602052812055156000146113c65750508180809261035b955af16113c06124b7565b5061246c565b610f9694506113d593506130b0565b61246c565b606490602089519162461bcd60e51b8352820152601e60248201527f4e6f2070656e64696e67207769746864726177616c20746f20636c61696d00006044820152fd5b919050346102a657806003193601126102a657611438611b9b565b9063ffffffff80611447611b13565b16855260209160108352808620906001600160a01b03918280825416961686146116605760019560018201548952600b86528289209260029560028401541693848b52875267ffffffffffffffff9687828c20541691821561161e576003986003860154420342811161160b5762069780911611156115c9575050906114d0848b95949361268b565b92631b0bc2a8810361158f5750508280926114f395829354165af16113c06124b7565b600d549285600d5583611504578580f35b7f3fffffffffffffffffffffffffffffffffffffffffffffffffffffffffffffff8416840361157c577fd7b6990105719101dabeb77144f2a3385c8033acd3af97e9423a695e81ad1eb59360021b8401935b84811061156257508580f35b808787925587838201558784820155878582015501611556565b602486601187634e487b7160e01b835252fd5b6115c495506113d594506115bf91925063ffffffff1660005260076020526001600160a01b036040600020541690565b6130b0565b6114f3565b6064918b91519162461bcd60e51b8352820152601e60248201527f4465706f736974206973206e6f7420796574207265636c61696d61626c6500006044820152fd5b60248e60118f634e487b7160e01b835252fd5b6064918b91519162461bcd60e51b8352820152601160248201527f4e6f2070656e64696e6720616d6f756e740000000000000000000000000000006044820152fd5b6064878684519162461bcd60e51b8352820152601160248201527f496e76616c6964206465706f7369746f720000000000000000000000000000006044820152fd5b5050346101e6573660031901126102d75761035b6116be611bc7565b6116c6612a4c565b60243590612d7a565b91905060603660031901126102a6576001600160a01b03906060936117476116f5611b9b565b9460443590602435611705612a4c565b61171963ffffffff8093541684838b612af1565b979098169182865260066020528686205416809215156000146117955761173f91612782565b905b8661314e565b92838367ffffffffffffffff80931693848152600f602052205560017f9b779b17422d0df92223018b32b4d1fa46e071723d6817e2486d003becc55f00558251941684526020840152820152f35b50506117a034612726565b90611741565b83346102d7576102d46117b836611b3e565b91612085565b5050346101e65760203660031901126101e65760ff816020936001600160a01b036117e7611b9b565b1681526002855220541690519015158152f35b839150346101e65760603660031901126101e657611816611b9b565b9061181f611b13565b916044359160ff83168093036102a25761183761299e565b6001600160a01b03809216928315611ab85763ffffffff809516928315611a755761188690858852611874602097600689528a8a20541615612a01565b84885260078752888820541615612a01565b620186a083111561029e57865163313ce56760e01b815285818481885afa908115611a6b579060ff918891611a3e575b50160360ff8111611a2b5760ff1691601283116119e95760607fa0fa9e6f8b5151671d99d8a21fbee478f03ed8c5078386b9716ed66db871ccec91858852600687528888208163ffffffff1982541617905580885260078752888820866001600160a01b0319825416179055600887528888209460ff19958187825416179055600588528989206001878254161790558951918783528883015289820152a18285526002845260ff86862054166119a75750938394827f2db5c923577787b86e45d0fc2e5d9e9a655c9b0d7802164b4e967544fe40786495526002845260018287209182541617905551908152a180f35b6064908487519162461bcd60e51b8352820152601860248201527f5661756c7420616c7265616479207265676973746572656400000000000000006044820152fd5b6064828689519162461bcd60e51b8352820152601660248201527f5363616c6520666163746f7220746f6f206c61726765000000000000000000006044820152fd5b602486601184634e487b7160e01b835252fd5b611a5e9150873d8911611a64575b611a568183611c40565b8101906127b0565b896118b6565b503d611a4c565b88513d89823e3d90fd5b60648360208a519162461bcd60e51b8352820152601860248201527f546f6b656e2049442053686f756c64206e6f74206265203000000000000000006044820152fd5b606482602089519162461bcd60e51b8352820152601d60248201527f546f6b656e20616464726573732053686f756c64206e6f7420626520300000006044820152fd5b83346102d7576102d4611b0d36611b3e565b91611caf565b6024359063ffffffff82168203611b2657565b600080fd5b6004359063ffffffff82168203611b2657565b6040600319820112611b265760043563ffffffff81168103611b26579160243567ffffffffffffffff92838211611b265780602383011215611b26578160040135938411611b265760248460071b83010111611b26576024019190565b600435906001600160a01b0382168203611b2657565b602435906001600160a01b0382168203611b2657565b6004359067ffffffffffffffff82168203611b2657565b67ffffffffffffffff8111611bf257604052565b634e487b7160e01b600052604160045260246000fd5b6080810190811067ffffffffffffffff821117611bf257604052565b6060810190811067ffffffffffffffff821117611bf257604052565b90601f8019910116810190811067ffffffffffffffff821117611bf257604052565b67ffffffffffffffff8111611bf257601f01601f191660200190565b9181601f84011215611b265782359167ffffffffffffffff8311611b26576020808501948460051b010111611b2657565b8215612020576000805b848110611fa057506001600160a01b039081600a5416906040948551967fb0937b5d00000000000000000000000000000000000000000000000000000000885260049163ffffffff9081881660048b0152602094858b602481819a5afa9a8b15611f955760009b611f66575b508a03611f245760005b838110611db65750505050505050600a541692833b15611b265782517fe2db465700000000000000000000000000000000000000000000000000000000815263ffffffff90921660048301526024820152916000908390818381604481015b03925af1908115611dac5750611da15750565b611daa90611bde565b565b513d6000823e3d90fd5b67ffffffffffffffff80611dd3611dce848887612025565b61205c565b16600052600f875260008b812055606080611def848887612025565b0135600052600b8089528c60002086611e138b611e0d888c8b612025565b0161204b565b1660005289528c83611e378183600020541692611e31888c8b612025565b0161205c565b1611611ebc57611e4c8d611e31868a89612025565b91611e58858988612025565b013560005288528b60002085611e738a611e0d878b8a612025565b1660005288528b60002091808354921681831603818111611ea85767ffffffffffffffff199092169116179055600101611d2f565b8a60118a634e487b7160e01b600052526000fd5b60848860288f8c8e91519362461bcd60e51b85528401528201527f416e20696e76616c6964206465706f736974207761732065786563757465642060448201527f6f6666636861696e0000000000000000000000000000000000000000000000006064820152fd5b6064858a519062461bcd60e51b825280600483015260248201527f496e76616c696420616363756d756c61746564206465706f73697420686173686044820152fd5b909a508581813d8311611f8e575b611f7e8183611c40565b81010312611b2657519938611d25565b503d611f74565b8a513d6000823e3d90fd5b90600167080000000000001160c01b01600191611fc1611dce858989612025565b87611ffe60209289611fd885611e0d8b8785612025565b6060611ff68b604097611ff089611e3184848a612025565b95612025565b01359261314e565b815192830193845281830152815261201581611c24565b519020069101611cb9565b505050565b91908110156120355760071b0190565b634e487b7160e01b600052603260045260246000fd5b3563ffffffff81168103611b265790565b3567ffffffffffffffff81168103611b265790565b356001600160a01b0381168103611b265790565b91909181156120205760009260005b83811061234c57506001600160a01b039081600a54166040948551927f06b755f60000000000000000000000000000000000000000000000000000000084528363ffffffff87169384600483015281602460209788935afa90811561234157600091612314575b5088036122ab579086929160005b82811061219557505050917fb6b024ed190b1c1f8da1d5ad2646a7311d56e5bc0fe8cc956a9e7b453f45d20392825191428352820152a1600a541692833b15611b265782517f94e6902a00000000000000000000000000000000000000000000000000000000815263ffffffff9092166004830152602482015291600090839081838160448101611d8e565b829394506121ae610dae87611e0d848697600197612025565b67ffffffffffffffff6121c68b611e31858989612025565b16156122a5576121ed6121de8b611e31858989612025565b61094489611e0d868a8a612025565b908861220560606121ff868a8a612025565b01612071565b8382841693841560001461225f57505016905061222282826132a2565b15612236575b50505b019087939291612109565b600052600e8752896000206000805287526122568a60002091825461254a565b90553880612228565b908261226a926130b0565b15612279575b5050505061222b565b16600052600e88528a60002090600052875261229a8a60002091825461254a565b905538808881612270565b5061222b565b60848488519062461bcd60e51b82526004820152602360248201527f496e76616c696420616363756d756c61746564207769746864726177616c206860448201527f61736800000000000000000000000000000000000000000000000000000000006064820152fd5b90508481813d831161233a575b61232b8183611c40565b81010312611b265751386120fb565b503d612321565b88513d6000823e3d90fd5b9361236061235b868685612025565b61204b565b60209161237283611e0d898988612025565b92604061238481611e318b8b8a612025565b9461239560606121ff8c8c8b612025565b9463ffffffff67ffffffff0000000081831692861b16918083046401000000001490151715612456576123c992169061254a565b9485821b958087046801000000000000000014901517156124565760019567ffffffffffffffff6123fb92169061254a565b936001600160a01b03825191848301968752168282015281815261241e81611c24565b600167080000000000001160c01b0194859151902006815192830193845281830152815261244b81611c24565b519020069401612094565b634e487b7160e01b600052601160045260246000fd5b1561247357565b606460405162461bcd60e51b815260206004820152600f60248201527f5472616e73666572206661696c656400000000000000000000000000000000006044820152fd5b3d156124e2573d906124c882611c62565b916124d66040519384611c40565b82523d6000602084013e565b606090565b156124ee57565b606460405162461bcd60e51b815260206004820152601760248201527f5661756c74206973206e6f7420726567697374657265640000000000000000006044820152fd5b90816020910312611b2657518015158103611b265790565b9190820180921161245657565b60206001600160a01b03916024604051809481937f70a08231000000000000000000000000000000000000000000000000000000008352306004840152165afa9081156125d8576000916125a9575090565b90506020813d6020116125d0575b816125c460209383611c40565b81010312611b26575190565b3d91506125b7565b6040513d6000823e3d90fd5b156125eb57565b606460405162461bcd60e51b815260206004820152601460248201527f546f6b656e206e6f7420726567697374657265640000000000000000000000006044820152fd5b1561263657565b606460405162461bcd60e51b815260206004820152601460248201527f496e76616c6964207363616c6520666163746f720000000000000000000000006044820152fd5b60ff16604d811161245657600a0a90565b9063ffffffff1660009080825260056020526126ad60ff6040842054166125e4565b815260086020526126dd67ffffffffffffffff60ff604084205416936126d6601286111561262f565b169261267a565b918281029281840414901517156126f2575090565b80634e487b7160e01b602492526011600452fd5b8115612710570490565b634e487b7160e01b600052601260045260246000fd5b61277e67ffffffffffffffff91631b0bc2a880600052600560205261275260ff604060002054166125e4565b600052600860205261277860ff60406000205416612773601282111561262f565b61267a565b90612706565b1690565b61277e9063ffffffff67ffffffffffffffff931680600052600560205261275260ff604060002054166125e4565b90816020910312611b26575160ff81168103611b265790565b906001600160a01b0380921691600090838252602090600682526040946127fa63ffffffff878620541615156125e4565b83526009825284832054169182156128e05784519163313ce56760e01b83528083600481875afa9283156128d65782936128b4575b5080600493948751948580927f50d25bcd0000000000000000000000000000000000000000000000000000000082525afa9586156128a957508195612876575b5050509190565b909180939550813d83116128a2575b61288f8183611c40565b810103126102d75750519138808061286f565b503d612885565b51913d9150823e3d90fd5b600493506128cf8291823d8411611a6457611a568183611c40565b935061282f565b86513d84823e3d90fd5b50505090506008906305f5e10090565b6001600160a01b0380911690811561295d577f9016d09d72d40fdae2fd8ceac6b6234c7706214fd39c1cd1e609a0528c199300805490836001600160a01b03198316179055167f8be0079c531659141344cd1fd0a4f28419497f9722a3daafe3b4186f6b6457e0600080a3565b60246040517f1e4fbdf700000000000000000000000000000000000000000000000000000000815260006004820152fd5b91908110156120355760051b0190565b6001600160a01b037f9016d09d72d40fdae2fd8ceac6b6234c7706214fd39c1cd1e609a0528c199300541633036129d157565b60246040517f118cdaa7000000000000000000000000000000000000000000000000000000008152336004820152fd5b15612a0857565b606460405162461bcd60e51b815260206004820152601860248201527f546f6b656e20616c7265616479207265676973746572656400000000000000006044820152fd5b7f9b779b17422d0df92223018b32b4d1fa46e071723d6817e2486d003becc55f006002815414612a7c5760029055565b60046040517f3ee5aeb5000000000000000000000000000000000000000000000000000000008152fd5b15612aad57565b606460405162461bcd60e51b815260206004820152601160248201527f496e76616c696420737461726b204b65790000000000000000000000000000006044820152fd5b93929193612b0e600167080000000000001160c01b018610612aa6565b612b19851515612aa6565b3415612c0757505034612b2b90612726565b600093808552600b6020526040808620631b0bc2a89081885260205267ffffffffffffffff918281892054169581612b638789613207565b99868152600b602052818120858252602052208467ffffffffffffffff199a168a825416179055612b9390613223565b97600c5490848083169a8b612ba791613207565b9a612bb1906131ee565b16911617600c55805193838916855260208501528301528216606082015242608082015260a07f429602b012976e07ac9b27b6c1bac9791626550f52721f02a2523c88808ec7a091a1612c0391613207565b9190565b6001600160a01b03169060009482865260209160028352604093612c3060ff868a2054166124e7565b84516323b872dd60e01b81523360048201523060248201526044810183905284816064818c865af1908115612d705790612c70918a91612d53575061246c565b8752600683528387205463ffffffff169081612c8b91612782565b93828852600b8452808820828952845267ffffffffffffffff9283828a2054169682612cb7888a613207565b9a838152600b88528181208682528852208567ffffffffffffffff199b168b825416179055612ce590613223565b98600c5490858083169b8c612cf991613207565b9b612d03906131ee565b16911617600c55815194848a1686528501528301528216606082015242608082015260a07f429602b012976e07ac9b27b6c1bac9791626550f52721f02a2523c88808ec7a091a1612c0391613207565b612d6a9150863d8811610bc057610bb28183611c40565b386113c0565b86513d8b823e3d90fd5b90600167080000000000001160c01b01811015612f11573315612ecd5767ffffffffffffffff809216906000828152602090600f82526040918282205415612e8a578180526006815263ffffffff80848420541696858452600b83528484208885528352848420541615612e815760036060967ffe5eeb45c725aa6c7460c0a9b5891c86aab2691e00ef4e9e24376ec43264561b98865193612e1b85611c08565b3385528585018981528886019283528a8601934285528852601087526001600160a01b038989209651166001600160a01b03198754161786555160018601556002850191511663ffffffff198254161790555191015582519384528301524290820152a1565b50505050505050565b60649083519062461bcd60e51b82526004820152601260248201527f496e76616c6964206465706f73697420696400000000000000000000000000006044820152fd5b606460405162461bcd60e51b815260206004820152601560248201527f6d73672e73656e6465722063616e2774206265203000000000000000000000006044820152fd5b606460405162461bcd60e51b815260206004820152601160248201527f496e76616c696420737461726b206b65790000000000000000000000000000006044820152fd5b9091600167080000000000001160c01b01811015612f11573315612ecd5767ffffffffffffffff8093169160008381526020600f8152604092838320541561306d576001600160a01b03809116928381526006835263ffffffff9687868320541698878352600b85528683208a84528552868320541615613062577ffe5eeb45c725aa6c7460c0a9b5891c86aab2691e00ef4e9e24376ec43264561b9860609860039388519561300487611c08565b33875289888801928c84528189019586528d890196428852815260108a52209651166001600160a01b03198754161786555160018601556002850191511663ffffffff198254161790555191015582519384528301524290820152a1565b505050505050505050565b60648285519062461bcd60e51b82526004820152601260248201527f496e76616c6964206465706f73697420696400000000000000000000000000006044820152fd5b6001600160a01b03169182600052600260205260ff60406000205416156131385780156131385760405163a9059cbb60e01b81526001600160a01b03929092166004830152602482015290602090829060449082906000905af19081156125d85760009161311c575090565b613135915060203d602011610bc057610bb28183611c40565b90565b505050600190565b156001171561245657600090565b92919067ffffffffffffffff936bffffffffffffffff000000008582169160201b169080820464010000000014901517156124565763ffffffff61319392169061254a565b8060401b9080820468010000000000000000149015171561245657600167080000000000001160c01b01936131c992169061254a565b9060405190602082019283526040820152604081526131e781611c24565b5190200690565b90600167ffffffffffffffff8093160191821161245657565b91909167ffffffffffffffff8080941691160191821161245657565b60201b906bffffffffffffffff0000000067ffffffff0000000083169216820361245657565b60ff7ff0c57e16840df040f15088dc2f81fe391c3923bec73e23a9662efc9c229c6a005460401c161561327857565b60046040517fd7e6bcf8000000000000000000000000000000000000000000000000000000008152fd5b81156132c65760008080936001600160a01b038294165af16132c26124b7565b5090565b5050600190565b9061330c57508051156132e257805190602001fd5b60046040517f1425ea42000000000000000000000000000000000000000000000000000000008152fd5b81511580613357575b61331d575090565b6024906001600160a01b03604051917f9996b315000000000000000000000000000000000000000000000000000000008352166004820152fd5b50803b1561331556fea26469706673582212200952f4ffcd6bbcf804fb0b25aac64b165f2e72bf68845bd12528d26bc15ba23a64736f6c63430008160033",
  "linkReferences": {},
  "deployedLinkReferences": {}
}