{
  "_format": "hh-sol-artifact-1",
  "contractName": "Invisible",
  "sourceName": "src/Invisible.sol",
  "abi": [
    {
      "inputs": [
        {
          "internalType": "address",
          "name": "target",
          "type": "address"
        }
      ],
      "name": "AddressEmptyCode",
      "type": "error"
    },
    {
      "inputs": [
        {
          "internalType": "address",
          "name": "implementation",
          "type": "address"
        }
      ],
      "name": "ERC1967InvalidImplementation",
      "type": "error"
    },
    {
      "inputs": [],
      "name": "ERC1967NonPayable",
      "type": "error"
    },
    {
      "inputs": [],
      "name": "FailedInnerCall",
      "type": "error"
    },
    {
      "inputs": [],
      "name": "InvalidInitialization",
      "type": "error"
    },
    {
      "inputs": [],
      "name": "NotInitializing",
      "type": "error"
    },
    {
      "inputs": [
        {
          "internalType": "address",
          "name": "owner",
          "type": "address"
        }
      ],
      "name": "OwnableInvalidOwner",
      "type": "error"
    },
    {
      "inputs": [
        {
          "internalType": "address",
          "name": "account",
          "type": "address"
        }
      ],
      "name": "OwnableUnauthorizedAccount",
      "type": "error"
    },
    {
      "inputs": [],
      "name": "ReentrancyGuardReentrantCall",
      "type": "error"
    },
    {
      "inputs": [],
      "name": "UUPSUnauthorizedCallContext",
      "type": "error"
    },
    {
      "inputs": [
        {
          "internalType": "bytes32",
          "name": "slot",
          "type": "bytes32"
        }
      ],
      "name": "UUPSUnsupportedProxiableUUID",
      "type": "error"
    },
    {
      "anonymous": false,
      "inputs": [
        {
          "indexed": false,
          "internalType": "address",
          "name": "depositor",
          "type": "address"
        },
        {
          "indexed": false,
          "internalType": "uint256",
          "name": "mmPositionAddress",
          "type": "uint256"
        },
        {
          "indexed": false,
          "internalType": "uint64",
          "name": "usdcAmount",
          "type": "uint64"
        },
        {
          "indexed": true,
          "internalType": "uint32",
          "name": "mmActionId",
          "type": "uint32"
        }
      ],
      "name": "AddLiquidity",
      "type": "event"
    },
    {
      "anonymous": false,
      "inputs": [
        {
          "indexed": false,
          "internalType": "uint256",
          "name": "positionAddress",
          "type": "uint256"
        },
        {
          "indexed": false,
          "internalType": "address",
          "name": "mmOwner",
          "type": "address"
        },
        {
          "indexed": false,
          "internalType": "uint64",
          "name": "initialValueSum",
          "type": "uint64"
        },
        {
          "indexed": false,
          "internalType": "uint64",
          "name": "vlpAmountSum",
          "type": "uint64"
        },
        {
          "indexed": true,
          "internalType": "uint32",
          "name": "mmActionId",
          "type": "uint32"
        }
      ],
      "name": "ClosePositionEvent",
      "type": "event"
    },
    {
      "anonymous": false,
      "inputs": [
        {
          "indexed": false,
          "internalType": "uint256",
          "name": "pubKey",
          "type": "uint256"
        },
        {
          "indexed": false,
          "internalType": "address",
          "name": "tokenAddress",
          "type": "address"
        },
        {
          "indexed": false,
          "internalType": "uint256",
          "name": "timestamp",
          "type": "uint256"
        }
      ],
      "name": "DepositCancelEvent",
      "type": "event"
    },
    {
      "anonymous": false,
      "inputs": [
        {
          "indexed": false,
          "internalType": "uint64",
          "name": "depositId",
          "type": "uint64"
        },
        {
          "indexed": false,
          "internalType": "uint256",
          "name": "pubKey",
          "type": "uint256"
        },
        {
          "indexed": false,
          "internalType": "uint32",
          "name": "tokenId",
          "type": "uint32"
        },
        {
          "indexed": false,
          "internalType": "uint64",
          "name": "depositAmountScaled",
          "type": "uint64"
        },
        {
          "indexed": false,
          "internalType": "uint256",
          "name": "timestamp",
          "type": "uint256"
        }
      ],
      "name": "DepositEvent",
      "type": "event"
    },
    {
      "anonymous": false,
      "inputs": [
        {
          "indexed": false,
          "internalType": "uint64",
          "name": "version",
          "type": "uint64"
        }
      ],
      "name": "Initialized",
      "type": "event"
    },
    {
      "anonymous": false,
      "inputs": [
        {
          "indexed": false,
          "internalType": "address",
          "name": "tokenAddress",
          "type": "address"
        },
        {
          "indexed": false,
          "internalType": "uint32",
          "name": "tokenId",
          "type": "uint32"
        },
        {
          "indexed": false,
          "internalType": "uint8",
          "name": "scaleFactor",
          "type": "uint8"
        }
      ],
      "name": "NewTokenRegisteredEvent",
      "type": "event"
    },
    {
      "anonymous": false,
      "inputs": [
        {
          "indexed": true,
          "internalType": "address",
          "name": "previousOwner",
          "type": "address"
        },
        {
          "indexed": true,
          "internalType": "address",
          "name": "newOwner",
          "type": "address"
        }
      ],
      "name": "OwnershipTransferred",
      "type": "event"
    },
    {
      "anonymous": false,
      "inputs": [
        {
          "indexed": false,
          "internalType": "address",
          "name": "depositor",
          "type": "address"
        },
        {
          "indexed": false,
          "internalType": "uint256",
          "name": "mmPositionAddress",
          "type": "uint256"
        },
        {
          "indexed": false,
          "internalType": "uint64",
          "name": "initialValue",
          "type": "uint64"
        },
        {
          "indexed": false,
          "internalType": "uint64",
          "name": "vlpAmount",
          "type": "uint64"
        },
        {
          "indexed": true,
          "internalType": "uint32",
          "name": "mmActionId",
          "type": "uint32"
        }
      ],
      "name": "RemoveLiquidity",
      "type": "event"
    },
    {
      "anonymous": false,
      "inputs": [
        {
          "indexed": false,
          "internalType": "uint256",
          "name": "timestamp",
          "type": "uint256"
        },
        {
          "indexed": false,
          "internalType": "uint64",
          "name": "txBatchId",
          "type": "uint64"
        }
      ],
      "name": "StoredNewWithdrawalsEvent",
      "type": "event"
    },
    {
      "anonymous": false,
      "inputs": [
        {
          "indexed": false,
          "internalType": "uint256",
          "name": "timestamp",
          "type": "uint256"
        },
        {
          "indexed": false,
          "internalType": "uint64",
          "name": "txBatchId",
          "type": "uint64"
        }
      ],
      "name": "UpdatedPendingDepositsEvent",
      "type": "event"
    },
    {
      "anonymous": false,
      "inputs": [
        {
          "indexed": true,
          "internalType": "address",
          "name": "implementation",
          "type": "address"
        }
      ],
      "name": "Upgraded",
      "type": "event"
    },
    {
      "anonymous": false,
      "inputs": [
        {
          "indexed": false,
          "internalType": "address",
          "name": "tokenAddress",
          "type": "address"
        }
      ],
      "name": "VaultRegisteredEvent",
      "type": "event"
    },
    {
      "anonymous": false,
      "inputs": [
        {
          "indexed": false,
          "internalType": "address",
          "name": "withdrawer",
          "type": "address"
        },
        {
          "indexed": false,
          "internalType": "address",
          "name": "tokenAddress",
          "type": "address"
        },
        {
          "indexed": false,
          "internalType": "uint256",
          "name": "withdrawalAmount",
          "type": "uint256"
        },
        {
          "indexed": false,
          "internalType": "uint256",
          "name": "timestamp",
          "type": "uint256"
        }
      ],
      "name": "WithdrawalEvent",
      "type": "event"
    },
    {
      "anonymous": false,
      "inputs": [
        {
          "indexed": false,
          "internalType": "address",
          "name": "mmOwner",
          "type": "address"
        },
        {
          "indexed": false,
          "internalType": "uint32",
          "name": "syntheticAsset",
          "type": "uint32"
        },
        {
          "indexed": false,
          "internalType": "uint256",
          "name": "positionAddress",
          "type": "uint256"
        },
        {
          "indexed": false,
          "internalType": "uint64",
          "name": "maxVlpSupply",
          "type": "uint64"
        },
        {
          "indexed": false,
          "internalType": "uint32",
          "name": "vlpTokenId",
          "type": "uint32"
        },
        {
          "indexed": true,
          "internalType": "uint32",
          "name": "mmActionId",
          "type": "uint32"
        }
      ],
      "name": "newPerpMMRegistration",
      "type": "event"
    },
    {
      "inputs": [],
      "name": "CALLBACK_SUCCESS",
      "outputs": [
        {
          "internalType": "bytes32",
          "name": "",
          "type": "bytes32"
        }
      ],
      "stateMutability": "view",
      "type": "function"
    },
    {
      "inputs": [],
      "name": "ETH_ID",
      "outputs": [
        {
          "internalType": "uint32",
          "name": "",
          "type": "uint32"
        }
      ],
      "stateMutability": "view",
      "type": "function"
    },
    {
      "inputs": [],
      "name": "UPGRADE_INTERFACE_VERSION",
      "outputs": [
        {
          "internalType": "string",
          "name": "",
          "type": "string"
        }
      ],
      "stateMutability": "view",
      "type": "function"
    },
    {
      "inputs": [
        {
          "internalType": "uint256",
          "name": "",
          "type": "uint256"
        }
      ],
      "name": "addresses",
      "outputs": [
        {
          "internalType": "address",
          "name": "",
          "type": "address"
        }
      ],
      "stateMutability": "view",
      "type": "function"
    },
    {
      "inputs": [
        {
          "internalType": "address",
          "name": "mmOwner",
          "type": "address"
        },
        {
          "internalType": "uint256",
          "name": "tabPosAddress",
          "type": "uint256"
        }
      ],
      "name": "approveMMRegistration",
      "outputs": [],
      "stateMutability": "nonpayable",
      "type": "function"
    },
    {
      "inputs": [
        {
          "internalType": "address",
          "name": "token",
          "type": "address"
        }
      ],
      "name": "claimFailedWithdrawal",
      "outputs": [],
      "stateMutability": "nonpayable",
      "type": "function"
    },
    {
      "inputs": [
        {
          "internalType": "uint256",
          "name": "mmPositionAddress",
          "type": "uint256"
        }
      ],
      "name": "closePerpMarketMaker",
      "outputs": [],
      "stateMutability": "nonpayable",
      "type": "function"
    },
    {
      "inputs": [],
      "name": "escapeVerifier",
      "outputs": [
        {
          "internalType": "address",
          "name": "",
          "type": "address"
        }
      ],
      "stateMutability": "view",
      "type": "function"
    },
    {
      "inputs": [
        {
          "internalType": "address",
          "name": "tokenAddress",
          "type": "address"
        },
        {
          "internalType": "address payable",
          "name": "recipient",
          "type": "address"
        },
        {
          "internalType": "uint256",
          "name": "escapeAmount",
          "type": "uint256"
        }
      ],
      "name": "executeEscape",
      "outputs": [],
      "stateMutability": "nonpayable",
      "type": "function"
    },
    {
      "inputs": [],
      "name": "feePercent",
      "outputs": [
        {
          "internalType": "uint256",
          "name": "",
          "type": "uint256"
        }
      ],
      "stateMutability": "view",
      "type": "function"
    },
    {
      "inputs": [
        {
          "internalType": "address",
          "name": "token",
          "type": "address"
        },
        {
          "internalType": "uint256",
          "name": "amount",
          "type": "uint256"
        }
      ],
      "name": "flashFee",
      "outputs": [
        {
          "internalType": "uint256",
          "name": "",
          "type": "uint256"
        }
      ],
      "stateMutability": "pure",
      "type": "function"
    },
    {
      "inputs": [
        {
          "internalType": "contract IERC3156FlashBorrower",
          "name": "receiver",
          "type": "address"
        },
        {
          "internalType": "address",
          "name": "token",
          "type": "address"
        },
        {
          "internalType": "uint256",
          "name": "amount",
          "type": "uint256"
        },
        {
          "internalType": "bytes",
          "name": "data",
          "type": "bytes"
        }
      ],
      "name": "flashLoan",
      "outputs": [
        {
          "internalType": "bool",
          "name": "",
          "type": "bool"
        }
      ],
      "stateMutability": "nonpayable",
      "type": "function"
    },
    {
      "inputs": [
        {
          "internalType": "uint256",
          "name": "starkKey",
          "type": "uint256"
        },
        {
          "internalType": "address",
          "name": "tokenAddress",
          "type": "address"
        }
      ],
      "name": "getPendingDepositAmount",
      "outputs": [
        {
          "internalType": "uint256",
          "name": "",
          "type": "uint256"
        }
      ],
      "stateMutability": "view",
      "type": "function"
    },
    {
      "inputs": [
        {
          "internalType": "uint256",
          "name": "starkKey",
          "type": "uint256"
        }
      ],
      "name": "getPendingETHDepositAmount",
      "outputs": [
        {
          "internalType": "uint256",
          "name": "",
          "type": "uint256"
        }
      ],
      "stateMutability": "view",
      "type": "function"
    },
    {
      "inputs": [
        {
          "internalType": "uint32",
          "name": "tokenId",
          "type": "uint32"
        }
      ],
      "name": "getScaleFactor",
      "outputs": [
        {
          "internalType": "uint8",
          "name": "",
          "type": "uint8"
        }
      ],
      "stateMutability": "view",
      "type": "function"
    },
    {
      "inputs": [
        {
          "internalType": "uint32",
          "name": "tokenId",
          "type": "uint32"
        }
      ],
      "name": "getTokenAddress",
      "outputs": [
        {
          "internalType": "address",
          "name": "",
          "type": "address"
        }
      ],
      "stateMutability": "view",
      "type": "function"
    },
    {
      "inputs": [
        {
          "internalType": "address",
          "name": "tokenAddress",
          "type": "address"
        }
      ],
      "name": "getTokenId",
      "outputs": [
        {
          "internalType": "uint32",
          "name": "",
          "type": "uint32"
        }
      ],
      "stateMutability": "view",
      "type": "function"
    },
    {
      "inputs": [
        {
          "internalType": "address",
          "name": "tokenAddress",
          "type": "address"
        }
      ],
      "name": "getTokenPrice",
      "outputs": [
        {
          "internalType": "uint8",
          "name": "",
          "type": "uint8"
        },
        {
          "internalType": "uint256",
          "name": "",
          "type": "uint256"
        }
      ],
      "stateMutability": "view",
      "type": "function"
    },
    {
      "inputs": [
        {
          "internalType": "address",
          "name": "initialOwner",
          "type": "address"
        }
      ],
      "name": "initialize",
      "outputs": [],
      "stateMutability": "nonpayable",
      "type": "function"
    },
    {
      "inputs": [
        {
          "internalType": "uint256",
          "name": "mmAddress",
          "type": "uint256"
        }
      ],
      "name": "isAddressRegistered",
      "outputs": [
        {
          "internalType": "bool",
          "name": "",
          "type": "bool"
        }
      ],
      "stateMutability": "view",
      "type": "function"
    },
    {
      "inputs": [
        {
          "internalType": "uint32",
          "name": "syntheticAsset",
          "type": "uint32"
        }
      ],
      "name": "isMarketRegistered",
      "outputs": [
        {
          "internalType": "bool",
          "name": "",
          "type": "bool"
        }
      ],
      "stateMutability": "view",
      "type": "function"
    },
    {
      "inputs": [
        {
          "internalType": "uint32",
          "name": "tokenId",
          "type": "uint32"
        }
      ],
      "name": "isTokenRegistered",
      "outputs": [
        {
          "internalType": "bool",
          "name": "",
          "type": "bool"
        }
      ],
      "stateMutability": "view",
      "type": "function"
    },
    {
      "inputs": [
        {
          "internalType": "address",
          "name": "tokenAddress",
          "type": "address"
        }
      ],
      "name": "isVaultRegistered",
      "outputs": [
        {
          "internalType": "bool",
          "name": "",
          "type": "bool"
        }
      ],
      "stateMutability": "view",
      "type": "function"
    },
    {
      "inputs": [
        {
          "internalType": "address",
          "name": "tokenAddress",
          "type": "address"
        },
        {
          "internalType": "uint256",
          "name": "amount",
          "type": "uint256"
        },
        {
          "internalType": "uint256",
          "name": "starkKey",
          "type": "uint256"
        }
      ],
      "name": "makeDeposit",
      "outputs": [
        {
          "internalType": "uint64",
          "name": "newAmountDeposited",
          "type": "uint64"
        }
      ],
      "stateMutability": "payable",
      "type": "function"
    },
    {
      "inputs": [
        {
          "internalType": "address",
          "name": "token",
          "type": "address"
        }
      ],
      "name": "maxFlashLoan",
      "outputs": [
        {
          "internalType": "uint256",
          "name": "",
          "type": "uint256"
        }
      ],
      "stateMutability": "view",
      "type": "function"
    },
    {
      "inputs": [],
      "name": "owner",
      "outputs": [
        {
          "internalType": "address",
          "name": "",
          "type": "address"
        }
      ],
      "stateMutability": "view",
      "type": "function"
    },
    {
      "inputs": [
        {
          "internalType": "uint32",
          "name": "syntheticToken",
          "type": "uint32"
        },
        {
          "internalType": "uint256",
          "name": "mmPositionAddress",
          "type": "uint256"
        },
        {
          "internalType": "uint256",
          "name": "usdcAmount",
          "type": "uint256"
        }
      ],
      "name": "provideLiquidity",
      "outputs": [],
      "stateMutability": "nonpayable",
      "type": "function"
    },
    {
      "inputs": [],
      "name": "proxiableUUID",
      "outputs": [
        {
          "internalType": "bytes32",
          "name": "",
          "type": "bytes32"
        }
      ],
      "stateMutability": "view",
      "type": "function"
    },
    {
      "inputs": [
        {
          "internalType": "uint32[]",
          "name": "syntheticAssets",
          "type": "uint32[]"
        }
      ],
      "name": "registerNewMarkets",
      "outputs": [],
      "stateMutability": "nonpayable",
      "type": "function"
    },
    {
      "inputs": [
        {
          "internalType": "uint32",
          "name": "syntheticAsset",
          "type": "uint32"
        },
        {
          "internalType": "uint256",
          "name": "positionAddress",
          "type": "uint256"
        },
        {
          "internalType": "uint64",
          "name": "maxVlpSupply",
          "type": "uint64"
        }
      ],
      "name": "registerPerpMarketMaker",
      "outputs": [],
      "stateMutability": "nonpayable",
      "type": "function"
    },
    {
      "inputs": [
        {
          "internalType": "address",
          "name": "tokenAddress",
          "type": "address"
        },
        {
          "internalType": "uint32",
          "name": "tokenId",
          "type": "uint32"
        },
        {
          "internalType": "uint8",
          "name": "offchainDecimals",
          "type": "uint8"
        }
      ],
      "name": "registerToken",
      "outputs": [],
      "stateMutability": "nonpayable",
      "type": "function"
    },
    {
      "inputs": [
        {
          "internalType": "uint32",
          "name": "syntheticToken",
          "type": "uint32"
        },
        {
          "internalType": "uint256",
          "name": "mmPositionAddress",
          "type": "uint256"
        }
      ],
      "name": "removeLiquidity",
      "outputs": [],
      "stateMutability": "nonpayable",
      "type": "function"
    },
    {
      "inputs": [],
      "name": "renounceOwnership",
      "outputs": [],
      "stateMutability": "nonpayable",
      "type": "function"
    },
    {
      "inputs": [
        {
          "internalType": "uint64",
          "name": "",
          "type": "uint64"
        }
      ],
      "name": "s_accumulatedHashesRelayed",
      "outputs": [
        {
          "internalType": "bool",
          "name": "",
          "type": "bool"
        }
      ],
      "stateMutability": "view",
      "type": "function"
    },
    {
      "inputs": [
        {
          "internalType": "address",
          "name": "",
          "type": "address"
        },
        {
          "internalType": "uint256",
          "name": "",
          "type": "uint256"
        }
      ],
      "name": "s_activeLiqudity",
      "outputs": [
        {
          "internalType": "uint64",
          "name": "initialValue",
          "type": "uint64"
        },
        {
          "internalType": "uint64",
          "name": "vlpAmount",
          "type": "uint64"
        }
      ],
      "stateMutability": "view",
      "type": "function"
    },
    {
      "inputs": [
        {
          "internalType": "address",
          "name": "",
          "type": "address"
        },
        {
          "internalType": "uint256",
          "name": "",
          "type": "uint256"
        }
      ],
      "name": "s_approvedPerpMMs",
      "outputs": [
        {
          "internalType": "bool",
          "name": "",
          "type": "bool"
        }
      ],
      "stateMutability": "view",
      "type": "function"
    },
    {
      "inputs": [
        {
          "internalType": "address",
          "name": "",
          "type": "address"
        }
      ],
      "name": "s_clAggregators",
      "outputs": [
        {
          "internalType": "address",
          "name": "",
          "type": "address"
        }
      ],
      "stateMutability": "view",
      "type": "function"
    },
    {
      "inputs": [
        {
          "internalType": "uint256",
          "name": "",
          "type": "uint256"
        }
      ],
      "name": "s_closedPositionLiqudity",
      "outputs": [
        {
          "internalType": "uint64",
          "name": "vlpAmountSum",
          "type": "uint64"
        },
        {
          "internalType": "uint64",
          "name": "returnCollateral",
          "type": "uint64"
        }
      ],
      "stateMutability": "view",
      "type": "function"
    },
    {
      "inputs": [
        {
          "internalType": "address",
          "name": "",
          "type": "address"
        },
        {
          "internalType": "address",
          "name": "",
          "type": "address"
        }
      ],
      "name": "s_failedWithdrawals",
      "outputs": [
        {
          "internalType": "uint256",
          "name": "",
          "type": "uint256"
        }
      ],
      "stateMutability": "view",
      "type": "function"
    },
    {
      "inputs": [],
      "name": "s_gasFeeCollector",
      "outputs": [
        {
          "internalType": "address payable",
          "name": "",
          "type": "address"
        }
      ],
      "stateMutability": "view",
      "type": "function"
    },
    {
      "inputs": [
        {
          "internalType": "uint256",
          "name": "",
          "type": "uint256"
        },
        {
          "internalType": "uint32",
          "name": "",
          "type": "uint32"
        }
      ],
      "name": "s_pendingDeposits",
      "outputs": [
        {
          "internalType": "uint64",
          "name": "",
          "type": "uint64"
        }
      ],
      "stateMutability": "view",
      "type": "function"
    },
    {
      "inputs": [],
      "name": "s_pendingPerpMMCount",
      "outputs": [
        {
          "internalType": "uint32",
          "name": "",
          "type": "uint32"
        }
      ],
      "stateMutability": "view",
      "type": "function"
    },
    {
      "inputs": [
        {
          "internalType": "address",
          "name": "",
          "type": "address"
        }
      ],
      "name": "s_pendingWithdrawals",
      "outputs": [
        {
          "internalType": "uint256",
          "name": "",
          "type": "uint256"
        }
      ],
      "stateMutability": "view",
      "type": "function"
    },
    {
      "inputs": [
        {
          "internalType": "uint32",
          "name": "",
          "type": "uint32"
        }
      ],
      "name": "s_perpMarkets",
      "outputs": [
        {
          "internalType": "bool",
          "name": "",
          "type": "bool"
        }
      ],
      "stateMutability": "view",
      "type": "function"
    },
    {
      "inputs": [
        {
          "internalType": "uint256",
          "name": "",
          "type": "uint256"
        }
      ],
      "name": "s_perpRegistrations",
      "outputs": [
        {
          "internalType": "address",
          "name": "mmOwner",
          "type": "address"
        },
        {
          "internalType": "uint32",
          "name": "syntheticAsset",
          "type": "uint32"
        },
        {
          "internalType": "uint256",
          "name": "positionAddress",
          "type": "uint256"
        },
        {
          "internalType": "uint64",
          "name": "maxVlpSupply",
          "type": "uint64"
        },
        {
          "internalType": "uint32",
          "name": "vlpTokenId",
          "type": "uint32"
        },
        {
          "internalType": "uint64",
          "name": "vlpAmount",
          "type": "uint64"
        }
      ],
      "stateMutability": "view",
      "type": "function"
    },
    {
      "inputs": [
        {
          "internalType": "address",
          "name": "",
          "type": "address"
        }
      ],
      "name": "s_tokenAddress2Id",
      "outputs": [
        {
          "internalType": "uint32",
          "name": "",
          "type": "uint32"
        }
      ],
      "stateMutability": "view",
      "type": "function"
    },
    {
      "inputs": [
        {
          "internalType": "uint32",
          "name": "",
          "type": "uint32"
        }
      ],
      "name": "s_tokenId2Address",
      "outputs": [
        {
          "internalType": "address",
          "name": "",
          "type": "address"
        }
      ],
      "stateMutability": "view",
      "type": "function"
    },
    {
      "inputs": [
        {
          "internalType": "uint32",
          "name": "",
          "type": "uint32"
        }
      ],
      "name": "s_tokenId2ScaleFactor",
      "outputs": [
        {
          "internalType": "uint8",
          "name": "",
          "type": "uint8"
        }
      ],
      "stateMutability": "view",
      "type": "function"
    },
    {
      "inputs": [
        {
          "internalType": "uint32",
          "name": "",
          "type": "uint32"
        }
      ],
      "name": "s_tokenIdIsRegistered",
      "outputs": [
        {
          "internalType": "bool",
          "name": "",
          "type": "bool"
        }
      ],
      "stateMutability": "view",
      "type": "function"
    },
    {
      "inputs": [
        {
          "internalType": "uint64",
          "name": "",
          "type": "uint64"
        }
      ],
      "name": "s_txBatchId2StateRoot",
      "outputs": [
        {
          "internalType": "uint256",
          "name": "",
          "type": "uint256"
        }
      ],
      "stateMutability": "view",
      "type": "function"
    },
    {
      "inputs": [
        {
          "internalType": "uint64",
          "name": "",
          "type": "uint64"
        }
      ],
      "name": "s_txBatchId2Timestamp",
      "outputs": [
        {
          "internalType": "uint256",
          "name": "",
          "type": "uint256"
        }
      ],
      "stateMutability": "view",
      "type": "function"
    },
    {
      "inputs": [
        {
          "internalType": "uint256",
          "name": "amount",
          "type": "uint256"
        },
        {
          "internalType": "uint32",
          "name": "tokenId",
          "type": "uint32"
        }
      ],
      "name": "scaleDown",
      "outputs": [
        {
          "internalType": "uint64",
          "name": "amountScaled",
          "type": "uint64"
        }
      ],
      "stateMutability": "view",
      "type": "function"
    },
    {
      "inputs": [
        {
          "internalType": "uint64",
          "name": "amount",
          "type": "uint64"
        },
        {
          "internalType": "uint32",
          "name": "tokenId",
          "type": "uint32"
        }
      ],
      "name": "scaleUp",
      "outputs": [
        {
          "internalType": "uint256",
          "name": "amountScaled",
          "type": "uint256"
        }
      ],
      "stateMutability": "view",
      "type": "function"
    },
    {
      "inputs": [
        {
          "internalType": "address[]",
          "name": "tokenAddress",
          "type": "address[]"
        },
        {
          "internalType": "address[]",
          "name": "aggregatorAddresses",
          "type": "address[]"
        }
      ],
      "name": "setClAggregators",
      "outputs": [],
      "stateMutability": "nonpayable",
      "type": "function"
    },
    {
      "inputs": [
        {
          "internalType": "address",
          "name": "newVerirfier",
          "type": "address"
        }
      ],
      "name": "setEscapeVerifier",
      "outputs": [],
      "stateMutability": "nonpayable",
      "type": "function"
    },
    {
      "inputs": [
        {
          "internalType": "address",
          "name": "tokenAddress",
          "type": "address"
        },
        {
          "internalType": "uint256",
          "name": "starkKey",
          "type": "uint256"
        }
      ],
      "name": "startCancelDeposit",
      "outputs": [],
      "stateMutability": "nonpayable",
      "type": "function"
    },
    {
      "inputs": [
        {
          "internalType": "uint256",
          "name": "starkKey",
          "type": "uint256"
        }
      ],
      "name": "startCancelETHDeposit",
      "outputs": [],
      "stateMutability": "nonpayable",
      "type": "function"
    },
    {
      "inputs": [
        {
          "internalType": "address",
          "name": "newOwner",
          "type": "address"
        }
      ],
      "name": "transferOwnership",
      "outputs": [],
      "stateMutability": "nonpayable",
      "type": "function"
    },
    {
      "inputs": [
        {
          "internalType": "uint256",
          "name": "mmPositionAddress",
          "type": "uint256"
        }
      ],
      "name": "tryCancelAddLiquidity",
      "outputs": [],
      "stateMutability": "nonpayable",
      "type": "function"
    },
    {
      "inputs": [
        {
          "internalType": "uint256[]",
          "name": "programOutput",
          "type": "uint256[]"
        }
      ],
      "name": "updateStateAfterTxBatch",
      "outputs": [],
      "stateMutability": "nonpayable",
      "type": "function"
    },
    {
      "inputs": [
        {
          "internalType": "address",
          "name": "newImplementation",
          "type": "address"
        },
        {
          "internalType": "bytes",
          "name": "data",
          "type": "bytes"
        }
      ],
      "name": "upgradeToAndCall",
      "outputs": [],
      "stateMutability": "payable",
      "type": "function"
    },
    {
      "inputs": [],
      "name": "version",
      "outputs": [
        {
          "internalType": "uint256",
          "name": "",
          "type": "uint256"
        }
      ],
      "stateMutability": "view",
      "type": "function"
    },
    {
      "inputs": [],
      "name": "withdrawalLiquidity",
      "outputs": [],
      "stateMutability": "nonpayable",
      "type": "function"
    }
  ],
  "bytecode": "0x60a0806040523461002b5730608052615cf0908162000031823960805181818161360601526139270152f35b600080fdfe610140604052600436101561001357600080fd5b600061010052610100513560e01c806305560c7914614002578063063f2ada14613f40578063091d46a914613f02578063105a88e314613ebf578063128bd6bf1461045c5780631367fa8414613e7c578063149e7f4114613bee57806320fd1f1b14613e3e5780632440fdc214613ddb57806324e7cfa514613d8657806325e8eecb14613d07578063266a4f4114613cad5780632f68172214613c2e57806335177a5c14613bee5780633671a8f214613bc957806343d105a714613b845780634e06213214613b355780634f1ef286146138a8578063503318ea146138695780635250e1681461368057806352d1902d146135e9578063543d7a191461359a57806354fd4d501461357a5780635533bfbc1461353c57806357be4544146134e55780635cffe9de146131315780635f74a2da14610a985780636025557814612f35578063613255ab14612f125780636cc76d6214612ee95780636d3ed74714612ebd578063715018a614612e3857806374a0b7ae14612c965780637c504b3514612c705780637fd6f15c14612c505780638237e53814612c1357806385bbadab14612aad5780638852668214612a765780638da5cb5b14612a2e57806399bf5964146129be578063aaab727514612995578063ad3cb1cc146128f3578063af694ca7146128af578063b1a75c7214612882578063c4d66de814612640578063d02641a01461260e578063d236c24714610ad6578063d28ff48f14610a98578063d47d6b661461032f578063d9d98ce414610a71578063deb6cecd14610a15578063e3564dd3146109b3578063e625a8ea14610992578063e7273eeb1461096e578063e9dfa0fe14610896578063edc277691461054a578063edf26d9b146104ee578063efae4406146104a0578063f15376861461045c578063f2fde38b1461042c578063f340470b1461036f578063f6f01b871461032f5763fce4624d146102da57600080fd5b346103285761010051366003190112610328576102f5614f84565b6102fd614e7e565b60017f9b779b17422d0df92223018b32b4d1fa46e071723d6817e2486d003becc55f00556101005180f35b6101005180fd5b346103285760203660031901126103285763ffffffff61034d61434c565b1661010051526013602052602060ff6040610100512054166040519015158152f35b34610328576040366003190112610328576001600160401b03600435818111610328576103a090369060040161447d565b91602435908111610328576103b990369060040161447d565b6103c1614ec2565b610100515b8481106103d4576101005180f35b806103ea6103e56001938888614e5a565b614e6a565b6103f86103e5838688614e5a565b906001600160a01b03809116610100515260176020526040610100512091166001600160a01b0319825416179055016103c6565b346103285760203660031901126103285761045561044861430d565b610450614ec2565b614dbc565b6101005180f35b34610328576020366003190112610328576001600160a01b0361047d61430d565b1661010051526014602052602063ffffffff604061010051205416604051908152f35b3461032857602036600319011261032857610100805160043590526007602090815290516040908190205481516001600160401b03808316825291831c9091169281019290925290f35b0390f35b3461032857602036600319011261032857600435601154811015610328576001600160a01b03602091601161010051527f31ecc21a745e3968a04e9570e4425bc18fa8019c68028196b546d1669c200c68015416604051908152f35b346103285760603660031901126103285761056361434c565b6001600160401b036024356044358281169081900361089157336101005152602090600a825260406101005120836101005152825260ff604061010051205416156108275763ffffffff809516908161010051526009835260ff604061010051205416156107e357836101005152600c8352600160406101005120015461079f576008549386851692876105f685614d8f565b1693620186a0851015610328577ff3fad21df399baa618c576cd2c34e0a39241f96cde8ac1fbe066cb297636389c9760a0978a61063561075094614d8f565b169063ffffffff1916176008556040519061064f826143a6565b33825287808301858152826002604086019589875260608101968b885260808201948d86528f600c908401976101005189528d6101005152526001600160a01b03604061010051209351167fffffffffffffffff00000000000000000000000000000000000000000000000077ffffffff00000000000000000000000000000000000000008554935160a01b16921617178255516001820155019451166bffffffff00000000000000008554925160401b16916bffffffffffffffffffffffff191617178355511673ffffffffffffffff0000000000000000000000001973ffffffffffffffff00000000000000000000000083549260601b169116179055565b6008549788861c169767ffffffff0000000061076b8a614632565b871b169067ffffffff0000000019161760085560405194338652850152604084015260608301526080820152a26101005180f35b6064836040519062461bcd60e51b82526004820152601260248201527f616c7265616479207265676973746572656400000000000000000000000000006044820152fd5b6064836040519062461bcd60e51b82526004820152601a60248201527f50657270206d61726b657420646f6573206e6f742065786973740000000000006044820152fd5b6084826040519062461bcd60e51b82526004820152602d60248201527f4f6e6c7920617070726f7665642070657270206d61726b6574206d616b65727360448201527f2063616e207265676973746572000000000000000000000000000000000000006064820152fd5b600080fd5b3461032857602080600319360112610328576004356001600160401b0381116103285736602382011215610328578060040135906108d3826144ad565b916108e16040519384614441565b8083526024602084019160051b8301019136831161032857602401905b82821061095257505050610910614ec2565b610100515b8151811015610455578063ffffffff61093060019385614d7b565b5116610100515260098452604061010051208260ff1982541617905501610915565b813563ffffffff811681036108915781529084019084016108fe565b3461032857602036600319011261032857610987614f84565b6102fd600435615352565b346103285761010051366003190112610328576020604051631b0bc2a88152f35b34610328576040366003190112610328576001600160a01b036109d461430d565b6109dc614ec2565b166101005152600a60205260406101005120602435610100515260205260406101005120600160ff198254161790556101005161010051f35b34610328576020366003190112610328576000805260146020526020610a6963ffffffff604060002054166004356000526018835260406000208160005283526001600160401b0360406000205416614b2d565b604051908152f35b3461032857604036600319011261032857610a8a61430d565b506020610a69602435615275565b346103285760203660031901126103285763ffffffff610ab661434c565b1661010051526016602052602060ff604061010051205416604051908152f35b34610328576020366003190112610328576004356001600160401b03811161032857610b0690369060040161447d565b610b0e614ec2565b610b16614f84565b610b1e615695565b508060041161032857610b2f615695565b5060405190610b3d826143c1565b60408381013563ffffffff81811685528535602080870191909152808701358685015282841c60ff1660608088019190915292811c909116608086015290850135605081901c61ffff90811660a087015281841c811660c0870152603082901c811660e08701529181901c821661010086015280821661012086015260101c1661014084015251610bcd816143a6565b61010051815261010051602082015261010051604082015261010051606082015261010051608082015260a0610100519101526003198101156125f45760405192610c17846143a6565b63ffffffff608082810135608881901c8316875260ff81831c16602080890191909152606082811c85166040808b0182905284901c8616918a01919091529082901c841692880192909252821660a0870152600302908116036113f25763ffffffff8080608084013560601c1660030216600101116113f25763ffffffff606085015116600502918263ffffffff8116036113f257610ce8610cd763ffffffff610d13951663ffffffff80608087013560601c1660030216600101614da4565b63ffffffff60808801511690614da4565b91608063ffffffff610d066003198501958260a08b01511690614da4565b16926003190191016156e8565b9063ffffffff610d288160a087015116615703565b1682811161032857610d3c600382046144ad565b90610d4a6040519283614441565b60038104808352601f1990610d5e906144ad565b01610100515b8181106125dd575050610100515b81811061253f575050508163ffffffff610d958160a0610d9c9798015116615703565b16916156e8565b610dad61ffff60a08501511661571b565b918161ffff84161161032857610dc9617fff8460011c166144ad565b92610dd76040519485614441565b600181901c617fff16808552601f1990610df0906144ad565b01610100515b818110612516575050610100515b61ffff8216811061249457505090610e29918161ffff610d958160a08901511661571b565b90610e3b61ffff60c08601511661571b565b8261ffff82161161032857610e67610e59617fff8360011c166144ad565b60405160c05260c051614441565b617fff8160011c1660c05152601f19610e86617fff8360011c166144ad565b01610100515b818110612469575050610100515b61ffff821681106123da57505090610ebf918161ffff610d958160c08901511661571b565b61ffff610ed18160e087015116615732565b16908082116103285761010051928392839081805b8281106123325750610efd63ffffffff82166159c1565b61012052610f1063ffffffff88166159c1565b96610f2063ffffffff88166159c1565b96610f3063ffffffff86166159c1565b60a05261010051925b8484106121b15750505050505090610f5e918161ffff610d958160e08b015116615732565b610f86610f8161ffff6101008996959601511661ffff6101408a0151169061575f565b615748565b928161ffff85161161032857610fa2613fff8560021c166144ad565b93610fb06040519586614441565b600281901c613fff16808652610fc5906144ad565b610100515b601f1982018110612176575050610100515b61ffff821681106120ad5750509061100f918161ffff610d95610f818b836101408161010084015116920151169061575f565b9390600661ffff6101208901511602948561ffff8116036113f25761ffff86161161032857611044600661ffff8716046144ad565b946110526040519687614441565b600661ffff821604808752611066906144ad565b610100515b601f1982018110612057575050610100515b61ffff82168110611f1e575050506001600160401b03865116956001600160401b03601c5416809703611eda576020810151876101005152601d602052604061010051205403611e965763ffffffff608082015116421115611e5257610100515b8651811015611204576110f18188614d7b565b5190602082519201519182610100515260186020526040610100512063ffffffff8260401c1661010051526020526001600160401b0381166001600160401b036040610100512054161061119a57600192610100515260186020526040610100512063ffffffff8260401c16610100515260205260406101005120906001600160401b036111858184549316828416614619565b16906001600160401b031916179055016110de565b608460405162461bcd60e51b815260206004820152602860248201527f416e20696e76616c6964206465706f736974207761732065786563757465642060448201527f6f6666636861696e0000000000000000000000000000000000000000000000006064820152fd5b50604080514281526001600160401b03891660208201527fe73055b4c53403597e4db3f0eb4dd4ca358a3d2cdf10ce573b8ec0d7a057ea0b9190a1611247615a27565b601c546101005160808190526012546001600160401b0390811660e052909691169486949091855b60c05151811015611528576112868160c051614d7b565b516001600160a01b036020825192015116906001600160401b0381161561151e5763ffffffff8160601c1660e0510361151e5763ffffffff891663ffffffff8260401c16036113ad575b906112f1826001600160401b0363ffffffff6001969560401c169116614b2d565b906001600160a01b0360805116801560001461135a57506113138c8383615b5f565b15611322575b50505b0161126f565b6101005152601b602052604061010051206101005161010051526020526113516040610100512091825461460c565b90558a80611319565b906113698d848360805161580f565b15611377575b50505061131c565b6101005152601b602052604061010051209061010051526020526113a36040610100512091825461460c565b90558a808061136f565b995060408a901c63ffffffff16975090631b0bc2a8880361140c576101005160805261520891823a8102043a036113f2576112f16001933a029b5b91929350506112d0565b634e487b7160e01b61010051526011600452602461010051fd5b63ffffffff8a60401c16610100515260156020526001600160a01b036040610100512054166080526201388091823a8102043a036113f25761144f608051614ce9565b9093611459614bdc565b9190926040519063313ce56760e01b82526020826004816080515afa9182156115105761010051926114df575b5060ff808616601201116113f2576114cd6114c76114d9956114bf60019b6114ba6114d39760ff6112f19c16601201614f70565b614f70565b953a02614ac1565b93614ab0565b90614ac1565b90614b51565b9b6113e8565b61150291925060203d602011611509575b6114fa8183614441565b810190614bc3565b9038611486565b503d6114f0565b6040513d61010051823e3d90fd5b505060019061131c565b50604080514281526001600160401b03891660208201527f32bf24d8be330e07624f644b504559770580e270aaa9f5228fb5aea491b689849190a1610100515b6101205151811015611642578061158460019261012051614d7b565b5160408101519051806101005152600c60205260406101005120600281019182549163ffffffff8560881c1663ffffffff8460401c16149283611627575b508261161a575b50506115d8575b505001611568565b805473ffffffffffffffff000000000000000000000000191660589290921b73ffffffffffffffff0000000000000000000000001691909117905587806115d0565b8601541490508a806115c9565b9092506001600160401b03808660481c16911614918c6115c2565b508493610100515b85518110156117e6578061166060019288614d7b565b5160408101516001600160401b03808260481c169160081c16906001600160a01b03602084015116925190836101005152610100516020526040610100512082610100515260205260406101005120938454946001600160401b036116c786828916614619565b166001600160401b0319809716179055806101005152600260205260406101005120836101005152602052604061010051208054866001600160401b0361171086828516614972565b169116179055610100515260026020526040610100512082610100515260205261178260406101005120611751856001600160401b03835460401c16614972565b6fffffffffffffffff0000000000000000196fffffffffffffffff000000000000000083549260401b169116179055565b81610100515260036020526040610100512090846001600160401b036117ac845493828516614972565b1691161790556101005152600460205260406101005120916001600160401b036117da845493828516614972565b1691161790550161164a565b5083600154805b611d425750610100515b8451811015611996578061180d60019287614d7b565b5161196661196160408301516001600160401b038160881c16906001600160401b03808260481c169160081c16906001600160a01b03928360208801511696519187610100515260026020526040610100512083610100515260205260406101005120906118a3825492611751836001600160401b038061189089828a16614619565b1681198098161780855560401c16614619565b8361010051526003602052604061010051208054836001600160401b036118cc87828516614619565b169116179055836101005152600460205260406101005120916001600160401b036118fb845493828516614619565b1691161790558083111561198b576001600160401b0361191d60059285614619565b1604925b61192a84614ad4565b916101005152600c6020526040610100512054166101005152600660205261195a6040610100512091825461460c565b9055614619565b614ad4565b90610100515260066020526119836040610100512091825461460c565b9055016117f7565b506101005192611921565b5082610100515b60a05151811015611ae85780611ad76119ba60019360a051614d7b565b516001600160401b03604082015191818360881c16611a6a838560081c16925192836101005152600360205260406101005120928519938481541690556004602052604061010051208481541690556101005150808211600014611add5785611a2560059284614619565b1604905b611a3282614ad4565b856101005152600c6020526001600160a01b036040610100512054166101005152600660205261195a6040610100512091825461460c565b918360405195611a7987614375565b60481c1685528360208601931683526101005152600760205282604061010051209451169084541617835551166fffffffffffffffff0000000000000000196fffffffffffffffff000000000000000083549260401b169116179055565b0161199d565b506101005190611a29565b50906001600160a01b036021541690813b156103285760405180927f52fa4c5300000000000000000000000000000000000000000000000000000000825260248201602060048401528351809152602060448401940190610100515b818110611d065750505081806101005194039161010051905af1801561151057611cf7575b506001600160a01b036021541690813b156103285760405180927f1ac8bd1800000000000000000000000000000000000000000000000000000000825260248201602060048401528351809152602060448401940190610100515b818110611c945750505081806101005194039161010051905af1801561151057611c7d575b50601c549060406001600160401b03611c0381851661495a565b1691826001600160401b0319851617601c550151916101005116176101005152601d60205260406101005120556001600160401b03601c54166101005152601e60205242604061010051205560017f9b779b17422d0df92223018b32b4d1fa46e071723d6817e2486d003becc55f00556101005161010051f35b611c869061442e565b610100516103285781611be9565b919460019193945060e060209160c08851805183526001600160a01b0385820151168584015260408101516040840152606081015160608401526080810151608084015260a081015160a0840152015160c0820152019501910191859392611bc4565b611d009061442e565b82611b69565b91946001919394506080602091606088518051835284810151858401526040810151604084015201516060820152019501910191859392611b44565b806000198101116113f257611d5a6000198201614535565b5060405190611d6882614375565b6001600160a01b039060018282541691828552015490602084019182526101005152610100516020526040610100512090516101005152602052611dbb6001600160401b03604061010051205416614ad4565b91511661010051526006602052611dda6040610100512091825461460c565b90556001548015611e3857611df26000198201614535565b611e1c576101005181556001610100519101556000190160015580156113f25760001901806117ed565b634e487b7160e01b610100515261010051600452602461010051fd5b634e487b7160e01b61010051526031600452602461010051fd5b606460405162461bcd60e51b815260206004820152601c60248201527f496e76616c69642065787069726174696f6e2074696d657374616d70000000006044820152fd5b606460405162461bcd60e51b815260206004820152601260248201527f496e76616c696420737461746520726f6f7400000000000000000000000000006044820152fd5b606460405162461bcd60e51b815260206004820152601160248201527f696e76616c6964207478426174636849640000000000000000000000000000006044820152fd5b611f2d8161ffff841685614e5a565b356001820182116113f2576001600160a01b03611f526001840161ffff861687614e5a565b3516906002830183116113f257611f716002840161ffff861687614e5a565b35916003840184116113f257611f8f6003850161ffff871688614e5a565b356004850185116113f257611fac6004860161ffff881689614e5a565b356005860186116113f257611fc96005870161ffff89168a614e5a565b35916006870187116113f25761203095611feb6006890161ffff8b168c614e5a565b359460405196611ffa88614413565b8752602087015260408601526060850152608084015260a083015260c08201526007830490612029828b614d7b565b5288614d7b565b50600681018091111561107d57634e487b7160e01b61010051526011600452602461010051fd5b60209060405161206681614413565b61010051815261010051838201526101005160408201526101005160608201526101005160808201526101005160a08201526101005160c082015282828b0101520161106b565b6120bc8161ffff841685614e5a565b356001820182116113f2576120d96001830161ffff851686614e5a565b35906002830183116113f2576120f76002840161ffff861687614e5a565b35916003840184116113f25761214f926121196003860161ffff881689614e5a565b359160405193612128856143f8565b84526020840152604083015260608201528260021c90612148828a614d7b565b5287614d7b565b506004810180911115610fdc57634e487b7160e01b61010051526011600452602461010051fd5b602090604051612185816143f8565b610100518152610100518382015261010051604082015261010051606082015282828a01015201610fca565b6121bc848689614e5a565b35600185018086116113f2576121d390878a614e5a565b356002860186116113f2578a60ff8d926121f28c8b60028c0191614e5a565b359060405195612201876143dd565b86526020860152806040860152168015600014612269575050509061225061225692612238610120515163ffffffff851690615775565b906122468261012051614d7b565b5261012051614d7b565b50615a11565b925b600381018091116113f25792610f39565b93969593919291600181036122ac575050816122509161229f6122986122a696955163ffffffff871690615775565b8093614d7b565b528c614d7b565b91612258565b939593909250600281036122e7575081612250916122da6122986122e19697955163ffffffff871690615775565b528b614d7b565b90612258565b6003919250146122f8575b50612258565b9561225061232b929761231560a0515163ffffffff851690615775565b906123228260a051614d7b565b5260a051614d7b565b948c6122f2565b906002820182116113f25760ff61234d600284018588614e5a565b351680612386575061235e90614d8f565b905b6003810180911115610ee657634e487b7160e01b61010051526011600452602461010051fd5b91979091600181036123a3575061239c90614d8f565b965b612360565b90979690600281036123bf57506123b990614d8f565b95612360565b9096906002190161239e57926123d490614d8f565b92612360565b6123e98161ffff841685614e5a565b356001820182116113f257612442906001600160a01b036124126001850161ffff871688614e5a565b35166040519161242183614375565b825260208201528260011c906124398260c051614d7b565b5260c051614d7b565b506002810180911115610e9a57634e487b7160e01b61010051526011600452602461010051fd5b60209060405161247881614375565b6101005181526101005183820152828260c05101015201610e8c565b6124a38161ffff841685614e5a565b356001820182116113f2576124ef906124c46001840161ffff861687614e5a565b35604051916124d283614375565b825260208201528260011c906124e88289614d7b565b5286614d7b565b506002810180911115610e0457634e487b7160e01b61010051526011600452602461010051fd5b60209060405161252581614375565b610100518152610100518382015282828901015201610df6565b63ffffffff61254f828487614e5a565b3516600182018083116113f257612567908487614e5a565b35906002830183116113f2576125b691612585600285018689614e5a565b359060405192612594846143dd565b83526020830152604082015260038304906125af8287614d7b565b5284614d7b565b506003810180911115610d7257634e487b7160e01b61010051526011600452602461010051fd5b6020906125e86159a2565b82828701015201610d64565b634e487b7160e01b61010051526032600452602461010051fd5b3461032857602036600319011261032857604061263161262c61430d565b614ce9565b60ff8351921682526020820152f35b34610328576020806003193601126103285761265a61430d565b907ff0c57e16840df040f15088dc2f81fe391c3923bec73e23a9662efc9c229c6a0091825460ff8160401c1615906001600160401b0381169283158061287b575b60018095149081612871575b159081612868575b5061283e5767ffffffffffffffff1982811685178755918361281f575b506126d5615949565b6126dd615949565b6126e681614dbc565b6126ee615949565b6001600160a01b036001600160a01b0319911681600f541617600f556101005161010051526014855260406101005120631b0bc2a8908163ffffffff1982541617905561010051526015855260406101005120908154169055601684526040610100512060ff1990600a828254161790556013855260406101005120848282541617905561010051610100515260108552836040610100512091825416179055628ab75d816012541617601255601c5416601c55601d83527f056b03fb25a6b461493d8d902f42874dde8b8422fd27f7869e70e61132bdcd2f6040610100512055816022556127de576101005180f35b7fc7f505b2f371ae2175ee4913f4499e1f2633a7b5936321eed1cdaeb6115181d29268ff0000000000000000198154169055604051908152a1808080610455565b68ffffffffffffffffff191668010000000000000001178655866126cc565b60046040517ff92ee8a9000000000000000000000000000000000000000000000000000000008152fd5b905015876126af565b303b1591506126a7565b508261269b565b34610328576040366003190112610328576102fd61289e61430d565b6128a6614f84565b6024359061553f565b346103285760203660031901126103285763ffffffff6128cd61434c565b166101005152601560205260206001600160a01b03604061010051205416604051908152f35b3461032857610100513660031901126103285760405161291281614375565b600581526020907f352e302e30000000000000000000000000000000000000000000000000000000602082015260405180926020825282519081602084015261010051935b82851061297c5750506040925061010051838284010152601f80199101168101030190f35b8481018201518686016040015293810193859350612957565b3461032857610100513660031901126103285760206001600160a01b03600f5416604051908152f35b34610328576040366003190112610328576001600160a01b036129df614323565b16610100515260146020526020610a6963ffffffff6040610100512054166004356101005152601883526040610100512081610100515283526001600160401b03604061010051205416614b2d565b3461032857610100513660031901126103285760206001600160a01b037f9016d09d72d40fdae2fd8ceac6b6234c7706214fd39c1cd1e609a0528c1993005416604051908152f35b34610328576040366003190112610328576020612a9c612a94614339565b600435614b71565b6001600160401b0360405191168152f35b346103285760208060031936011261032857612ac761430d565b612acf614f84565b336101005152601b82526001600160a01b036040610100512091169081610100515282526040610100512054908115612bcf57336101005152601b83526040610100512081610100515283526101005160406101005120558015600014612b525750610100516102fd925090819081908190335af1612b4c61492a565b506148df565b60405163a9059cbb60e01b81523360048201526024810192909252829082908180604481015b039161010051905af190811561151057612b9d926101005192612ba2575b50506148df565b6102fd565b612bc19250803d10612bc8575b612bb98183614441565b8101906148c7565b8280612b96565b503d612baf565b6064836040519062461bcd60e51b82526004820152601d60248201527f4e6f206661696c6564207769746864726177616c20746f20636c61696d0000006044820152fd5b3461032857610100513660031901126103285760206040517f439148f0bbc682ca079e46d6e2c2f0c1e3b820f1a291b069d8882abf8cf18dd98152f35b346103285761010051366003190112610328576020604051610100518152f35b34610328576101005136600319011261032857602063ffffffff600b5416604051908152f35b346103285760208060031936011261032857600435806101005152600c82526040610100512091604051612cc9816143a6565b83549360026001600160a01b0386169182845263ffffffff809760a01c16858501526001810154604085015201549160a06001600160401b0384818096166060850152888160401c16608085015260601c169101523303612dce57916080917ff0be4d45a4b0c97a58e137eb4e5f3ee1946352b0634474b7f181b1d9e00b4c4a93826101005152600d825260406101005120600160ff1982541617905560038252806040610100512054169060048352604061010051205416916008549687821c169667ffffffff00000000612d9e89614632565b831b169067ffffffff00000000191617600855604051938452339084015260408301526060820152a26101005180f35b6084826040519062461bcd60e51b82526004820152602560248201527f4f6e6c7920746865206f776e65722063616e20636c6f73652074686520706f7360448201527f6974696f6e0000000000000000000000000000000000000000000000000000006064820152fd5b34610328576101005136600319011261032857612e53614ec2565b7f9016d09d72d40fdae2fd8ceac6b6234c7706214fd39c1cd1e609a0528c19930080546001600160a01b0319811690915561010051906001600160a01b03167f8be0079c531659141344cd1fd0a4f28419497f9722a3daafe3b4186f6b6457e08280a36101005180f35b34610328576040366003190112610328576020610a69612edb61435f565b612ee3614339565b90614b2d565b3461032857610100513660031901126103285760206001600160a01b03600e5416604051908152f35b34610328576020366003190112610328576020610a69612f3061430d565b61498d565b3461032857606036600319011261032857612f4e61434c565b6024356044359063ffffffff809316610100515260209160098352612f7c60ff604061010051205416614585565b612faa612fa583600052600c6020526001600160401b0360026040600020015460601c16151590565b6144c4565b816101005152600d835260ff6040610100512054166130ed57916114d36060927faa43054738c0ccc1d25109def7436a8b764fbd8a5415e121d2a16c2f84d5a4b79461d90380610100515260158552613013826001600160a01b03604061010051205416615283565b8061010051526013855261303060ff604061010051205416614a1a565b61010051526016845261306560ff604061010051205416916130556012841115614a65565b6001600160401b03948593614ab0565b1691336101005152610100518452604061010051208261010051528452604061010051209081549061309985828416614972565b16906001600160401b0319161790556008549586841c169567ffffffff000000006130c388614632565b851b169067ffffffff00000000191617600855604051923384528301526040820152a26101005180f35b6064836040519062461bcd60e51b82526004820152600f60248201527f706f736974696f6e20636c6f73656400000000000000000000000000000000006044820152fd5b34610328576080366003190112610328576004356001600160a01b039081811680910361032857613160614323565b9160443590606435906001600160401b0394858311610328573660238401121561032857826004013595861161032857366024878501011161032857836131a68261498d565b1061347b5760405163a9059cbb60e01b81526001600160a01b03861660048201526024810185905260209691909216939186818060448101038161010051895af190811561151057610100519161345e575b501561341a5785602460c461320c85615275565b958460405195869485937f23e30c8b0000000000000000000000000000000000000000000000000000000085523360048601528b828601528960448601528a606486015260a060848601528260a4860152018484013761010051838284010152601f8019910116810103018161010051895af180156115105761010051906133cd575b7f439148f0bbc682ca079e46d6e2c2f0c1e3b820f1a291b069d8882abf8cf18dd991500361338957916132c76132ff9492869461460c565b6040516323b872dd60e01b81526001600160a01b03909316600484015230602484015260448301529092839190829081906064820190565b039161010051905af190811561151057610100519161336c575b50156133285760405160018152f35b6064906040519062461bcd60e51b82526004820152601960248201527f466c6173684c656e6465723a205265706179206661696c6564000000000000006044820152fd5b6133839150823d8411612bc857612bb98183614441565b82613319565b6064856040519062461bcd60e51b82526004820152601c60248201527f466c6173684c656e6465723a2043616c6c6261636b206661696c6564000000006044820152fd5b508581813d8311613413575b6133e38183614441565b81010312610328577f439148f0bbc682ca079e46d6e2c2f0c1e3b820f1a291b069d8882abf8cf18dd9905161328f565b503d6133d9565b6064866040519062461bcd60e51b82526004820152601c60248201527f466c6173684c656e6465723a205472616e73666572206661696c6564000000006044820152fd5b6134759150873d8911612bc857612bb98183614441565b876131f8565b608460405162461bcd60e51b815260206004820152602e60248201527f466c6173684c656e6465723a20496e73756666696369656e742066756e64732060448201527f666f7220666c617368206c6f616e0000000000000000000000000000000000006064820152fd5b34610328576040366003190112610328576134fe614339565b6004356101005152601860205263ffffffff604061010051209116610100515260205260206001600160401b03604061010051205416604051908152f35b34610328576020366003190112610328576001600160a01b0361355d61430d565b166101005152600660205260206040610100512054604051908152f35b346103285761010051366003190112610328576020602254604051908152f35b346103285760203660031901126103285760206135d86135b861434c565b63ffffffff1660005260156020526001600160a01b036040600020541690565b6001600160a01b0360405191168152f35b346103285761010051366003190112610328576001600160a01b037f00000000000000000000000000000000000000000000000000000000000000001630036136565760206040517f360894a13ba1a3210667c828492db98dca3e2076cc3735a920a3ca505d382bbc8152f35b60046040517fe07c8dba000000000000000000000000000000000000000000000000000000008152fd5b346103285760603660031901126103285761369961430d565b6001600160a01b0390602435828116908181036103285783604435936136bd614f84565b1690816101005152602094601086526136df60ff60406101005120541661487c565b600e541633036137ff5783156137bb5784919081613786575050610100519283928392508291905af161371061492a565b5015613742575060017f9b779b17422d0df92223018b32b4d1fa46e071723d6817e2486d003becc55f00556101005180f35b6064906040519062461bcd60e51b82526004820152601460248201527f4661696c656420746f2073656e642045746865720000000000000000000000006044820152fd5b60405163a9059cbb60e01b81526001600160a01b03909116600482015260248101949094529091508290818060448101612b78565b6064856040519062461bcd60e51b82526004820152601660248201527f4e6f2070656e64696e67207769746864726177616c73000000000000000000006044820152fd5b6084856040519062461bcd60e51b82526004820152602a60248201527f4f6e6c792065736361706556657269666965722063616e2063616c6c2074686960448201527f732066756e6374696f6e000000000000000000000000000000000000000000006064820152fd5b346103285760203660031901126103285760206001600160a01b038061388d61430d565b16610100515260178252604061010051205416604051908152f35b6040366003190112610328576138bc61430d565b6024908135906001600160401b0382116103285736602383011215610328578160040135916138ea83614462565b6138f76040519182614441565b838152602093848201923687838301011161032857868291018437846101005191830101526001600160a01b03807f000000000000000000000000000000000000000000000000000000000000000016803014908115613b07575b506136565761395f614ec2565b831693604051907f52d1902d0000000000000000000000000000000000000000000000000000000082528082600481895afa9182916101005193613ad7575b50506139bb57858560405190634c9c8ce360e01b82526004820152fd5b857f360894a13ba1a3210667c828492db98dca3e2076cc3735a920a3ca505d382bbc91828103613aa95750843b15613a935750846001600160a01b0319825416179055604051937fbc7cd75a20ee27fd9adebab32041f755214dbc6bffa90cc0225b39da2e5c2d3b6101005161010051a2805115613a5d57613a559350610100519161010051915190845af4613a4f61492a565b91615c27565b506101005180f35b50505034613a6b5750610455565b807fb398979f0000000000000000000000000000000000000000000000000000000060049252fd5b8560405190634c9c8ce360e01b82526004820152fd5b604051907faa1d49a40000000000000000000000000000000000000000000000000000000082526004820152fd5b9080929350813d8311613b00575b613aef8183614441565b81010312610328575190878061399e565b503d613ae5565b9050817f360894a13ba1a3210667c828492db98dca3e2076cc3735a920a3ca505d382bbc5416141587613952565b34610328576020366003190112610328576001600160a01b03613b5661430d565b613b5e614ec2565b166001600160a01b031981816021541617602155600e541617600e556101005161010051f35b34610328576020366003190112610328576020613bbf600435600052600c6020526001600160401b0360026040600020015460601c16151590565b6040519015158152f35b3461032857604036600319011261032857610455613be561434c565b60243590614647565b346103285760203660031901126103285763ffffffff613c0c61434c565b1661010051526009602052602060ff6040610100512054166040519015158152f35b34610328576020366003190112610328576004356101005152600c60205260c06040610100512080549063ffffffff60026001830154920154906001600160401b039281604051956001600160a01b038116875260a01c166020860152604085015282821660608501528160401c16608084015260601c1660a0820152f35b3461032857604036600319011261032857613cc661430d565b613cce614323565b906001600160a01b038091166101005152601b602052604061010051209116610100515260205260206040610100512054604051908152f35b34610328576040366003190112610328576001600160a01b03613d2861430d565b166101005152600260205260406101005120602435610100515260205260406101005120546001600160401b036104ea604051928284938260401c169116839060209093929360408301946001600160401b03809216845216910152565b34610328576040366003190112610328576001600160a01b03613da761430d565b166101005152600a602052604061010051206024356101005152602052602060ff6040610100512054166040519015158152f35b6060366003190112610328576020613e09613df461430d565b613dfc614f84565b6044359060243590615029565b60017f9b779b17422d0df92223018b32b4d1fa46e071723d6817e2486d003becc55f00556001600160401b0360405191168152f35b34610328576020366003190112610328576001600160401b03613e5f61435f565b166101005152601d60205260206040610100512054604051908152f35b34610328576020366003190112610328576001600160401b03613e9d61435f565b166101005152601f602052602060ff6040610100512054166040519015158152f35b34610328576020366003190112610328576001600160a01b03613ee061430d565b1661010051526010602052602060ff6040610100512054166040519015158152f35b34610328576020366003190112610328576001600160401b03613f2361435f565b166101005152601e60205260206040610100512054604051908152f35b3461032857602036600319011261032857600435613f7d612fa582600052600c6020526001600160401b0360026040600020015460601c16151590565b604051613f8981614375565b3381526020810191825260015468010000000000000000811015613fe857806001613fb79201600155614535565b929092611e1c576001600160a01b0360019251166001600160a01b0319845416178355519101556101005161010051f35b634e487b7160e01b61010051526041600452602461010051fd5b346103285760603660031901126103285761401b61430d565b614023614339565b60443560ff8116810361032857614038614ec2565b6001600160a01b038093169081156142c95763ffffffff809316938415614285576140959083610100515261407c6020956014875260406101005120541615614f25565b8561010051526015855260406101005120541615614f25565b620186a08411156103285760405163313ce56760e01b81528381600481865afa9182156115105760ff926140d3926101005191614268575b50614f70565b1692601284116142245760607fa0fa9e6f8b5151671d99d8a21fbee478f03ed8c5078386b9716ed66db871ccec9183610100515260148552604061010051208163ffffffff198254161790558061010051526015855260406101005120846001600160a01b031982541617905560168552604061010051209560ff19968188825416179055601386526040610100512060018882541617905560405191858352868301526040820152a18061010051526010825260ff6040610100512054166141e0577f2db5c923577787b86e45d0fc2e5d9e9a655c9b0d7802164b4e967544fe407864928161010051526010835260016040610100512091825416179055604051908152a16101005180f35b6064826040519062461bcd60e51b82526004820152601860248201527f5661756c7420616c7265616479207265676973746572656400000000000000006044820152fd5b6064836040519062461bcd60e51b82526004820152601660248201527f5363616c6520666163746f7220746f6f206c61726765000000000000000000006044820152fd5b61427f9150863d8811611509576114fa8183614441565b876140cd565b606460405162461bcd60e51b815260206004820152601860248201527f546f6b656e2049442053686f756c64206e6f74206265203000000000000000006044820152fd5b606460405162461bcd60e51b815260206004820152601d60248201527f546f6b656e20616464726573732053686f756c64206e6f7420626520300000006044820152fd5b600435906001600160a01b038216820361089157565b602435906001600160a01b038216820361089157565b6024359063ffffffff8216820361089157565b6004359063ffffffff8216820361089157565b600435906001600160401b038216820361089157565b604081019081106001600160401b0382111761439057604052565b634e487b7160e01b600052604160045260246000fd5b60c081019081106001600160401b0382111761439057604052565b61016081019081106001600160401b0382111761439057604052565b606081019081106001600160401b0382111761439057604052565b608081019081106001600160401b0382111761439057604052565b60e081019081106001600160401b0382111761439057604052565b6001600160401b03811161439057604052565b90601f801991011681019081106001600160401b0382111761439057604052565b6001600160401b03811161439057601f01601f191660200190565b9181601f84011215610891578235916001600160401b038311610891576020808501948460051b01011161089157565b6001600160401b0381116143905760051b60200190565b156144cb57565b608460405162461bcd60e51b815260206004820152602160248201527f706f736974696f6e20616464726573732069736e27742072656769737465726560448201527f64000000000000000000000000000000000000000000000000000000000000006064820152fd5b60015481101561456f57600160005260011b7fb10e2d527612073b26eecdfd717e6a320cf44b4afac2b0732d9fcbe2b7fa0cf60190600090565b634e487b7160e01b600052603260045260246000fd5b1561458c57565b606460405162461bcd60e51b815260206004820152601760248201527f6d61726b65742069736e277420726567697374657265640000000000000000006044820152fd5b60201b906bffffffffffffffff0000000067ffffffff000000008316921682036145f657565b634e487b7160e01b600052601160045260246000fd5b919082018092116145f657565b6001600160401b0391821690821603919082116145f657565b63ffffffff8091169081146145f65760010190565b91909163ffffffff908160009116815260209060098252604061466f60ff8284205416614585565b614698612fa587600052600c6020526001600160401b0360026040600020015460601c16151590565b338252600283528082208683528352808220918151926146b784614375565b54926001600160401b039182851682528286830195851c16855288815260078652838120548381166147b45750918084927f596ee89944172f283ef762f313344c7e24443c63de4a42fafa46ff56254608b098999a958795608099985182517fffffffffffffffff0000000000000000000000000000000000000000000000008b8201923360601b845260c01b166034820152601c815261475781614375565b51902081526005895220600160ff19825416179055600854998a881c169967ffffffff000000006147878c614632565b891b169067ffffffff000000001916176008555116925116928151943386528501528301526060820152a2565b915097918495939650808095511691871c16028381169081036148685781885260078352838689205416908115614854578493879361175197966148529a9b94600794049761480289614ad4565b3387526006855261481788882091825461460c565b905551168185528383528585209087614834835492828416614619565b16906001600160401b03191617905583525220938454901c16614619565b565b602489634e487b7160e01b81526012600452fd5b602488634e487b7160e01b81526011600452fd5b1561488357565b606460405162461bcd60e51b815260206004820152601760248201527f5661756c74206973206e6f7420726567697374657265640000000000000000006044820152fd5b90816020910312610891575180151581036108915790565b156148e657565b606460405162461bcd60e51b815260206004820152600f60248201527f5472616e73666572206661696c656400000000000000000000000000000000006044820152fd5b3d15614955573d9061493b82614462565b916149496040519384614441565b82523d6000602084013e565b606090565b9060016001600160401b03809316019182116145f657565b9190916001600160401b03808094169116019182116145f657565b60206001600160a01b03916024604051809481937f70a08231000000000000000000000000000000000000000000000000000000008352306004840152165afa908115614a0e576000916149df575090565b90506020813d602011614a06575b816149fa60209383614441565b81010312610891575190565b3d91506149ed565b6040513d6000823e3d90fd5b15614a2157565b606460405162461bcd60e51b815260206004820152601460248201527f546f6b656e206e6f7420726567697374657265640000000000000000000000006044820152fd5b15614a6c57565b606460405162461bcd60e51b815260206004820152601460248201527f496e76616c6964207363616c6520666163746f720000000000000000000000006044820152fd5b60ff16604d81116145f657600a0a90565b818102929181159184041417156145f657565b614b2a9061d903806000526013602052614af560ff60406000205416614a1a565b60005260166020526001600160401b03614b2360ff60406000205416614b1e6012821115614a65565b614ab0565b9116614ac1565b90565b63ffffffff614b2a9216806000526013602052614af560ff60406000205416614a1a565b8115614b5b570490565b634e487b7160e01b600052601260045260246000fd5b614bbf9063ffffffff6001600160401b039316806000526013602052614b9e60ff60406000205416614a1a565b60005260166020526114d360ff60406000205416614b1e6012821115614a65565b1690565b90816020910312610891575160ff811681036108915790565b60009081805260209160148352604092614c0063ffffffff85842054161515614a1a565b818052601781526001600160a01b038483205416918215614cd95784519163313ce56760e01b83528083600481875afa928315614ccf578293614cad575b5080600493948751948580926350d25bcd60e01b82525afa958615614ca257508195614c6c575b5050509190565b909180939550813d8311614c9b575b614c858183614441565b81010312614c9857505191388080614c65565b80fd5b503d614c7b565b51913d9150823e3d90fd5b60049350614cc88291823d8411611509576114fa8183614441565b9350614c3e565b86513d84823e3d90fd5b50505090506008906305f5e10090565b906001600160a01b038092169160009083825260209060148252604094614d1a63ffffffff87862054161515614a1a565b8352601782528483205416918215614cd95784519163313ce56760e01b83528083600481875afa928315614ccf578293614cad575080600493948751948580926350d25bcd60e01b82525afa958615614ca257508195614c6c575050509190565b805182101561456f5760209160051b010190565b90600163ffffffff809316019182116145f657565b91909163ffffffff808094169116019182116145f657565b6001600160a01b03809116908115614e29577f9016d09d72d40fdae2fd8ceac6b6234c7706214fd39c1cd1e609a0528c199300805490836001600160a01b03198316179055167f8be0079c531659141344cd1fd0a4f28419497f9722a3daafe3b4186f6b6457e0600080a3565b60246040517f1e4fbdf700000000000000000000000000000000000000000000000000000000815260006004820152fd5b919081101561456f5760051b0190565b356001600160a01b03811681036108915790565b336000526006602052604060002080548015614ebe576000614ebb925561d9036000526015602052336001600160a01b0360406000205416615782565b50565b5050565b6001600160a01b037f9016d09d72d40fdae2fd8ceac6b6234c7706214fd39c1cd1e609a0528c19930054163303614ef557565b60246040517f118cdaa7000000000000000000000000000000000000000000000000000000008152336004820152fd5b15614f2c57565b606460405162461bcd60e51b815260206004820152601860248201527f546f6b656e20616c7265616479207265676973746572656400000000000000006044820152fd5b9060ff8091169116039060ff82116145f657565b7f9b779b17422d0df92223018b32b4d1fa46e071723d6817e2486d003becc55f006002815414614fb45760029055565b60046040517f3ee5aeb5000000000000000000000000000000000000000000000000000000008152fd5b15614fe557565b606460405162461bcd60e51b815260206004820152601160248201527f496e76616c696420737461726b204b65790000000000000000000000000000006044820152fd5b6150547f08000000000000110000000000000000000000000000000000000000000000018410614fde565b61505f831515614fde565b341561517e575050614b2a906150e37f429602b012976e07ac9b27b6c1bac9791626550f52721f02a2523c88808ec7a060a0631b0bc2a8600090808252602095601387526040906150b560ff8386205416614a1a565b8284526016885260ff82852054166150d06012821115614a65565b6150e96001600160401b03988992614ab0565b34614b51565b1697818552601881528285208486528152878386205416978361510c8b8b614972565b9684815260188452818120878252845220816001600160401b031997168782541617905561513d81601254166145d0565b956019549082615159615153828516809b614972565b9961495a565b16911617601955835195168552840152820152846060820152426080820152a1614972565b917f429602b012976e07ac9b27b6c1bac9791626550f52721f02a2523c88808ec7a060a0846151b085614b2a97615283565b6001600160a01b03600091168152602093601485526040956151dc63ffffffff88852054168092614b71565b968284526018875280842082855287526001600160401b039283828620541697826152078b8b614972565b9683815260188352818120868252835220856001600160401b031997168782541617905561523885601254166145d0565b95601954908661524e615153828516809b614972565b169116176019558483519616865285015283015285166060820152426080820152a1614972565b15600117156145f657600090565b6152dd6000926001600160a01b036020931690818552601084526152ad60ff60408720541661487c565b6040516323b872dd60e01b8152336004820152306024820152604481019190915293849283919082906064820190565b03925af18015614a0e57614852916000916152f857506148df565b615311915060203d602011612bc857612bb98183614441565b38612b4c565b601a5481101561456f57600390601a600052027f057c384a7d1c54f3a1b2e5e67b2617b8224fdfd1ea7234eea573a6ff665ff63e0190600090565b7f08000000000000110000000000000000000000000000000000000000000000018110156154fb5733156154b7577f4f26c3876aa9f4b92579780beea1161a61f87ebf1ec6ee865b299e447ecba99c54600082815260186020908152604080832063ffffffff9485168085529252808320549093906001600160401b0316156154b05783516153e0816143dd565b33815260208101868152858201938452601a546801000000000000000081101561549c578060016154149201601a55615317565b9290926154895760609694927ffe5eeb45c725aa6c7460c0a9b5891c86aab2691e00ef4e9e24376ec43264561b989694926001600160a01b0360029351166001600160a01b03198354161782555160018201550191511663ffffffff19825416179055815192835260208301524290820152a1565b602486634e487b7160e01b815280600452fd5b602486634e487b7160e01b81526041600452fd5b5050505050565b606460405162461bcd60e51b815260206004820152601560248201527f6d73672e73656e6465722063616e2774206265203000000000000000000000006044820152fd5b606460405162461bcd60e51b815260206004820152601160248201527f496e76616c696420737461726b206b65790000000000000000000000000000006044820152fd5b7f08000000000000110000000000000000000000000000000000000000000000018210156154fb5733156154b7576001600160a01b03809116600091818352601460205263ffffffff6040938185822054169286825260186020528582208483526020526001600160401b0386832054161561568c578551906155c1826143dd565b3382526020820191888352878101958652601a5468010000000000000000811015615678578060016155f69201601a55615317565b9490946156655750927ffe5eeb45c725aa6c7460c0a9b5891c86aab2691e00ef4e9e24376ec43264561b98969492600292606099979551166001600160a01b03198354161782555160018201550191511663ffffffff19825416179055815192835260208301524290820152a1565b80634e487b7160e01b6024925280600452fd5b602485634e487b7160e01b81526041600452fd5b50505050505050565b604051906156a2826143c1565b816101406000918281528260208201528260408201528260608201528260808201528260a08201528260c08201528260e082015282610100820152826101208201520152565b90939293848311610891578411610891578160051b01920390565b90600363ffffffff809316029182169182036145f657565b60011b906201fffe61fffe8316921682036145f657565b90600361ffff809316029182169182036145f657565b60021b906203fffc61fffc8316921682036145f657565b91909161ffff808094169116019182116145f657565b919082039182116145f657565b6001600160a01b03169182600052601060205260ff60406000205416156158075780156158075760405163a9059cbb60e01b81526001600160a01b03929092166004830152602482015290602090829060449082906000905af1908115614a0e576000916157ee575090565b614b2a915060203d602011612bc857612bb98183614441565b505050600190565b906001600160a01b03809216906000948286526020946010865260ff6040882054161561593d578161584091615775565b93841561593d57816158ba575b505060405163a9059cbb60e01b81526001600160a01b039091166004820152602481019290925290919081908390818681604481015b03925af19283156158ae579261589857505090565b614b2a9250803d10612bc857612bb98183614441565b604051903d90823e3d90fd5b600f5460405163a9059cbb60e01b815291166001600160a01b03166004820152602481019190915284818060448101038189875af1908115615932579161591086959392615883979593899161591b57506148df565b91939481935061584d565b6153119150863d8811612bc857612bb98183614441565b6040513d88823e3d90fd5b50505050505050600190565b60ff7ff0c57e16840df040f15088dc2f81fe391c3923bec73e23a9662efc9c229c6a005460401c161561597857565b60046040517fd7e6bcf8000000000000000000000000000000000000000000000000000000008152fd5b604051906159af826143dd565b60006040838281528260208201520152565b906159cb826144ad565b6159d86040519182614441565b82815280926159e9601f19916144ad565b019060005b8281106159fa57505050565b602090615a056159a2565b828285010152016159ee565b63ffffffff90811660001901919082116145f657565b601a805415614ebb5760005b8154811015615aeb5780615a48600192615317565b5082810154600052602090601882526001600160401b0360408060002063ffffffff60028501541694856000525260002054168015615ae35782615a8b91614b2d565b90631b0bc2a88303615aa2575b5050505b01615a33565b6001600160a01b03615ad1615ada9463ffffffff1660005260156020526001600160a01b036040600020541690565b91541690615782565b50388080615a98565b505050615a9c565b5050601a546000601a5580615afd5750565b600390806003029060038204036145f657601a6000527f057c384a7d1c54f3a1b2e5e67b2617b8224fdfd1ea7234eea573a6ff665ff63e908101905b818110615b4557505050565b806000849255600060018201556000600282015501615b39565b9082615b6a91615775565b9182156158075780615b96575b5060008080936001600160a01b038294165af1615b9261492a565b5090565b6000808080936001600160a01b03600f54165af1615bb261492a565b5015615bbe5738615b77565b608460405162461bcd60e51b8152602060048201526024808201527f4661696c656420746f2073656e6420457468657220746f20676173436f6c6c6560448201527f63746f72000000000000000000000000000000000000000000000000000000006064820152fd5b90615c665750805115615c3c57805190602001fd5b60046040517f1425ea42000000000000000000000000000000000000000000000000000000008152fd5b81511580615cb1575b615c77575090565b6024906001600160a01b03604051917f9996b315000000000000000000000000000000000000000000000000000000008352166004820152fd5b50803b15615c6f56fea264697066735822122084133a70aa697e6c99125df06da3909d01b5d7688c3885ab75ab267c2754367f64736f6c63430008160033",
  "linkReferences": {},
  "deployedLinkReferences": {}
}