{
  "_format": "hh-sol-artifact-1",
  "contractName": "Invisible",
  "sourceName": "src/Invisible.sol",
  "abi": [
    {
      "inputs": [
        {
          "internalType": "address",
          "name": "target",
          "type": "address"
        }
      ],
      "name": "AddressEmptyCode",
      "type": "error"
    },
    {
      "inputs": [
        {
          "internalType": "address",
          "name": "implementation",
          "type": "address"
        }
      ],
      "name": "ERC1967InvalidImplementation",
      "type": "error"
    },
    {
      "inputs": [],
      "name": "ERC1967NonPayable",
      "type": "error"
    },
    {
      "inputs": [],
      "name": "FailedInnerCall",
      "type": "error"
    },
    {
      "inputs": [],
      "name": "InvalidInitialization",
      "type": "error"
    },
    {
      "inputs": [],
      "name": "NotInitializing",
      "type": "error"
    },
    {
      "inputs": [
        {
          "internalType": "address",
          "name": "owner",
          "type": "address"
        }
      ],
      "name": "OwnableInvalidOwner",
      "type": "error"
    },
    {
      "inputs": [
        {
          "internalType": "address",
          "name": "account",
          "type": "address"
        }
      ],
      "name": "OwnableUnauthorizedAccount",
      "type": "error"
    },
    {
      "inputs": [],
      "name": "ReentrancyGuardReentrantCall",
      "type": "error"
    },
    {
      "inputs": [],
      "name": "UUPSUnauthorizedCallContext",
      "type": "error"
    },
    {
      "inputs": [
        {
          "internalType": "bytes32",
          "name": "slot",
          "type": "bytes32"
        }
      ],
      "name": "UUPSUnsupportedProxiableUUID",
      "type": "error"
    },
    {
      "anonymous": false,
      "inputs": [
        {
          "indexed": true,
          "internalType": "address",
          "name": "depositor",
          "type": "address"
        },
        {
          "indexed": true,
          "internalType": "uint256",
          "name": "mmPositionAddress",
          "type": "uint256"
        },
        {
          "indexed": true,
          "internalType": "uint64",
          "name": "usdcAmount",
          "type": "uint64"
        }
      ],
      "name": "AddLiquidity",
      "type": "event"
    },
    {
      "anonymous": false,
      "inputs": [
        {
          "indexed": true,
          "internalType": "uint256",
          "name": "positionAddress",
          "type": "uint256"
        },
        {
          "indexed": false,
          "internalType": "address",
          "name": "mmOwner",
          "type": "address"
        },
        {
          "indexed": true,
          "internalType": "uint64",
          "name": "initialValueSum",
          "type": "uint64"
        },
        {
          "indexed": true,
          "internalType": "uint64",
          "name": "vlpAmountSum",
          "type": "uint64"
        }
      ],
      "name": "ClosePositionEvent",
      "type": "event"
    },
    {
      "anonymous": false,
      "inputs": [
        {
          "indexed": false,
          "internalType": "uint256",
          "name": "pubKey",
          "type": "uint256"
        },
        {
          "indexed": false,
          "internalType": "address",
          "name": "tokenAddress",
          "type": "address"
        },
        {
          "indexed": false,
          "internalType": "uint256",
          "name": "timestamp",
          "type": "uint256"
        }
      ],
      "name": "DepositCancelEvent",
      "type": "event"
    },
    {
      "anonymous": false,
      "inputs": [
        {
          "indexed": false,
          "internalType": "uint64",
          "name": "depositId",
          "type": "uint64"
        },
        {
          "indexed": false,
          "internalType": "uint256",
          "name": "pubKey",
          "type": "uint256"
        },
        {
          "indexed": false,
          "internalType": "uint32",
          "name": "tokenId",
          "type": "uint32"
        },
        {
          "indexed": false,
          "internalType": "uint64",
          "name": "depositAmountScaled",
          "type": "uint64"
        },
        {
          "indexed": false,
          "internalType": "uint256",
          "name": "timestamp",
          "type": "uint256"
        }
      ],
      "name": "DepositEvent",
      "type": "event"
    },
    {
      "anonymous": false,
      "inputs": [
        {
          "indexed": false,
          "internalType": "uint64",
          "name": "version",
          "type": "uint64"
        }
      ],
      "name": "Initialized",
      "type": "event"
    },
    {
      "anonymous": false,
      "inputs": [
        {
          "indexed": false,
          "internalType": "address",
          "name": "tokenAddress",
          "type": "address"
        },
        {
          "indexed": false,
          "internalType": "uint32",
          "name": "tokenId",
          "type": "uint32"
        },
        {
          "indexed": false,
          "internalType": "uint8",
          "name": "scaleFactor",
          "type": "uint8"
        }
      ],
      "name": "NewTokenRegisteredEvent",
      "type": "event"
    },
    {
      "anonymous": false,
      "inputs": [
        {
          "indexed": true,
          "internalType": "address",
          "name": "previousOwner",
          "type": "address"
        },
        {
          "indexed": true,
          "internalType": "address",
          "name": "newOwner",
          "type": "address"
        }
      ],
      "name": "OwnershipTransferred",
      "type": "event"
    },
    {
      "anonymous": false,
      "inputs": [
        {
          "indexed": true,
          "internalType": "address",
          "name": "depositor",
          "type": "address"
        },
        {
          "indexed": false,
          "internalType": "uint256",
          "name": "mmPositionAddress",
          "type": "uint256"
        },
        {
          "indexed": true,
          "internalType": "uint64",
          "name": "initialValue",
          "type": "uint64"
        },
        {
          "indexed": true,
          "internalType": "uint64",
          "name": "vlpAmount",
          "type": "uint64"
        }
      ],
      "name": "RemoveLiquidity",
      "type": "event"
    },
    {
      "anonymous": false,
      "inputs": [
        {
          "indexed": false,
          "internalType": "uint256",
          "name": "timestamp",
          "type": "uint256"
        },
        {
          "indexed": false,
          "internalType": "uint64",
          "name": "txBatchId",
          "type": "uint64"
        }
      ],
      "name": "StoredNewWithdrawalsEvent",
      "type": "event"
    },
    {
      "anonymous": false,
      "inputs": [
        {
          "indexed": false,
          "internalType": "uint256",
          "name": "timestamp",
          "type": "uint256"
        },
        {
          "indexed": false,
          "internalType": "uint64",
          "name": "txBatchId",
          "type": "uint64"
        }
      ],
      "name": "UpdatedPendingDepositsEvent",
      "type": "event"
    },
    {
      "anonymous": false,
      "inputs": [
        {
          "indexed": true,
          "internalType": "address",
          "name": "implementation",
          "type": "address"
        }
      ],
      "name": "Upgraded",
      "type": "event"
    },
    {
      "anonymous": false,
      "inputs": [
        {
          "indexed": false,
          "internalType": "address",
          "name": "tokenAddress",
          "type": "address"
        }
      ],
      "name": "VaultRegisteredEvent",
      "type": "event"
    },
    {
      "anonymous": false,
      "inputs": [
        {
          "indexed": false,
          "internalType": "address",
          "name": "withdrawer",
          "type": "address"
        },
        {
          "indexed": false,
          "internalType": "address",
          "name": "tokenAddress",
          "type": "address"
        },
        {
          "indexed": false,
          "internalType": "uint256",
          "name": "withdrawalAmount",
          "type": "uint256"
        },
        {
          "indexed": false,
          "internalType": "uint256",
          "name": "timestamp",
          "type": "uint256"
        }
      ],
      "name": "WithdrawalEvent",
      "type": "event"
    },
    {
      "anonymous": false,
      "inputs": [
        {
          "indexed": true,
          "internalType": "address",
          "name": "mmOwner",
          "type": "address"
        },
        {
          "indexed": false,
          "internalType": "uint32",
          "name": "syntheticAsset",
          "type": "uint32"
        },
        {
          "indexed": true,
          "internalType": "uint256",
          "name": "positionAddress",
          "type": "uint256"
        },
        {
          "indexed": false,
          "internalType": "uint64",
          "name": "maxVlpSupply",
          "type": "uint64"
        },
        {
          "indexed": true,
          "internalType": "uint32",
          "name": "vlpTokenId",
          "type": "uint32"
        }
      ],
      "name": "newPerpMMRegistration",
      "type": "event"
    },
    {
      "inputs": [],
      "name": "CALLBACK_SUCCESS",
      "outputs": [
        {
          "internalType": "bytes32",
          "name": "",
          "type": "bytes32"
        }
      ],
      "stateMutability": "view",
      "type": "function"
    },
    {
      "inputs": [],
      "name": "ETH_ID",
      "outputs": [
        {
          "internalType": "uint32",
          "name": "",
          "type": "uint32"
        }
      ],
      "stateMutability": "view",
      "type": "function"
    },
    {
      "inputs": [],
      "name": "UPGRADE_INTERFACE_VERSION",
      "outputs": [
        {
          "internalType": "string",
          "name": "",
          "type": "string"
        }
      ],
      "stateMutability": "view",
      "type": "function"
    },
    {
      "inputs": [
        {
          "internalType": "uint256",
          "name": "",
          "type": "uint256"
        }
      ],
      "name": "addresses",
      "outputs": [
        {
          "internalType": "address",
          "name": "",
          "type": "address"
        }
      ],
      "stateMutability": "view",
      "type": "function"
    },
    {
      "inputs": [
        {
          "internalType": "address",
          "name": "mmOwner",
          "type": "address"
        },
        {
          "internalType": "uint256",
          "name": "tabPosAddress",
          "type": "uint256"
        }
      ],
      "name": "approveMMRegistration",
      "outputs": [],
      "stateMutability": "nonpayable",
      "type": "function"
    },
    {
      "inputs": [
        {
          "internalType": "address",
          "name": "token",
          "type": "address"
        }
      ],
      "name": "claimFailedWithdrawal",
      "outputs": [],
      "stateMutability": "nonpayable",
      "type": "function"
    },
    {
      "inputs": [
        {
          "internalType": "uint256",
          "name": "mmPositionAddress",
          "type": "uint256"
        }
      ],
      "name": "closePerpMarketMaker",
      "outputs": [],
      "stateMutability": "nonpayable",
      "type": "function"
    },
    {
      "inputs": [],
      "name": "escapeVerifier",
      "outputs": [
        {
          "internalType": "address",
          "name": "",
          "type": "address"
        }
      ],
      "stateMutability": "view",
      "type": "function"
    },
    {
      "inputs": [
        {
          "internalType": "address",
          "name": "tokenAddress",
          "type": "address"
        },
        {
          "internalType": "address payable",
          "name": "recipient",
          "type": "address"
        },
        {
          "internalType": "uint256",
          "name": "escapeAmount",
          "type": "uint256"
        }
      ],
      "name": "executeEscape",
      "outputs": [],
      "stateMutability": "nonpayable",
      "type": "function"
    },
    {
      "inputs": [],
      "name": "feePercent",
      "outputs": [
        {
          "internalType": "uint256",
          "name": "",
          "type": "uint256"
        }
      ],
      "stateMutability": "view",
      "type": "function"
    },
    {
      "inputs": [
        {
          "internalType": "address",
          "name": "token",
          "type": "address"
        },
        {
          "internalType": "uint256",
          "name": "amount",
          "type": "uint256"
        }
      ],
      "name": "flashFee",
      "outputs": [
        {
          "internalType": "uint256",
          "name": "",
          "type": "uint256"
        }
      ],
      "stateMutability": "pure",
      "type": "function"
    },
    {
      "inputs": [
        {
          "internalType": "contract IERC3156FlashBorrower",
          "name": "receiver",
          "type": "address"
        },
        {
          "internalType": "address",
          "name": "token",
          "type": "address"
        },
        {
          "internalType": "uint256",
          "name": "amount",
          "type": "uint256"
        },
        {
          "internalType": "bytes",
          "name": "data",
          "type": "bytes"
        }
      ],
      "name": "flashLoan",
      "outputs": [
        {
          "internalType": "bool",
          "name": "",
          "type": "bool"
        }
      ],
      "stateMutability": "nonpayable",
      "type": "function"
    },
    {
      "inputs": [
        {
          "internalType": "uint256",
          "name": "starkKey",
          "type": "uint256"
        },
        {
          "internalType": "address",
          "name": "tokenAddress",
          "type": "address"
        }
      ],
      "name": "getPendingDepositAmount",
      "outputs": [
        {
          "internalType": "uint256",
          "name": "",
          "type": "uint256"
        }
      ],
      "stateMutability": "view",
      "type": "function"
    },
    {
      "inputs": [
        {
          "internalType": "uint256",
          "name": "starkKey",
          "type": "uint256"
        }
      ],
      "name": "getPendingETHDepositAmount",
      "outputs": [
        {
          "internalType": "uint256",
          "name": "",
          "type": "uint256"
        }
      ],
      "stateMutability": "view",
      "type": "function"
    },
    {
      "inputs": [
        {
          "internalType": "uint32",
          "name": "tokenId",
          "type": "uint32"
        }
      ],
      "name": "getScaleFactor",
      "outputs": [
        {
          "internalType": "uint8",
          "name": "",
          "type": "uint8"
        }
      ],
      "stateMutability": "view",
      "type": "function"
    },
    {
      "inputs": [
        {
          "internalType": "uint32",
          "name": "tokenId",
          "type": "uint32"
        }
      ],
      "name": "getTokenAddress",
      "outputs": [
        {
          "internalType": "address",
          "name": "",
          "type": "address"
        }
      ],
      "stateMutability": "view",
      "type": "function"
    },
    {
      "inputs": [
        {
          "internalType": "address",
          "name": "tokenAddress",
          "type": "address"
        }
      ],
      "name": "getTokenId",
      "outputs": [
        {
          "internalType": "uint32",
          "name": "",
          "type": "uint32"
        }
      ],
      "stateMutability": "view",
      "type": "function"
    },
    {
      "inputs": [
        {
          "internalType": "address",
          "name": "tokenAddress",
          "type": "address"
        }
      ],
      "name": "getTokenPrice",
      "outputs": [
        {
          "internalType": "uint8",
          "name": "",
          "type": "uint8"
        },
        {
          "internalType": "uint256",
          "name": "",
          "type": "uint256"
        }
      ],
      "stateMutability": "view",
      "type": "function"
    },
    {
      "inputs": [
        {
          "internalType": "address",
          "name": "initialOwner",
          "type": "address"
        }
      ],
      "name": "initialize",
      "outputs": [],
      "stateMutability": "nonpayable",
      "type": "function"
    },
    {
      "inputs": [
        {
          "internalType": "uint256",
          "name": "mmAddress",
          "type": "uint256"
        }
      ],
      "name": "isAddressRegistered",
      "outputs": [
        {
          "internalType": "bool",
          "name": "",
          "type": "bool"
        }
      ],
      "stateMutability": "view",
      "type": "function"
    },
    {
      "inputs": [
        {
          "internalType": "uint32",
          "name": "syntheticAsset",
          "type": "uint32"
        }
      ],
      "name": "isMarketRegistered",
      "outputs": [
        {
          "internalType": "bool",
          "name": "",
          "type": "bool"
        }
      ],
      "stateMutability": "view",
      "type": "function"
    },
    {
      "inputs": [
        {
          "internalType": "uint32",
          "name": "tokenId",
          "type": "uint32"
        }
      ],
      "name": "isTokenRegistered",
      "outputs": [
        {
          "internalType": "bool",
          "name": "",
          "type": "bool"
        }
      ],
      "stateMutability": "view",
      "type": "function"
    },
    {
      "inputs": [
        {
          "internalType": "address",
          "name": "tokenAddress",
          "type": "address"
        }
      ],
      "name": "isVaultRegistered",
      "outputs": [
        {
          "internalType": "bool",
          "name": "",
          "type": "bool"
        }
      ],
      "stateMutability": "view",
      "type": "function"
    },
    {
      "inputs": [
        {
          "internalType": "address",
          "name": "tokenAddress",
          "type": "address"
        },
        {
          "internalType": "uint256",
          "name": "amount",
          "type": "uint256"
        },
        {
          "internalType": "uint256",
          "name": "starkKey",
          "type": "uint256"
        }
      ],
      "name": "makeDeposit",
      "outputs": [
        {
          "internalType": "uint64",
          "name": "newAmountDeposited",
          "type": "uint64"
        }
      ],
      "stateMutability": "payable",
      "type": "function"
    },
    {
      "inputs": [
        {
          "internalType": "address",
          "name": "token",
          "type": "address"
        }
      ],
      "name": "maxFlashLoan",
      "outputs": [
        {
          "internalType": "uint256",
          "name": "",
          "type": "uint256"
        }
      ],
      "stateMutability": "view",
      "type": "function"
    },
    {
      "inputs": [],
      "name": "owner",
      "outputs": [
        {
          "internalType": "address",
          "name": "",
          "type": "address"
        }
      ],
      "stateMutability": "view",
      "type": "function"
    },
    {
      "inputs": [
        {
          "internalType": "uint32",
          "name": "syntheticToken",
          "type": "uint32"
        },
        {
          "internalType": "uint256",
          "name": "mmPositionAddress",
          "type": "uint256"
        },
        {
          "internalType": "uint256",
          "name": "usdcAmount",
          "type": "uint256"
        }
      ],
      "name": "provideLiquidity",
      "outputs": [],
      "stateMutability": "nonpayable",
      "type": "function"
    },
    {
      "inputs": [],
      "name": "proxiableUUID",
      "outputs": [
        {
          "internalType": "bytes32",
          "name": "",
          "type": "bytes32"
        }
      ],
      "stateMutability": "view",
      "type": "function"
    },
    {
      "inputs": [
        {
          "internalType": "uint32[]",
          "name": "syntheticAssets",
          "type": "uint32[]"
        }
      ],
      "name": "registerNewMarkets",
      "outputs": [],
      "stateMutability": "nonpayable",
      "type": "function"
    },
    {
      "inputs": [
        {
          "internalType": "uint32",
          "name": "syntheticAsset",
          "type": "uint32"
        },
        {
          "internalType": "uint256",
          "name": "positionAddress",
          "type": "uint256"
        },
        {
          "internalType": "uint64",
          "name": "maxVlpSupply",
          "type": "uint64"
        }
      ],
      "name": "registerPerpMarketMaker",
      "outputs": [],
      "stateMutability": "nonpayable",
      "type": "function"
    },
    {
      "inputs": [
        {
          "internalType": "address",
          "name": "tokenAddress",
          "type": "address"
        },
        {
          "internalType": "uint32",
          "name": "tokenId",
          "type": "uint32"
        },
        {
          "internalType": "uint8",
          "name": "offchainDecimals",
          "type": "uint8"
        }
      ],
      "name": "registerToken",
      "outputs": [],
      "stateMutability": "nonpayable",
      "type": "function"
    },
    {
      "inputs": [
        {
          "internalType": "uint32",
          "name": "syntheticToken",
          "type": "uint32"
        },
        {
          "internalType": "uint256",
          "name": "mmPositionAddress",
          "type": "uint256"
        }
      ],
      "name": "removeLiquidity",
      "outputs": [],
      "stateMutability": "nonpayable",
      "type": "function"
    },
    {
      "inputs": [],
      "name": "renounceOwnership",
      "outputs": [],
      "stateMutability": "nonpayable",
      "type": "function"
    },
    {
      "inputs": [
        {
          "internalType": "uint64",
          "name": "",
          "type": "uint64"
        }
      ],
      "name": "s_accumulatedHashesRelayed",
      "outputs": [
        {
          "internalType": "bool",
          "name": "",
          "type": "bool"
        }
      ],
      "stateMutability": "view",
      "type": "function"
    },
    {
      "inputs": [
        {
          "internalType": "address",
          "name": "",
          "type": "address"
        },
        {
          "internalType": "uint256",
          "name": "",
          "type": "uint256"
        }
      ],
      "name": "s_activeLiqudity",
      "outputs": [
        {
          "internalType": "uint64",
          "name": "initialValue",
          "type": "uint64"
        },
        {
          "internalType": "uint64",
          "name": "vlpAmount",
          "type": "uint64"
        }
      ],
      "stateMutability": "view",
      "type": "function"
    },
    {
      "inputs": [
        {
          "internalType": "address",
          "name": "",
          "type": "address"
        },
        {
          "internalType": "uint256",
          "name": "",
          "type": "uint256"
        }
      ],
      "name": "s_approvedPerpMMs",
      "outputs": [
        {
          "internalType": "bool",
          "name": "",
          "type": "bool"
        }
      ],
      "stateMutability": "view",
      "type": "function"
    },
    {
      "inputs": [
        {
          "internalType": "address",
          "name": "",
          "type": "address"
        }
      ],
      "name": "s_clAggregators",
      "outputs": [
        {
          "internalType": "address",
          "name": "",
          "type": "address"
        }
      ],
      "stateMutability": "view",
      "type": "function"
    },
    {
      "inputs": [
        {
          "internalType": "uint256",
          "name": "",
          "type": "uint256"
        }
      ],
      "name": "s_closedPositionLiqudity",
      "outputs": [
        {
          "internalType": "uint64",
          "name": "vlpAmountSum",
          "type": "uint64"
        },
        {
          "internalType": "uint64",
          "name": "returnCollateral",
          "type": "uint64"
        }
      ],
      "stateMutability": "view",
      "type": "function"
    },
    {
      "inputs": [
        {
          "internalType": "uint256",
          "name": "",
          "type": "uint256"
        }
      ],
      "name": "s_depositCencelations",
      "outputs": [
        {
          "internalType": "address",
          "name": "depositor",
          "type": "address"
        },
        {
          "internalType": "uint256",
          "name": "pubKey",
          "type": "uint256"
        },
        {
          "internalType": "uint32",
          "name": "tokenId",
          "type": "uint32"
        }
      ],
      "stateMutability": "view",
      "type": "function"
    },
    {
      "inputs": [
        {
          "internalType": "address",
          "name": "",
          "type": "address"
        },
        {
          "internalType": "address",
          "name": "",
          "type": "address"
        }
      ],
      "name": "s_failedWithdrawals",
      "outputs": [
        {
          "internalType": "uint256",
          "name": "",
          "type": "uint256"
        }
      ],
      "stateMutability": "view",
      "type": "function"
    },
    {
      "inputs": [],
      "name": "s_gasFeeCollector",
      "outputs": [
        {
          "internalType": "address payable",
          "name": "",
          "type": "address"
        }
      ],
      "stateMutability": "view",
      "type": "function"
    },
    {
      "inputs": [
        {
          "internalType": "uint256",
          "name": "",
          "type": "uint256"
        },
        {
          "internalType": "uint32",
          "name": "",
          "type": "uint32"
        }
      ],
      "name": "s_pendingDeposits",
      "outputs": [
        {
          "internalType": "uint64",
          "name": "",
          "type": "uint64"
        }
      ],
      "stateMutability": "view",
      "type": "function"
    },
    {
      "inputs": [],
      "name": "s_pendingPerpMMCount",
      "outputs": [
        {
          "internalType": "uint32",
          "name": "",
          "type": "uint32"
        }
      ],
      "stateMutability": "view",
      "type": "function"
    },
    {
      "inputs": [
        {
          "internalType": "address",
          "name": "",
          "type": "address"
        }
      ],
      "name": "s_pendingWithdrawals",
      "outputs": [
        {
          "internalType": "uint256",
          "name": "",
          "type": "uint256"
        }
      ],
      "stateMutability": "view",
      "type": "function"
    },
    {
      "inputs": [
        {
          "internalType": "uint32",
          "name": "",
          "type": "uint32"
        }
      ],
      "name": "s_perpMarkets",
      "outputs": [
        {
          "internalType": "bool",
          "name": "",
          "type": "bool"
        }
      ],
      "stateMutability": "view",
      "type": "function"
    },
    {
      "inputs": [
        {
          "internalType": "uint256",
          "name": "",
          "type": "uint256"
        }
      ],
      "name": "s_perpRegistrations",
      "outputs": [
        {
          "internalType": "address",
          "name": "mmOwner",
          "type": "address"
        },
        {
          "internalType": "uint32",
          "name": "syntheticAsset",
          "type": "uint32"
        },
        {
          "internalType": "uint256",
          "name": "positionAddress",
          "type": "uint256"
        },
        {
          "internalType": "uint64",
          "name": "maxVlpSupply",
          "type": "uint64"
        },
        {
          "internalType": "uint32",
          "name": "vlpTokenId",
          "type": "uint32"
        },
        {
          "internalType": "uint64",
          "name": "vlpAmount",
          "type": "uint64"
        }
      ],
      "stateMutability": "view",
      "type": "function"
    },
    {
      "inputs": [
        {
          "internalType": "address",
          "name": "",
          "type": "address"
        }
      ],
      "name": "s_tokenAddress2Id",
      "outputs": [
        {
          "internalType": "uint32",
          "name": "",
          "type": "uint32"
        }
      ],
      "stateMutability": "view",
      "type": "function"
    },
    {
      "inputs": [
        {
          "internalType": "uint32",
          "name": "",
          "type": "uint32"
        }
      ],
      "name": "s_tokenId2Address",
      "outputs": [
        {
          "internalType": "address",
          "name": "",
          "type": "address"
        }
      ],
      "stateMutability": "view",
      "type": "function"
    },
    {
      "inputs": [
        {
          "internalType": "uint32",
          "name": "",
          "type": "uint32"
        }
      ],
      "name": "s_tokenId2ScaleFactor",
      "outputs": [
        {
          "internalType": "uint8",
          "name": "",
          "type": "uint8"
        }
      ],
      "stateMutability": "view",
      "type": "function"
    },
    {
      "inputs": [
        {
          "internalType": "uint32",
          "name": "",
          "type": "uint32"
        }
      ],
      "name": "s_tokenIdIsRegistered",
      "outputs": [
        {
          "internalType": "bool",
          "name": "",
          "type": "bool"
        }
      ],
      "stateMutability": "view",
      "type": "function"
    },
    {
      "inputs": [
        {
          "internalType": "uint64",
          "name": "",
          "type": "uint64"
        }
      ],
      "name": "s_txBatchId2StateRoot",
      "outputs": [
        {
          "internalType": "uint256",
          "name": "",
          "type": "uint256"
        }
      ],
      "stateMutability": "view",
      "type": "function"
    },
    {
      "inputs": [
        {
          "internalType": "uint64",
          "name": "",
          "type": "uint64"
        }
      ],
      "name": "s_txBatchId2Timestamp",
      "outputs": [
        {
          "internalType": "uint256",
          "name": "",
          "type": "uint256"
        }
      ],
      "stateMutability": "view",
      "type": "function"
    },
    {
      "inputs": [
        {
          "internalType": "uint256",
          "name": "amount",
          "type": "uint256"
        },
        {
          "internalType": "uint32",
          "name": "tokenId",
          "type": "uint32"
        }
      ],
      "name": "scaleDown",
      "outputs": [
        {
          "internalType": "uint64",
          "name": "amountScaled",
          "type": "uint64"
        }
      ],
      "stateMutability": "view",
      "type": "function"
    },
    {
      "inputs": [
        {
          "internalType": "uint64",
          "name": "amount",
          "type": "uint64"
        },
        {
          "internalType": "uint32",
          "name": "tokenId",
          "type": "uint32"
        }
      ],
      "name": "scaleUp",
      "outputs": [
        {
          "internalType": "uint256",
          "name": "amountScaled",
          "type": "uint256"
        }
      ],
      "stateMutability": "view",
      "type": "function"
    },
    {
      "inputs": [
        {
          "internalType": "address[]",
          "name": "tokenAddress",
          "type": "address[]"
        },
        {
          "internalType": "address[]",
          "name": "aggregatorAddresses",
          "type": "address[]"
        }
      ],
      "name": "setClAggregators",
      "outputs": [],
      "stateMutability": "nonpayable",
      "type": "function"
    },
    {
      "inputs": [
        {
          "internalType": "address",
          "name": "newVerirfier",
          "type": "address"
        }
      ],
      "name": "setEscapeVerifier",
      "outputs": [],
      "stateMutability": "nonpayable",
      "type": "function"
    },
    {
      "inputs": [
        {
          "internalType": "address",
          "name": "tokenAddress",
          "type": "address"
        },
        {
          "internalType": "uint256",
          "name": "starkKey",
          "type": "uint256"
        }
      ],
      "name": "startCancelDeposit",
      "outputs": [],
      "stateMutability": "nonpayable",
      "type": "function"
    },
    {
      "inputs": [
        {
          "internalType": "uint256",
          "name": "starkKey",
          "type": "uint256"
        }
      ],
      "name": "startCancelETHDeposit",
      "outputs": [],
      "stateMutability": "nonpayable",
      "type": "function"
    },
    {
      "inputs": [
        {
          "internalType": "address",
          "name": "newOwner",
          "type": "address"
        }
      ],
      "name": "transferOwnership",
      "outputs": [],
      "stateMutability": "nonpayable",
      "type": "function"
    },
    {
      "inputs": [
        {
          "internalType": "uint256",
          "name": "mmPositionAddress",
          "type": "uint256"
        }
      ],
      "name": "tryCancelAddLiquidity",
      "outputs": [],
      "stateMutability": "nonpayable",
      "type": "function"
    },
    {
      "inputs": [
        {
          "internalType": "uint256[]",
          "name": "programOutput",
          "type": "uint256[]"
        }
      ],
      "name": "updateStateAfterTxBatch",
      "outputs": [],
      "stateMutability": "nonpayable",
      "type": "function"
    },
    {
      "inputs": [
        {
          "internalType": "address",
          "name": "newImplementation",
          "type": "address"
        },
        {
          "internalType": "bytes",
          "name": "data",
          "type": "bytes"
        }
      ],
      "name": "upgradeToAndCall",
      "outputs": [],
      "stateMutability": "payable",
      "type": "function"
    },
    {
      "inputs": [],
      "name": "version",
      "outputs": [
        {
          "internalType": "uint256",
          "name": "",
          "type": "uint256"
        }
      ],
      "stateMutability": "view",
      "type": "function"
    },
    {
      "inputs": [],
      "name": "withdrawalLiquidity",
      "outputs": [],
      "stateMutability": "nonpayable",
      "type": "function"
    }
  ],
  "bytecode": "0x60a0806040523461002b5730608052615e68908162000031823960805181818161379b0152613abc0152f35b600080fdfe610160604052600436101561001357600080fd5b600061012052610120513560e01c806305560c7914614197578063063f2ada146140d5578063091d46a914614097578063105a88e314614054578063128bd6bf146104675780631367fa8414614011578063149e7f4114613d8357806320fd1f1b14613fd35780632440fdc214613f7057806324e7cfa514613f1b57806325e8eecb14613e9c578063266a4f4114613e425780632f68172214613dc357806335177a5c14613d835780633671a8f214613d5e57806343d105a714613d195780634e06213214613cca5780634f1ef28614613a3d578063503318ea146139fe5780635250e1681461381557806352d1902d1461377e578063543d7a191461372f57806354fd4d501461370f5780635533bfbc146136d157806357be45441461367a5780635cffe9de146132c65780635f74a2da14610a625780636025557814613104578063613255ab146130e157806365a6fada146130885780636cc76d621461305f5780636d3ed74714613033578063715018a614612fae57806374a0b7ae14612e4e5780637c504b3514612e285780637fd6f15c14612e085780638237e53814612dcb57806385bbadab14612c655780638852668214612c2e5780638da5cb5b14612be657806399bf596414612b76578063aaab727514612b4d578063ad3cb1cc14612aab578063af694ca714612a67578063b1a75c7214612a3a578063c4d66de8146127f8578063d02641a0146127c6578063d236c24714610aa0578063d28ff48f14610a62578063d47d6b661461033a578063d9d98ce414610a3b578063deb6cecd146109df578063e3564dd31461097d578063e625a8ea1461095c578063e7273eeb14610938578063e9dfa0fe14610860578063edc2776914610555578063edf26d9b146104f9578063efae4406146104ab578063f153768614610467578063f2fde38b14610437578063f340470b1461037a578063f6f01b871461033a5763fce4624d146102e557600080fd5b346103335761012051366003190112610333576103006150df565b610308614fed565b60017f9b779b17422d0df92223018b32b4d1fa46e071723d6817e2486d003becc55f00556101205180f35b6101205180fd5b346103335760203660031901126103335763ffffffff6103586144e4565b166101205152600e602052602060ff6040610120512054166040519015158152f35b34610333576040366003190112610333576001600160401b03600435818111610333576103ab903690600401614666565b91602435908111610333576103c4903690600401614666565b6103cc615031565b610120515b8481106103df576101205180f35b806103f56103f06001938888614fc9565b614fd9565b6104036103f0838688614fc9565b906001600160a01b03809116610120515260126020526040610120512091166001600160a01b0319825416179055016103d1565b34610333576020366003190112610333576104606104536144a5565b61045b615031565b614f2b565b6101205180f35b34610333576020366003190112610333576001600160a01b036104886144a5565b166101205152600f602052602063ffffffff604061012051205416604051908152f35b3461033357602036600319011261033357610120805160043590526007602090815290516040908190205481516001600160401b03808316825291831c9091169281019290925290f35b0390f35b3461033357602036600319011261033357600435601654811015610333576001600160a01b03602091601661012051527fd833147d7dc355ba459fc788f669e58cfaf9dc25ddcd0702e87d69c7b5124289015416604051908152f35b346103335760603660031901126103335761056e6144e4565b6024356044356001600160401b039081811680910361085b573361012051526020600a815260406101205120846101205152815260ff604061012051205416156107f15763ffffffff809516928361012051526009825260ff604061012051205416156107ad57836101205152600c825260016040610120512001546107695760085490868216918761060084614efe565b1697620186a08910156103335761061961073394614efe565b169063ffffffff191617600855604051906106338261453e565b33825283820186815260408301888152826002606086019589875260808101938d855260a08201956101205187528d6101205152600c8b526001600160a01b03604061012051209351167fffffffffffffffff00000000000000000000000000000000000000000000000077ffffffff00000000000000000000000000000000000000008554935160a01b16921617178255516001820155019451166bffffffff00000000000000008554925160401b16916bffffffffffffffffffffffff191617178355511673ffffffffffffffff0000000000000000000000001973ffffffffffffffff00000000000000000000000083549260601b169116179055565b6040519283528201527f15a96e51431306379f6403f3aff2799b99f92e3e6e2a474c21bb6cbc97d9da7960403392a46101205180f35b6064826040519062461bcd60e51b82526004820152601260248201527f616c7265616479207265676973746572656400000000000000000000000000006044820152fd5b6064826040519062461bcd60e51b82526004820152601a60248201527f50657270206d61726b657420646f6573206e6f742065786973740000000000006044820152fd5b6084906040519062461bcd60e51b82526004820152602d60248201527f4f6e6c7920617070726f7665642070657270206d61726b6574206d616b65727360448201527f2063616e207265676973746572000000000000000000000000000000000000006064820152fd5b600080fd5b3461033357602080600319360112610333576004356001600160401b03811161033357366023820112156103335780600401359061089d82614696565b916108ab60405193846145d9565b8083526024602084019160051b8301019136831161033357602401905b82821061091c575050506108da615031565b610120515b8151811015610460578063ffffffff6108fa60019385614eea565b5116610120515260098452604061012051208260ff19825416179055016108df565b813563ffffffff8116810361085b5781529084019084016108c8565b34610333576020366003190112610333576109516150df565b6103086004356154bc565b346103335761012051366003190112610333576020604051631b0bc2a88152f35b34610333576040366003190112610333576001600160a01b0361099e6144a5565b6109a6615031565b166101205152600a60205260406101205120602435610120515260205260406101205120600160ff198254161790556101205161012051f35b346103335760203660031901126103335760008052600f6020526020610a3363ffffffff604060002054166004356000526018835260406000208160005283526001600160401b0360406000205416614ca5565b604051908152f35b3461033357604036600319011261033357610a546144a5565b506020610a3360243561541a565b346103335760203660031901126103335763ffffffff610a806144e4565b1661012051526011602052602060ff604061012051205416604051908152f35b34610333576020366003190112610333576004356001600160401b03811161033357610ad0903690600401614666565b610ad8615031565b610ae06150df565b610ae86157ff565b508060041161033357610af96157ff565b5060405160e052610b0b60e051614559565b63ffffffff60408301351660e051528135602060e05101526020820135604060e051015260ff604083013560401c16606060e051015263ffffffff604083013560201c16608060e051015261ffff606083013560501c1660a060e051015261ffff606083013560401c1660c060e051015261ffff606083013560301c1660e08051015261ffff606083013560201c1661010060e051015261ffff60608301351661012060e051015261ffff606083013560101c1661014060e0510152604051610bd38161453e565b61012051815261012051602082015261012051604082015261012051606082015261012051608082015260a0610120519101526003198101156127ac5760405191610c1d8361453e565b63ffffffff608082810135608881901c8316865260ff81831c16602080880191909152606082811c85166040808a0182905284901c8616918901919091529082901c841692870192909252821660a08601526003029081160361140f5763ffffffff8080608084013560601c16600302166001011161140f5763ffffffff606084015116600502918263ffffffff81160361140f57610cee610cdd63ffffffff610d19951663ffffffff80608087013560601c1660030216600101614f13565b63ffffffff60808701511690614f13565b91608063ffffffff610d0c6003198501958260a08a01511690614f13565b1692600319019101615852565b9063ffffffff610d2e8160a08601511661586d565b1682811161033357610d4260038204614696565b90610d5060405192836145d9565b60038104808352601f1990610d6490614696565b01610120515b818110612795575050610120515b8181106126f7575050508163ffffffff610d9a8160a0610da19701511661586d565b1691615852565b610db461ffff60a060e051015116615885565b918161ffff84161161033357610dd0617fff8460011c16614696565b92610dde60405194856145d9565b600181901c617fff16808552601f1990610df790614696565b01610120515b8181106126ce575050610120515b61ffff821681106126535784610e3185858161ffff610d9a8160a060e051015116615885565b610e4761ffff60c060e095949551015116615885565b928161ffff85161161033357610e74610e66617fff8660011c16614696565b60405160c05260c0516145d9565b617fff8460011c1660c05152601f19610e93617fff8660011c16614696565b01610120515b818110612628575050610120515b61ffff85168110612599575090610ecd918161ffff610d9a8160c060e051015116615885565b61ffff610ee38160e0809695965101511661589c565b16908082116103335761012051938492839081805b8281106124f15750610f0f63ffffffff8216615b2b565b61014052610f2263ffffffff8916615b2b565b97610f3263ffffffff8816615b2b565b96610f4263ffffffff8616615b2b565b60805261012051925b848410612370578a8a8a610f6e8b8b8161ffff610d9a8160e0805101511661589c565b610f97610f9261ffff61010060e05101511661ffff61014060e051015116906158c9565b6158b2565b918161ffff84161161033357610fb3613fff8460021c16614696565b92610fc160405194856145d9565b600281901c613fff16808552610fd690614696565b610120515b601f1982018110612335575050610120515b61ffff8216811061226c57505090611023918161ffff610d9a610f928261010060e0510151168361014060e051015116906158c9565b90600661ffff61012060e05101511602918261ffff81160361140f5761ffff83161161033357611059600661ffff841604614696565b9161106760405193846145d9565b600661ffff82160480845261107b90614696565b610120515b601f1982018110612216575050610120515b61ffff821681106120dd575050506001600160401b0360e0515116946001600160401b03601c541680960361209957602060e0510151866101205152601d6020526040610120512054036120555763ffffffff608060e05101511642111561201157610120515b855181101561121f5761110c8187614eea565b5190602082519201519182610120515260186020526040610120512063ffffffff8260401c1661012051526020526001600160401b0381166001600160401b03604061012051205416106111b557600192610120515260186020526040610120512063ffffffff8260401c16610120515260205260406101205120906001600160401b036111a081845493168284166147ec565b16906001600160401b031916179055016110f9565b608460405162461bcd60e51b815260206004820152602860248201527f416e20696e76616c6964206465706f736974207761732065786563757465642060448201527f6f6666636861696e0000000000000000000000000000000000000000000000006064820152fd5b50604080514281526001600160401b03881660208201527fe73055b4c53403597e4db3f0eb4dd4ca358a3d2cdf10ce573b8ec0d7a057ea0b9190a1611262615b91565b601c546101205160a08190526017546001600160401b0390811661010052909591169385939091845b60c051518110156116e8576112a28160c051614eea565b516001600160a01b036020825192015116906001600160401b038116156116de5763ffffffff8160601c1661010051036116de5763ffffffff881663ffffffff8260401c16036113ca575b9061130e826001600160401b0363ffffffff6001969560401c169116614ca5565b906001600160a01b0360a05116801560001461137757506113308b8383615cd7565b1561133f575b50505b0161128b565b6101205152601b6020526040610120512061012051610120515260205261136e604061012051209182546147df565b90558980611336565b906113868c848360a051615979565b15611394575b505050611339565b6101205152601b602052604061012051209061012051526020526113c0604061012051209182546147df565b905589808061138c565b9850604089901c63ffffffff16965090631b0bc2a88703611429576101205160a05261520891823a8102043a0361140f5761130e6001933a029a5b91929350506112ed565b634e487b7160e01b61012051526011600452602461012051fd5b63ffffffff8960401c16610120515260106020526001600160a01b0360406101205120541660a0526201388091823a8102043a0361140f5761146c60a051614e55565b9390611476614d54565b6040929192519363313ce56760e01b855260208560048160a0515afa9485156116d057610120519561169f575b5061012051607f1960ff871690910b60111901908112607f9091131761140f5761012051607f60ff878116830b60111901830b90861690920b91909101908113607f199091121761140f5761012051607f1960ff868116830b888216840b60111901840b918716840b9190910190920b91909103908112607f9091131761140f576101205160ff858116820b878216830b60111901830b918616830b91909101820b03810b8113156115f357509061155c913a02614c39565b90607f1960ff8416610120510b60ff8316610120510b60111960ff8816610120510b01610120510b01610120510b03610120510b1461140f576001966115e160ff6115e79361130e9782806115ed9916610120510b9216610120510b90836011199116610120510b01610120510b01610120510b03610120510b610120510316615cc9565b90614c39565b90614cc9565b9a611405565b93919461130e9560019994926101205160ff8616610120510b60ff8616610120510b60111960ff8716610120510b01610120510b01610120510b03610120510b13611644575b5050505050506115ed565b6116949650926115e19260ff80611662819561168f99983a02614c39565b9616610120510b9216610120510b90836011199116610120510b01610120510b01610120510b0316615cc9565b614cc9565b8c8080808080611639565b6116c291955060203d6020116116c9575b6116ba81836145d9565b810190614d3b565b938f6114a3565b503d6116b0565b6040513d61012051823e3d90fd5b5050600190611339565b50604080514281526001600160401b03881660208201527f32bf24d8be330e07624f644b504559770580e270aaa9f5228fb5aea491b689849190a1610120515b6101405151811015611802578061174460019261014051614eea565b5160408101519051806101205152600c60205260406101205120600281019182549163ffffffff8560881c1663ffffffff8460401c161492836117e7575b50826117da575b5050611798575b505001611728565b805473ffffffffffffffff000000000000000000000000191660589290921b73ffffffffffffffff000000000000000000000000169190911790558680611790565b8601541490508980611789565b9092506001600160401b03808660481c16911614918b611782565b509091610120515b84518110156119a6578061182060019287614eea565b5160408101516001600160401b03808260481c169160081c16906001600160a01b03602084015116925190836101205152610120516020526040610120512082610120515260205260406101205120938454946001600160401b03611887868289166147ec565b166001600160401b0319809716179055806101205152600260205260406101205120836101205152602052604061012051208054866001600160401b036118d086828516614aea565b169116179055610120515260026020526040610120512082610120515260205261194260406101205120611911856001600160401b03835460401c16614aea565b6fffffffffffffffff0000000000000000196fffffffffffffffff000000000000000083549260401b169116179055565b81610120515260036020526040610120512090846001600160401b0361196c845493828516614aea565b1691161790556101205152600460205260406101205120916001600160401b0361199a845493828516614aea565b1691161790550161180a565b5082600154805b611f015750610120515b8351811015611b5657806119cd60019286614eea565b51611b26611b2160408301516001600160401b038160881c16906001600160401b03808260481c169160081c16906001600160a01b0392836020880151169651918761012051526002602052604061012051208361012051526020526040610120512090611a63825492611911836001600160401b0380611a5089828a166147ec565b1681198098161780855560401c166147ec565b8361012051526003602052604061012051208054836001600160401b03611a8c878285166147ec565b169116179055836101205152600460205260406101205120916001600160401b03611abb8454938285166147ec565b16911617905580831115611b4b576001600160401b03611add600592856147ec565b1604925b611aea84614c4c565b916101205152600c60205260406101205120541661012051526006602052611b1a604061012051209182546147df565b90556147ec565b614c4c565b9061012051526006602052611b43604061012051209182546147df565b9055016119b7565b506101205192611ae1565b5090610120515b60805151811015611ca85780611c97611b7a600193608051614eea565b516001600160401b03604082015191818360881c16611c2a838560081c16925192836101205152600360205260406101205120928519938481541690556004602052604061012051208481541690556101205150808211600014611c9d5785611be5600592846147ec565b1604905b611bf282614c4c565b856101205152600c6020526001600160a01b0360406101205120541661012051526006602052611b1a604061012051209182546147df565b918360405195611c398761450d565b60481c1685528360208601931683526101205152600760205282604061012051209451169084541617835551166fffffffffffffffff0000000000000000196fffffffffffffffff000000000000000083549260401b169116179055565b01611b5d565b506101205190611be9565b506001600160a01b036021541690813b156103335760405180927f52fa4c5300000000000000000000000000000000000000000000000000000000825260248201602060048401528351809152602060448401940190610120515b818110611ec55750505081806101205194039161012051905af180156116d057611eb6575b506001600160a01b036021541690813b156103335760405180927f1ac8bd1800000000000000000000000000000000000000000000000000000000825260248201602060048401528351809152602060448401940190610120515b818110611e535750505081806101205194039161012051905af180156116d057611e3c575b601c546001600160401b03611dbe818316614ad2565b16806001600160401b0319831617601c55604060e0510151916101205116176101205152601d60205260406101205120556001600160401b03601c54166101205152601e60205242604061012051205560017f9b779b17422d0df92223018b32b4d1fa46e071723d6817e2486d003becc55f00556101205161012051f35b611e45906145c6565b610120516103335780611da8565b919460019193945060e060209160c08851805183526001600160a01b0385820151168584015260408101516040840152606081015160608401526080810151608084015260a081015160a0840152015160c0820152019501910191859392611d83565b611ebf906145c6565b81611d28565b91946001919394506080602091606088518051835284810151858401526040810151604084015201516060820152019501910191859392611d03565b8060001981011161140f57611f19600019820161471e565b5060405190611f278261450d565b6001600160a01b039060018282541691828552015490602084019182526101205152610120516020526040610120512090516101205152602052611f7a6001600160401b03604061012051205416614c4c565b91511661012051526006602052611f99604061012051209182546147df565b90556001548015611ff757611fb1600019820161471e565b611fdb5761012051815560016101205191015560001901600155801561140f5760001901806119ad565b634e487b7160e01b610120515261012051600452602461012051fd5b634e487b7160e01b61012051526031600452602461012051fd5b606460405162461bcd60e51b815260206004820152601c60248201527f496e76616c69642065787069726174696f6e2074696d657374616d70000000006044820152fd5b606460405162461bcd60e51b815260206004820152601260248201527f496e76616c696420737461746520726f6f7400000000000000000000000000006044820152fd5b606460405162461bcd60e51b815260206004820152601160248201527f696e76616c6964207478426174636849640000000000000000000000000000006044820152fd5b6120ec8161ffff841685614fc9565b3560018201821161140f576001600160a01b036121116001840161ffff861687614fc9565b35169060028301831161140f576121306002840161ffff861687614fc9565b359160038401841161140f5761214e6003850161ffff871688614fc9565b3560048501851161140f5761216b6004860161ffff881689614fc9565b3560058601861161140f576121886005870161ffff89168a614fc9565b359160068701871161140f576121ef956121aa6006890161ffff8b168c614fc9565b3594604051966121b9886145ab565b8752602087015260408601526060850152608084015260a083015260c082015260078304906121e88288614eea565b5285614eea565b50600681018091111561109257634e487b7160e01b61012051526011600452602461012051fd5b602090604051612225816145ab565b61012051815261012051838201526101205160408201526101205160608201526101205160808201526101205160a08201526101205160c082015282828801015201611080565b61227b8161ffff841685614fc9565b3560018201821161140f576122986001830161ffff851686614fc9565b359060028301831161140f576122b66002840161ffff861687614fc9565b359160038401841161140f5761230e926122d86003860161ffff881689614fc9565b3591604051936122e785614590565b84526020840152604083015260608201528260021c906123078289614eea565b5286614eea565b506004810180911115610fed57634e487b7160e01b61012051526011600452602461012051fd5b60209060405161234481614590565b610120518152610120518382015261012051604082015261012051606082015282828901015201610fdb565b61237b848689614fc9565b356001850180861161140f5761239290878a614fc9565b3560028601861161140f578a60ff8e926123b18c8b60028c0191614fc9565b3590604051956123c087614575565b86526020860152806040860152168015600014612428575050509061240f612415926123f7610140515163ffffffff8516906158df565b906124058261014051614eea565b5261014051614eea565b50615b7b565b925b6003810180911161140f5792610f4b565b939695939192916001810361246b5750508161240f9161245e61245761246596955163ffffffff8716906158df565b8093614eea565b528d614eea565b91612417565b939593909250600281036124a657508161240f916124996124576124a09697955163ffffffff8716906158df565b528b614eea565b90612417565b6003919250146124b7575b50612417565b9561240f6124ea92976124d46080515163ffffffff8516906158df565b906124e182608051614eea565b52608051614eea565b948b6124b1565b9060028201821161140f5760ff61250c600284018588614fc9565b351680612545575061251d90614efe565b905b6003810180911115610ef857634e487b7160e01b61012051526011600452602461012051fd5b9198909160018103612562575061255b90614efe565b975b61251f565b909896906002810361257e575061257890614efe565b9561251f565b9096906002190161255d579261259390614efe565b9261251f565b6125a88161ffff871684614fc9565b3560018201821161140f57612601906001600160a01b036125d16001850161ffff8a1687614fc9565b3516604051916125e08361450d565b825260208201528260011c906125f88260c051614eea565b5260c051614eea565b506002810180911115610ea757634e487b7160e01b61012051526011600452602461012051fd5b6020906040516126378161450d565b6101205181526101205183820152828260c05101015201610e99565b6126628161ffff841685614fc9565b3560018201821161140f576126a7906126836001840161ffff861687614fc9565b35604051916126918361450d565b825260208201528260011c906123078289614eea565b506002810180911115610e0b57634e487b7160e01b61012051526011600452602461012051fd5b6020906040516126dd8161450d565b610120518152610120518382015282828901015201610dfd565b63ffffffff612707828487614fc9565b35166001820180831161140f5761271f908487614fc9565b359060028301831161140f5761276e9161273d600285018689614fc9565b35906040519261274c84614575565b83526020830152604082015260038304906127678287614eea565b5284614eea565b506003810180911115610d7857634e487b7160e01b61012051526011600452602461012051fd5b6020906127a0615b0c565b82828701015201610d6a565b634e487b7160e01b61012051526032600452602461012051fd5b346103335760203660031901126103335760406127e96127e46144a5565b614e55565b60ff8351921682526020820152f35b3461033357602080600319360112610333576128126144a5565b907ff0c57e16840df040f15088dc2f81fe391c3923bec73e23a9662efc9c229c6a0091825460ff8160401c1615906001600160401b03811692831580612a33575b60018095149081612a29575b159081612a20575b506129f65767ffffffffffffffff198281168517875591836129d7575b5061288d615ab3565b612895615ab3565b61289e81614f2b565b6128a6615ab3565b6001600160a01b036001600160a01b03199116816014541617601455610120516101205152600f855260406101205120631b0bc2a8908163ffffffff1982541617905561012051526010855260406101205120908154169055601184526040610120512060ff1990600a82825416179055600e855260406101205120848282541617905561012051610120515260158552836040610120512091825416179055628ab75d816017541617601755601c5416601c55601d83527f056b03fb25a6b461493d8d902f42874dde8b8422fd27f7869e70e61132bdcd2f604061012051205581602255612996576101205180f35b7fc7f505b2f371ae2175ee4913f4499e1f2633a7b5936321eed1cdaeb6115181d29268ff0000000000000000198154169055604051908152a1808080610460565b68ffffffffffffffffff19166801000000000000000117865586612884565b60046040517ff92ee8a9000000000000000000000000000000000000000000000000000000008152fd5b90501587612867565b303b15915061285f565b5082612853565b3461033357604036600319011261033357610308612a566144a5565b612a5e6150df565b602435906156a9565b346103335760203660031901126103335763ffffffff612a856144e4565b166101205152601060205260206001600160a01b03604061012051205416604051908152f35b34610333576101205136600319011261033357604051612aca8161450d565b600581526020907f352e302e30000000000000000000000000000000000000000000000000000000602082015260405180926020825282519081602084015261012051935b828510612b345750506040925061012051838284010152601f80199101168101030190f35b8481018201518686016040015293810193859350612b0f565b3461033357610120513660031901126103335760206001600160a01b0360145416604051908152f35b34610333576040366003190112610333576001600160a01b03612b976144bb565b166101205152600f6020526020610a3363ffffffff6040610120512054166004356101205152601883526040610120512081610120515283526001600160401b03604061012051205416614ca5565b3461033357610120513660031901126103335760206001600160a01b037f9016d09d72d40fdae2fd8ceac6b6234c7706214fd39c1cd1e609a0528c1993005416604051908152f35b34610333576040366003190112610333576020612c54612c4c6144d1565b600435614ce9565b6001600160401b0360405191168152f35b346103335760208060031936011261033357612c7f6144a5565b612c876150df565b336101205152601b82526001600160a01b036040610120512091169081610120515282526040610120512054908115612d8757336101205152601b83526040610120512081610120515283526101205160406101205120558015600014612d0a575061012051610308925090819081908190335af1612d04614aa2565b50614a57565b60405163a9059cbb60e01b81523360048201526024810192909252829082908180604481015b039161012051905af19081156116d057612d55926101205192612d5a575b5050614a57565b610308565b612d799250803d10612d80575b612d7181836145d9565b810190614a3f565b8280612d4e565b503d612d67565b6064836040519062461bcd60e51b82526004820152601d60248201527f4e6f206661696c6564207769746864726177616c20746f20636c61696d0000006044820152fd5b3461033357610120513660031901126103335760206040517f439148f0bbc682ca079e46d6e2c2f0c1e3b820f1a291b069d8882abf8cf18dd98152f35b346103335761012051366003190112610333576020604051610120518152f35b34610333576101205136600319011261033357602063ffffffff600b5416604051908152f35b346103335760208060031936011261033357600435806101205152600c8252604061012051209060405191612e828361453e565b80549260a060026001600160a01b0386169384845263ffffffff8097841c1688850152600181015460408501520154946001600160401b0395869182821660608601528160401c16608085015260601c169101523303612f4457806101205152600d835260406101205120600160ff19825416179055600383527f850dfc7f11b4bbf06d7e73ca5797a97e72e21efe0712d76aaccaa08e06c0d5e482604061012051205416926004855260406101205120541693604051338152a46101205180f35b6084836040519062461bcd60e51b82526004820152602560248201527f4f6e6c7920746865206f776e65722063616e20636c6f73652074686520706f7360448201527f6974696f6e0000000000000000000000000000000000000000000000000000006064820152fd5b34610333576101205136600319011261033357612fc9615031565b7f9016d09d72d40fdae2fd8ceac6b6234c7706214fd39c1cd1e609a0528c19930080546001600160a01b0319811690915561012051906001600160a01b03167f8be0079c531659141344cd1fd0a4f28419497f9722a3daafe3b4186f6b6457e08280a36101205180f35b34610333576040366003190112610333576020610a336130516144f7565b6130596144d1565b90614ca5565b3461033357610120513660031901126103335760206001600160a01b0360135416604051908152f35b3461033357602036600319011261033357600435601a54811015610333576130b1606091614615565b506001600160a01b038154169063ffffffff60026001830154920154169060405192835260208301526040820152f35b34610333576020366003190112610333576020610a336130ff6144a5565b614b05565b346103335760603660031901126103335761311d6144e4565b60243563ffffffff604435921661012051526020916009835261314960ff604061012051205416614758565b61317761317283600052600c6020526001600160401b0360026040600020015460601c16151590565b6146ad565b816101205152600d835260ff604061012051205416613282576115e79061d903806101205152601085526131bb826001600160a01b03604061012051205416615428565b806101205152600e85526131d860ff604061012051205416614b92565b61012051526011845261320d60ff604061012051205416916131fd6012841115614bdd565b6001600160401b03938493614c28565b1692336101205152610120518152604061012051209083610120515252604061012051209081549061324185828416614aea565b16906001600160401b031916179055337fa0059908bab09db5f3530c2124a0fe38687695b0a271a49b0d281c94b485c95f6101205161012051a46101205180f35b6064836040519062461bcd60e51b82526004820152600f60248201527f706f736974696f6e20636c6f73656400000000000000000000000000000000006044820152fd5b34610333576080366003190112610333576004356001600160a01b0390818116809103610333576132f56144bb565b9160443590606435906001600160401b03948583116103335736602384011215610333578260040135958611610333573660248785010111610333578361333b82614b05565b106136105760405163a9059cbb60e01b81526001600160a01b03861660048201526024810185905260209691909216939186818060448101038161012051895af19081156116d05761012051916135f3575b50156135af5785602460c46133a18561541a565b958460405195869485937f23e30c8b0000000000000000000000000000000000000000000000000000000085523360048601528b828601528960448601528a606486015260a060848601528260a4860152018484013761012051838284010152601f8019910116810103018161012051895af180156116d0576101205190613562575b7f439148f0bbc682ca079e46d6e2c2f0c1e3b820f1a291b069d8882abf8cf18dd991500361351e579161345c613494949286946147df565b6040516323b872dd60e01b81526001600160a01b03909316600484015230602484015260448301529092839190829081906064820190565b039161012051905af19081156116d0576101205191613501575b50156134bd5760405160018152f35b6064906040519062461bcd60e51b82526004820152601960248201527f466c6173684c656e6465723a205265706179206661696c6564000000000000006044820152fd5b6135189150823d8411612d8057612d7181836145d9565b826134ae565b6064856040519062461bcd60e51b82526004820152601c60248201527f466c6173684c656e6465723a2043616c6c6261636b206661696c6564000000006044820152fd5b508581813d83116135a8575b61357881836145d9565b81010312610333577f439148f0bbc682ca079e46d6e2c2f0c1e3b820f1a291b069d8882abf8cf18dd99051613424565b503d61356e565b6064866040519062461bcd60e51b82526004820152601c60248201527f466c6173684c656e6465723a205472616e73666572206661696c6564000000006044820152fd5b61360a9150873d8911612d8057612d7181836145d9565b8761338d565b608460405162461bcd60e51b815260206004820152602e60248201527f466c6173684c656e6465723a20496e73756666696369656e742066756e64732060448201527f666f7220666c617368206c6f616e0000000000000000000000000000000000006064820152fd5b34610333576040366003190112610333576136936144d1565b6004356101205152601860205263ffffffff604061012051209116610120515260205260206001600160401b03604061012051205416604051908152f35b34610333576020366003190112610333576001600160a01b036136f26144a5565b166101205152600660205260206040610120512054604051908152f35b346103335761012051366003190112610333576020602254604051908152f35b3461033357602036600319011261033357602061376d61374d6144e4565b63ffffffff1660005260106020526001600160a01b036040600020541690565b6001600160a01b0360405191168152f35b346103335761012051366003190112610333576001600160a01b037f00000000000000000000000000000000000000000000000000000000000000001630036137eb5760206040517f360894a13ba1a3210667c828492db98dca3e2076cc3735a920a3ca505d382bbc8152f35b60046040517fe07c8dba000000000000000000000000000000000000000000000000000000008152fd5b346103335760603660031901126103335761382e6144a5565b6001600160a01b0390602435828116908181036103335783604435936138526150df565b16908161012051526020946015865261387460ff6040610120512054166149f4565b601354163303613994578315613950578491908161391b575050610120519283928392508291905af16138a5614aa2565b50156138d7575060017f9b779b17422d0df92223018b32b4d1fa46e071723d6817e2486d003becc55f00556101205180f35b6064906040519062461bcd60e51b82526004820152601460248201527f4661696c656420746f2073656e642045746865720000000000000000000000006044820152fd5b60405163a9059cbb60e01b81526001600160a01b03909116600482015260248101949094529091508290818060448101612d30565b6064856040519062461bcd60e51b82526004820152601660248201527f4e6f2070656e64696e67207769746864726177616c73000000000000000000006044820152fd5b6084856040519062461bcd60e51b82526004820152602a60248201527f4f6e6c792065736361706556657269666965722063616e2063616c6c2074686960448201527f732066756e6374696f6e000000000000000000000000000000000000000000006064820152fd5b346103335760203660031901126103335760206001600160a01b0380613a226144a5565b16610120515260128252604061012051205416604051908152f35b604036600319011261033357613a516144a5565b6024908135906001600160401b038211610333573660238301121561033357816004013591613a7f836145fa565b613a8c60405191826145d9565b838152602093848201923687838301011161033357868291018437846101205191830101526001600160a01b03807f000000000000000000000000000000000000000000000000000000000000000016803014908115613c9c575b506137eb57613af4615031565b831693604051907f52d1902d0000000000000000000000000000000000000000000000000000000082528082600481895afa9182916101205193613c6c575b5050613b5057858560405190634c9c8ce360e01b82526004820152fd5b857f360894a13ba1a3210667c828492db98dca3e2076cc3735a920a3ca505d382bbc91828103613c3e5750843b15613c285750846001600160a01b0319825416179055604051937fbc7cd75a20ee27fd9adebab32041f755214dbc6bffa90cc0225b39da2e5c2d3b6101205161012051a2805115613bf257613bea9350610120519161012051915190845af4613be4614aa2565b91615d9f565b506101205180f35b50505034613c005750610460565b807fb398979f0000000000000000000000000000000000000000000000000000000060049252fd5b8560405190634c9c8ce360e01b82526004820152fd5b604051907faa1d49a40000000000000000000000000000000000000000000000000000000082526004820152fd5b9080929350813d8311613c95575b613c8481836145d9565b810103126103335751908780613b33565b503d613c7a565b9050817f360894a13ba1a3210667c828492db98dca3e2076cc3735a920a3ca505d382bbc5416141587613ae7565b34610333576020366003190112610333576001600160a01b03613ceb6144a5565b613cf3615031565b166001600160a01b03198181602154161760215560135416176013556101205161012051f35b34610333576020366003190112610333576020613d54600435600052600c6020526001600160401b0360026040600020015460601c16151590565b6040519015158152f35b3461033357604036600319011261033357610460613d7a6144e4565b60243590614805565b346103335760203660031901126103335763ffffffff613da16144e4565b1661012051526009602052602060ff6040610120512054166040519015158152f35b34610333576020366003190112610333576004356101205152600c60205260c06040610120512080549063ffffffff60026001830154920154906001600160401b039281604051956001600160a01b038116875260a01c166020860152604085015282821660608501528160401c16608084015260601c1660a0820152f35b3461033357604036600319011261033357613e5b6144a5565b613e636144bb565b906001600160a01b038091166101205152601b602052604061012051209116610120515260205260206040610120512054604051908152f35b34610333576040366003190112610333576001600160a01b03613ebd6144a5565b166101205152600260205260406101205120602435610120515260205260406101205120546001600160401b036104f5604051928284938260401c169116839060209093929360408301946001600160401b03809216845216910152565b34610333576040366003190112610333576001600160a01b03613f3c6144a5565b166101205152600a602052604061012051206024356101205152602052602060ff6040610120512054166040519015158152f35b6060366003190112610333576020613f9e613f896144a5565b613f916150df565b6044359060243590615184565b60017f9b779b17422d0df92223018b32b4d1fa46e071723d6817e2486d003becc55f00556001600160401b0360405191168152f35b34610333576020366003190112610333576001600160401b03613ff46144f7565b166101205152601d60205260206040610120512054604051908152f35b34610333576020366003190112610333576001600160401b036140326144f7565b166101205152601f602052602060ff6040610120512054166040519015158152f35b34610333576020366003190112610333576001600160a01b036140756144a5565b1661012051526015602052602060ff6040610120512054166040519015158152f35b34610333576020366003190112610333576001600160401b036140b86144f7565b166101205152601e60205260206040610120512054604051908152f35b346103335760203660031901126103335760043561411261317282600052600c6020526001600160401b0360026040600020015460601c16151590565b60405161411e8161450d565b338152602081019182526001546801000000000000000081101561417d5780600161414c920160015561471e565b929092611fdb576001600160a01b0360019251166001600160a01b0319845416178355519101556101205161012051f35b634e487b7160e01b61012051526041600452602461012051fd5b34610333576060366003190112610333576141b06144a5565b6141b86144d1565b60443560ff8116809103610333576141ce615031565b6001600160a01b038093169081156144615763ffffffff80931693841561441d5761422b90836101205152614212602095600f875260406101205120541615615094565b8561012051526010855260406101205120541615615094565b620186a08411156103335760405163313ce56760e01b81528381600481865afa80156116d05760ff916101205191614400575b50160360ff811161140f5760ff1692601284116143bc5760607fa0fa9e6f8b5151671d99d8a21fbee478f03ed8c5078386b9716ed66db871ccec91836101205152600f8552604061012051208163ffffffff198254161790558061012051526010855260406101205120846001600160a01b031982541617905560118552604061012051209560ff19968188825416179055600e86526040610120512060018882541617905560405191858352868301526040820152a18061012051526015825260ff604061012051205416614378577f2db5c923577787b86e45d0fc2e5d9e9a655c9b0d7802164b4e967544fe407864928161012051526015835260016040610120512091825416179055604051908152a16101205180f35b6064826040519062461bcd60e51b82526004820152601860248201527f5661756c7420616c7265616479207265676973746572656400000000000000006044820152fd5b6064836040519062461bcd60e51b82526004820152601660248201527f5363616c6520666163746f7220746f6f206c61726765000000000000000000006044820152fd5b6144179150853d87116116c9576116ba81836145d9565b8661425e565b606460405162461bcd60e51b815260206004820152601860248201527f546f6b656e2049442053686f756c64206e6f74206265203000000000000000006044820152fd5b606460405162461bcd60e51b815260206004820152601d60248201527f546f6b656e20616464726573732053686f756c64206e6f7420626520300000006044820152fd5b600435906001600160a01b038216820361085b57565b602435906001600160a01b038216820361085b57565b6024359063ffffffff8216820361085b57565b6004359063ffffffff8216820361085b57565b600435906001600160401b038216820361085b57565b604081019081106001600160401b0382111761452857604052565b634e487b7160e01b600052604160045260246000fd5b60c081019081106001600160401b0382111761452857604052565b61016081019081106001600160401b0382111761452857604052565b606081019081106001600160401b0382111761452857604052565b608081019081106001600160401b0382111761452857604052565b60e081019081106001600160401b0382111761452857604052565b6001600160401b03811161452857604052565b90601f801991011681019081106001600160401b0382111761452857604052565b6001600160401b03811161452857601f01601f191660200190565b601a5481101561465057600390601a600052027f057c384a7d1c54f3a1b2e5e67b2617b8224fdfd1ea7234eea573a6ff665ff63e0190600090565b634e487b7160e01b600052603260045260246000fd5b9181601f8401121561085b578235916001600160401b03831161085b576020808501948460051b01011161085b57565b6001600160401b0381116145285760051b60200190565b156146b457565b608460405162461bcd60e51b815260206004820152602160248201527f706f736974696f6e20616464726573732069736e27742072656769737465726560448201527f64000000000000000000000000000000000000000000000000000000000000006064820152fd5b60015481101561465057600160005260011b7fb10e2d527612073b26eecdfd717e6a320cf44b4afac2b0732d9fcbe2b7fa0cf60190600090565b1561475f57565b606460405162461bcd60e51b815260206004820152601760248201527f6d61726b65742069736e277420726567697374657265640000000000000000006044820152fd5b60201b906bffffffffffffffff0000000067ffffffff000000008316921682036147c957565b634e487b7160e01b600052601160045260246000fd5b919082018092116147c957565b6001600160401b0391821690821603919082116147c957565b919063ffffffff60009316835260206009815260409161482a60ff8487205416614758565b61485361317282600052600c6020526001600160401b0360026040600020015460601c16151590565b338552600282528285208186528252828520918351926148728461450d565b54926001600160401b039081851681528183820195871c16855283885260078352858820548281166149305750819086869798997e970a1334a6dc061eaf53ba659a8879c697ebfe2b51b0ed6d979993895ed5d696975182517fffffffffffffffff000000000000000000000000000000000000000000000000888201923360601b845260c01b166034820152601c815261490c8161450d565b51902081526005865220600160ff19825416179055511694511694519283523392a4565b9050818086959395511691871c16028381169081036149e057818852600783528386892054169081156149cc578493879361191197966149ca9a9b94600794049761497a89614c4c565b3387526006855261498f8888209182546147df565b9055511681855283835285852090876149ac8354928284166147ec565b16906001600160401b03191617905583525220938454901c166147ec565b565b602489634e487b7160e01b81526012600452fd5b602488634e487b7160e01b81526011600452fd5b156149fb57565b606460405162461bcd60e51b815260206004820152601760248201527f5661756c74206973206e6f7420726567697374657265640000000000000000006044820152fd5b9081602091031261085b5751801515810361085b5790565b15614a5e57565b606460405162461bcd60e51b815260206004820152600f60248201527f5472616e73666572206661696c656400000000000000000000000000000000006044820152fd5b3d15614acd573d90614ab3826145fa565b91614ac160405193846145d9565b82523d6000602084013e565b606090565b9060016001600160401b03809316019182116147c957565b9190916001600160401b03808094169116019182116147c957565b60206001600160a01b03916024604051809481937f70a08231000000000000000000000000000000000000000000000000000000008352306004840152165afa908115614b8657600091614b57575090565b90506020813d602011614b7e575b81614b72602093836145d9565b8101031261085b575190565b3d9150614b65565b6040513d6000823e3d90fd5b15614b9957565b606460405162461bcd60e51b815260206004820152601460248201527f546f6b656e206e6f7420726567697374657265640000000000000000000000006044820152fd5b15614be457565b606460405162461bcd60e51b815260206004820152601460248201527f496e76616c6964207363616c6520666163746f720000000000000000000000006044820152fd5b60ff16604d81116147c957600a0a90565b818102929181159184041417156147c957565b614ca29061d90380600052600e602052614c6d60ff60406000205416614b92565b60005260116020526001600160401b03614c9b60ff60406000205416614c966012821115614bdd565b614c28565b9116614c39565b90565b63ffffffff614ca2921680600052600e602052614c6d60ff60406000205416614b92565b8115614cd3570490565b634e487b7160e01b600052601260045260246000fd5b614d379063ffffffff6001600160401b03931680600052600e602052614d1660ff60406000205416614b92565b60005260116020526115e760ff60406000205416614c966012821115614bdd565b1690565b9081602091031261085b575160ff8116810361085b5790565b600090818052602091600f835260409261d90363ffffffff858420541614614e4657601281526001600160a01b0384832054169184519163313ce56760e01b83528083600481875afa928315614e3c578293614e1a575b5080600493948751948580926350d25bcd60e01b82525afa958615614e0f57508195614dd9575b5050509190565b909180939550813d8311614e08575b614df281836145d9565b81010312614e0557505191388080614dd2565b80fd5b503d614de8565b51913d9150823e3d90fd5b60049350614e358291823d84116116c9576116ba81836145d9565b9350614dab565b86513d84823e3d90fd5b505090506008906305f5e10090565b906001600160a01b0391826000911681526020600f815260409361d90363ffffffff868520541614614eda576012825284832054169184519163313ce56760e01b83528083600481875afa928315614e3c578293614e1a575080600493948751948580926350d25bcd60e01b82525afa958615614e0f57508195614dd9575050509190565b50505090506008906305f5e10090565b80518210156146505760209160051b010190565b90600163ffffffff809316019182116147c957565b91909163ffffffff808094169116019182116147c957565b6001600160a01b03809116908115614f98577f9016d09d72d40fdae2fd8ceac6b6234c7706214fd39c1cd1e609a0528c199300805490836001600160a01b03198316179055167f8be0079c531659141344cd1fd0a4f28419497f9722a3daafe3b4186f6b6457e0600080a3565b60246040517f1e4fbdf700000000000000000000000000000000000000000000000000000000815260006004820152fd5b91908110156146505760051b0190565b356001600160a01b038116810361085b5790565b33600052600660205260406000208054801561502d57600061502a925561d9036000526010602052336001600160a01b03604060002054166158ec565b50565b5050565b6001600160a01b037f9016d09d72d40fdae2fd8ceac6b6234c7706214fd39c1cd1e609a0528c1993005416330361506457565b60246040517f118cdaa7000000000000000000000000000000000000000000000000000000008152336004820152fd5b1561509b57565b606460405162461bcd60e51b815260206004820152601860248201527f546f6b656e20616c7265616479207265676973746572656400000000000000006044820152fd5b7f9b779b17422d0df92223018b32b4d1fa46e071723d6817e2486d003becc55f00600281541461510f5760029055565b60046040517f3ee5aeb5000000000000000000000000000000000000000000000000000000008152fd5b1561514057565b606460405162461bcd60e51b815260206004820152601160248201527f496e76616c696420737461726b204b65790000000000000000000000000000006044820152fd5b6151af7f08000000000000110000000000000000000000000000000000000000000000018410615139565b6151ba831515615139565b33156153d65734156152df575050614ca2906152447f429602b012976e07ac9b27b6c1bac9791626550f52721f02a2523c88808ec7a060a0631b0bc2a8600090808252602095600e875260409061521660ff8386205416614b92565b8284526011885260ff82852054166152316012821115614bdd565b61524a6001600160401b03988992614c28565b34614cc9565b1697818552601881528285208486528152878386205416978361526d8b8b614aea565b9684815260188452818120878252845220816001600160401b031997168782541617905561529e81601754166147a3565b9560195490826152ba6152b4828516809b614aea565b99614ad2565b16911617601955835195168552840152820152846060820152426080820152a1614aea565b917f429602b012976e07ac9b27b6c1bac9791626550f52721f02a2523c88808ec7a060a08461531185614ca297615428565b6001600160a01b03600091168152602093600f855260409561533d63ffffffff88852054168092614ce9565b968284526018875280842082855287526001600160401b039283828620541697826153688b8b614aea565b9683815260188352818120868252835220856001600160401b031997168782541617905561539985601754166147a3565b9560195490866153af6152b4828516809b614aea565b169116176019558483519616865285015283015285166060820152426080820152a1614aea565b606460405162461bcd60e51b815260206004820152601a60248201527f496e76616c6964206465706f736974696f7220616464726573730000000000006044820152fd5b15600117156147c957600090565b6154826000926001600160a01b0360209316908185526015845261545260ff6040872054166149f4565b6040516323b872dd60e01b8152336004820152306024820152604481019190915293849283919082906064820190565b03925af18015614b86576149ca9160009161549d5750614a57565b6154b6915060203d602011612d8057612d7181836145d9565b38612d04565b7f0800000000000011000000000000000000000000000000000000000000000001811015615665573315615621577ff4803e074bd026baaf6ed2e288c9515f68c72fb7216eebdd7cae1718a53ec37554600082815260186020908152604080832063ffffffff9485168085529252808320549093906001600160401b03161561561a57835161554a81614575565b33815260208101868152858201938452601a54680100000000000000008110156156065780600161557e9201601a55614615565b9290926155f35760609694927ffe5eeb45c725aa6c7460c0a9b5891c86aab2691e00ef4e9e24376ec43264561b989694926001600160a01b0360029351166001600160a01b03198354161782555160018201550191511663ffffffff19825416179055815192835260208301524290820152a1565b602486634e487b7160e01b815280600452fd5b602486634e487b7160e01b81526041600452fd5b5050505050565b606460405162461bcd60e51b815260206004820152601560248201527f6d73672e73656e6465722063616e2774206265203000000000000000000000006044820152fd5b606460405162461bcd60e51b815260206004820152601160248201527f496e76616c696420737461726b206b65790000000000000000000000000000006044820152fd5b7f0800000000000011000000000000000000000000000000000000000000000001821015615665573315615621576001600160a01b03809116600091818352600f60205263ffffffff6040938185822054169286825260186020528582208483526020526001600160401b038683205416156157f65785519061572b82614575565b3382526020820191888352878101958652601a54680100000000000000008110156157e2578060016157609201601a55614615565b9490946157cf5750927ffe5eeb45c725aa6c7460c0a9b5891c86aab2691e00ef4e9e24376ec43264561b98969492600292606099979551166001600160a01b03198354161782555160018201550191511663ffffffff19825416179055815192835260208301524290820152a1565b80634e487b7160e01b6024925280600452fd5b602485634e487b7160e01b81526041600452fd5b50505050505050565b6040519061580c82614559565b816101406000918281528260208201528260408201528260608201528260808201528260a08201528260c08201528260e082015282610100820152826101208201520152565b9093929384831161085b57841161085b578160051b01920390565b90600363ffffffff809316029182169182036147c957565b60011b906201fffe61fffe8316921682036147c957565b90600361ffff809316029182169182036147c957565b60021b906203fffc61fffc8316921682036147c957565b91909161ffff808094169116019182116147c957565b919082039182116147c957565b6001600160a01b03169182600052601560205260ff60406000205416156159715780156159715760405163a9059cbb60e01b81526001600160a01b03929092166004830152602482015290602090829060449082906000905af1908115614b8657600091615958575090565b614ca2915060203d602011612d8057612d7181836145d9565b505050600190565b906001600160a01b03809216906000948286526020946015865260ff60408820541615615aa757816159aa916158df565b938415615aa75781615a24575b505060405163a9059cbb60e01b81526001600160a01b039091166004820152602481019290925290919081908390818681604481015b03925af1928315615a185792615a0257505090565b614ca29250803d10612d8057612d7181836145d9565b604051903d90823e3d90fd5b60145460405163a9059cbb60e01b815291166001600160a01b03166004820152602481019190915284818060448101038189875af1908115615a9c5791615a7a869593926159ed9795938991615a855750614a57565b9193948193506159b7565b6154b69150863d8811612d8057612d7181836145d9565b6040513d88823e3d90fd5b50505050505050600190565b60ff7ff0c57e16840df040f15088dc2f81fe391c3923bec73e23a9662efc9c229c6a005460401c1615615ae257565b60046040517fd7e6bcf8000000000000000000000000000000000000000000000000000000008152fd5b60405190615b1982614575565b60006040838281528260208201520152565b90615b3582614696565b615b4260405191826145d9565b8281528092615b53601f1991614696565b019060005b828110615b6457505050565b602090615b6f615b0c565b82828501015201615b58565b63ffffffff90811660001901919082116147c957565b601a80541561502a5760005b8154811015615c555780615bb2600192614615565b5082810154600052602090601882526001600160401b0360408060002063ffffffff60028501541694856000525260002054168015615c4d5782615bf591614ca5565b90631b0bc2a88303615c0c575b5050505b01615b9d565b6001600160a01b03615c3b615c449463ffffffff1660005260106020526001600160a01b036040600020541690565b915416906158ec565b50388080615c02565b505050615c06565b5050601a546000601a5580615c675750565b600390806003029060038204036147c957601a6000527f057c384a7d1c54f3a1b2e5e67b2617b8224fdfd1ea7234eea573a6ff665ff63e908101905b818110615caf57505050565b806000849255600060018201556000600282015501615ca3565b604d81116147c957600a0a90565b9082615ce2916158df565b9182156159715780615d0e575b5060008080936001600160a01b038294165af1615d0a614aa2565b5090565b6000808080936001600160a01b03601454165af1615d2a614aa2565b5015615d365738615cef565b608460405162461bcd60e51b8152602060048201526024808201527f4661696c656420746f2073656e6420457468657220746f20676173436f6c6c6560448201527f63746f72000000000000000000000000000000000000000000000000000000006064820152fd5b90615dde5750805115615db457805190602001fd5b60046040517f1425ea42000000000000000000000000000000000000000000000000000000008152fd5b81511580615e29575b615def575090565b6024906001600160a01b03604051917f9996b315000000000000000000000000000000000000000000000000000000008352166004820152fd5b50803b15615de756fea2646970667358221220d4c8252b34dd312460f13acfcbc609f027fa6fb51e4791a59452c708477b60e264736f6c63430008160033",
  "linkReferences": {},
  "deployedLinkReferences": {}
}