{
  "_format": "hh-sol-artifact-1",
  "contractName": "InvisibleL1",
  "sourceName": "src/Invisible.sol",
  "abi": [
    {
      "inputs": [
        {
          "internalType": "address",
          "name": "target",
          "type": "address"
        }
      ],
      "name": "AddressEmptyCode",
      "type": "error"
    },
    {
      "inputs": [
        {
          "internalType": "address",
          "name": "implementation",
          "type": "address"
        }
      ],
      "name": "ERC1967InvalidImplementation",
      "type": "error"
    },
    {
      "inputs": [],
      "name": "ERC1967NonPayable",
      "type": "error"
    },
    {
      "inputs": [],
      "name": "FailedInnerCall",
      "type": "error"
    },
    {
      "inputs": [],
      "name": "InvalidInitialization",
      "type": "error"
    },
    {
      "inputs": [],
      "name": "NotInitializing",
      "type": "error"
    },
    {
      "inputs": [
        {
          "internalType": "address",
          "name": "owner",
          "type": "address"
        }
      ],
      "name": "OwnableInvalidOwner",
      "type": "error"
    },
    {
      "inputs": [
        {
          "internalType": "address",
          "name": "account",
          "type": "address"
        }
      ],
      "name": "OwnableUnauthorizedAccount",
      "type": "error"
    },
    {
      "inputs": [],
      "name": "ReentrancyGuardReentrantCall",
      "type": "error"
    },
    {
      "inputs": [],
      "name": "UUPSUnauthorizedCallContext",
      "type": "error"
    },
    {
      "inputs": [
        {
          "internalType": "bytes32",
          "name": "slot",
          "type": "bytes32"
        }
      ],
      "name": "UUPSUnsupportedProxiableUUID",
      "type": "error"
    },
    {
      "anonymous": false,
      "inputs": [
        {
          "indexed": false,
          "internalType": "address",
          "name": "depositor",
          "type": "address"
        },
        {
          "indexed": false,
          "internalType": "uint256",
          "name": "mmPositionAddress",
          "type": "uint256"
        },
        {
          "indexed": false,
          "internalType": "uint64",
          "name": "usdcAmount",
          "type": "uint64"
        },
        {
          "indexed": true,
          "internalType": "uint32",
          "name": "mmActionId",
          "type": "uint32"
        }
      ],
      "name": "AddLiquidity",
      "type": "event"
    },
    {
      "anonymous": false,
      "inputs": [
        {
          "indexed": false,
          "internalType": "uint256",
          "name": "positionAddress",
          "type": "uint256"
        },
        {
          "indexed": false,
          "internalType": "address",
          "name": "mmOwner",
          "type": "address"
        },
        {
          "indexed": false,
          "internalType": "uint64",
          "name": "initialValueSum",
          "type": "uint64"
        },
        {
          "indexed": false,
          "internalType": "uint64",
          "name": "vlpAmountSum",
          "type": "uint64"
        },
        {
          "indexed": true,
          "internalType": "uint32",
          "name": "mmActionId",
          "type": "uint32"
        }
      ],
      "name": "ClosePositionEvent",
      "type": "event"
    },
    {
      "anonymous": false,
      "inputs": [
        {
          "indexed": false,
          "internalType": "uint256",
          "name": "pubKey",
          "type": "uint256"
        },
        {
          "indexed": false,
          "internalType": "address",
          "name": "tokenAddress",
          "type": "address"
        },
        {
          "indexed": false,
          "internalType": "uint256",
          "name": "timestamp",
          "type": "uint256"
        }
      ],
      "name": "DepositCancelEvent",
      "type": "event"
    },
    {
      "anonymous": false,
      "inputs": [
        {
          "indexed": false,
          "internalType": "uint64",
          "name": "depositId",
          "type": "uint64"
        },
        {
          "indexed": false,
          "internalType": "uint256",
          "name": "pubKey",
          "type": "uint256"
        },
        {
          "indexed": false,
          "internalType": "uint32",
          "name": "tokenId",
          "type": "uint32"
        },
        {
          "indexed": false,
          "internalType": "uint64",
          "name": "depositAmountScaled",
          "type": "uint64"
        },
        {
          "indexed": false,
          "internalType": "uint256",
          "name": "timestamp",
          "type": "uint256"
        }
      ],
      "name": "DepositEvent",
      "type": "event"
    },
    {
      "anonymous": false,
      "inputs": [
        {
          "indexed": false,
          "internalType": "uint64",
          "name": "version",
          "type": "uint64"
        }
      ],
      "name": "Initialized",
      "type": "event"
    },
    {
      "anonymous": false,
      "inputs": [
        {
          "indexed": false,
          "internalType": "address",
          "name": "tokenAddress",
          "type": "address"
        },
        {
          "indexed": false,
          "internalType": "uint32",
          "name": "tokenId",
          "type": "uint32"
        },
        {
          "indexed": false,
          "internalType": "uint8",
          "name": "scaleFactor",
          "type": "uint8"
        }
      ],
      "name": "NewTokenRegisteredEvent",
      "type": "event"
    },
    {
      "anonymous": false,
      "inputs": [
        {
          "indexed": true,
          "internalType": "address",
          "name": "previousOwner",
          "type": "address"
        },
        {
          "indexed": true,
          "internalType": "address",
          "name": "newOwner",
          "type": "address"
        }
      ],
      "name": "OwnershipTransferred",
      "type": "event"
    },
    {
      "anonymous": false,
      "inputs": [
        {
          "indexed": false,
          "internalType": "uint256",
          "name": "timestamp",
          "type": "uint256"
        },
        {
          "indexed": false,
          "internalType": "uint64",
          "name": "txBatchId",
          "type": "uint64"
        }
      ],
      "name": "ProcessedWithdrawals",
      "type": "event"
    },
    {
      "anonymous": false,
      "inputs": [
        {
          "indexed": false,
          "internalType": "address",
          "name": "depositor",
          "type": "address"
        },
        {
          "indexed": false,
          "internalType": "uint256",
          "name": "mmPositionAddress",
          "type": "uint256"
        },
        {
          "indexed": false,
          "internalType": "uint64",
          "name": "initialValue",
          "type": "uint64"
        },
        {
          "indexed": false,
          "internalType": "uint64",
          "name": "vlpAmount",
          "type": "uint64"
        },
        {
          "indexed": true,
          "internalType": "uint32",
          "name": "mmActionId",
          "type": "uint32"
        }
      ],
      "name": "RemoveLiquidity",
      "type": "event"
    },
    {
      "anonymous": false,
      "inputs": [
        {
          "indexed": true,
          "internalType": "uint32",
          "name": "txBatchId",
          "type": "uint32"
        },
        {
          "indexed": false,
          "internalType": "uint256",
          "name": "prevStateRoot",
          "type": "uint256"
        },
        {
          "indexed": false,
          "internalType": "uint256",
          "name": "newStateRoot",
          "type": "uint256"
        },
        {
          "indexed": false,
          "internalType": "uint256",
          "name": "timestamp",
          "type": "uint256"
        }
      ],
      "name": "TxBatchProcesssed",
      "type": "event"
    },
    {
      "anonymous": false,
      "inputs": [
        {
          "indexed": false,
          "internalType": "uint256",
          "name": "timestamp",
          "type": "uint256"
        },
        {
          "indexed": false,
          "internalType": "uint64",
          "name": "txBatchId",
          "type": "uint64"
        }
      ],
      "name": "UpdatedPendingDepositsEvent",
      "type": "event"
    },
    {
      "anonymous": false,
      "inputs": [
        {
          "indexed": true,
          "internalType": "address",
          "name": "implementation",
          "type": "address"
        }
      ],
      "name": "Upgraded",
      "type": "event"
    },
    {
      "anonymous": false,
      "inputs": [
        {
          "indexed": false,
          "internalType": "address",
          "name": "tokenAddress",
          "type": "address"
        }
      ],
      "name": "VaultRegisteredEvent",
      "type": "event"
    },
    {
      "anonymous": false,
      "inputs": [
        {
          "indexed": false,
          "internalType": "address",
          "name": "withdrawer",
          "type": "address"
        },
        {
          "indexed": false,
          "internalType": "address",
          "name": "tokenAddress",
          "type": "address"
        },
        {
          "indexed": false,
          "internalType": "uint256",
          "name": "withdrawalAmount",
          "type": "uint256"
        },
        {
          "indexed": false,
          "internalType": "uint256",
          "name": "timestamp",
          "type": "uint256"
        }
      ],
      "name": "WithdrawalEvent",
      "type": "event"
    },
    {
      "anonymous": false,
      "inputs": [
        {
          "indexed": false,
          "internalType": "address",
          "name": "mmOwner",
          "type": "address"
        },
        {
          "indexed": false,
          "internalType": "uint32",
          "name": "syntheticAsset",
          "type": "uint32"
        },
        {
          "indexed": false,
          "internalType": "uint256",
          "name": "positionAddress",
          "type": "uint256"
        },
        {
          "indexed": false,
          "internalType": "uint32",
          "name": "vlpTokenId",
          "type": "uint32"
        },
        {
          "indexed": true,
          "internalType": "uint32",
          "name": "mmActionId",
          "type": "uint32"
        }
      ],
      "name": "newPerpMMRegistration",
      "type": "event"
    },
    {
      "inputs": [],
      "name": "CALLBACK_SUCCESS",
      "outputs": [
        {
          "internalType": "bytes32",
          "name": "",
          "type": "bytes32"
        }
      ],
      "stateMutability": "view",
      "type": "function"
    },
    {
      "inputs": [],
      "name": "UPGRADE_INTERFACE_VERSION",
      "outputs": [
        {
          "internalType": "string",
          "name": "",
          "type": "string"
        }
      ],
      "stateMutability": "view",
      "type": "function"
    },
    {
      "inputs": [
        {
          "internalType": "address",
          "name": "mmOwner",
          "type": "address"
        },
        {
          "internalType": "uint256",
          "name": "tabPosAddress",
          "type": "uint256"
        }
      ],
      "name": "approveMMRegistration",
      "outputs": [],
      "stateMutability": "nonpayable",
      "type": "function"
    },
    {
      "inputs": [
        {
          "internalType": "address",
          "name": "recipient",
          "type": "address"
        },
        {
          "internalType": "address",
          "name": "token",
          "type": "address"
        }
      ],
      "name": "claimPendingWithdrawal",
      "outputs": [],
      "stateMutability": "nonpayable",
      "type": "function"
    },
    {
      "inputs": [
        {
          "internalType": "uint256",
          "name": "mmPositionAddress",
          "type": "uint256"
        }
      ],
      "name": "closePerpMarketMaker",
      "outputs": [],
      "stateMutability": "nonpayable",
      "type": "function"
    },
    {
      "inputs": [
        {
          "internalType": "address",
          "name": "tokenAddress",
          "type": "address"
        },
        {
          "internalType": "address payable",
          "name": "recipient",
          "type": "address"
        },
        {
          "internalType": "uint256",
          "name": "escapeAmount",
          "type": "uint256"
        }
      ],
      "name": "executeEscape",
      "outputs": [],
      "stateMutability": "nonpayable",
      "type": "function"
    },
    {
      "inputs": [],
      "name": "feePercent",
      "outputs": [
        {
          "internalType": "uint256",
          "name": "",
          "type": "uint256"
        }
      ],
      "stateMutability": "view",
      "type": "function"
    },
    {
      "inputs": [
        {
          "internalType": "address",
          "name": "token",
          "type": "address"
        },
        {
          "internalType": "uint256",
          "name": "amount",
          "type": "uint256"
        }
      ],
      "name": "flashFee",
      "outputs": [
        {
          "internalType": "uint256",
          "name": "",
          "type": "uint256"
        }
      ],
      "stateMutability": "pure",
      "type": "function"
    },
    {
      "inputs": [
        {
          "internalType": "contract IERC3156FlashBorrower",
          "name": "receiver",
          "type": "address"
        },
        {
          "internalType": "address",
          "name": "token",
          "type": "address"
        },
        {
          "internalType": "uint256",
          "name": "amount",
          "type": "uint256"
        },
        {
          "internalType": "bytes",
          "name": "data",
          "type": "bytes"
        }
      ],
      "name": "flashLoan",
      "outputs": [
        {
          "internalType": "bool",
          "name": "",
          "type": "bool"
        }
      ],
      "stateMutability": "nonpayable",
      "type": "function"
    },
    {
      "inputs": [
        {
          "internalType": "uint256",
          "name": "starkKey",
          "type": "uint256"
        },
        {
          "internalType": "address",
          "name": "tokenAddress",
          "type": "address"
        }
      ],
      "name": "getPendingDepositAmount",
      "outputs": [
        {
          "internalType": "uint256",
          "name": "",
          "type": "uint256"
        }
      ],
      "stateMutability": "view",
      "type": "function"
    },
    {
      "inputs": [
        {
          "internalType": "uint256",
          "name": "starkKey",
          "type": "uint256"
        }
      ],
      "name": "getPendingETHDepositAmount",
      "outputs": [
        {
          "internalType": "uint256",
          "name": "",
          "type": "uint256"
        }
      ],
      "stateMutability": "view",
      "type": "function"
    },
    {
      "inputs": [
        {
          "internalType": "uint32",
          "name": "tokenId",
          "type": "uint32"
        }
      ],
      "name": "getScaleFactor",
      "outputs": [
        {
          "internalType": "uint8",
          "name": "",
          "type": "uint8"
        }
      ],
      "stateMutability": "view",
      "type": "function"
    },
    {
      "inputs": [
        {
          "internalType": "uint32",
          "name": "tokenId",
          "type": "uint32"
        }
      ],
      "name": "getTokenAddress",
      "outputs": [
        {
          "internalType": "address",
          "name": "",
          "type": "address"
        }
      ],
      "stateMutability": "view",
      "type": "function"
    },
    {
      "inputs": [
        {
          "internalType": "address",
          "name": "tokenAddress",
          "type": "address"
        }
      ],
      "name": "getTokenId",
      "outputs": [
        {
          "internalType": "uint32",
          "name": "",
          "type": "uint32"
        }
      ],
      "stateMutability": "view",
      "type": "function"
    },
    {
      "inputs": [
        {
          "internalType": "address",
          "name": "tokenAddress",
          "type": "address"
        }
      ],
      "name": "getTokenPrice",
      "outputs": [
        {
          "internalType": "uint8",
          "name": "",
          "type": "uint8"
        },
        {
          "internalType": "uint256",
          "name": "",
          "type": "uint256"
        }
      ],
      "stateMutability": "view",
      "type": "function"
    },
    {
      "inputs": [
        {
          "internalType": "address",
          "name": "initialOwner",
          "type": "address"
        },
        {
          "internalType": "uint32",
          "name": "_chainId",
          "type": "uint32"
        }
      ],
      "name": "initialize",
      "outputs": [],
      "stateMutability": "nonpayable",
      "type": "function"
    },
    {
      "inputs": [
        {
          "internalType": "uint256",
          "name": "mmPositionAddress",
          "type": "uint256"
        }
      ],
      "name": "initiateMMClose",
      "outputs": [],
      "stateMutability": "nonpayable",
      "type": "function"
    },
    {
      "inputs": [
        {
          "internalType": "uint256",
          "name": "mmAddress",
          "type": "uint256"
        }
      ],
      "name": "isAddressRegistered",
      "outputs": [
        {
          "internalType": "bool",
          "name": "",
          "type": "bool"
        }
      ],
      "stateMutability": "view",
      "type": "function"
    },
    {
      "inputs": [
        {
          "internalType": "uint32",
          "name": "syntheticAsset",
          "type": "uint32"
        }
      ],
      "name": "isMarketRegistered",
      "outputs": [
        {
          "internalType": "bool",
          "name": "",
          "type": "bool"
        }
      ],
      "stateMutability": "view",
      "type": "function"
    },
    {
      "inputs": [
        {
          "internalType": "uint32",
          "name": "tokenId",
          "type": "uint32"
        }
      ],
      "name": "isTokenRegistered",
      "outputs": [
        {
          "internalType": "bool",
          "name": "",
          "type": "bool"
        }
      ],
      "stateMutability": "view",
      "type": "function"
    },
    {
      "inputs": [
        {
          "internalType": "address",
          "name": "tokenAddress",
          "type": "address"
        }
      ],
      "name": "isVaultRegistered",
      "outputs": [
        {
          "internalType": "bool",
          "name": "",
          "type": "bool"
        }
      ],
      "stateMutability": "view",
      "type": "function"
    },
    {
      "inputs": [
        {
          "internalType": "address",
          "name": "tokenAddress",
          "type": "address"
        },
        {
          "internalType": "uint256",
          "name": "amount",
          "type": "uint256"
        },
        {
          "internalType": "uint256",
          "name": "starkKey",
          "type": "uint256"
        }
      ],
      "name": "makeDeposit",
      "outputs": [
        {
          "internalType": "uint64",
          "name": "newAmountDeposited",
          "type": "uint64"
        },
        {
          "internalType": "uint64",
          "name": "depositId",
          "type": "uint64"
        }
      ],
      "stateMutability": "payable",
      "type": "function"
    },
    {
      "inputs": [
        {
          "internalType": "address",
          "name": "token",
          "type": "address"
        }
      ],
      "name": "maxFlashLoan",
      "outputs": [
        {
          "internalType": "uint256",
          "name": "",
          "type": "uint256"
        }
      ],
      "stateMutability": "view",
      "type": "function"
    },
    {
      "inputs": [],
      "name": "owner",
      "outputs": [
        {
          "internalType": "address",
          "name": "",
          "type": "address"
        }
      ],
      "stateMutability": "view",
      "type": "function"
    },
    {
      "inputs": [
        {
          "internalType": "uint32",
          "name": "syntheticToken",
          "type": "uint32"
        },
        {
          "internalType": "uint256",
          "name": "mmPositionAddress",
          "type": "uint256"
        },
        {
          "internalType": "uint256",
          "name": "usdcAmount",
          "type": "uint256"
        }
      ],
      "name": "provideLiquidity",
      "outputs": [],
      "stateMutability": "nonpayable",
      "type": "function"
    },
    {
      "inputs": [],
      "name": "proxiableUUID",
      "outputs": [
        {
          "internalType": "bytes32",
          "name": "",
          "type": "bytes32"
        }
      ],
      "stateMutability": "view",
      "type": "function"
    },
    {
      "inputs": [
        {
          "internalType": "uint32[]",
          "name": "syntheticAssets",
          "type": "uint32[]"
        }
      ],
      "name": "registerNewMarkets",
      "outputs": [],
      "stateMutability": "nonpayable",
      "type": "function"
    },
    {
      "inputs": [
        {
          "internalType": "uint32",
          "name": "syntheticAsset",
          "type": "uint32"
        },
        {
          "internalType": "uint256",
          "name": "positionAddress",
          "type": "uint256"
        }
      ],
      "name": "registerPerpMarketMaker",
      "outputs": [],
      "stateMutability": "nonpayable",
      "type": "function"
    },
    {
      "inputs": [
        {
          "internalType": "address",
          "name": "tokenAddress",
          "type": "address"
        },
        {
          "internalType": "uint32",
          "name": "tokenId",
          "type": "uint32"
        },
        {
          "internalType": "uint8",
          "name": "offchainDecimals",
          "type": "uint8"
        }
      ],
      "name": "registerToken",
      "outputs": [],
      "stateMutability": "nonpayable",
      "type": "function"
    },
    {
      "inputs": [
        {
          "internalType": "uint32",
          "name": "syntheticToken",
          "type": "uint32"
        },
        {
          "internalType": "uint256",
          "name": "mmPositionAddress",
          "type": "uint256"
        }
      ],
      "name": "removeLiquidity",
      "outputs": [],
      "stateMutability": "nonpayable",
      "type": "function"
    },
    {
      "inputs": [],
      "name": "renounceOwnership",
      "outputs": [],
      "stateMutability": "nonpayable",
      "type": "function"
    },
    {
      "inputs": [
        {
          "internalType": "address",
          "name": "",
          "type": "address"
        },
        {
          "internalType": "uint256",
          "name": "",
          "type": "uint256"
        }
      ],
      "name": "s_activeLiqudity",
      "outputs": [
        {
          "internalType": "uint64",
          "name": "initialValue",
          "type": "uint64"
        },
        {
          "internalType": "uint64",
          "name": "vlpAmount",
          "type": "uint64"
        }
      ],
      "stateMutability": "view",
      "type": "function"
    },
    {
      "inputs": [
        {
          "internalType": "uint256",
          "name": "",
          "type": "uint256"
        }
      ],
      "name": "s_aggregateVlpIssued",
      "outputs": [
        {
          "internalType": "uint64",
          "name": "",
          "type": "uint64"
        }
      ],
      "stateMutability": "view",
      "type": "function"
    },
    {
      "inputs": [
        {
          "internalType": "uint256",
          "name": "",
          "type": "uint256"
        }
      ],
      "name": "s_closedPositionLiqudity",
      "outputs": [
        {
          "internalType": "uint64",
          "name": "vlpAmountSum",
          "type": "uint64"
        },
        {
          "internalType": "uint64",
          "name": "returnCollateral",
          "type": "uint64"
        }
      ],
      "stateMutability": "view",
      "type": "function"
    },
    {
      "inputs": [],
      "name": "s_messageRelay",
      "outputs": [
        {
          "internalType": "address",
          "name": "",
          "type": "address"
        }
      ],
      "stateMutability": "view",
      "type": "function"
    },
    {
      "inputs": [
        {
          "internalType": "address",
          "name": "",
          "type": "address"
        },
        {
          "internalType": "uint256",
          "name": "",
          "type": "uint256"
        }
      ],
      "name": "s_pendingAddLiqudityRequests",
      "outputs": [
        {
          "internalType": "uint64",
          "name": "",
          "type": "uint64"
        }
      ],
      "stateMutability": "view",
      "type": "function"
    },
    {
      "inputs": [
        {
          "internalType": "uint256",
          "name": "",
          "type": "uint256"
        },
        {
          "internalType": "uint32",
          "name": "",
          "type": "uint32"
        }
      ],
      "name": "s_pendingDeposits",
      "outputs": [
        {
          "internalType": "uint64",
          "name": "",
          "type": "uint64"
        }
      ],
      "stateMutability": "view",
      "type": "function"
    },
    {
      "inputs": [
        {
          "internalType": "bytes32",
          "name": "",
          "type": "bytes32"
        }
      ],
      "name": "s_pendingRemoveLiqudityRequests",
      "outputs": [
        {
          "internalType": "uint256",
          "name": "",
          "type": "uint256"
        }
      ],
      "stateMutability": "view",
      "type": "function"
    },
    {
      "inputs": [
        {
          "internalType": "uint256",
          "name": "",
          "type": "uint256"
        }
      ],
      "name": "s_perpRegistrations",
      "outputs": [
        {
          "internalType": "address",
          "name": "mmOwner",
          "type": "address"
        },
        {
          "internalType": "uint32",
          "name": "syntheticAsset",
          "type": "uint32"
        },
        {
          "internalType": "uint256",
          "name": "positionAddress",
          "type": "uint256"
        },
        {
          "internalType": "uint32",
          "name": "vlpTokenId",
          "type": "uint32"
        },
        {
          "internalType": "uint64",
          "name": "vlpAmount",
          "type": "uint64"
        }
      ],
      "stateMutability": "view",
      "type": "function"
    },
    {
      "inputs": [
        {
          "internalType": "uint256",
          "name": "",
          "type": "uint256"
        }
      ],
      "name": "s_providedUsdcLiquidity",
      "outputs": [
        {
          "internalType": "uint64",
          "name": "",
          "type": "uint64"
        }
      ],
      "stateMutability": "view",
      "type": "function"
    },
    {
      "inputs": [],
      "name": "s_txBatchId",
      "outputs": [
        {
          "internalType": "uint32",
          "name": "",
          "type": "uint32"
        }
      ],
      "stateMutability": "view",
      "type": "function"
    },
    {
      "inputs": [
        {
          "internalType": "uint32",
          "name": "",
          "type": "uint32"
        }
      ],
      "name": "s_txBatchId2StateRoot",
      "outputs": [
        {
          "internalType": "uint256",
          "name": "",
          "type": "uint256"
        }
      ],
      "stateMutability": "view",
      "type": "function"
    },
    {
      "inputs": [
        {
          "internalType": "uint32",
          "name": "",
          "type": "uint32"
        }
      ],
      "name": "s_txBatchId2Timestamp",
      "outputs": [
        {
          "internalType": "uint256",
          "name": "",
          "type": "uint256"
        }
      ],
      "stateMutability": "view",
      "type": "function"
    },
    {
      "inputs": [
        {
          "internalType": "uint256",
          "name": "amount",
          "type": "uint256"
        },
        {
          "internalType": "uint32",
          "name": "tokenId",
          "type": "uint32"
        }
      ],
      "name": "scaleDown",
      "outputs": [
        {
          "internalType": "uint64",
          "name": "amountScaled",
          "type": "uint64"
        }
      ],
      "stateMutability": "view",
      "type": "function"
    },
    {
      "inputs": [
        {
          "internalType": "uint64",
          "name": "amount",
          "type": "uint64"
        },
        {
          "internalType": "uint32",
          "name": "tokenId",
          "type": "uint32"
        }
      ],
      "name": "scaleUp",
      "outputs": [
        {
          "internalType": "uint256",
          "name": "amountScaled",
          "type": "uint256"
        }
      ],
      "stateMutability": "view",
      "type": "function"
    },
    {
      "inputs": [
        {
          "internalType": "address[]",
          "name": "tokenAddress",
          "type": "address[]"
        },
        {
          "internalType": "address[]",
          "name": "aggregatorAddresses",
          "type": "address[]"
        }
      ],
      "name": "setClAggregators",
      "outputs": [],
      "stateMutability": "nonpayable",
      "type": "function"
    },
    {
      "inputs": [
        {
          "internalType": "address",
          "name": "newVerirfier",
          "type": "address"
        }
      ],
      "name": "setEscapeVerifier",
      "outputs": [],
      "stateMutability": "nonpayable",
      "type": "function"
    },
    {
      "inputs": [
        {
          "internalType": "address",
          "name": "newRelay",
          "type": "address"
        }
      ],
      "name": "setMessageRelay",
      "outputs": [],
      "stateMutability": "nonpayable",
      "type": "function"
    },
    {
      "inputs": [
        {
          "internalType": "uint32",
          "name": "_txBatchId",
          "type": "uint32"
        },
        {
          "internalType": "uint256",
          "name": "_stateRoot",
          "type": "uint256"
        }
      ],
      "name": "setTxBatchInfo",
      "outputs": [],
      "stateMutability": "nonpayable",
      "type": "function"
    },
    {
      "inputs": [
        {
          "internalType": "address",
          "name": "tokenAddress",
          "type": "address"
        },
        {
          "internalType": "uint256",
          "name": "starkKey",
          "type": "uint256"
        }
      ],
      "name": "startCancelDeposit",
      "outputs": [],
      "stateMutability": "nonpayable",
      "type": "function"
    },
    {
      "inputs": [
        {
          "internalType": "uint256",
          "name": "starkKey",
          "type": "uint256"
        }
      ],
      "name": "startCancelETHDeposit",
      "outputs": [],
      "stateMutability": "nonpayable",
      "type": "function"
    },
    {
      "inputs": [
        {
          "internalType": "address",
          "name": "newOwner",
          "type": "address"
        }
      ],
      "name": "transferOwnership",
      "outputs": [],
      "stateMutability": "nonpayable",
      "type": "function"
    },
    {
      "inputs": [
        {
          "internalType": "uint256",
          "name": "mmPositionAddress",
          "type": "uint256"
        }
      ],
      "name": "tryCancelAddLiquidity",
      "outputs": [],
      "stateMutability": "nonpayable",
      "type": "function"
    },
    {
      "inputs": [
        {
          "internalType": "uint256[]",
          "name": "programOutput",
          "type": "uint256[]"
        }
      ],
      "name": "updateStateAfterTxBatch",
      "outputs": [],
      "stateMutability": "nonpayable",
      "type": "function"
    },
    {
      "inputs": [
        {
          "internalType": "address",
          "name": "newImplementation",
          "type": "address"
        },
        {
          "internalType": "bytes",
          "name": "data",
          "type": "bytes"
        }
      ],
      "name": "upgradeToAndCall",
      "outputs": [],
      "stateMutability": "payable",
      "type": "function"
    },
    {
      "inputs": [],
      "name": "version",
      "outputs": [
        {
          "internalType": "uint256",
          "name": "",
          "type": "uint256"
        }
      ],
      "stateMutability": "view",
      "type": "function"
    },
    {
      "inputs": [],
      "name": "withdrawalLiquidity",
      "outputs": [],
      "stateMutability": "nonpayable",
      "type": "function"
    }
  ],
  "bytecode": "0x60a0806040523461002b5730608052615dcb9081620000318239608051818181613271015261358c0152f35b600080fdfe6101c080604052600436101561001457600080fd5b600060e05260e0513560e01c90816301f079e3146142fa5750806305560c7914613fec578063063f2ada14613f2e578063105a88e314613eed578063149e7f4114613eaf5780632440fdc214613e4357806325e8eecb14613dc85780632f68172214613d5857806335fd59b514613ac75780633671a8f214613aa257806337caeedd1461398e578063401a1ff114613957578063423ec4be1461385457806343d105a71461380f578063462de13f146137e15780634e062132146137945780634f1ef2861461350e5780635250e168146132eb57806352d1902d14613255578063543d7a191461320657806354fd4d50146131e757806357be4544146131945780635cffe9de14612dd75780636025557814612c27578063613255ab14612c045780636d3ed74714612bcc578063715018a614612b4a57806374a0b7ae146129b4578063781f358a1461298c5780637fd6f15c1461296e5780638237e5381461293257806388526682146128fb5780638cb66241146128c25780638da5cb5b1461287b57806399bf5964146128115780639d49e348146127da578063ad3cb1cc1461273b578063b1a75c721461270e578063c488a05c146126b8578063c5e4c9f914612472578063d02641a014612440578063d236c2471461078c578063d28ff48f14610750578063d9d98ce414610729578063deb6cecd146106cd578063e03462f414610694578063e3564dd314610638578063e7273eeb14610614578063e8da278a146105d1578063e9dfa0fe146104f7578063efae4406146104aa578063f153768614610468578063f2fde38b1461043f578063f340470b14610386578063f6f01b8714610348578063f875089e146102eb5763fce4624d1461029957600080fd5b346102e55760e0513660031901126102e5576102b3614ff7565b6102bb614ee5565b60017f9b779b17422d0df92223018b32b4d1fa46e071723d6817e2486d003becc55f005560e05180f35b60e05180fd5b346102e55760403660031901126102e55761030461435b565b63ffffffff60243591610315614f49565b168063ffffffff19601c541617601c5581610331575b60e05180f35b60e05152601d602052604060e0512055808061032b565b346102e55760203660031901126102e55763ffffffff61036661435b565b1660e051526012602052602060ff604060e0512054166040519015158152f35b346102e55760403660031901126102e5576001600160401b036004358181116102e5576103b7903690600401614491565b916024359081116102e5576103d0903690600401614491565b6103d8614f49565b60e0515b8481106103e95760e05180f35b806103ff6103fa6001938888614ec1565b614ed1565b61040d6103fa838688614ec1565b906001600160a01b0380911660e051526016602052604060e0512091166001600160a01b0319825416179055016103dc565b346102e55760203660031901126102e55761032b61045b61431c565b610463614f49565b614e23565b346102e55760203660031901126102e5576001600160a01b0361048961431c565b1660e051526013602052602063ffffffff604060e051205416604051908152f35b346102e55760203660031901126102e55760e0805160043590526006602090815290516040908190205481516001600160401b03808316825291831c9091169281019290925290f35b0390f35b346102e5576020806003193601126102e5576004356001600160401b0381116102e557366023820112156102e557806004013590610534826144c1565b916105426040519384614455565b8083526024602084019160051b830101913683116102e557602401905b8282106105b057505050610571614f49565b60e0515b815181101561032b578063ffffffff61059060019385614e0f565b511660e0515260088452604060e051208260ff1982541617905501610575565b813563ffffffff811681036105cc57815290840190840161055f565b600080fd5b346102e55760203660031901126102e5576001600160a01b036105f261431c565b6105fa614f49565b166001600160a01b0319601754161760175560e05160e051f35b346102e55760203660031901126102e55761062d614ff7565b6102bb6004356155ba565b346102e55760403660031901126102e5576001600160a01b0361065961431c565b610661614f49565b1660e051526009602052604060e0512060243560e05152602052604060e05120600160ff1982541617905560e05160e051f35b346102e55760203660031901126102e55763ffffffff6106b261435b565b1660e05152601e6020526020604060e0512054604051908152f35b346102e55760203660031901126102e557600080526013602052602061072163ffffffff604060002054166004356000526018835260406000208160005283526001600160401b0360406000205416614c36565b604051908152f35b346102e55760403660031901126102e55761074261431c565b5060206107216024356154de565b346102e55760203660031901126102e55763ffffffff61076e61435b565b1660e051526015602052602060ff604060e051205416604051908152f35b346102e55760203660031901126102e5576004356001600160401b0381116102e5576107bc903690600401614491565b906107c5614f49565b6107cd614ff7565b6107d561591c565b50816004116102e5576107e661591c565b50604051916107f4836143ba565b60408281013563ffffffff81811686528435602080880191909152808601358785015282841c60ff1660608089019190915292811c909116608087015290840135605081901c61ffff90811660a088015281841c811660c0880152603082901c811660e08801529181901c821661010087015280821661012087015260101c1661014085015251610884816143d6565b60e051815260e051602082015260e051604082015260e051606082015260e051608082015260a060e05191015260031981011561242857604051916108c8836143d6565b63ffffffff608082810135608881901c8316865260ff81831c16602080880191909152606082811c85166040808a0182905284901c8616918901919091529082901c841692870192909252821660a0860152600302908116036110e35763ffffffff8080608084013560601c1660030216600101116110e35763ffffffff606084015116600502918263ffffffff8116036110e35761099961098863ffffffff6109c4951663ffffffff80608087013560601c16600302166001016145c4565b63ffffffff608087015116906145c4565b91608063ffffffff6109b76003198501958260a08a015116906145c4565b169260031901910161596f565b9063ffffffff6109e16109dc8260a0870151166159a2565b61598a565b16928284116102e5576109f6600385046144c1565b93610a046040519586614455565b60038104808652601f1990610a18906144c1565b0160e0515b81811061241157505060e0515b818110612375575050908263ffffffff610a506109dc8260a0610a5798970151166159a2565b169161596f565b90610a6961ffff60a0860151166159b8565b8261ffff8216116102e557610a97610a87617fff8360011c166144c1565b6040516101805261018051614455565b617fff8160011c166101805152601f19610ab7617fff8360011c166144c1565b0160e0515b81811061234b57505060e0515b61ffff821681106122c557505090610aee918161ffff610a508160a0890151166159b8565b90610b0061ffff60c0860151166159b8565b8261ffff8216116102e557610b2c610b1e617fff8360011c166144c1565b60405160a05260a051614455565b617fff8160011c1660a05152601f19610b4b617fff8360011c166144c1565b0160e0515b81811061229c57505060e0515b61ffff8216811061220f57505090610b82918161ffff610a508160c0890151166159b8565b919061ffff610b968160e0870151166159cf565b16928084116102e55760e05193849290839081805b8281106121695750610bc263ffffffff8216615a8a565b61016052610bd563ffffffff8716615a8a565b95610be563ffffffff8a16615a8a565b98610bf563ffffffff8616615a8a565b6101a05260e051925b848410611fe55750505050505090610c23918161ffff610a508160e08b0151166159cf565b90610c49610c4461ffff6101008901511661ffff6101408a015116906159fc565b6159e5565b8261ffff8216116102e557610c77610c67613fff8360021c166144c1565b6040516101205261012051614455565b613fff8160021c166101205152610c94613fff8260021c166144c1565b60e0515b601f1982018110611fab57505060e0515b61ffff82168110611ede57505090610cdb918161ffff610a50610c44826101008c015116836101408d015116906159fc565b600761ffff6101208801511602908161ffff8116036110e35761ffff8216116102e557610d21610d11600761ffff8416046144c1565b6040516101405261014051614455565b61014051600761ffff83160490819052610d3a906144c1565b60e0515b601f1982018110611e8c57505060e0515b61ffff82168110611d53575050506001600160401b038451169363ffffffff601c5416809503611d0f5760208101518560e05152601d602052604060e051205403611ccb5763ffffffff608082015116421115611c875760e0515b6101805151811015610dcd5780610dc660019261018051614e0f565b5001610daa565b50849360e0515b6101805151811015610ef857610ded8161018051614e0f565b519060208251920151918260e051526018602052604060e0512063ffffffff8260401c1660e051526020526001600160401b0381166001600160401b03604060e05120541610610e8e5760019260e051526018602052604060e0512063ffffffff8260401c1660e05152602052604060e05120906001600160401b03610e7981845493168284166146ba565b16906001600160401b03191617905501610dd4565b608460405162461bcd60e51b815260206004820152602860248201527f416e20696e76616c6964206465706f736974207761732065786563757465642060448201527f6f6666636861696e0000000000000000000000000000000000000000000000006064820152fd5b50604080514281526001600160401b03871660208201527fe73055b4c53403597e4db3f0eb4dd4ca358a3d2cdf10ce573b8ec0d7a057ea0b9190a1610f3b615ada565b601c5460e051608081905260c081905260115461010082905290946001600160401b03909116939163ffffffff165b60a05151610100511015611126576020610f896101005160a051614e0f565b518051906001600160a01b03928391015116906001600160401b038116156110685763ffffffff8160601c1688036110685763ffffffff6080511663ffffffff8260401c16036110a2575b806001600160401b0363ffffffff610ff19360401c169116614c36565b91881680611053575061100760c0518383615c3a565b15611020575b50505b6001610100510161010052610f6a565b60e05152601b602052604060e0512060e05160e0515260205261104a604060e051209182546146ad565b9055878061100d565b9061106260c05184838c6153a6565b15611070575b505050611010565b60e05152601b602052604060e051209060e05152602052611098604060e051209182546146ad565b9055878080611068565b604081901c63ffffffff166080819052909850631b0bc2a8036110fb5760e0519761520890813a8102043a036110e357610ff1913a0260c0525b9050610fd4565b634e487b7160e01b60e051526011600452602460e051fd5b63ffffffff8860401c1660e051526014602052610ff182604060e0512054169860e05160c0526110dc565b604080514281526001600160401b039290921660208301528795507fb6b024ed190b1c1f8da1d5ad2646a7311d56e5bc0fe8cc956a9e7b453f45d20391a160e0515b6101605151811015611209578061118460019261016051614e0f565b51604081015190518060e05152600b602052604060e05120600281019163ffffffff8460881c1663ffffffff8454161491826111fc575b50506111ca575b505001611168565b80546bffffffffffffffff00000000191660189290921b6bffffffffffffffff000000001691909117905586806111c2565b86015414905089806111bb565b509091638fdd705b60e0515260146020526001600160a01b03604060e0512054169360e0515b8351811015611417578061124560019286614e0f565b5160408101516001600160401b03808260481c169160081c16906001600160a01b036020840151169251908360e0515260e051602052604060e051208260e05152602052604060e05120938454946001600160401b036112a7868289166146ba565b166001600160401b03198097161790558260e05152600c6020526001600160401b03604060e0512054166113d9578060e051526002602052604060e051208360e05152602052604060e051208054866001600160401b0361130a86828516614a7e565b16911617905560e051526002602052604060e051208260e05152602052611378604060e05120611347856001600160401b03835460401c16614a7e565b6fffffffffffffffff0000000000000000196fffffffffffffffff000000000000000083549260401b169116179055565b8160e051526003602052604060e0512090846001600160401b036113a0845493828516614a7e565b16911617905560e051526004602052604060e05120916001600160401b036113cc845493828516614a7e565b1691161790555b0161122f565b935090506113e79150614be0565b9060e05152601b602052604060e051208860e05152602052611410604060e051209182546146ad565b90556113d3565b508385600154805b611b71575050638fdd705b60e0515260146020526001600160a01b03604060e0512054169060e0515b84518110156115f9578061145e60019287614e0f565b5160408101516115c06115bb6001600160401b038360881c166001600160401b03808560481c169460081c16906001600160a01b036020870151169551948660e051526002602052604060e051208660e05152602052604060e05120906114ed825492611347836001600160401b03806114da89828a166146ba565b1681198098161780855560401c166146ba565b8660e051526003602052604060e051208054836001600160401b03611514878285166146ba565b1691161790558660e051526004602052604060e05120916001600160401b036115418454938285166146ba565b169116179055808211156115ef576001600160401b03611563600592846146ba565b1604905b61157082614be0565b9460e05152600b6020526001600160a01b03604060e05120541660e05152601b9485602052604060e051208b60e051526020526115b4604060e051209182546146ad565b90556146ba565b614be0565b9160e05152602052604060e051208560e051526020526115e7604060e051209182546146ad565b905501611448565b5060e05190611567565b5082638fdd705b60e0515260146020526001600160a01b03604060e05120541660e0515b6101a0515181101561178757806116396001926101a051614e0f565b5161175e60408201516001600160401b03808260881c16818360081c169451908160e051526003602052604060e05120908319918281541690556004602052604060e0512082815416905560e0515080871160001461177b576005846116a26116f3938a6146ba565b16045b6116ae81614be0565b978460e05152600b98896020526001600160a01b03604060e05120541660e05152601b602052604060e051208d60e051526020526115b4604060e051209182546146ad565b9183604051956117028761436e565b60481c16855283602086019316835260e05152600660205282604060e051209451169084541617835551166fffffffffffffffff0000000000000000196fffffffffffffffff000000000000000083549260401b169116179055565b60205260e05160408120818155838101829055600201550161161d565b506116f360e0516116a5565b50506001600160a01b0360215416803b156102e557604051907f52fa4c530000000000000000000000000000000000000000000000000000000082528160248101916020600483015261012051518093526044820192602061012051019060e0515b818110611b3557505050818060e05194039160e051905af1801561197757611b26575b506001600160a01b0360215416803b156102e557604051907f1ac8bd180000000000000000000000000000000000000000000000000000000082528160248101916020600483015261014051518093526044820192602061014051019060e0515b818110611ac357505050818060e05194039160e051905af1801561197757611aad575b5063ffffffff601c54168060e05152601f60205260ff604060e051205416611a695760e0515b82518110156119845763ffffffff6118ce8285614e0f565b51511660206118dd8386614e0f565b51015160406118ec8487614e0f565b5101516001600160a01b036017541691823b156102e557604051937f118ef8e10000000000000000000000000000000000000000000000000000000085526004850152856024850152604484015260648301528160848160e0519360e051905af1801561197757611961575b506001016118b6565b61196a90614442565b60e0516102e55784611958565b6040513d60e051823e3d90fd5b838260e05152601f602052604060e05120600160ff19825416179055601c5463ffffffff6119b3818316614599565b168063ffffffff19831617601c5560408301519160e051161760e05152601d602052604060e051205563ffffffff601c541660e05152601e60205242604060e05120557fd5c40af847bcc10a4f276f644544573d98e6365a5e1e311a8b1248237b4cb977606063ffffffff601c541692604060208201519101516040519182526020820152426040820152a260017f9b779b17422d0df92223018b32b4d1fa46e071723d6817e2486d003becc55f005560e05180f35b606460405162461bcd60e51b815260206004820152601660248201527f48617368657320416c72656164792052656c61796564000000000000000000006044820152fd5b611ab690614442565b60e0516102e55782611890565b919460019193945060e060209160c08851805183526001600160a01b0385820151168584015260408101516040840152606081015160608401526080810151608084015260a081015160a0840152015160c082015201950191019185939261186d565b611b2f90614442565b8261180c565b919460019193945060806020916060885180518352848101518584015260408101516040840152015160608201520195019101918593926117e9565b806000198101116110e357611b896000198201614549565b5060405190611b978261436e565b60016001600160a01b03825416918284520154906020830191825260e0515260e051602052604060e05120905160e051526020526001600160a01b03611beb6001600160401b03604060e051205416614be0565b91511660e05152601b602052604060e051208360e05152602052611c16604060e051209182546146ad565b90556001548015611c6f57611c2e6000198201614549565b611c565760e0518155600160e0519101556000190160015580156110e357600019018061141f565b634e487b7160e01b60e0515260e051600452602460e051fd5b634e487b7160e01b60e051526031600452602460e051fd5b606460405162461bcd60e51b815260206004820152601c60248201527f496e76616c69642065787069726174696f6e2074696d657374616d70000000006044820152fd5b606460405162461bcd60e51b815260206004820152601260248201527f496e76616c696420737461746520726f6f7400000000000000000000000000006044820152fd5b606460405162461bcd60e51b815260206004820152601160248201527f696e76616c6964207478426174636849640000000000000000000000000000006044820152fd5b611d628161ffff841685614ec1565b356001820182116110e3576001600160a01b03611d876001840161ffff861687614ec1565b3516906002830183116110e357611da66002840161ffff861687614ec1565b3591600384018085116110e357611dc29061ffff871688614ec1565b356004850185116110e357611ddf6004860161ffff881689614ec1565b35600586018087116110e357611dfa9061ffff89168a614ec1565b35916006870187116110e357611e6795611e1c6006890161ffff8b168c614ec1565b359460405196611e2b88614427565b8752602087015260408601526060850152608084015260a083015260c08201526007830490611e5d8261014051614e0f565b5261014051614e0f565b506007810180911115610d4f57634e487b7160e01b60e051526011600452602460e051fd5b602090604051611e9b81614427565b60e051815260e0518382015260e051604082015260e051606082015260e051608082015260e05160a082015260e05160c082015282826101405101015201610d3e565b611eed8161ffff841685614ec1565b356001820182116110e357611f0a6001830161ffff851686614ec1565b35906002830183116110e357611f286002840161ffff861687614ec1565b35916003840184116110e357611f8692611f4a6003860161ffff881689614ec1565b359160405193611f598561440c565b84526020840152604083015260608201528260021c90611f7c8261012051614e0f565b5261012051614e0f565b506004810180911115610ca957634e487b7160e01b60e051526011600452602460e051fd5b602090604051611fba8161440c565b60e051815260e0518382015260e051604082015260e051606082015282826101205101015201610c98565b611ff0848689614ec1565b35600185018086116110e35761200790878a614ec1565b356002860186116110e3578c60ff8c926120268c8b60028c0191614ec1565b359060405195612035876143f1565b8652602086015280604086015216801560001461209d575050509061208461208a9261206c610160515163ffffffff85169061530c565b9061207a8261016051614e0f565b5261016051614e0f565b506159a2565b925b600381018091116110e35792610bfe565b93969593919291600181036120e057505081612084916120d36120cc6120da96955163ffffffff87169061530c565b8093614e0f565b528b614e0f565b9161208c565b9395939092506002810361211b5750816120849161210e6120cc6121159697955163ffffffff87169061530c565b528d614e0f565b9061208c565b60039192501461212c575b5061208c565b95612084612162929761214a6101a0515163ffffffff85169061530c565b90612158826101a051614e0f565b526101a051614e0f565b948c612126565b906002820182116110e35760ff612184600284018588614ec1565b3516806121bb575061219590614599565b905b6003810180911115610bab57634e487b7160e01b60e051526011600452602460e051fd5b91969091600181036121d857506121d190614599565b955b612197565b96989096600281036121f457506121ee90614599565b97612197565b909890600219016121d3579261220990614599565b92612197565b61221e8161ffff841685614ec1565b356001820182116110e357612277906001600160a01b036122476001850161ffff871688614ec1565b3516604051916122568361436e565b825260208201528260011c9061226e8260a051614e0f565b5260a051614e0f565b506002810180911115610b5d57634e487b7160e01b60e051526011600452602460e051fd5b6020906040516122ab8161436e565b60e051815260e05183820152828260a05101015201610b50565b6122d48161ffff841685614ec1565b356001820182116110e357612326906122f56001840161ffff861687614ec1565b35604051916123038361436e565b825260208201528260011c9061231c8261018051614e0f565b5261018051614e0f565b506002810180911115610ac957634e487b7160e01b60e051526011600452602460e051fd5b60209060405161235a8161436e565b60e051815260e0518382015282826101805101015201610abc565b63ffffffff612385828487614ec1565b3516600182018083116110e35761239d908487614ec1565b35906002830183116110e3576123ec916123bb600285018689614ec1565b3590604051926123ca846143f1565b83526020830152604082015260038304906123e5828a614e0f565b5287614e0f565b506003810180911115610a2a57634e487b7160e01b60e051526011600452602460e051fd5b60209061241c615a6b565b82828a01015201610a1d565b634e487b7160e01b60e051526032600452602460e051fd5b346102e55760203660031901126102e557604061246361245e61431c565b614ce5565b60ff8351921682526020820152f35b346102e55760403660031901126102e55761248b61431c565b612493614348565b7ff0c57e16840df040f15088dc2f81fe391c3923bec73e23a9662efc9c229c6a0091825460ff8160401c1615906001600160401b038116928315806126b1575b600180951490816126a7575b15908161269e575b506126745767ffffffffffffffff1980831685178755849284612655575b5061250e615a12565b612516615a12565b61251f82614e23565b612527615a12565b6001600160a01b036001600160a01b0319921682600e541617600e5560e05160e0515263ffffffff60209660138852604060e0512093631b0bc2a8831995818782541617905560e0515260148952604060e0512090815416905560158852604060e0512060ff1990600a8282541617905560128952604060e05120868282541617905560e05160e05152600f895285604060e051209182541617905516906011541617601155601c541617601c558160e05152601d83527f056b03fb25a6b461493d8d902f42874dde8b8422fd27f7869e70e61132bdcd2f604060e0512055816022556126145760e05180f35b7fc7f505b2f371ae2175ee4913f4499e1f2633a7b5936321eed1cdaeb6115181d29268ff0000000000000000198154169055604051908152a180808061032b565b68ffffffffffffffffff19166801000000000000000117875587612505565b60046040517ff92ee8a9000000000000000000000000000000000000000000000000000000008152fd5b905015876124e7565b303b1591506124df565b50826124d3565b346102e55760403660031901126102e5576001600160a01b036126d961431c565b1660e0515260e051602052604060e0512060243560e0515260205260206001600160401b03604060e051205416604051908152f35b346102e55760403660031901126102e5576102bb61272a61431c565b612732614ff7565b602435906157b9565b346102e55760e0513660031901126102e5576040516127598161436e565b600581526020907f352e302e30000000000000000000000000000000000000000000000000000000602082015260405180926020825282519081602084015260e051935b8285106127c15750506040925060e051838284010152601f80199101168101030190f35b848101820151868601604001529381019385935061279d565b346102e55760203660031901126102e55760043560e05152600460205260206001600160401b03604060e051205416604051908152f35b346102e55760403660031901126102e5576001600160a01b03612832614332565b1660e051526013602052602061072163ffffffff604060e05120541660043560e0515260188352604060e051208160e0515283526001600160401b03604060e051205416614c36565b346102e55760e0513660031901126102e55760206001600160a01b037f9016d09d72d40fdae2fd8ceac6b6234c7706214fd39c1cd1e609a0528c1993005416604051908152f35b346102e55760203660031901126102e55763ffffffff6128e061435b565b1660e05152601d6020526020604060e0512054604051908152f35b346102e55760403660031901126102e5576020612921612919614348565b600435614c7a565b6001600160401b0360405191168152f35b346102e55760e0513660031901126102e55760206040517f439148f0bbc682ca079e46d6e2c2f0c1e3b820f1a291b069d8882abf8cf18dd98152f35b346102e55760e0513660031901126102e557602060405160e0518152f35b346102e55760e0513660031901126102e55760206001600160a01b0360175416604051908152f35b346102e5576020806003193601126102e5576004358060e05152600c82526001600160401b039182604060e05120541615612b065763ffffffff9283601c54168360e05152600c835281604060e0512054161015612a9c57916080917ff0be4d45a4b0c97a58e137eb4e5f3ee1946352b0634474b7f181b1d9e00b4c4a938260e051526003825280604060e0512054169060048352604060e051205416916007549687821c169667ffffffff00000000612a6d896145dc565b831b169067ffffffff00000000191617600755604051938452339084015260408301526060820152a260e05180f35b6084826040519062461bcd60e51b82526004820152602d60248201527f5761697420666f7220746865206e65787420626174636820746f20636c6f736560448201527f2074686520706f736974696f6e000000000000000000000000000000000000006064820152fd5b6064906040519062461bcd60e51b82526004820152601460248201527f496e69746961746520636c6f73652066697273740000000000000000000000006044820152fd5b346102e55760e0513660031901126102e557612b64614f49565b7f9016d09d72d40fdae2fd8ceac6b6234c7706214fd39c1cd1e609a0528c19930080546001600160a01b0319811690915560e051906001600160a01b03167f8be0079c531659141344cd1fd0a4f28419497f9722a3daafe3b4186f6b6457e08280a360e05180f35b346102e55760403660031901126102e5576004356001600160401b03811681036102e557610721602091612bfe614348565b90614c36565b346102e55760203660031901126102e5576020610721612c2261431c565b614a99565b346102e55760603660031901126102e557612c4061435b565b7faa43054738c0ccc1d25109def7436a8b764fbd8a5415e121d2a16c2f84d5a4b76060602435612d556044359163ffffffff80961660e0515260209260088452612c9260ff604060e0512054166145f1565b612cc0612cbb83600052600b6020526001600160401b0360026040600020015460201c16151590565b6144d8565b8160e05152600c84526001600160401b03928391612ce683604060e0512054161561463c565b638fdd705b8060e0515260148752612d0d826001600160a01b03604060e0512054166154ec565b8060e0515260128752612d2860ff604060e051205416614b26565b60e0515260158652612d4f60ff604060e051205416612d4a6012821115614b71565b614bbc565b90614c5a565b16913360e0515260e0518452604060e051208260e051528452604060e0512090815490612d8485828416614a7e565b16906001600160401b0319161790556007549586841c169567ffffffff00000000612dae886145dc565b851b169067ffffffff00000000191617600755604051923384528301526040820152a260e05180f35b346102e55760803660031901126102e5576004356001600160a01b03908181168091036102e557612e06614332565b9160443590606435906001600160401b03948583116102e557366023840112156102e55782600401359586116102e55736602487850101116102e55783612e4c82614a99565b1061312a5760405163a9059cbb60e01b81526001600160a01b03861660048201526024810185905260209691909216939186818060448101038160e051895af19081156119775760e0519161310d575b50156130c95785602460c4612eb0856154de565b958460405195869485937f23e30c8b0000000000000000000000000000000000000000000000000000000085523360048601528b828601528960448601528a606486015260a060848601528260a4860152018484013760e051838284010152601f8019910116810103018160e051895af180156119775760e0519061307c575b7f439148f0bbc682ca079e46d6e2c2f0c1e3b820f1a291b069d8882abf8cf18dd99150036130385791612f68612fa0949286946146ad565b6040516323b872dd60e01b81526001600160a01b03909316600484015230602484015260448301529092839190829081906064820190565b039160e051905af19081156119775760e0519161300b575b5015612fc75760405160018152f35b6064906040519062461bcd60e51b82526004820152601960248201527f466c6173684c656e6465723a205265706179206661696c6564000000000000006044820152fd5b61302b9150823d8411613031575b6130238183614455565b810190614a4e565b82612fb8565b503d613019565b6064856040519062461bcd60e51b82526004820152601c60248201527f466c6173684c656e6465723a2043616c6c6261636b206661696c6564000000006044820152fd5b508581813d83116130c2575b6130928183614455565b810103126102e5577f439148f0bbc682ca079e46d6e2c2f0c1e3b820f1a291b069d8882abf8cf18dd99051612f30565b503d613088565b6064866040519062461bcd60e51b82526004820152601c60248201527f466c6173684c656e6465723a205472616e73666572206661696c6564000000006044820152fd5b6131249150873d8911613031576130238183614455565b87612e9c565b608460405162461bcd60e51b815260206004820152602e60248201527f466c6173684c656e6465723a20496e73756666696369656e742066756e64732060448201527f666f7220666c617368206c6f616e0000000000000000000000000000000000006064820152fd5b346102e55760403660031901126102e5576131ad614348565b60043560e05152601860205263ffffffff604060e05120911660e0515260205260206001600160401b03604060e051205416604051908152f35b346102e55760e0513660031901126102e5576020602254604051908152f35b346102e55760203660031901126102e557602061324461322461435b565b63ffffffff1660005260146020526001600160a01b036040600020541690565b6001600160a01b0360405191168152f35b346102e55760e0513660031901126102e5576001600160a01b037f00000000000000000000000000000000000000000000000000000000000000001630036132c15760206040517f360894a13ba1a3210667c828492db98dca3e2076cc3735a920a3ca505d382bbc8152f35b60046040517fe07c8dba000000000000000000000000000000000000000000000000000000008152fd5b346102e55760603660031901126102e55761330461431c565b6001600160a01b0390602435828116908181036102e5578360443593613328614ff7565b16908160e05152602094600f865261334860ff604060e051205416614a03565b600d541633036134a457831561346057849190816133ed57505060e0519283928392508291905af16133786149d3565b50156133a9575060017f9b779b17422d0df92223018b32b4d1fa46e071723d6817e2486d003becc55f005560e05180f35b6064906040519062461bcd60e51b82526004820152601460248201527f4661696c656420746f2073656e642045746865720000000000000000000000006044820152fd5b60405163a9059cbb60e01b81526001600160a01b03919091166004820152602481019490945260e05191925083916044918391905af19081156119775761343e9260e05192613443575b5050614988565b6102bb565b6134599250803d10613031576130238183614455565b8280613437565b6064856040519062461bcd60e51b82526004820152601660248201527f4e6f2070656e64696e67207769746864726177616c73000000000000000000006044820152fd5b6084856040519062461bcd60e51b82526004820152602a60248201527f4f6e6c792065736361706556657269666965722063616e2063616c6c2074686960448201527f732066756e6374696f6e000000000000000000000000000000000000000000006064820152fd5b60403660031901126102e55761352261431c565b6024908135906001600160401b0382116102e557366023830112156102e55781600401359161355083614476565b61355d6040519182614455565b83815260209384820192368783830101116102e5578682910184378460e05191830101526001600160a01b03807f000000000000000000000000000000000000000000000000000000000000000016803014908115613766575b506132c1576135c4614f49565b831693604051907f52d1902d0000000000000000000000000000000000000000000000000000000082528082600481895afa91829160e05193613736575b505061361f57858560405190634c9c8ce360e01b82526004820152fd5b857f360894a13ba1a3210667c828492db98dca3e2076cc3735a920a3ca505d382bbc918281036137085750843b156136f25750846001600160a01b0319825416179055604051937fbc7cd75a20ee27fd9adebab32041f755214dbc6bffa90cc0225b39da2e5c2d3b60e05160e051a28051156136bc576136b5935060e0519160e051915190845af46136af6149d3565b91615d02565b5060e05180f35b505050346136ca575061032b565b807fb398979f0000000000000000000000000000000000000000000000000000000060049252fd5b8560405190634c9c8ce360e01b82526004820152fd5b604051907faa1d49a40000000000000000000000000000000000000000000000000000000082526004820152fd5b9080929350813d831161375f575b61374e8183614455565b810103126102e55751908780613602565b503d613744565b9050817f360894a13ba1a3210667c828492db98dca3e2076cc3735a920a3ca505d382bbc54161415876135b7565b346102e55760203660031901126102e5576001600160a01b036137b561431c565b6137bd614f49565b166001600160a01b031981816021541617602155600d541617600d5560e05160e051f35b346102e55760203660031901126102e55760043560e0515260056020526020604060e0512054604051908152f35b346102e55760203660031901126102e557602061384a600435600052600b6020526001600160401b0360026040600020015460201c16151590565b6040519015158152f35b346102e55760403660031901126102e55761386d61431c565b613875614332565b9061387e614ff7565b6001600160a01b0390818116908160e05152601b602052604060e05120928416928360e05152602052604060e0512054928315613913578260e05152601b602052604060e051208160e0515260205260e051604060e0512055156000146138ff575060e0516102bb9350918291829182915af16138f96149d3565b50614988565b61390e92915061343e93615319565b614988565b606460405162461bcd60e51b815260206004820152601e60248201527f4e6f2070656e64696e67207769746864726177616c20746f20636c61696d00006044820152fd5b346102e55760203660031901126102e55760043560e05152600360205260206001600160401b03604060e051205416604051908152f35b346102e5576020806003193601126102e557600435908160e05152600b8152604060e05120604051906139c08261439f565b80549160806001600160401b0360026001600160a01b0386169485855263ffffffff809760a01c16888601526001810154604086015201548581166060850152861c169101523303613a385790600c91601c54169260e0515252604060e05120906001600160401b031982541617905560e05160e051f35b6084826040519062461bcd60e51b82526004820152602560248201527f4f6e6c7920746865206f776e65722063616e20636c6f73652074686520706f7360448201527f6974696f6e0000000000000000000000000000000000000000000000000000006064820152fd5b346102e55760403660031901126102e55761032b613abe61435b565b602435906146d3565b346102e55760403660031901126102e557613ae061435b565b6024353360e05152602060098152604060e051208260e05152815260ff604060e05120541615613cee5763ffffffff809316908160e051526008815260ff604060e05120541615613caa57600754918483169385613b3d86614599565b1691620186a08310156102e557613c6160809588613b7b7fddca15dfa1b739a175377817c0cf5b0d58d64fb228328239b6e538890a2aa85099614599565b1663ffffffff19809216176007556001600160401b038660405192613b9f8461439f565b3384528b600283860195888752604081018a815260608201978c8952600b8f84019760e05189528d60e05152526001600160a01b03604060e051209351167fffffffffffffffff00000000000000000000000000000000000000000000000077ffffffff00000000000000000000000000000000000000008554935160a01b16921617178255516001820155019451169084541617835551166bffffffffffffffff0000000082549160201b16906bffffffffffffffff000000001916179055565b6007549687851c169667ffffffff00000000613c7c896145dc565b861b169067ffffffff000000001916176007556040519333855284015260408301526060820152a260e05180f35b6064906040519062461bcd60e51b82526004820152601a60248201527f50657270206d61726b657420646f6573206e6f742065786973740000000000006044820152fd5b6084906040519062461bcd60e51b82526004820152602d60248201527f4f6e6c7920617070726f7665642070657270206d61726b6574206d616b65727360448201527f2063616e207265676973746572000000000000000000000000000000000000006064820152fd5b346102e55760203660031901126102e55760043560e05152600b60205260a0604060e051206001600160401b0381549163ffffffff600260018301549201549181604051956001600160a01b0381168752871c16602086015260408501528116606084015260201c166080820152f35b346102e55760403660031901126102e5576001600160a01b03613de961431c565b1660e051526002602052604060e0512060243560e05152602052604060e05120546001600160401b036104f3604051928284938260401c169116839060209093929360408301946001600160401b03809216845216910152565b60603660031901126102e557613e6f613e5a61431c565b613e62614ff7565b604435906024359061509c565b60017f9b779b17422d0df92223018b32b4d1fa46e071723d6817e2486d003becc55f0055604080516001600160401b039384168152919092166020820152f35b346102e55760203660031901126102e55763ffffffff613ecd61435b565b1660e051526008602052602060ff604060e0512054166040519015158152f35b346102e55760203660031901126102e5576001600160a01b03613f0e61431c565b1660e05152600f602052602060ff604060e0512054166040519015158152f35b346102e55760203660031901126102e557600435613f6b612cbb82600052600b6020526001600160401b0360026040600020015460201c16151590565b604051613f778161436e565b3381526020810191825260015468010000000000000000811015613fd457806001613fa59201600155614549565b929092611c56576001600160a01b0360019251166001600160a01b03198454161783555191015560e05160e051f35b634e487b7160e01b60e051526041600452602460e051fd5b346102e55760603660031901126102e55761400561431c565b61400d614348565b60443560ff81168091036102e557614023614f49565b6001600160a01b038093169081156142b65763ffffffff8093169384156142725761407c908360e0515261406560209560138752604060e05120541615614fac565b8560e0515260148552604060e05120541615614fac565b620186a08411156102e55760405163313ce56760e01b81528381600481865afa80156119775760ff9160e05191614245575b50160360ff81116110e35760ff1692601284116142015760607fa0fa9e6f8b5151671d99d8a21fbee478f03ed8c5078386b9716ed66db871ccec918360e0515260138552604060e051208163ffffffff198254161790558060e0515260148552604060e05120846001600160a01b031982541617905560158552604060e051209560ff1996818882541617905560128652604060e0512060018882541617905560405191858352868301526040820152a18060e05152600f825260ff604060e0512054166141bd577f2db5c923577787b86e45d0fc2e5d9e9a655c9b0d7802164b4e967544fe407864928160e05152600f83526001604060e0512091825416179055604051908152a160e05180f35b6064826040519062461bcd60e51b82526004820152601860248201527f5661756c7420616c7265616479207265676973746572656400000000000000006044820152fd5b6064836040519062461bcd60e51b82526004820152601660248201527f5363616c6520666163746f7220746f6f206c61726765000000000000000000006044820152fd5b6142659150853d871161426b575b61425d8183614455565b810190614ccc565b866140ae565b503d614253565b606460405162461bcd60e51b815260206004820152601860248201527f546f6b656e2049442053686f756c64206e6f74206265203000000000000000006044820152fd5b606460405162461bcd60e51b815260206004820152601d60248201527f546f6b656e20616464726573732053686f756c64206e6f7420626520300000006044820152fd5b346102e55760e0513660031901126102e55760209063ffffffff601c54168152f35b600435906001600160a01b03821682036105cc57565b602435906001600160a01b03821682036105cc57565b6024359063ffffffff821682036105cc57565b6004359063ffffffff821682036105cc57565b604081019081106001600160401b0382111761438957604052565b634e487b7160e01b600052604160045260246000fd5b60a081019081106001600160401b0382111761438957604052565b61016081019081106001600160401b0382111761438957604052565b60c081019081106001600160401b0382111761438957604052565b606081019081106001600160401b0382111761438957604052565b608081019081106001600160401b0382111761438957604052565b60e081019081106001600160401b0382111761438957604052565b6001600160401b03811161438957604052565b90601f801991011681019081106001600160401b0382111761438957604052565b6001600160401b03811161438957601f01601f191660200190565b9181601f840112156105cc578235916001600160401b0383116105cc576020808501948460051b0101116105cc57565b6001600160401b0381116143895760051b60200190565b156144df57565b608460405162461bcd60e51b815260206004820152602160248201527f706f736974696f6e20616464726573732069736e27742072656769737465726560448201527f64000000000000000000000000000000000000000000000000000000000000006064820152fd5b60015481101561458357600160005260011b7fb10e2d527612073b26eecdfd717e6a320cf44b4afac2b0732d9fcbe2b7fa0cf60190600090565b634e487b7160e01b600052603260045260246000fd5b90600163ffffffff809316019182116145ae57565b634e487b7160e01b600052601160045260246000fd5b91909163ffffffff808094169116019182116145ae57565b63ffffffff8091169081146145ae5760010190565b156145f857565b606460405162461bcd60e51b815260206004820152601760248201527f6d61726b65742069736e277420726567697374657265640000000000000000006044820152fd5b1561464357565b606460405162461bcd60e51b815260206004820152600f60248201527f706f736974696f6e20636c6f73656400000000000000000000000000000000006044820152fd5b60201b906bffffffffffffffff0000000067ffffffff000000008316921682036145ae57565b919082018092116145ae57565b6001600160401b0391821690821603919082116145ae57565b63ffffffff91826000921682526020916008835260406146f860ff82842054166145f1565b614721612cbb84600052600b6020526001600160401b0360026040600020015460201c16151590565b828252600c84526001600160401b0361473f8183852054161561463c565b33835260028552818320848452855281832082519061475d8261436e565b549382851682528287830195851c168552638fdd705b8152601487526001600160a01b03848220541686825260068852848220548481166148b3575050845184517fffffffffffffffff000000000000000000000000000000000000000000000000898201923360601b845260c01b166034820152601c81526147df8161436e565b519020808252600588528482205461487057926080969492827f596ee89944172f283ef762f313344c7e24443c63de4a42fafa46ff56254608b0999795839452600588528442912055600754998a881c169967ffffffff000000006148438c6145dc565b891b169067ffffffff000000001916176007555116925116928151943386528501528301526060820152a2565b60648886519062461bcd60e51b82526004820152601760248201527f7265717565737420616c72656164792070656e64696e670000000000000000006044820152fd5b919998509592859250808096989598511691881c1602848116908103614974578289526006845284878a205416908115614960579387938661495e9a9b946006946113479a999804986149058a614be0565b90338852601b865288882090885285526149238888209182546146ad565b9055511681855283835285852090876149408354928284166146ba565b16906001600160401b03191617905583525220938454901c166146ba565b565b60248a634e487b7160e01b81526012600452fd5b602489634e487b7160e01b81526011600452fd5b1561498f57565b606460405162461bcd60e51b815260206004820152600f60248201527f5472616e73666572206661696c656400000000000000000000000000000000006044820152fd5b3d156149fe573d906149e482614476565b916149f26040519384614455565b82523d6000602084013e565b606090565b15614a0a57565b606460405162461bcd60e51b815260206004820152601760248201527f5661756c74206973206e6f7420726567697374657265640000000000000000006044820152fd5b908160209103126105cc575180151581036105cc5790565b9060016001600160401b03809316019182116145ae57565b9190916001600160401b03808094169116019182116145ae57565b60206001600160a01b03916024604051809481937f70a08231000000000000000000000000000000000000000000000000000000008352306004840152165afa908115614b1a57600091614aeb575090565b90506020813d602011614b12575b81614b0660209383614455565b810103126105cc575190565b3d9150614af9565b6040513d6000823e3d90fd5b15614b2d57565b606460405162461bcd60e51b815260206004820152601460248201527f546f6b656e206e6f7420726567697374657265640000000000000000000000006044820152fd5b15614b7857565b606460405162461bcd60e51b815260206004820152601460248201527f496e76616c6964207363616c6520666163746f720000000000000000000000006044820152fd5b60ff16604d81116145ae57600a0a90565b818102929181159184041417156145ae57565b614c3390638fdd705b806000526012602052614c0360ff60406000205416614b26565b60005260156020526001600160401b03614c2c60ff60406000205416612d4a6012821115614b71565b9116614bcd565b90565b63ffffffff614c339216806000526012602052614c0360ff60406000205416614b26565b8115614c64570490565b634e487b7160e01b600052601260045260246000fd5b614cc89063ffffffff6001600160401b039316806000526012602052614ca760ff60406000205416614b26565b6000526015602052612d4f60ff60406000205416612d4a6012821115614b71565b1690565b908160209103126105cc575160ff811681036105cc5790565b906001600160a01b038092169160009083825260209060138252604094614d1663ffffffff87862054161515614b26565b8352601682528483205416918215614dff5784519163313ce56760e01b83528083600481875afa928315614df5578293614dd3575b5080600493948751948580927f50d25bcd0000000000000000000000000000000000000000000000000000000082525afa958615614dc857508195614d92575b5050509190565b909180939550813d8311614dc1575b614dab8183614455565b81010312614dbe57505191388080614d8b565b80fd5b503d614da1565b51913d9150823e3d90fd5b60049350614dee8291823d841161426b5761425d8183614455565b9350614d4b565b86513d84823e3d90fd5b50505090506008906305f5e10090565b80518210156145835760209160051b010190565b6001600160a01b03809116908115614e90577f9016d09d72d40fdae2fd8ceac6b6234c7706214fd39c1cd1e609a0528c199300805490836001600160a01b03198316179055167f8be0079c531659141344cd1fd0a4f28419497f9722a3daafe3b4186f6b6457e0600080a3565b60246040517f1e4fbdf700000000000000000000000000000000000000000000000000000000815260006004820152fd5b91908110156145835760051b0190565b356001600160a01b03811681036105cc5790565b6000638fdd705b815260146020526001600160a01b03604082205416338252601b602052604082208183526020526040822054908115614f4457614f4192338152601b6020526040812082825260205260408120553390615319565b50565b505050565b6001600160a01b037f9016d09d72d40fdae2fd8ceac6b6234c7706214fd39c1cd1e609a0528c19930054163303614f7c57565b60246040517f118cdaa7000000000000000000000000000000000000000000000000000000008152336004820152fd5b15614fb357565b606460405162461bcd60e51b815260206004820152601860248201527f546f6b656e20616c7265616479207265676973746572656400000000000000006044820152fd5b7f9b779b17422d0df92223018b32b4d1fa46e071723d6817e2486d003becc55f0060028154146150275760029055565b60046040517f3ee5aeb5000000000000000000000000000000000000000000000000000000008152fd5b1561505857565b606460405162461bcd60e51b815260206004820152601160248201527f496e76616c696420737461726b204b65790000000000000000000000000000006044820152fd5b909291926150cb7f08000000000000110000000000000000000000000000000000000000000000018510615051565b6150d6841515615051565b3415615200575050631b0bc2a8600092818452602091601283526040908186205460ff1661510390614b26565b808652601584528186205460ff169161511f6012841115614b71565b6001600160401b036151318194614bbc565b61513b9034614c5a565b1693808852601886528188208389528652838289205416958261515e8789614a7e565b9983815260188352818120868252835220856001600160401b03199a168a825416179055846011541661519090614687565b9860195490868083169b8c6151a491614a7e565b9b6151ae90614a66565b169116176019558251948916855284015282015281606082015242608082015260a07f429602b012976e07ac9b27b6c1bac9791626550f52721f02a2523c88808ec7a091a16151fc91614a7e565b9190565b61520c818395936154ec565b6000936001600160a01b0316845260206013815260408086205463ffffffff16928361523791614c7a565b928487526018835281872081885283526001600160401b039182818920541695816152628789614a7e565b9982815260188752818120858252875220846001600160401b03199a168a82541617905588601154858116918291161760115561529e90614687565b9860195490858083169b8c6152b291614a7e565b9b6152bc90614a66565b16911617601955815194848a1686528501528301528216606082015242608082015260a07f429602b012976e07ac9b27b6c1bac9791626550f52721f02a2523c88808ec7a091a16151fc91614a7e565b919082039182116145ae57565b6001600160a01b03169182600052600f60205260ff604060002054161561539e57801561539e5760405163a9059cbb60e01b81526001600160a01b03929092166004830152602482015290602090829060449082906000905af1908115614b1a57600091615385575090565b614c33915060203d602011613031576130238183614455565b505050600190565b9190916001600160a01b0380911692600094848652602093600f855260ff604088205416156154d257816153d99161530c565b9283156154d2578161544f575b505060405163a9059cbb60e01b81526001600160a01b0391909116600482015260248101919091529181908390604490829087905af1928315615443579261542d57505090565b614c339250803d10613031576130238183614455565b604051903d90823e3d90fd5b600e5460405163a9059cbb60e01b815291166001600160a01b03166004820152602481019190915290919083818060448101038189895af19081156154c75786916154aa575b50156154a3579038806153e6565b5050505090565b6154c19150843d8611613031576130238183614455565b38615495565b6040513d88823e3d90fd5b50505050505050600190565b15600117156145ae57600090565b6155466000926001600160a01b036020931690818552600f845261551660ff604087205416614a03565b6040516323b872dd60e01b8152336004820152306024820152604481019190915293849283919082906064820190565b03925af18015614b1a5761495e916000916155615750614988565b61557a915060203d602011613031576130238183614455565b386138f9565b601a5481101561458357601a60005260021b7f057c384a7d1c54f3a1b2e5e67b2617b8224fdfd1ea7234eea573a6ff665ff63e0190600090565b7f0800000000000011000000000000000000000000000000000000000000000001811015615775573315615731577f8fa6efc3be94b5b348b21fea823fe8d100408cee9b7f90524494500445d8ff6c54600082815260186020908152604080832063ffffffff9485168085529252808320549093906001600160401b03161561572a578351916156498361440c565b33835260208301918683528584019182526060840192428452601a5468010000000000000000811015615716578060016156869201601a55615580565b95909561570357926003927ffe5eeb45c725aa6c7460c0a9b5891c86aab2691e00ef4e9e24376ec43264561b999795926001600160a01b0360609a989651166001600160a01b03198754161786555160018601556002850191511663ffffffff1982541617905551910155815192835260208301524290820152a1565b602487634e487b7160e01b815280600452fd5b602487634e487b7160e01b81526041600452fd5b5050505050565b606460405162461bcd60e51b815260206004820152601560248201527f6d73672e73656e6465722063616e2774206265203000000000000000000000006044820152fd5b606460405162461bcd60e51b815260206004820152601160248201527f496e76616c696420737461726b206b65790000000000000000000000000000006044820152fd5b7f0800000000000011000000000000000000000000000000000000000000000001821015615775573315615731576001600160a01b038091166000818152601360205263ffffffff926040938085842054169086845260186020528584208285526020526001600160401b038685205416156159135785519261583b8461440c565b33845260208401908882528785019384526060850194428652601a54680100000000000000008110156158ff578060016158789201601a55615580565b9790976158ec57505186546001600160a01b0319169116178555516001850155905160028401805463ffffffff191691909216179055516003909101558151928352602083015242908201527ffe5eeb45c725aa6c7460c0a9b5891c86aab2691e00ef4e9e24376ec43264561b90606090a1565b80634e487b7160e01b6024925280600452fd5b602488634e487b7160e01b81526041600452fd5b50505050505050565b60405190615929826143ba565b816101406000918281528260208201528260408201528260608201528260808201528260a08201528260c08201528260e082015282610100820152826101208201520152565b909392938483116105cc5784116105cc578160051b01920390565b90600363ffffffff809316029182169182036145ae57565b63ffffffff90811660001901919082116145ae57565b60011b906201fffe61fffe8316921682036145ae57565b90600361ffff809316029182169182036145ae57565b60021b906203fffc61fffc8316921682036145ae57565b91909161ffff808094169116019182116145ae57565b60ff7ff0c57e16840df040f15088dc2f81fe391c3923bec73e23a9662efc9c229c6a005460401c1615615a4157565b60046040517fd7e6bcf8000000000000000000000000000000000000000000000000000000008152fd5b60405190615a78826143f1565b60006040838281528260208201520152565b90615a94826144c1565b615aa16040519182614455565b8281528092615ab2601f19916144c1565b019060005b828110615ac357505050565b602090615ace615a6b565b82828501015201615ab7565b601a805415614f415760005b8154811015615ba25780615afb600192615580565b508281015460005260206018815260408060002063ffffffff600285015416908160005283526001600160401b03826000205416928315615b9857615b4382615b8f95614c36565b946001600160a01b0380915416600052601b8252615b7f846000209363ffffffff1660005260146020526001600160a01b036040600020541690565b16600052526000209182546146ad565b90555b01615ae6565b5050505050615b92565b5050601a546000601a5580615bb45750565b60027f3fffffffffffffffffffffffffffffffffffffffffffffffffffffffffffffff821682036145ae57601a6000527f057c384a7d1c54f3a1b2e5e67b2617b8224fdfd1ea7234eea573a6ff665ff63e9160021b8201915b828110615c1957505050565b80600060049255600060018201556000838201556000600382015501615c0d565b9082615c459161530c565b91821561539e5780615c71575b5060008080936001600160a01b038294165af1615c6d6149d3565b5090565b6000808080936001600160a01b03600e54165af1615c8d6149d3565b5015615c995738615c52565b608460405162461bcd60e51b8152602060048201526024808201527f4661696c656420746f2073656e6420457468657220746f20676173436f6c6c6560448201527f63746f72000000000000000000000000000000000000000000000000000000006064820152fd5b90615d415750805115615d1757805190602001fd5b60046040517f1425ea42000000000000000000000000000000000000000000000000000000008152fd5b81511580615d8c575b615d52575090565b6024906001600160a01b03604051917f9996b315000000000000000000000000000000000000000000000000000000008352166004820152fd5b50803b15615d4a56fea2646970667358221220c426e1f147549d9696a4e59cf93c060e97e590ac7ef5e3ce32ef8d8b44bedca164736f6c63430008160033",
  "linkReferences": {},
  "deployedLinkReferences": {}
}