{
  "_format": "hh-sol-artifact-1",
  "contractName": "InvisibleL2",
  "sourceName": "src/InvisibleL2.sol",
  "abi": [
    {
      "inputs": [
        {
          "internalType": "address",
          "name": "target",
          "type": "address"
        }
      ],
      "name": "AddressEmptyCode",
      "type": "error"
    },
    {
      "inputs": [
        {
          "internalType": "address",
          "name": "implementation",
          "type": "address"
        }
      ],
      "name": "ERC1967InvalidImplementation",
      "type": "error"
    },
    {
      "inputs": [],
      "name": "ERC1967NonPayable",
      "type": "error"
    },
    {
      "inputs": [],
      "name": "FailedInnerCall",
      "type": "error"
    },
    {
      "inputs": [],
      "name": "InvalidInitialization",
      "type": "error"
    },
    {
      "inputs": [],
      "name": "NotInitializing",
      "type": "error"
    },
    {
      "inputs": [
        {
          "internalType": "address",
          "name": "owner",
          "type": "address"
        }
      ],
      "name": "OwnableInvalidOwner",
      "type": "error"
    },
    {
      "inputs": [
        {
          "internalType": "address",
          "name": "account",
          "type": "address"
        }
      ],
      "name": "OwnableUnauthorizedAccount",
      "type": "error"
    },
    {
      "inputs": [],
      "name": "ReentrancyGuardReentrantCall",
      "type": "error"
    },
    {
      "inputs": [],
      "name": "UUPSUnauthorizedCallContext",
      "type": "error"
    },
    {
      "inputs": [
        {
          "internalType": "bytes32",
          "name": "slot",
          "type": "bytes32"
        }
      ],
      "name": "UUPSUnsupportedProxiableUUID",
      "type": "error"
    },
    {
      "anonymous": false,
      "inputs": [
        {
          "indexed": false,
          "internalType": "uint256",
          "name": "pubKey",
          "type": "uint256"
        },
        {
          "indexed": false,
          "internalType": "address",
          "name": "tokenAddress",
          "type": "address"
        },
        {
          "indexed": false,
          "internalType": "uint256",
          "name": "timestamp",
          "type": "uint256"
        }
      ],
      "name": "DepositCancelEvent",
      "type": "event"
    },
    {
      "anonymous": false,
      "inputs": [
        {
          "indexed": false,
          "internalType": "uint64",
          "name": "depositId",
          "type": "uint64"
        },
        {
          "indexed": false,
          "internalType": "uint256",
          "name": "pubKey",
          "type": "uint256"
        },
        {
          "indexed": false,
          "internalType": "uint32",
          "name": "tokenId",
          "type": "uint32"
        },
        {
          "indexed": false,
          "internalType": "uint64",
          "name": "depositAmountScaled",
          "type": "uint64"
        },
        {
          "indexed": false,
          "internalType": "uint256",
          "name": "timestamp",
          "type": "uint256"
        }
      ],
      "name": "DepositEvent",
      "type": "event"
    },
    {
      "anonymous": false,
      "inputs": [
        {
          "indexed": false,
          "internalType": "uint64",
          "name": "version",
          "type": "uint64"
        }
      ],
      "name": "Initialized",
      "type": "event"
    },
    {
      "anonymous": false,
      "inputs": [
        {
          "indexed": false,
          "internalType": "address",
          "name": "tokenAddress",
          "type": "address"
        },
        {
          "indexed": false,
          "internalType": "uint32",
          "name": "tokenId",
          "type": "uint32"
        },
        {
          "indexed": false,
          "internalType": "uint8",
          "name": "scaleFactor",
          "type": "uint8"
        }
      ],
      "name": "NewTokenRegisteredEvent",
      "type": "event"
    },
    {
      "anonymous": false,
      "inputs": [
        {
          "indexed": true,
          "internalType": "address",
          "name": "previousOwner",
          "type": "address"
        },
        {
          "indexed": true,
          "internalType": "address",
          "name": "newOwner",
          "type": "address"
        }
      ],
      "name": "OwnershipTransferred",
      "type": "event"
    },
    {
      "anonymous": false,
      "inputs": [
        {
          "indexed": false,
          "internalType": "uint256",
          "name": "timestamp",
          "type": "uint256"
        },
        {
          "indexed": false,
          "internalType": "uint64",
          "name": "txBatchId",
          "type": "uint64"
        }
      ],
      "name": "ProcessedWithdrawals",
      "type": "event"
    },
    {
      "anonymous": false,
      "inputs": [
        {
          "indexed": false,
          "internalType": "uint256",
          "name": "timestamp",
          "type": "uint256"
        },
        {
          "indexed": false,
          "internalType": "uint64",
          "name": "txBatchId",
          "type": "uint64"
        }
      ],
      "name": "UpdatedPendingDepositsEvent",
      "type": "event"
    },
    {
      "anonymous": false,
      "inputs": [
        {
          "indexed": true,
          "internalType": "address",
          "name": "implementation",
          "type": "address"
        }
      ],
      "name": "Upgraded",
      "type": "event"
    },
    {
      "anonymous": false,
      "inputs": [
        {
          "indexed": false,
          "internalType": "address",
          "name": "tokenAddress",
          "type": "address"
        }
      ],
      "name": "VaultRegisteredEvent",
      "type": "event"
    },
    {
      "anonymous": false,
      "inputs": [
        {
          "indexed": false,
          "internalType": "address",
          "name": "withdrawer",
          "type": "address"
        },
        {
          "indexed": false,
          "internalType": "address",
          "name": "tokenAddress",
          "type": "address"
        },
        {
          "indexed": false,
          "internalType": "uint256",
          "name": "withdrawalAmount",
          "type": "uint256"
        },
        {
          "indexed": false,
          "internalType": "uint256",
          "name": "timestamp",
          "type": "uint256"
        }
      ],
      "name": "WithdrawalEvent",
      "type": "event"
    },
    {
      "inputs": [],
      "name": "CALLBACK_SUCCESS",
      "outputs": [
        {
          "internalType": "bytes32",
          "name": "",
          "type": "bytes32"
        }
      ],
      "stateMutability": "view",
      "type": "function"
    },
    {
      "inputs": [],
      "name": "UPGRADE_INTERFACE_VERSION",
      "outputs": [
        {
          "internalType": "string",
          "name": "",
          "type": "string"
        }
      ],
      "stateMutability": "view",
      "type": "function"
    },
    {
      "inputs": [
        {
          "internalType": "address",
          "name": "recipient",
          "type": "address"
        },
        {
          "internalType": "address",
          "name": "token",
          "type": "address"
        }
      ],
      "name": "claimPendingWithdrawal",
      "outputs": [],
      "stateMutability": "nonpayable",
      "type": "function"
    },
    {
      "inputs": [
        {
          "internalType": "address",
          "name": "tokenAddress",
          "type": "address"
        },
        {
          "internalType": "address payable",
          "name": "recipient",
          "type": "address"
        },
        {
          "internalType": "uint256",
          "name": "escapeAmount",
          "type": "uint256"
        }
      ],
      "name": "executeEscape",
      "outputs": [],
      "stateMutability": "nonpayable",
      "type": "function"
    },
    {
      "inputs": [],
      "name": "feePercent",
      "outputs": [
        {
          "internalType": "uint256",
          "name": "",
          "type": "uint256"
        }
      ],
      "stateMutability": "view",
      "type": "function"
    },
    {
      "inputs": [
        {
          "internalType": "address",
          "name": "token",
          "type": "address"
        },
        {
          "internalType": "uint256",
          "name": "amount",
          "type": "uint256"
        }
      ],
      "name": "flashFee",
      "outputs": [
        {
          "internalType": "uint256",
          "name": "",
          "type": "uint256"
        }
      ],
      "stateMutability": "pure",
      "type": "function"
    },
    {
      "inputs": [
        {
          "internalType": "contract IERC3156FlashBorrower",
          "name": "receiver",
          "type": "address"
        },
        {
          "internalType": "address",
          "name": "token",
          "type": "address"
        },
        {
          "internalType": "uint256",
          "name": "amount",
          "type": "uint256"
        },
        {
          "internalType": "bytes",
          "name": "data",
          "type": "bytes"
        }
      ],
      "name": "flashLoan",
      "outputs": [
        {
          "internalType": "bool",
          "name": "",
          "type": "bool"
        }
      ],
      "stateMutability": "nonpayable",
      "type": "function"
    },
    {
      "inputs": [
        {
          "internalType": "uint256",
          "name": "starkKey",
          "type": "uint256"
        },
        {
          "internalType": "address",
          "name": "tokenAddress",
          "type": "address"
        }
      ],
      "name": "getPendingDepositAmount",
      "outputs": [
        {
          "internalType": "uint256",
          "name": "",
          "type": "uint256"
        }
      ],
      "stateMutability": "view",
      "type": "function"
    },
    {
      "inputs": [
        {
          "internalType": "uint256",
          "name": "starkKey",
          "type": "uint256"
        }
      ],
      "name": "getPendingETHDepositAmount",
      "outputs": [
        {
          "internalType": "uint256",
          "name": "",
          "type": "uint256"
        }
      ],
      "stateMutability": "view",
      "type": "function"
    },
    {
      "inputs": [
        {
          "internalType": "uint32",
          "name": "tokenId",
          "type": "uint32"
        }
      ],
      "name": "getScaleFactor",
      "outputs": [
        {
          "internalType": "uint8",
          "name": "",
          "type": "uint8"
        }
      ],
      "stateMutability": "view",
      "type": "function"
    },
    {
      "inputs": [
        {
          "internalType": "uint32",
          "name": "tokenId",
          "type": "uint32"
        }
      ],
      "name": "getTokenAddress",
      "outputs": [
        {
          "internalType": "address",
          "name": "",
          "type": "address"
        }
      ],
      "stateMutability": "view",
      "type": "function"
    },
    {
      "inputs": [
        {
          "internalType": "address",
          "name": "tokenAddress",
          "type": "address"
        }
      ],
      "name": "getTokenId",
      "outputs": [
        {
          "internalType": "uint32",
          "name": "",
          "type": "uint32"
        }
      ],
      "stateMutability": "view",
      "type": "function"
    },
    {
      "inputs": [
        {
          "internalType": "address",
          "name": "tokenAddress",
          "type": "address"
        }
      ],
      "name": "getTokenPrice",
      "outputs": [
        {
          "internalType": "uint8",
          "name": "",
          "type": "uint8"
        },
        {
          "internalType": "uint256",
          "name": "",
          "type": "uint256"
        }
      ],
      "stateMutability": "view",
      "type": "function"
    },
    {
      "inputs": [
        {
          "internalType": "address",
          "name": "initialOwner",
          "type": "address"
        },
        {
          "internalType": "uint32",
          "name": "_chainId",
          "type": "uint32"
        }
      ],
      "name": "initialize",
      "outputs": [],
      "stateMutability": "nonpayable",
      "type": "function"
    },
    {
      "inputs": [
        {
          "internalType": "uint32",
          "name": "tokenId",
          "type": "uint32"
        }
      ],
      "name": "isTokenRegistered",
      "outputs": [
        {
          "internalType": "bool",
          "name": "",
          "type": "bool"
        }
      ],
      "stateMutability": "view",
      "type": "function"
    },
    {
      "inputs": [
        {
          "internalType": "address",
          "name": "tokenAddress",
          "type": "address"
        }
      ],
      "name": "isVaultRegistered",
      "outputs": [
        {
          "internalType": "bool",
          "name": "",
          "type": "bool"
        }
      ],
      "stateMutability": "view",
      "type": "function"
    },
    {
      "inputs": [
        {
          "internalType": "address",
          "name": "tokenAddress",
          "type": "address"
        },
        {
          "internalType": "uint256",
          "name": "amount",
          "type": "uint256"
        },
        {
          "internalType": "uint256",
          "name": "starkKey",
          "type": "uint256"
        }
      ],
      "name": "makeDeposit",
      "outputs": [
        {
          "internalType": "uint64",
          "name": "newAmountDeposited",
          "type": "uint64"
        },
        {
          "internalType": "uint64",
          "name": "depositId",
          "type": "uint64"
        },
        {
          "internalType": "bytes32",
          "name": "depositHash",
          "type": "bytes32"
        }
      ],
      "stateMutability": "payable",
      "type": "function"
    },
    {
      "inputs": [
        {
          "internalType": "address",
          "name": "token",
          "type": "address"
        }
      ],
      "name": "maxFlashLoan",
      "outputs": [
        {
          "internalType": "uint256",
          "name": "",
          "type": "uint256"
        }
      ],
      "stateMutability": "view",
      "type": "function"
    },
    {
      "inputs": [],
      "name": "owner",
      "outputs": [
        {
          "internalType": "address",
          "name": "",
          "type": "address"
        }
      ],
      "stateMutability": "view",
      "type": "function"
    },
    {
      "inputs": [
        {
          "internalType": "uint32",
          "name": "txBatchId",
          "type": "uint32"
        },
        {
          "components": [
            {
              "internalType": "uint64",
              "name": "depositId",
              "type": "uint64"
            },
            {
              "internalType": "uint32",
              "name": "tokenId",
              "type": "uint32"
            },
            {
              "internalType": "uint64",
              "name": "amount",
              "type": "uint64"
            },
            {
              "internalType": "uint256",
              "name": "starkKey",
              "type": "uint256"
            }
          ],
          "internalType": "struct L2InteractionsStorage.DepositRequest[]",
          "name": "deposits",
          "type": "tuple[]"
        }
      ],
      "name": "processDepositHashes",
      "outputs": [],
      "stateMutability": "nonpayable",
      "type": "function"
    },
    {
      "inputs": [
        {
          "internalType": "uint32",
          "name": "txBatchId",
          "type": "uint32"
        },
        {
          "components": [
            {
              "internalType": "uint32",
              "name": "chainId",
              "type": "uint32"
            },
            {
              "internalType": "uint32",
              "name": "tokenId",
              "type": "uint32"
            },
            {
              "internalType": "uint64",
              "name": "amount",
              "type": "uint64"
            },
            {
              "internalType": "address",
              "name": "recipient",
              "type": "address"
            }
          ],
          "internalType": "struct L2InteractionsStorage.WithdrawalRequest[]",
          "name": "withdrawals",
          "type": "tuple[]"
        }
      ],
      "name": "processWithdrawals",
      "outputs": [],
      "stateMutability": "nonpayable",
      "type": "function"
    },
    {
      "inputs": [],
      "name": "proxiableUUID",
      "outputs": [
        {
          "internalType": "bytes32",
          "name": "",
          "type": "bytes32"
        }
      ],
      "stateMutability": "view",
      "type": "function"
    },
    {
      "inputs": [
        {
          "internalType": "address",
          "name": "depositor",
          "type": "address"
        },
        {
          "internalType": "uint32",
          "name": "depositId",
          "type": "uint32"
        }
      ],
      "name": "reclaimDeposit",
      "outputs": [],
      "stateMutability": "nonpayable",
      "type": "function"
    },
    {
      "inputs": [
        {
          "internalType": "address",
          "name": "tokenAddress",
          "type": "address"
        },
        {
          "internalType": "uint32",
          "name": "tokenId",
          "type": "uint32"
        },
        {
          "internalType": "uint8",
          "name": "offchainDecimals",
          "type": "uint8"
        }
      ],
      "name": "registerToken",
      "outputs": [],
      "stateMutability": "nonpayable",
      "type": "function"
    },
    {
      "inputs": [],
      "name": "renounceOwnership",
      "outputs": [],
      "stateMutability": "nonpayable",
      "type": "function"
    },
    {
      "inputs": [
        {
          "internalType": "uint64",
          "name": "depositId",
          "type": "uint64"
        }
      ],
      "name": "s_depositHashes",
      "outputs": [
        {
          "internalType": "bytes32",
          "name": "",
          "type": "bytes32"
        }
      ],
      "stateMutability": "view",
      "type": "function"
    },
    {
      "inputs": [],
      "name": "s_messageRelay",
      "outputs": [
        {
          "internalType": "address",
          "name": "",
          "type": "address"
        }
      ],
      "stateMutability": "view",
      "type": "function"
    },
    {
      "inputs": [
        {
          "internalType": "uint256",
          "name": "",
          "type": "uint256"
        },
        {
          "internalType": "uint32",
          "name": "",
          "type": "uint32"
        }
      ],
      "name": "s_pendingDeposits",
      "outputs": [
        {
          "internalType": "uint64",
          "name": "",
          "type": "uint64"
        }
      ],
      "stateMutability": "view",
      "type": "function"
    },
    {
      "inputs": [
        {
          "internalType": "uint256",
          "name": "amount",
          "type": "uint256"
        },
        {
          "internalType": "uint32",
          "name": "tokenId",
          "type": "uint32"
        }
      ],
      "name": "scaleDown",
      "outputs": [
        {
          "internalType": "uint64",
          "name": "amountScaled",
          "type": "uint64"
        }
      ],
      "stateMutability": "view",
      "type": "function"
    },
    {
      "inputs": [
        {
          "internalType": "uint64",
          "name": "amount",
          "type": "uint64"
        },
        {
          "internalType": "uint32",
          "name": "tokenId",
          "type": "uint32"
        }
      ],
      "name": "scaleUp",
      "outputs": [
        {
          "internalType": "uint256",
          "name": "amountScaled",
          "type": "uint256"
        }
      ],
      "stateMutability": "view",
      "type": "function"
    },
    {
      "inputs": [
        {
          "internalType": "address[]",
          "name": "tokenAddress",
          "type": "address[]"
        },
        {
          "internalType": "address[]",
          "name": "aggregatorAddresses",
          "type": "address[]"
        }
      ],
      "name": "setClAggregators",
      "outputs": [],
      "stateMutability": "nonpayable",
      "type": "function"
    },
    {
      "inputs": [
        {
          "internalType": "address",
          "name": "_relay",
          "type": "address"
        }
      ],
      "name": "setMessageRelay",
      "outputs": [],
      "stateMutability": "nonpayable",
      "type": "function"
    },
    {
      "inputs": [
        {
          "internalType": "address",
          "name": "tokenAddress",
          "type": "address"
        },
        {
          "internalType": "uint64",
          "name": "depositId",
          "type": "uint64"
        },
        {
          "internalType": "uint256",
          "name": "starkKey",
          "type": "uint256"
        }
      ],
      "name": "startCancelDeposit",
      "outputs": [],
      "stateMutability": "nonpayable",
      "type": "function"
    },
    {
      "inputs": [
        {
          "internalType": "uint64",
          "name": "depositId",
          "type": "uint64"
        },
        {
          "internalType": "uint256",
          "name": "starkKey",
          "type": "uint256"
        }
      ],
      "name": "startCancelETHDeposit",
      "outputs": [],
      "stateMutability": "nonpayable",
      "type": "function"
    },
    {
      "inputs": [
        {
          "internalType": "address",
          "name": "newOwner",
          "type": "address"
        }
      ],
      "name": "transferOwnership",
      "outputs": [],
      "stateMutability": "nonpayable",
      "type": "function"
    },
    {
      "inputs": [
        {
          "internalType": "address",
          "name": "newImplementation",
          "type": "address"
        },
        {
          "internalType": "bytes",
          "name": "data",
          "type": "bytes"
        }
      ],
      "name": "upgradeToAndCall",
      "outputs": [],
      "stateMutability": "payable",
      "type": "function"
    }
  ],
  "bytecode": "0x60a0806040523461002a573060805261340a90816100308239608051818181610e0301526111080152f35b600080fdfe6040608081526004908136101561001557600080fd5b600091823560e01c908163053d2ce714611f3c57816305560c7914611c3b578163105a88e314611bff57816312760a7b146117c05781632440fdc2146116ef5781632a2eb26a146116c25781633b0a18f914611439578163423ec4be1461134857816346357c1e146113105781634f1ef2861461108b5781635250e16814610e5f57816352d1902d14610de6578163543d7a1914610d9d57816357be454414610d545781635cffe9de14610987578163613255ab146109615781636d3ed74714610933578163715018a6146108b7578163781f358a1461088f5781637fd6f15c146108745781638237e5381461083957816388526682146108005781638da5cb5b146107b957816399bf596414610756578163ad3cb1cc1461069d578163c5e4c9f9146104b4578163d02641a014610481578163d28ff48f1461044a578163d9d98ce414610421578163deb6cecd146103c6578163e8da278a14610387578163f08a136414610317578163f1537686146102da578163f2fde38b146102aa578163f340470b146101ea575063f6f01b87146101af57600080fd5b346101e65760203660031901126101e65760ff8160209363ffffffff6101d36122cd565b1681526005855220541690519015158152f35b5080fd5b919050346102a657806003193601126102a65767ffffffffffffffff9082358281116102a25761021d9036908501612420565b92909360243591821161029e5761023691369101612420565b90926102406129f9565b855b81811061024d578680f35b8061026361025e600193858a6129e9565b61249d565b61027161025e83878a6129e9565b906001600160a01b038091168a526009602052868a2091166001600160a01b031982541617905501610242565b8580fd5b8480fd5b8280fd5b83346102d75760203660031901126102d7576102d46102c761233d565b6102cf6129f9565b61294b565b80f35b80fd5b5050346101e65760203660031901126101e65763ffffffff816020936001600160a01b0361030661233d565b168152600685522054169051908152f35b83346102d75760603660031901126102d75761033161233d565b6024359067ffffffffffffffff821682036103825761035b91610352612aa7565b60443591613069565b60017f9b779b17422d0df92223018b32b4d1fa46e071723d6817e2486d003becc55f005580f35b600080fd5b83346102d75760203660031901126102d7576001600160a01b036103a961233d565b6103b16129f9565b166001600160a01b0319600a541617600a5580f35b8284346102d75760203660031901126102d7575061041a602092600080526006845263ffffffff8360002054169035600052600b84528260002081600052845267ffffffffffffffff8360002054166126e6565b9051908152f35b5050346101e657806003193601126101e65760209061043e61233d565b5061041a602435613254565b5050346101e65760203660031901126101e65760ff8160209363ffffffff6104706122cd565b168152600885522054169051908152f35b8284346102d75760203660031901126102d757506104a56104a061233d565b612824565b60ff8351921682526020820152f35b919050346102a657806003193601126102a6576104cf61233d565b906104d86122ba565b907ff0c57e16840df040f15088dc2f81fe391c3923bec73e23a9662efc9c229c6a009384549060ff82841c16159167ffffffffffffffff811694851580610696575b6001809714908161068c575b159081610683575b5061065b5763ffffffff9067ffffffffffffffff19928588858316178b5561063c575b5061055a6132bd565b6105626132bd565b61056b8861294b565b6105736132bd565b6001600160a01b036001600160a01b031998168888541617875589805260209760068952868b20631b0bc2a8908185198254161790558b5260078952868b2090815416905560088852858a2060ff1990600a8282541617905560058952868b2088828254161790558a80526002895287878c209182541617905516908254161790556105fd578480f35b7fc7f505b2f371ae2175ee4913f4499e1f2633a7b5936321eed1cdaeb6115181d29368ff000000000000000019815416905551908152a1388080808480f35b68ffffffffffffffffff19166801000000000000000117895538610551565b8285517ff92ee8a9000000000000000000000000000000000000000000000000000000008152fd5b9050153861052e565b303b159150610526565b508361051a565b9050346102a657826003193601126102a6578151908282019082821067ffffffffffffffff83111761074157508252600581526020907f352e302e300000000000000000000000000000000000000000000000000000006020820152825193849260208452825192836020860152825b84811061072b57505050828201840152601f01601f19168101030190f35b818101830151888201880152879550820161070d565b604190634e487b7160e01b6000525260246000fd5b8284346102d757816003193601126102d7575061041a6020926001600160a01b0361077f612353565b166000526006845263ffffffff8360002054169035600052600b84528260002081600052845267ffffffffffffffff8360002054166126e6565b5050346101e657816003193601126101e6576020906001600160a01b037f9016d09d72d40fdae2fd8ceac6b6234c7706214fd39c1cd1e609a0528c19930054169051908152f35b8284346102d757816003193601126102d7575067ffffffffffffffff61083160209361082a6122ba565b90356127dd565b915191168152f35b5050346101e657816003193601126101e657602090517f439148f0bbc682ca079e46d6e2c2f0c1e3b820f1a291b069d8882abf8cf18dd98152f35b5050346101e657816003193601126101e65751908152602090f35b5050346101e657816003193601126101e6576020906001600160a01b03600a54169051908152f35b83346102d757806003193601126102d7576108d06129f9565b60006001600160a01b037f9016d09d72d40fdae2fd8ceac6b6234c7706214fd39c1cd1e609a0528c1993008054906001600160a01b031982169055167f8be0079c531659141344cd1fd0a4f28419497f9722a3daafe3b4186f6b6457e08280a380f35b5050346101e657806003193601126101e65760209061041a610953612369565b61095b6122ba565b906126e6565b5050346101e65760203660031901126101e65760209061041a61098261233d565b6125b2565b9050346102a65760803660031901126102a6578035926001600160a01b03938481168091036101e6576109b8612353565b604435906064359667ffffffffffffffff9182891161029e573660238a01121561029e578887013592831161029e57366024848b01011161029e57836109fd826125b2565b10610ceb57169186519763a9059cbb60e01b8952602098898180610a3a868a8d8401602090939291936001600160a01b0360408201951681520152565b03818a895af1908115610ce1578791610cc4575b5015610c82578860249160c489610a6486613254565b96808d5196879586947f23e30c8b00000000000000000000000000000000000000000000000000000000865233908601528b828601528960448601528a606486015260a060848601528260a4860152018484013781810183018b9052601f01601f1916810103018189895af18015610c78578690610c2b575b7f439148f0bbc682ca079e46d6e2c2f0c1e3b820f1a291b069d8882abf8cf18dd9915003610be95791610b15610b519492899461258f565b918588518096819582946323b872dd60e01b845230908c85016040919493929460608201956001600160a01b0380921683521660208201520152565b03925af1918215610bde5791610bb1575b5015610b7057505160018152f35b82606492519162461bcd60e51b8352820152601960248201527f466c6173684c656e6465723a205265706179206661696c6564000000000000006044820152fd5b610bd19150843d8611610bd7575b610bc981836123e2565b810190612577565b38610b62565b503d610bbf565b8451903d90823e3d90fd5b6064868989519162461bcd60e51b8352820152601c60248201527f466c6173684c656e6465723a2043616c6c6261636b206661696c6564000000006044820152fd5b508881813d8311610c71575b610c4181836123e2565b81010312610382577f439148f0bbc682ca079e46d6e2c2f0c1e3b820f1a291b069d8882abf8cf18dd99051610add565b503d610c37565b88513d88823e3d90fd5b6064878a8a519162461bcd60e51b8352820152601c60248201527f466c6173684c656e6465723a205472616e73666572206661696c6564000000006044820152fd5b610cdb91508a3d8c11610bd757610bc981836123e2565b38610a4e565b89513d89823e3d90fd5b60848760208a519162461bcd60e51b8352820152602e60248201527f466c6173684c656e6465723a20496e73756666696369656e742066756e64732060448201527f666f7220666c617368206c6f616e0000000000000000000000000000000000006064820152fd5b9050346102a657816003193601126102a65763ffffffff82602094610d776122ba565b93358152600b8652209116600052825267ffffffffffffffff8160002054169051908152f35b5050346101e65760203660031901126101e6576020906001600160a01b03610831610dc66122cd565b63ffffffff1660005260076020526001600160a01b036040600020541690565b8284346102d757806003193601126102d757506001600160a01b037f0000000000000000000000000000000000000000000000000000000000000000163003610e5257602090517f360894a13ba1a3210667c828492db98dca3e2076cc3735a920a3ca505d382bbc8152f35b5163703e46dd60e11b8152fd5b919050346102a65760603660031901126102a657610e7b61233d565b6001600160a01b03919060243583811690818103611087578460443593610ea0612aa7565b169081885260209560028752610ebb60ff878b20541661252c565b885416330361101f578315610fdd57879392919081610f5657505082809281925af1610ee56124fc565b5015610f155750505060017f9b779b17422d0df92223018b32b4d1fa46e071723d6817e2486d003becc55f005580f35b60649350519162461bcd60e51b8352820152601460248201527f4661696c656420746f2073656e642045746865720000000000000000000000006044820152fd5b90915085938597610f9096519687958694859363a9059cbb60e01b85528401602090939291936001600160a01b0360408201951681520152565b03925af1918215610fd057610fae93508492610fb3575b50506124b1565b61035b565b610fc99250803d10610bd757610bc981836123e2565b3880610fa7565b50505051903d90823e3d90fd5b6064878787519162461bcd60e51b8352820152601660248201527f4e6f2070656e64696e67207769746864726177616c73000000000000000000006044820152fd5b6084878787519162461bcd60e51b8352820152602a60248201527f4f6e6c792065736361706556657269666965722063616e2063616c6c2074686960448201527f732066756e6374696f6e000000000000000000000000000000000000000000006064820152fd5b8680fd5b918091506003193601126102a6576110a161233d565b90602493843567ffffffffffffffff81116101e657366023820112156101e65780850135936110cf85612404565b6110db855191826123e2565b85815260209586820193368a838301011161029e578186928b8a93018737830101526001600160a01b03807f0000000000000000000000000000000000000000000000000000000000000000168030149081156112e2575b506112d3576111406129f9565b8216958551907f52d1902d00000000000000000000000000000000000000000000000000000000825280828a818b5afa91829187936112a3575b50506111965750505050505191634c9c8ce360e01b8352820152fd5b86899689927f360894a13ba1a3210667c828492db98dca3e2076cc3735a920a3ca505d382bbc908181036112755750853b156112605780546001600160a01b0319168317905551869392917fbc7cd75a20ee27fd9adebab32041f755214dbc6bffa90cc0225b39da2e5c2d3b8580a282511561122b5750506112279382915190845af46112216124fc565b91613341565b5080f35b9350935050503461123b57505080f35b7fb398979f000000000000000000000000000000000000000000000000000000008152fd5b508793505191634c9c8ce360e01b8352820152fd5b848a918451917faa1d49a4000000000000000000000000000000000000000000000000000000008352820152fd5b9080929350813d83116112cc575b6112bb81836123e2565b81010312610382575190388061117a565b503d6112b1565b87865163703e46dd60e11b8152fd5b9050817f360894a13ba1a3210667c828492db98dca3e2076cc3735a920a3ca505d382bbc5416141538611133565b5050346101e65760203660031901126101e6578060209267ffffffffffffffff611338612369565b168152600f845220549051908152f35b839150346101e657826003193601126101e65761136361233d565b9061136c612353565b91611375612aa7565b6001600160a01b039283821693848652600e602052868620908216908160005260205286600020549384156113f657508580978682979852600e6020528082208360005260205260002055156000146113e25750508180809261035b955af16113dc6124fc565b506124b1565b610fae94506113f193506131c4565b6124b1565b606490602089519162461bcd60e51b8352820152601e60248201527f4e6f2070656e64696e67207769746864726177616c20746f20636c61696d00006044820152fd5b919050346102a657806003193601126102a65761145461233d565b9063ffffffff806114636122ba565b16855260209160108352808620906001600160a01b03918280825416961686146116805760019560018201548952600b8652828920926002956002840154169384600052875267ffffffffffffffff968782600020541691821561163e57600398600386015442034281116116295762069780911611156115e7575050906114ee848b9594936126e6565b92631b0bc2a881036115ad57505082809261151195829354165af16113dc6124fc565b600d549285600d5583611522578580f35b7f3fffffffffffffffffffffffffffffffffffffffffffffffffffffffffffffff8416840361159a577fd7b6990105719101dabeb77144f2a3385c8033acd3af97e9423a695e81ad1eb59360021b8401935b84811061158057508580f35b808787925587838201558784820155878582015501611574565b602486601187634e487b7160e01b835252fd5b6115e295506113f194506115dd91925063ffffffff1660005260076020526001600160a01b036040600020541690565b6131c4565b611511565b6064918b91519162461bcd60e51b8352820152601e60248201527f4465706f736974206973206e6f7420796574207265636c61696d61626c6500006044820152fd5b60118d634e487b7160e01b6000525260246000fd5b6064918b91519162461bcd60e51b8352820152601160248201527f4e6f2070656e64696e6720616d6f756e740000000000000000000000000000006044820152fd5b6064878684519162461bcd60e51b8352820152601160248201527f496e76616c6964206465706f7369746f720000000000000000000000000000006044820152fd5b5050346101e6573660031901126102d75761035b6116de612369565b6116e6612aa7565b60243590612e8e565b505060603660031901126101e657906001600160a01b0360609261171161233d565b92611761604435602435611723612aa7565b61172e828289612b4c565b9690971690818552600660205263ffffffff8686205416809215156000146117af57611759916127dd565b905b86612dee565b92838367ffffffffffffffff80931693848152600f602052205560017f9b779b17422d0df92223018b32b4d1fa46e071723d6817e2486d003becc55f00558251941684526020840152820152f35b50506117ba34612781565b9061175b565b839150346101e6576117d1366122e0565b84959293919590855b84828210611acb5750506001600160a01b039081600a5416908551987f06b755f6000000000000000000000000000000000000000000000000000000008a528963ffffffff891693848883015281602460209d8e935afa908115611ac1578a91611a94575b508503611a2c57885b828110611905575050508487987fb6b024ed190b1c1f8da1d5ad2646a7311d56e5bc0fe8cc956a9e7b453f45d20392825191428352820152a1600a5416803b1561029e576118d9948680948651978895869485937f94e6902a00000000000000000000000000000000000000000000000000000000855284016020909392919363ffffffff60408201951681520152565b03925af19081156118fc57506118ec5750f35b6118f590612380565b6102d75780f35b513d84823e3d90fd5b808b868c611923610dc68461191d6001988b8b612451565b01612477565b8c67ffffffffffffffff6119428261193c898d8d612451565b01612488565b1615611a225761195a6119699161193c888c8c612451565b61095b8661191d898d8d612451565b93611980606061197a888c8c612451565b0161249d565b92858584169384156000146119d55750505050501661199f8282613316565b156119ae575b50505b01611848565b8c52600e8d52898c20600080528d526119cc8a60002091825461258f565b90558c806119a5565b90856119e59297939495976131c4565b156119f6575b5050505050506119a8565b600e93169052528a8d20906000528d52611a158a60002091825461258f565b90558c80808e8e8a6119eb565b50505050506119a8565b6084868b89519162461bcd60e51b8352820152602360248201527f496e76616c696420616363756d756c61746564207769746864726177616c206860448201527f61736800000000000000000000000000000000000000000000000000000000006064820152fd5b90508a81813d8311611aba575b611aab81836123e2565b8101031261038257518b61183f565b503d611aa1565b88513d8c823e3d90fd5b9092611ae0611adb85858c612451565b612477565b89602091611b12606061197a8989611b0c611b008961191d85858c612451565b9a61193c84848b612451565b96612451565b9463ffffffff9067ffffffff0000000082841693861b16928084046401000000001490151715611bec57611b489291169061258f565b9081891b91808304680100000000000000001490151715611bd95760019493929167ffffffffffffffff611b7d92169061258f565b926001600160a01b038951918383019586521689820152888152611ba0816123c6565b600167080000000000001160c01b0193849151902006885191820192835288820152878152611bce816123c6565b5190200692016117da565b60248b60118a634e487b7160e01b835252fd5b60248d60118c634e487b7160e01b835252fd5b5050346101e65760203660031901126101e65760ff816020936001600160a01b03611c2861233d565b1681526002855220541690519015158152f35b839150346101e65760603660031901126101e657611c5761233d565b90611c606122ba565b916044359160ff83168093036102a257611c786129f9565b6001600160a01b03809216928315611ef95763ffffffff809516928315611eb657611cc790858852611cb5602097600689528a8a20541615612a5c565b84885260078752888820541615612a5c565b620186a083111561029e57865163313ce56760e01b815285818481885afa908115611eac579060ff918891611e7f575b50160360ff8111611e6c5760ff169160128311611e2a5760607fa0fa9e6f8b5151671d99d8a21fbee478f03ed8c5078386b9716ed66db871ccec91858852600687528888208163ffffffff1982541617905580885260078752888820866001600160a01b0319825416179055600887528888209460ff19958187825416179055600588528989206001878254161790558951918783528883015289820152a18285526002845260ff8686205416611de85750938394827f2db5c923577787b86e45d0fc2e5d9e9a655c9b0d7802164b4e967544fe40786495526002845260018287209182541617905551908152a180f35b6064908487519162461bcd60e51b8352820152601860248201527f5661756c7420616c7265616479207265676973746572656400000000000000006044820152fd5b6064828689519162461bcd60e51b8352820152601660248201527f5363616c6520666163746f7220746f6f206c61726765000000000000000000006044820152fd5b602486601184634e487b7160e01b835252fd5b611e9f9150873d8911611ea5575b611e9781836123e2565b81019061280b565b89611cf7565b503d611e8d565b88513d89823e3d90fd5b60648360208a519162461bcd60e51b8352820152601860248201527f546f6b656e2049442053686f756c64206e6f74206265203000000000000000006044820152fd5b606482602089519162461bcd60e51b8352820152601d60248201527f546f6b656e20616464726573732053686f756c64206e6f7420626520300000006044820152fd5b919050346102a657611f4d366122e0565b91908592865b81811061223c57506001600160a01b039182600a5416918651957fb0937b5d00000000000000000000000000000000000000000000000000000000875263ffffffff861689880152602090818860248181985afa978815612232578b986121ff575b5087036121be579089969594939291875b82811061204a575050505050600a541690813b156120465783612029968651978895869485937fe2db465700000000000000000000000000000000000000000000000000000000855284016020909392919363ffffffff60408201951681520152565b03925af19081156118fc575061203d575080f35b6102d490612380565b8380fd5b90919293949596975067ffffffffffffffff8061207061206b848789612451565b612488565b168c52600f83528b8a8120556060612089838688612451565b01358c528b818b600b928387528863ffffffff6120ae8961191d8a8d88882096612451565b1682528752205416826120c68d61193c878a8c612451565b1611612157576120db8b61193c85888a612451565b908d60606120ea86898b612451565b0135905284528a8d208d63ffffffff6121088761191d888b8d612451565b16905284528a8d20918083549216818316038181116121445767ffffffffffffffff1990921691161790558a9796959493929190600101611fc6565b50878e60118f634e487b7160e01b835252fd5b60848c602889878f519362461bcd60e51b85528401528201527f416e20696e76616c6964206465706f736974207761732065786563757465642060448201527f6f6666636861696e0000000000000000000000000000000000000000000000006064820152fd5b88816064928a519262461bcd60e51b845283015260248201527f496e76616c696420616363756d756c61746564206465706f73697420686173686044820152fd5b9097508181813d831161222b575b61221781836123e2565b8101031261222757519638611fb5565b8a80fd5b503d61220d565b89513d8d823e3d90fd5b93600167080000000000001160c01b0160019161225d61206b888688612451565b6122976020916122728361191d8c8a8c612451565b6122818c61193c8d8b8d612451565b90606061228f8d8b8d612451565b013592612dee565b8951918201928352898201528881526122af816123c6565b519020069401611f53565b6024359063ffffffff8216820361038257565b6004359063ffffffff8216820361038257565b60406003198201126103825760043563ffffffff81168103610382579160243567ffffffffffffffff9283821161038257806023830112156103825781600401359384116103825760248460071b83010111610382576024019190565b600435906001600160a01b038216820361038257565b602435906001600160a01b038216820361038257565b6004359067ffffffffffffffff8216820361038257565b67ffffffffffffffff811161239457604052565b634e487b7160e01b600052604160045260246000fd5b6080810190811067ffffffffffffffff82111761239457604052565b6060810190811067ffffffffffffffff82111761239457604052565b90601f8019910116810190811067ffffffffffffffff82111761239457604052565b67ffffffffffffffff811161239457601f01601f191660200190565b9181601f840112156103825782359167ffffffffffffffff8311610382576020808501948460051b01011161038257565b91908110156124615760071b0190565b634e487b7160e01b600052603260045260246000fd5b3563ffffffff811681036103825790565b3567ffffffffffffffff811681036103825790565b356001600160a01b03811681036103825790565b156124b857565b606460405162461bcd60e51b815260206004820152600f60248201527f5472616e73666572206661696c656400000000000000000000000000000000006044820152fd5b3d15612527573d9061250d82612404565b9161251b60405193846123e2565b82523d6000602084013e565b606090565b1561253357565b606460405162461bcd60e51b815260206004820152601760248201527f5661756c74206973206e6f7420726567697374657265640000000000000000006044820152fd5b90816020910312610382575180151581036103825790565b9190820180921161259c57565b634e487b7160e01b600052601160045260246000fd5b60206001600160a01b03916024604051809481937f70a08231000000000000000000000000000000000000000000000000000000008352306004840152165afa90811561263357600091612604575090565b90506020813d60201161262b575b8161261f602093836123e2565b81010312610382575190565b3d9150612612565b6040513d6000823e3d90fd5b1561264657565b606460405162461bcd60e51b815260206004820152601460248201527f546f6b656e206e6f7420726567697374657265640000000000000000000000006044820152fd5b1561269157565b606460405162461bcd60e51b815260206004820152601460248201527f496e76616c6964207363616c6520666163746f720000000000000000000000006044820152fd5b60ff16604d811161259c57600a0a90565b9063ffffffff16600090808252600560205261270860ff60408420541661263f565b8152600860205261273867ffffffffffffffff60ff60408420541693612731601286111561268a565b16926126d5565b9182810292818404149015171561274d575090565b80634e487b7160e01b602492526011600452fd5b811561276b570490565b634e487b7160e01b600052601260045260246000fd5b6127d967ffffffffffffffff91631b0bc2a88060005260056020526127ad60ff6040600020541661263f565b60005260086020526127d360ff604060002054166127ce601282111561268a565b6126d5565b90612761565b1690565b6127d99063ffffffff67ffffffffffffffff93168060005260056020526127ad60ff6040600020541661263f565b90816020910312610382575160ff811681036103825790565b906001600160a01b03809216916000908382526020906006825260409461285563ffffffff8786205416151561263f565b835260098252848320541691821561293b5784519163313ce56760e01b83528083600481875afa92831561293157829361290f575b5080600493948751948580927f50d25bcd0000000000000000000000000000000000000000000000000000000082525afa958615612904575081956128d1575b5050509190565b909180939550813d83116128fd575b6128ea81836123e2565b810103126102d7575051913880806128ca565b503d6128e0565b51913d9150823e3d90fd5b6004935061292a8291823d8411611ea557611e9781836123e2565b935061288a565b86513d84823e3d90fd5b50505090506008906305f5e10090565b6001600160a01b038091169081156129b8577f9016d09d72d40fdae2fd8ceac6b6234c7706214fd39c1cd1e609a0528c199300805490836001600160a01b03198316179055167f8be0079c531659141344cd1fd0a4f28419497f9722a3daafe3b4186f6b6457e0600080a3565b60246040517f1e4fbdf700000000000000000000000000000000000000000000000000000000815260006004820152fd5b91908110156124615760051b0190565b6001600160a01b037f9016d09d72d40fdae2fd8ceac6b6234c7706214fd39c1cd1e609a0528c19930054163303612a2c57565b60246040517f118cdaa7000000000000000000000000000000000000000000000000000000008152336004820152fd5b15612a6357565b606460405162461bcd60e51b815260206004820152601860248201527f546f6b656e20616c7265616479207265676973746572656400000000000000006044820152fd5b7f9b779b17422d0df92223018b32b4d1fa46e071723d6817e2486d003becc55f006002815414612ad75760029055565b60046040517f3ee5aeb5000000000000000000000000000000000000000000000000000000008152fd5b15612b0857565b606460405162461bcd60e51b815260206004820152601160248201527f496e76616c696420737461726b204b65790000000000000000000000000000006044820152fd5b929192612b68600167080000000000001160c01b018510612b01565b612b73841515612b01565b3415612c6857505034612b8590612781565b91600092818452600b602052604091828520631b0bc2a89081875260205267ffffffffffffffff908185882054169480612bbf868861327b565b98858152600b602052818120848252602052208367ffffffffffffffff199916898254161790558260045416612bf490613297565b97600c5490848083169a8b612c089161327b565b9a612c1290613262565b16911617600c55805193838916855260208501528301528216606082015242608082015260a07f429602b012976e07ac9b27b6c1bac9791626550f52721f02a2523c88808ec7a091a1612c649161327b565b9190565b6001600160a01b0390939193169260009380855260209060028252604090612c9560ff838920541661252c565b81516323b872dd60e01b81523360048201523060248201526044810185905283816064818b865af1908115612de45790612cd5918991612dc757506124b1565b8652600682528086205463ffffffff169283612cf0916127dd565b92848752600b8352818720818852835267ffffffffffffffff918281892054169581612d1c878961327b565b99828152600b87528181208582528752208467ffffffffffffffff199a168a825416179055886004548581169182911617600455612d5990613297565b98600c5490858083169b8c612d6d9161327b565b9b612d7790613262565b16911617600c55815194848a1686528501528301528216606082015242608082015260a07f429602b012976e07ac9b27b6c1bac9791626550f52721f02a2523c88808ec7a091a1612c649161327b565b612dde9150853d8711610bd757610bc981836123e2565b386113dc565b83513d8a823e3d90fd5b92919067ffffffffffffffff936bffffffffffffffff000000008582169160201b1690808204640100000000149015171561259c5763ffffffff612e3392169061258f565b8060401b9080820468010000000000000000149015171561259c57600167080000000000001160c01b0193612e6992169061258f565b906040519060208201928352604082015260408152612e87816123c6565b5190200690565b90600167080000000000001160c01b01811015613025573315612fe15767ffffffffffffffff809216906000828152602090600f82526040918282205415612f9e578180526006815263ffffffff80848420541696858452600b83528484208885528352848420541615612f955760036060967ffe5eeb45c725aa6c7460c0a9b5891c86aab2691e00ef4e9e24376ec43264561b98865193612f2f856123aa565b3385528585018981528886019283528a8601934285528852601087526001600160a01b038989209651166001600160a01b03198754161786555160018601556002850191511663ffffffff198254161790555191015582519384528301524290820152a1565b50505050505050565b60649083519062461bcd60e51b82526004820152601260248201527f496e76616c6964206465706f73697420696400000000000000000000000000006044820152fd5b606460405162461bcd60e51b815260206004820152601560248201527f6d73672e73656e6465722063616e2774206265203000000000000000000000006044820152fd5b606460405162461bcd60e51b815260206004820152601160248201527f496e76616c696420737461726b206b65790000000000000000000000000000006044820152fd5b9091600167080000000000001160c01b01811015613025573315612fe15767ffffffffffffffff8093169160008381526020600f81526040928383205415613181576001600160a01b03809116928381526006835263ffffffff9687868320541698878352600b85528683208a84528552868320541615613176577ffe5eeb45c725aa6c7460c0a9b5891c86aab2691e00ef4e9e24376ec43264561b98606098600393885195613118876123aa565b33875289888801928c84528189019586528d890196428852815260108a52209651166001600160a01b03198754161786555160018601556002850191511663ffffffff198254161790555191015582519384528301524290820152a1565b505050505050505050565b60648285519062461bcd60e51b82526004820152601260248201527f496e76616c6964206465706f73697420696400000000000000000000000000006044820152fd5b6001600160a01b03169182600052600260205260ff604060002054161561324c57801561324c5760405163a9059cbb60e01b81526001600160a01b03929092166004830152602482015290602090829060449082906000905af190811561263357600091613230575090565b613249915060203d602011610bd757610bc981836123e2565b90565b505050600190565b156001171561259c57600090565b90600167ffffffffffffffff8093160191821161259c57565b91909167ffffffffffffffff8080941691160191821161259c57565b60201b906bffffffffffffffff0000000067ffffffff0000000083169216820361259c57565b60ff7ff0c57e16840df040f15088dc2f81fe391c3923bec73e23a9662efc9c229c6a005460401c16156132ec57565b60046040517fd7e6bcf8000000000000000000000000000000000000000000000000000000008152fd5b811561333a5760008080936001600160a01b038294165af16133366124fc565b5090565b5050600190565b90613380575080511561335657805190602001fd5b60046040517f1425ea42000000000000000000000000000000000000000000000000000000008152fd5b815115806133cb575b613391575090565b6024906001600160a01b03604051917f9996b315000000000000000000000000000000000000000000000000000000008352166004820152fd5b50803b1561338956fea2646970667358221220388fe72e123ddf3c80638bad4026c22fa88cc52a5689acaf15f97dcddedc6a5164736f6c63430008160033",
  "linkReferences": {},
  "deployedLinkReferences": {}
}