{
  "_format": "hh-sol-artifact-1",
  "contractName": "L1MessageRelay",
  "sourceName": "src/core/L1/L1MessageRelay.sol",
  "abi": [
    {
      "inputs": [
        {
          "internalType": "address",
          "name": "_endpoint",
          "type": "address"
        },
        {
          "internalType": "address",
          "name": "_owner",
          "type": "address"
        }
      ],
      "stateMutability": "nonpayable",
      "type": "constructor"
    },
    {
      "inputs": [
        {
          "internalType": "address",
          "name": "target",
          "type": "address"
        }
      ],
      "name": "AddressEmptyCode",
      "type": "error"
    },
    {
      "inputs": [
        {
          "internalType": "address",
          "name": "account",
          "type": "address"
        }
      ],
      "name": "AddressInsufficientBalance",
      "type": "error"
    },
    {
      "inputs": [],
      "name": "FailedInnerCall",
      "type": "error"
    },
    {
      "inputs": [],
      "name": "InvalidDelegate",
      "type": "error"
    },
    {
      "inputs": [],
      "name": "InvalidEndpointCall",
      "type": "error"
    },
    {
      "inputs": [],
      "name": "LzTokenUnavailable",
      "type": "error"
    },
    {
      "inputs": [
        {
          "internalType": "uint32",
          "name": "eid",
          "type": "uint32"
        }
      ],
      "name": "NoPeer",
      "type": "error"
    },
    {
      "inputs": [
        {
          "internalType": "uint256",
          "name": "msgValue",
          "type": "uint256"
        }
      ],
      "name": "NotEnoughNative",
      "type": "error"
    },
    {
      "inputs": [
        {
          "internalType": "address",
          "name": "addr",
          "type": "address"
        }
      ],
      "name": "OnlyEndpoint",
      "type": "error"
    },
    {
      "inputs": [
        {
          "internalType": "uint32",
          "name": "eid",
          "type": "uint32"
        },
        {
          "internalType": "bytes32",
          "name": "sender",
          "type": "bytes32"
        }
      ],
      "name": "OnlyPeer",
      "type": "error"
    },
    {
      "inputs": [
        {
          "internalType": "address",
          "name": "owner",
          "type": "address"
        }
      ],
      "name": "OwnableInvalidOwner",
      "type": "error"
    },
    {
      "inputs": [
        {
          "internalType": "address",
          "name": "account",
          "type": "address"
        }
      ],
      "name": "OwnableUnauthorizedAccount",
      "type": "error"
    },
    {
      "inputs": [
        {
          "internalType": "address",
          "name": "token",
          "type": "address"
        }
      ],
      "name": "SafeERC20FailedOperation",
      "type": "error"
    },
    {
      "anonymous": false,
      "inputs": [
        {
          "indexed": false,
          "internalType": "string",
          "name": "message",
          "type": "string"
        },
        {
          "indexed": false,
          "internalType": "uint32",
          "name": "senderEid",
          "type": "uint32"
        },
        {
          "indexed": false,
          "internalType": "bytes32",
          "name": "sender",
          "type": "bytes32"
        }
      ],
      "name": "MessageReceived",
      "type": "event"
    },
    {
      "anonymous": false,
      "inputs": [
        {
          "indexed": false,
          "internalType": "bytes",
          "name": "message",
          "type": "bytes"
        },
        {
          "indexed": false,
          "internalType": "uint32",
          "name": "dstEid",
          "type": "uint32"
        }
      ],
      "name": "MessageSent",
      "type": "event"
    },
    {
      "anonymous": false,
      "inputs": [
        {
          "indexed": true,
          "internalType": "address",
          "name": "previousOwner",
          "type": "address"
        },
        {
          "indexed": true,
          "internalType": "address",
          "name": "newOwner",
          "type": "address"
        }
      ],
      "name": "OwnershipTransferred",
      "type": "event"
    },
    {
      "anonymous": false,
      "inputs": [
        {
          "indexed": false,
          "internalType": "uint32",
          "name": "eid",
          "type": "uint32"
        },
        {
          "indexed": false,
          "internalType": "bytes32",
          "name": "peer",
          "type": "bytes32"
        }
      ],
      "name": "PeerSet",
      "type": "event"
    },
    {
      "inputs": [
        {
          "components": [
            {
              "internalType": "uint32",
              "name": "srcEid",
              "type": "uint32"
            },
            {
              "internalType": "bytes32",
              "name": "sender",
              "type": "bytes32"
            },
            {
              "internalType": "uint64",
              "name": "nonce",
              "type": "uint64"
            }
          ],
          "internalType": "struct Origin",
          "name": "origin",
          "type": "tuple"
        }
      ],
      "name": "allowInitializePath",
      "outputs": [
        {
          "internalType": "bool",
          "name": "",
          "type": "bool"
        }
      ],
      "stateMutability": "view",
      "type": "function"
    },
    {
      "inputs": [],
      "name": "composeMsgSender",
      "outputs": [
        {
          "internalType": "address",
          "name": "sender",
          "type": "address"
        }
      ],
      "stateMutability": "view",
      "type": "function"
    },
    {
      "inputs": [],
      "name": "endpoint",
      "outputs": [
        {
          "internalType": "contract ILayerZeroEndpointV2",
          "name": "",
          "type": "address"
        }
      ],
      "stateMutability": "view",
      "type": "function"
    },
    {
      "inputs": [
        {
          "internalType": "uint32",
          "name": "_dstEid",
          "type": "uint32"
        },
        {
          "internalType": "uint32",
          "name": "txBatchId",
          "type": "uint32"
        },
        {
          "internalType": "bytes",
          "name": "_options",
          "type": "bytes"
        }
      ],
      "name": "estimateMessageFee",
      "outputs": [
        {
          "components": [
            {
              "internalType": "uint256",
              "name": "nativeFee",
              "type": "uint256"
            },
            {
              "internalType": "uint256",
              "name": "lzTokenFee",
              "type": "uint256"
            }
          ],
          "internalType": "struct MessagingFee",
          "name": "",
          "type": "tuple"
        },
        {
          "internalType": "bytes",
          "name": "",
          "type": "bytes"
        }
      ],
      "stateMutability": "view",
      "type": "function"
    },
    {
      "inputs": [
        {
          "components": [
            {
              "internalType": "uint32",
              "name": "srcEid",
              "type": "uint32"
            },
            {
              "internalType": "bytes32",
              "name": "sender",
              "type": "bytes32"
            },
            {
              "internalType": "uint64",
              "name": "nonce",
              "type": "uint64"
            }
          ],
          "internalType": "struct Origin",
          "name": "_origin",
          "type": "tuple"
        },
        {
          "internalType": "bytes32",
          "name": "_guid",
          "type": "bytes32"
        },
        {
          "internalType": "bytes",
          "name": "_message",
          "type": "bytes"
        },
        {
          "internalType": "address",
          "name": "_executor",
          "type": "address"
        },
        {
          "internalType": "bytes",
          "name": "_extraData",
          "type": "bytes"
        }
      ],
      "name": "lzReceive",
      "outputs": [],
      "stateMutability": "payable",
      "type": "function"
    },
    {
      "inputs": [
        {
          "internalType": "uint32",
          "name": "",
          "type": "uint32"
        },
        {
          "internalType": "bytes32",
          "name": "",
          "type": "bytes32"
        }
      ],
      "name": "nextNonce",
      "outputs": [
        {
          "internalType": "uint64",
          "name": "nonce",
          "type": "uint64"
        }
      ],
      "stateMutability": "view",
      "type": "function"
    },
    {
      "inputs": [],
      "name": "oAppVersion",
      "outputs": [
        {
          "internalType": "uint64",
          "name": "senderVersion",
          "type": "uint64"
        },
        {
          "internalType": "uint64",
          "name": "receiverVersion",
          "type": "uint64"
        }
      ],
      "stateMutability": "pure",
      "type": "function"
    },
    {
      "inputs": [],
      "name": "owner",
      "outputs": [
        {
          "internalType": "address",
          "name": "",
          "type": "address"
        }
      ],
      "stateMutability": "view",
      "type": "function"
    },
    {
      "inputs": [
        {
          "internalType": "uint32",
          "name": "eid",
          "type": "uint32"
        }
      ],
      "name": "peers",
      "outputs": [
        {
          "internalType": "bytes32",
          "name": "peer",
          "type": "bytes32"
        }
      ],
      "stateMutability": "view",
      "type": "function"
    },
    {
      "inputs": [],
      "name": "renounceOwnership",
      "outputs": [],
      "stateMutability": "nonpayable",
      "type": "function"
    },
    {
      "inputs": [
        {
          "internalType": "uint32",
          "name": "",
          "type": "uint32"
        },
        {
          "internalType": "uint32",
          "name": "",
          "type": "uint32"
        }
      ],
      "name": "s_accumulatedDepositHashes",
      "outputs": [
        {
          "internalType": "bytes32",
          "name": "",
          "type": "bytes32"
        }
      ],
      "stateMutability": "view",
      "type": "function"
    },
    {
      "inputs": [
        {
          "internalType": "uint32",
          "name": "",
          "type": "uint32"
        },
        {
          "internalType": "uint32",
          "name": "",
          "type": "uint32"
        }
      ],
      "name": "s_accumulatedWithdrawalHashes",
      "outputs": [
        {
          "internalType": "bytes32",
          "name": "",
          "type": "bytes32"
        }
      ],
      "stateMutability": "view",
      "type": "function"
    },
    {
      "inputs": [
        {
          "internalType": "uint32",
          "name": "",
          "type": "uint32"
        },
        {
          "internalType": "uint32",
          "name": "",
          "type": "uint32"
        }
      ],
      "name": "s_depositAcknowledgments",
      "outputs": [
        {
          "internalType": "bool",
          "name": "",
          "type": "bool"
        }
      ],
      "stateMutability": "view",
      "type": "function"
    },
    {
      "inputs": [
        {
          "internalType": "uint32",
          "name": "",
          "type": "uint32"
        },
        {
          "internalType": "uint32",
          "name": "",
          "type": "uint32"
        }
      ],
      "name": "s_withdrawalAcknowledgments",
      "outputs": [
        {
          "internalType": "bool",
          "name": "",
          "type": "bool"
        }
      ],
      "stateMutability": "view",
      "type": "function"
    },
    {
      "inputs": [
        {
          "internalType": "uint32",
          "name": "txBatchId",
          "type": "uint32"
        },
        {
          "internalType": "uint32",
          "name": "_dstEid",
          "type": "uint32"
        },
        {
          "internalType": "bytes",
          "name": "_options",
          "type": "bytes"
        }
      ],
      "name": "sendAccumulatedHashes",
      "outputs": [],
      "stateMutability": "payable",
      "type": "function"
    },
    {
      "inputs": [
        {
          "internalType": "address",
          "name": "_delegate",
          "type": "address"
        }
      ],
      "name": "setDelegate",
      "outputs": [],
      "stateMutability": "nonpayable",
      "type": "function"
    },
    {
      "inputs": [
        {
          "internalType": "address",
          "name": "_invAddress",
          "type": "address"
        }
      ],
      "name": "setInvisibleAddress",
      "outputs": [],
      "stateMutability": "nonpayable",
      "type": "function"
    },
    {
      "inputs": [
        {
          "internalType": "uint32",
          "name": "_eid",
          "type": "uint32"
        },
        {
          "internalType": "bytes32",
          "name": "_peer",
          "type": "bytes32"
        }
      ],
      "name": "setPeer",
      "outputs": [],
      "stateMutability": "nonpayable",
      "type": "function"
    },
    {
      "inputs": [
        {
          "internalType": "uint32",
          "name": "_dstEid",
          "type": "uint32"
        },
        {
          "internalType": "uint32",
          "name": "txBatchId",
          "type": "uint32"
        },
        {
          "internalType": "bytes32",
          "name": "accumulatedDepositHash",
          "type": "bytes32"
        },
        {
          "internalType": "bytes32",
          "name": "accumulatedWithdrawalHash",
          "type": "bytes32"
        }
      ],
      "name": "storeAccumulatedHashes",
      "outputs": [],
      "stateMutability": "nonpayable",
      "type": "function"
    },
    {
      "inputs": [
        {
          "internalType": "address",
          "name": "newOwner",
          "type": "address"
        }
      ],
      "name": "transferOwnership",
      "outputs": [],
      "stateMutability": "nonpayable",
      "type": "function"
    }
  ],
  "bytecode": "0x60a0346200017357620014b9906001600160401b03601f38849003908101601f1916830190828211848310176200017857808491604096879485528339810103126200017357602062000052836200018e565b926001600160a01b039182916200006a91016200018e565b169081156200015b57600080546001600160a01b0319811684178255909490839083167f8be0079c531659141344cd1fd0a4f28419497f9722a3daafe3b4186f6b6457e08780a3169081608052813b156200015757839291602484928751968793849263ca5eb5e160e01b845260048401525af180156200014d5762000126575b83516113159081620001a482396080518181816102b30152818161044a0152818161055e015281816108dc01528181610ae601526110830152f35b82116200013957508152388080620000eb565b634e487b7160e01b81526041600452602490fd5b84513d84823e3d90fd5b8380fd5b8451631e4fbdf760e01b815260006004820152602490fd5b600080fd5b634e487b7160e01b600052604160045260246000fd5b51906001600160a01b0382168203620001735756fe6040608081526004908136101561001557600080fd5b600091823560e01c9081630729c10514610d1c578163118ef8e114610c6457816313137d6514610a7c578163155ba68f14610a3457816317442b7014610a125781633400288b1461099157816343c705a51461094b5781635412d837146109005781635e280f11146108bc578163715018a6146108535781637d25a05e1461082e5781638da5cb5b14610808578163b92d0eff146107ed578163bb0b6a53146107b9578163bfdd967814610353578163ca5eb5e114610282578163e29a467914610235578163f2fde38b1461018157508063f7d73f15146101395763ff7bd03d146100ff57600080fd5b34610135576060366003190112610135578060209263ffffffff610121610e66565b168152600184522054905190602435148152f35b5080fd5b5034610135578060031936011261013557602091610155610d83565b8261015e610d96565b9263ffffffff809316815260028652209116600052825280600020549051908152f35b9050346102315760203660031901126102315761019c610d68565b906101a5611115565b6001600160a01b038092169283156102025750506000548273ffffffffffffffffffffffffffffffffffffffff19821617600055167f8be0079c531659141344cd1fd0a4f28419497f9722a3daafe3b4186f6b6457e0600080a380f35b908460249251917f1e4fbdf7000000000000000000000000000000000000000000000000000000008352820152fd5b8280fd5b90503461023157816003193601126102315760209282610253610d83565b9161025c610d96565b9363ffffffff80941682528652209116600052825260ff81600020541690519015158152f35b919050346102315760203660031901126102315761029e610d68565b916102a7611115565b836001600160a01b03807f00000000000000000000000000000000000000000000000000000000000000001694853b156102315760249083865197889485937fca5eb5e100000000000000000000000000000000000000000000000000000000855216878401525af180156103495761031e578380f35b67ffffffffffffffff83116103365750523880808380f35b836041602492634e487b7160e01b835252fd5b82513d86823e3d90fd5b8361036e8461036136610dd7565b8183948294979397610f58565b949091825134106107515790610385913691610f21565b9083519261039284610e79565b8684526020938785820152858051916103aa83610ec7565b8983528987840152015281519182340361072257840192835180610553575b5091816080936103dd61043e9a9b94611159565b955115159063ffffffff8951936103f385610eab565b169687845288840152898984015260608301528482015286518099819482937f2637a450000000000000000000000000000000000000000000000000000000008452339184016111df565b03916001600160a01b037f0000000000000000000000000000000000000000000000000000000000000000165af18015610549576104b7575b7f836ae9cba0c8f3c24cb09c41955d58edf91ce892d0a57451f220921dad1ed17a94506104ad8351948486958652850190610e26565b918301520390a180f35b60803d608011610542575b6104cc8187610ee3565b85019460808187031261053e578351906104e582610e79565b80518252838101519067ffffffffffffffff8216820361053a577f836ae9cba0c8f3c24cb09c41955d58edf91ce892d0a57451f220921dad1ed17a978661053292819488870152016111b7565b910152610477565b8880fd5b8680fd5b503d6104c2565b83513d88823e3d90fd5b6001600160a01b03807f000000000000000000000000000000000000000000000000000000000000000016908b888a5180927fe4fe1d9400000000000000000000000000000000000000000000000000000000825281865afa908115610718578c916106de575b50169182156106b6578a6106449281928b51908b8201927f23b872dd000000000000000000000000000000000000000000000000000000008452336024840152604483015260648201526064815261061181610eab565b519082865af13d156106ae573d9061062882610f05565b916106358b519384610ee3565b82523d8c8a84013e5b8361124c565b8051878115159182610689575b50509050156103c957896024918851917f5274afe7000000000000000000000000000000000000000000000000000000008352820152fd5b83809293500103126106aa578601518015908115036106aa5780878d610651565b8980fd5b60609061063e565b8b89517f5373352a000000000000000000000000000000000000000000000000000000008152fd5b90508881813d8311610711575b6106f58183610ee3565b8101031261070d5751818116810361070d578d6105ba565b8b80fd5b503d6106eb565b8a513d8e823e3d90fd5b85517f9f70412000000000000000000000000000000000000000000000000000000000815234818b0152602490fd5b608488602087519162461bcd60e51b83528201526024808201527f496e73756666696369656e742076616c75652073656e7420746f20636f76657260448201527f20666565000000000000000000000000000000000000000000000000000000006064820152fd5b505034610135576020366003190112610135578060209263ffffffff6107dd610d83565b1681526001845220549051908152f35b50503461013557816003193601126101355760209051308152f35b5050346101355781600319360112610135576001600160a01b0360209254169051908152f35b5050346101355780600319360112610135579060209161084c610d83565b5051908152f35b83346108b957806003193601126108b95761086c611115565b806001600160a01b03815473ffffffffffffffffffffffffffffffffffffffff1981168355167f8be0079c531659141344cd1fd0a4f28419497f9722a3daafe3b4186f6b6457e08280a380f35b80fd5b505034610135578160031936011261013557602090516001600160a01b037f0000000000000000000000000000000000000000000000000000000000000000168152f35b50503461013557806003193601126101355760ff81602093610920610d83565b610928610d96565b63ffffffff91821683526005875283832091168252855220549151911615158152f35b50503461013557806003193601126101355780602092610969610d83565b610971610d96565b63ffffffff91821683526003865283832091168252845220549051908152f35b5050346101355780600319360112610135577f238399d427b947898edb290f5ff0f9109849b1c3ba196a42e35f00c50a54b98b906109cd610d83565b610a0c602435926109dc611115565b63ffffffff831686526001602052838187205551928392836020909392919363ffffffff60408201951681520152565b0390a180f35b8284346108b957806003193601126108b9575080516001815260016020820152f35b50503461013557602090610a786060610a58610a4f36610dd7565b92919091610f58565b919093805195858796518752015160208601528401526060830190610e26565b0390f35b9050366003190160e08112610bdb576060136102315767ffffffffffffffff90608435828111610c6057610ab39036908301610da9565b90926001600160a01b039060a4358281160361053e5760c43590811161053e57610ae09036908501610da9565b505033907f00000000000000000000000000000000000000000000000000000000000000001603610c3157610b1b610b16610e66565b611159565b602435809103610bdf57508260609181010312610bdb57825191610b3e83610e79565b63ffffffff908035828116810361053e578452602092610b6f86610b638685016111aa565b938487890152016111aa565b90868601918252610b7e610e66565b92610bb5575b5051610b8e578580f35b81168552600582528385209251168452528120805460ff1916600117905538808080808580f35b828416885284528587208551841688528452858720805460ff1916600117905538610b84565b8380fd5b82610c2d8692610bed610e66565b93517fc26bebcc00000000000000000000000000000000000000000000000000000000815263ffffffff9094169284019283526020830152829160400190565b0390fd5b83517f91ac5e4f0000000000000000000000000000000000000000000000000000000081523381840152602490fd5b8480fd5b90503461023157608036600319011261023157610c7f610d83565b610c87610d96565b916001600160a01b03600654163303610cd9575063ffffffff80911690818552600260205283852092169182855260205260443583852055835260036020528183209083526020526064359082205580f35b606490602085519162461bcd60e51b8352820152600e60248201527f496e76616c69642073656e6465720000000000000000000000000000000000006044820152fd5b83346108b95760203660031901126108b9576001600160a01b03610d3e610d68565b610d46611115565b1673ffffffffffffffffffffffffffffffffffffffff19600654161760065580f35b600435906001600160a01b0382168203610d7e57565b600080fd5b6004359063ffffffff82168203610d7e57565b6024359063ffffffff82168203610d7e57565b9181601f84011215610d7e5782359167ffffffffffffffff8311610d7e5760208381860195010111610d7e57565b6060600319820112610d7e5763ffffffff916004358381168103610d7e57926024359081168103610d7e57916044359067ffffffffffffffff8211610d7e57610e2291600401610da9565b9091565b919082519283825260005b848110610e52575050826000602080949584010152601f8019910116010190565b602081830181015184830182015201610e31565b60043563ffffffff81168103610d7e5790565b6060810190811067ffffffffffffffff821117610e9557604052565b634e487b7160e01b600052604160045260246000fd5b60a0810190811067ffffffffffffffff821117610e9557604052565b6040810190811067ffffffffffffffff821117610e9557604052565b90601f8019910116810190811067ffffffffffffffff821117610e9557604052565b67ffffffffffffffff8111610e9557601f01601f191660200190565b929192610f2d82610f05565b91610f3b6040519384610ee3565b829481845281830111610d7e578281602093846000960137010152565b9093926040918251610f6981610ec7565b6000948582528560208093015263ffffffff938484169485885260028452868820991698898852835285872054858852600384528688208a895284528688205490878051610fb681610e79565b8c81528681019283520191825287519a858c015251878b01525160608a0152606089526080890189811067ffffffffffffffff821117611101576110098795936110779795936110219388523691610f21565b928883875161101781610ec7565b8281520152611159565b9084519361102e85610eab565b8452830152878383015260608201528460808201528151809381927fddc28c580000000000000000000000000000000000000000000000000000000083523090600484016111df565b03816001600160a01b037f0000000000000000000000000000000000000000000000000000000000000000165afa9283156110f65780936110ba575b5050509190565b90918093503d84116110ef575b6110d18184610ee3565b820192828403126108b95750906110e7916111b7565b3880806110b3565b503d6110c7565b8251903d90823e3d90fd5b602488634e487b7160e01b81526041600452fd5b6001600160a01b0360005416330361112957565b60246040517f118cdaa7000000000000000000000000000000000000000000000000000000008152336004820152fd5b63ffffffff16806000526001602052604060002054908115611179575090565b602490604051907ff6ff4fb70000000000000000000000000000000000000000000000000000000082526004820152fd5b35908115158203610d7e57565b9190826040910312610d7e576040516111cf81610ec7565b6020808294805184520151910152565b906001600160a01b036020919493946040845263ffffffff8151166040850152828101516060850152608061123b611225604084015160a08489015260e0880190610e26565b6060840151878203603f190160a0890152610e26565b910151151560c08501529416910152565b9061128b575080511561126157805190602001fd5b60046040517f1425ea42000000000000000000000000000000000000000000000000000000008152fd5b815115806112d6575b61129c575090565b6024906001600160a01b03604051917f9996b315000000000000000000000000000000000000000000000000000000008352166004820152fd5b50803b1561129456fea264697066735822122029d40311589c12121e97e780efeb0f343204fe7dc9d0b31141a38a0deec9693164736f6c63430008160033",
  "linkReferences": {},
  "deployedLinkReferences": {}
}