{
  "_format": "hh-sol-artifact-1",
  "contractName": "L2MessageRelay",
  "sourceName": "src/core/L2/L2MessageRelay.sol",
  "abi": [
    {
      "inputs": [
        {
          "internalType": "address",
          "name": "_endpoint",
          "type": "address"
        },
        {
          "internalType": "address",
          "name": "_owner",
          "type": "address"
        }
      ],
      "stateMutability": "nonpayable",
      "type": "constructor"
    },
    {
      "inputs": [
        {
          "internalType": "address",
          "name": "target",
          "type": "address"
        }
      ],
      "name": "AddressEmptyCode",
      "type": "error"
    },
    {
      "inputs": [
        {
          "internalType": "address",
          "name": "account",
          "type": "address"
        }
      ],
      "name": "AddressInsufficientBalance",
      "type": "error"
    },
    {
      "inputs": [],
      "name": "FailedInnerCall",
      "type": "error"
    },
    {
      "inputs": [],
      "name": "InvalidDelegate",
      "type": "error"
    },
    {
      "inputs": [],
      "name": "InvalidEndpointCall",
      "type": "error"
    },
    {
      "inputs": [],
      "name": "LzTokenUnavailable",
      "type": "error"
    },
    {
      "inputs": [
        {
          "internalType": "uint32",
          "name": "eid",
          "type": "uint32"
        }
      ],
      "name": "NoPeer",
      "type": "error"
    },
    {
      "inputs": [
        {
          "internalType": "uint256",
          "name": "msgValue",
          "type": "uint256"
        }
      ],
      "name": "NotEnoughNative",
      "type": "error"
    },
    {
      "inputs": [
        {
          "internalType": "address",
          "name": "addr",
          "type": "address"
        }
      ],
      "name": "OnlyEndpoint",
      "type": "error"
    },
    {
      "inputs": [
        {
          "internalType": "uint32",
          "name": "eid",
          "type": "uint32"
        },
        {
          "internalType": "bytes32",
          "name": "sender",
          "type": "bytes32"
        }
      ],
      "name": "OnlyPeer",
      "type": "error"
    },
    {
      "inputs": [
        {
          "internalType": "address",
          "name": "owner",
          "type": "address"
        }
      ],
      "name": "OwnableInvalidOwner",
      "type": "error"
    },
    {
      "inputs": [
        {
          "internalType": "address",
          "name": "account",
          "type": "address"
        }
      ],
      "name": "OwnableUnauthorizedAccount",
      "type": "error"
    },
    {
      "inputs": [
        {
          "internalType": "address",
          "name": "token",
          "type": "address"
        }
      ],
      "name": "SafeERC20FailedOperation",
      "type": "error"
    },
    {
      "anonymous": false,
      "inputs": [
        {
          "indexed": true,
          "internalType": "address",
          "name": "previousOwner",
          "type": "address"
        },
        {
          "indexed": true,
          "internalType": "address",
          "name": "newOwner",
          "type": "address"
        }
      ],
      "name": "OwnershipTransferred",
      "type": "event"
    },
    {
      "anonymous": false,
      "inputs": [
        {
          "indexed": false,
          "internalType": "uint32",
          "name": "eid",
          "type": "uint32"
        },
        {
          "indexed": false,
          "internalType": "bytes32",
          "name": "peer",
          "type": "bytes32"
        }
      ],
      "name": "PeerSet",
      "type": "event"
    },
    {
      "inputs": [
        {
          "internalType": "uint32",
          "name": "",
          "type": "uint32"
        }
      ],
      "name": "accumulatedDepositHashes",
      "outputs": [
        {
          "internalType": "bytes32",
          "name": "",
          "type": "bytes32"
        }
      ],
      "stateMutability": "view",
      "type": "function"
    },
    {
      "inputs": [
        {
          "internalType": "uint32",
          "name": "",
          "type": "uint32"
        }
      ],
      "name": "accumulatedWithdrawalHashes",
      "outputs": [
        {
          "internalType": "bytes32",
          "name": "",
          "type": "bytes32"
        }
      ],
      "stateMutability": "view",
      "type": "function"
    },
    {
      "inputs": [
        {
          "components": [
            {
              "internalType": "uint32",
              "name": "srcEid",
              "type": "uint32"
            },
            {
              "internalType": "bytes32",
              "name": "sender",
              "type": "bytes32"
            },
            {
              "internalType": "uint64",
              "name": "nonce",
              "type": "uint64"
            }
          ],
          "internalType": "struct Origin",
          "name": "origin",
          "type": "tuple"
        }
      ],
      "name": "allowInitializePath",
      "outputs": [
        {
          "internalType": "bool",
          "name": "",
          "type": "bool"
        }
      ],
      "stateMutability": "view",
      "type": "function"
    },
    {
      "inputs": [],
      "name": "composeMsgSender",
      "outputs": [
        {
          "internalType": "address",
          "name": "sender",
          "type": "address"
        }
      ],
      "stateMutability": "view",
      "type": "function"
    },
    {
      "inputs": [],
      "name": "endpoint",
      "outputs": [
        {
          "internalType": "contract ILayerZeroEndpointV2",
          "name": "",
          "type": "address"
        }
      ],
      "stateMutability": "view",
      "type": "function"
    },
    {
      "inputs": [
        {
          "internalType": "uint32",
          "name": "_txBatchId",
          "type": "uint32"
        },
        {
          "internalType": "bytes",
          "name": "_options",
          "type": "bytes"
        }
      ],
      "name": "estimateAcknowledgmentFee",
      "outputs": [
        {
          "components": [
            {
              "internalType": "uint256",
              "name": "nativeFee",
              "type": "uint256"
            },
            {
              "internalType": "uint256",
              "name": "lzTokenFee",
              "type": "uint256"
            }
          ],
          "internalType": "struct MessagingFee",
          "name": "",
          "type": "tuple"
        }
      ],
      "stateMutability": "view",
      "type": "function"
    },
    {
      "inputs": [],
      "name": "latestAccumulatedDepositHash",
      "outputs": [
        {
          "internalType": "bytes32",
          "name": "",
          "type": "bytes32"
        }
      ],
      "stateMutability": "view",
      "type": "function"
    },
    {
      "inputs": [
        {
          "components": [
            {
              "internalType": "uint32",
              "name": "srcEid",
              "type": "uint32"
            },
            {
              "internalType": "bytes32",
              "name": "sender",
              "type": "bytes32"
            },
            {
              "internalType": "uint64",
              "name": "nonce",
              "type": "uint64"
            }
          ],
          "internalType": "struct Origin",
          "name": "_origin",
          "type": "tuple"
        },
        {
          "internalType": "bytes32",
          "name": "_guid",
          "type": "bytes32"
        },
        {
          "internalType": "bytes",
          "name": "_message",
          "type": "bytes"
        },
        {
          "internalType": "address",
          "name": "_executor",
          "type": "address"
        },
        {
          "internalType": "bytes",
          "name": "_extraData",
          "type": "bytes"
        }
      ],
      "name": "lzReceive",
      "outputs": [],
      "stateMutability": "payable",
      "type": "function"
    },
    {
      "inputs": [
        {
          "internalType": "bytes",
          "name": "payload",
          "type": "bytes"
        }
      ],
      "name": "mockLzReceive",
      "outputs": [],
      "stateMutability": "nonpayable",
      "type": "function"
    },
    {
      "inputs": [
        {
          "internalType": "uint32",
          "name": "",
          "type": "uint32"
        },
        {
          "internalType": "bytes32",
          "name": "",
          "type": "bytes32"
        }
      ],
      "name": "nextNonce",
      "outputs": [
        {
          "internalType": "uint64",
          "name": "nonce",
          "type": "uint64"
        }
      ],
      "stateMutability": "view",
      "type": "function"
    },
    {
      "inputs": [],
      "name": "oAppVersion",
      "outputs": [
        {
          "internalType": "uint64",
          "name": "senderVersion",
          "type": "uint64"
        },
        {
          "internalType": "uint64",
          "name": "receiverVersion",
          "type": "uint64"
        }
      ],
      "stateMutability": "pure",
      "type": "function"
    },
    {
      "inputs": [],
      "name": "owner",
      "outputs": [
        {
          "internalType": "address",
          "name": "",
          "type": "address"
        }
      ],
      "stateMutability": "view",
      "type": "function"
    },
    {
      "inputs": [
        {
          "internalType": "uint32",
          "name": "eid",
          "type": "uint32"
        }
      ],
      "name": "peers",
      "outputs": [
        {
          "internalType": "bytes32",
          "name": "peer",
          "type": "bytes32"
        }
      ],
      "stateMutability": "view",
      "type": "function"
    },
    {
      "inputs": [
        {
          "internalType": "uint32",
          "name": "processedTxBatchId",
          "type": "uint32"
        },
        {
          "internalType": "bytes32",
          "name": "accDepositHash",
          "type": "bytes32"
        }
      ],
      "name": "processAccumulatedDepositHash",
      "outputs": [],
      "stateMutability": "nonpayable",
      "type": "function"
    },
    {
      "inputs": [
        {
          "internalType": "uint32",
          "name": "processedTxBatchId",
          "type": "uint32"
        },
        {
          "internalType": "bytes32",
          "name": "accWithdrawalHash",
          "type": "bytes32"
        }
      ],
      "name": "processAccumulatedWithdrawalHash",
      "outputs": [],
      "stateMutability": "nonpayable",
      "type": "function"
    },
    {
      "inputs": [
        {
          "internalType": "uint32",
          "name": "",
          "type": "uint32"
        }
      ],
      "name": "processedDeposits",
      "outputs": [
        {
          "internalType": "bool",
          "name": "",
          "type": "bool"
        }
      ],
      "stateMutability": "view",
      "type": "function"
    },
    {
      "inputs": [
        {
          "internalType": "uint32",
          "name": "",
          "type": "uint32"
        }
      ],
      "name": "processedWithdrawals",
      "outputs": [
        {
          "internalType": "bool",
          "name": "",
          "type": "bool"
        }
      ],
      "stateMutability": "view",
      "type": "function"
    },
    {
      "inputs": [],
      "name": "renounceOwnership",
      "outputs": [],
      "stateMutability": "nonpayable",
      "type": "function"
    },
    {
      "inputs": [
        {
          "internalType": "uint32",
          "name": "_txBatchId",
          "type": "uint32"
        },
        {
          "internalType": "bytes",
          "name": "_options",
          "type": "bytes"
        }
      ],
      "name": "sendAcknowledgment",
      "outputs": [],
      "stateMutability": "payable",
      "type": "function"
    },
    {
      "inputs": [
        {
          "internalType": "address",
          "name": "_delegate",
          "type": "address"
        }
      ],
      "name": "setDelegate",
      "outputs": [],
      "stateMutability": "nonpayable",
      "type": "function"
    },
    {
      "inputs": [
        {
          "internalType": "address",
          "name": "_invAddress",
          "type": "address"
        }
      ],
      "name": "setInvisibleAddress",
      "outputs": [],
      "stateMutability": "nonpayable",
      "type": "function"
    },
    {
      "inputs": [
        {
          "internalType": "uint32",
          "name": "_eid",
          "type": "uint32"
        },
        {
          "internalType": "bytes32",
          "name": "_peer",
          "type": "bytes32"
        }
      ],
      "name": "setPeer",
      "outputs": [],
      "stateMutability": "nonpayable",
      "type": "function"
    },
    {
      "inputs": [
        {
          "internalType": "address",
          "name": "newOwner",
          "type": "address"
        }
      ],
      "name": "transferOwnership",
      "outputs": [],
      "stateMutability": "nonpayable",
      "type": "function"
    }
  ],
  "bytecode": "0x60a0346200018f576200175a906001600160401b03601f38849003908101601f1916830190828211848310176200019457808491604096879485528339810103126200018f5760206200005283620001aa565b926001600160a01b039182916200006a9101620001aa565b169081156200017757600080546001600160a01b0319811684178255909490839083167f8be0079c531659141344cd1fd0a4f28419497f9722a3daafe3b4186f6b6457e08780a3169081608052813b156200017357839291602484928751968793849263ca5eb5e160e01b845260048401525af18015620001695762000142575b83619ce163ffffffff19600181600254161760025560075416176007555161159a9081620001c08239608051818181610475015281816105290152818161074c01528181610c1f01528181610dc101526114530152f35b82116200015557508152388080620000eb565b634e487b7160e01b81526041600452602490fd5b84513d84823e3d90fd5b8380fd5b8451631e4fbdf760e01b815260006004820152602490fd5b600080fd5b634e487b7160e01b600052604160045260246000fd5b51906001600160a01b03821682036200018f5756fe608060408181526004918236101561001657600080fd5b600092833560e01c91826306b755f614610fdd575081630729c10514610f7057816313137d6514610d5857816317442b7014610d365781633400288b14610cb557816351908d6d14610c7c5781635c0dd91e14610c435781635e280f1114610bff578163715018a614610b995781637d25a05e14610b745781638da5cb5b14610b4e5781639302611e14610b2057816393c00cca14610a4457816394e6902a14610921578163aa7af45f14610865578163b0937b5d14610831578163b92d0eff14610816578163bb0b6a53146107e2578163ca5eb5e11461071b578163cf5f1b8d1461030d578163e2db465714610210578163f2fde38b1461015c575063ff7bd03d1461012257600080fd5b34610158576060366003190112610158578060209263ffffffff61014461118c565b168152600184522054905190602435148152f35b5080fd5b90503461020c57602036600319011261020c57610177611025565b90610180611256565b6001600160a01b038092169283156101dd5750506000548273ffffffffffffffffffffffffffffffffffffffff19821617600055167f8be0079c531659141344cd1fd0a4f28419497f9722a3daafe3b4186f6b6457e0600080a380f35b908460249251917f1e4fbdf7000000000000000000000000000000000000000000000000000000008352820152fd5b8280fd5b90503461020c578160031936011261020c5761022a61100d565b9063ffffffff6007549261024c6001600160a01b03602095861c16331461120b565b16908185526005835260ff84862054166102cb5781855260038352602435848620540361028a57508352600590528120805460ff1916600117905580f35b606490838086519262461bcd60e51b845283015260248201527f496e76616c696420616363756d756c61746564206465706f73697420686173686044820152fd5b6064908385519162461bcd60e51b8352820152601a60248201527f4465706f7369747320616c72656164792070726f6365737365640000000000006044820152fd5b91905061031936611111565b610324939193611256565b61039c63ffffffff809516948587526103aa6020966005885260ff878a2054166006895260ff888b2054169088519261035c84611069565b83521515898301521515878201528651938491898301919091604080606083019463ffffffff815116845260208101511515602085015201511515910152565b03601f1981018452836110d3565b60075416906103ba8382846113c0565b9285516103c681611069565b8881528888820152868051916103db836110b7565b6000835260008a84015201528351938434036106ec5787019182518061051e575b5091839160809593610411610469989661129a565b92511515928951946104228661109b565b85528a8501528884015260608301528482015285518095819482937f2637a45000000000000000000000000000000000000000000000000000000000845233918401611353565b03916001600160a01b037f0000000000000000000000000000000000000000000000000000000000000000165af18015610514576104a5578380f35b60803d60801161050d575b6104ba81836110d3565b8101608082820312610509578251936104d285611069565b82518552808301519267ffffffffffffffff84168403610505576104fb938592870152016112eb565b9101523880808380f35b8680fd5b8480fd5b503d6104b0565b82513d86823e3d90fd5b6001600160a01b03807f0000000000000000000000000000000000000000000000000000000000000000169089517fe4fe1d940000000000000000000000000000000000000000000000000000000081528b818b81865afa9081156106e2578d916106a8575b5016918215610680578b61060e928c82938d51918201927f23b872dd00000000000000000000000000000000000000000000000000000000845233602484015260448301526064820152606481526105db8161109b565b519082865af13d15610678573d906105f2826110f5565b916105ff8c5193846110d3565b82523d8d8d84013e5b836114d1565b80518a8115159182610653575b50509050156103fc57866024918951917f5274afe7000000000000000000000000000000000000000000000000000000008352820152fd5b83809293500103126106745789015180159081150361067457808a3861061b565b8a80fd5b606090610608565b888a517f5373352a000000000000000000000000000000000000000000000000000000008152fd5b90508b81813d83116106db575b6106bf81836110d3565b810103126106d7575181811681036106d75738610584565b8c80fd5b503d6106b5565b8b513d8f823e3d90fd5b86517f9f7041200000000000000000000000000000000000000000000000000000000081523481880152602490fd5b9190503461020c57602036600319011261020c57610737611025565b91610740611256565b836001600160a01b03807f00000000000000000000000000000000000000000000000000000000000000001694853b1561020c5760249083865197889485937fca5eb5e100000000000000000000000000000000000000000000000000000000855216878401525af18015610514576107b7578380f35b67ffffffffffffffff83116107cf5750523880808380f35b836041602492634e487b7160e01b835252fd5b505034610158576020366003190112610158578060209263ffffffff61080661100d565b1681526001845220549051908152f35b50503461015857816003193601126101585760209051308152f35b505034610158576020366003190112610158578060209263ffffffff61085561100d565b1681526003845220549051908152f35b82843461091e5761090d61039c61087b36611111565b919061090486519561088c876110b7565b8087528060208098015263ffffffff809316908181526005885260ff898181842054169260068b52205416908951926108c484611069565b83521515888301521515888201528751938491888301919091604080606083019463ffffffff815116845260208101511515602085015201511515910152565b600754166113c0565b908083519280518452015190820152f35b80fd5b90503461020c578160031936011261020c5761093b61100d565b9063ffffffff6007549261095d6001600160a01b03602095861c16331461120b565b16908185526006835260ff8486205416610a0257818552808352602435848620540361099a57508352600690528120805460ff1916600117905580f35b6084908385519162461bcd60e51b8352820152602360248201527f496e76616c696420616363756d756c61746564207769746864726177616c206860448201527f61736800000000000000000000000000000000000000000000000000000000006064820152fd5b6064908385519162461bcd60e51b8352820152601c60248201527f5769746864726177616c20616c72656164792070726f636573736564000000006044820152fd5b9190503461020c5760209182600319360112610b1c5780359167ffffffffffffffff831161050957610a87610a7f610acf943690850161103b565b81019061119f565b908482019485519363ffffffff968795868651168a5260038452848a205583850191825190878751168b528452848a20555115610aff575b5115610ae1575b505051166111e0565b1663ffffffff19600254161760025580f35b825184168752600690528520805460ff191660011790553880610ac6565b83518516885260058252828820805460ff19166001179055610abf565b8380fd5b5050346101585781600319360112610158578060209263ffffffff6002541681526003845220549051908152f35b5050346101585781600319360112610158576001600160a01b0360209254169051908152f35b50503461015857806003193601126101585790602091610b9261100d565b5051908152f35b833461091e578060031936011261091e57610bb2611256565b806001600160a01b03815473ffffffffffffffffffffffffffffffffffffffff1981168355167f8be0079c531659141344cd1fd0a4f28419497f9722a3daafe3b4186f6b6457e08280a380f35b505034610158578160031936011261015857602090516001600160a01b037f0000000000000000000000000000000000000000000000000000000000000000168152f35b5050346101585760203660031901126101585760ff8160209363ffffffff610c6961100d565b1681526005855220541690519015158152f35b5050346101585760203660031901126101585760ff8160209363ffffffff610ca261100d565b1681526006855220541690519015158152f35b5050346101585780600319360112610158577f238399d427b947898edb290f5ff0f9109849b1c3ba196a42e35f00c50a54b98b90610cf161100d565b610d3060243592610d00611256565b63ffffffff831686526001602052838187205551928392836020909392919363ffffffff60408201951681520152565b0390a180f35b82843461091e578060031936011261091e575080516001815260016020820152f35b9050366003190160e08112610b1c5760601361020c5767ffffffffffffffff9160843583811161050957610d8f903690840161103b565b936001600160a01b039060a435828116036105055760c43590811161050557610dbb903690860161103b565b505033907f00000000000000000000000000000000000000000000000000000000000000001603610f4157610df6610df161118c565b61129a565b602435809103610eef5750610e0961118c565b9363ffffffff94858060075416911603610eac5791610e30828694610acf9694019061119f565b9160208301805185855116895260036020528389205582840191825190868651168a52602052838920555115610e8e575b5115610e70575b5051166111e0565b81518316865260066020528520805460ff1916600117905538610e68565b8251841687526005602052818720805460ff19166001179055610e61565b606484602085519162461bcd60e51b8352820152600e60248201527f496e76616c69642073656e6465720000000000000000000000000000000000006044820152fd5b83610f3d8492610efd61118c565b93517fc26bebcc00000000000000000000000000000000000000000000000000000000815263ffffffff9094169284019283526020830152829160400190565b0390fd5b81517f91ac5e4f0000000000000000000000000000000000000000000000000000000081523381850152602490fd5b833461091e57602036600319011261091e57610f8a611025565b610f92611256565b7fffffffffffffffff0000000000000000000000000000000000000000ffffffff77ffffffffffffffffffffffffffffffffffffffff000000006007549260201b1691161760075580f35b92915034610b1c576020366003190112610b1c579260209363ffffffff61100261100d565b168252845220548152f35b6004359063ffffffff8216820361102057565b600080fd5b600435906001600160a01b038216820361102057565b9181601f840112156110205782359167ffffffffffffffff8311611020576020838186019501011161102057565b6060810190811067ffffffffffffffff82111761108557604052565b634e487b7160e01b600052604160045260246000fd5b60a0810190811067ffffffffffffffff82111761108557604052565b6040810190811067ffffffffffffffff82111761108557604052565b90601f8019910116810190811067ffffffffffffffff82111761108557604052565b67ffffffffffffffff811161108557601f01601f191660200190565b9060406003198301126110205760043563ffffffff81168103611020579160243567ffffffffffffffff811161102057816023820112156110205780600401359061115b826110f5565b9261116960405194856110d3565b828452602483830101116110205781600092602460209301838601378301015290565b60043563ffffffff811681036110205790565b9081606091031261102057604051906111b782611069565b80359063ffffffff82168203611020576040918352602081013560208401520135604082015290565b90600163ffffffff809316019182116111f557565b634e487b7160e01b600052601160045260246000fd5b1561121257565b606460405162461bcd60e51b815260206004820152600e60248201527f496e76616c69642063616c6c65720000000000000000000000000000000000006044820152fd5b6001600160a01b0360005416330361126a57565b60246040517f118cdaa7000000000000000000000000000000000000000000000000000000008152336004820152fd5b63ffffffff168060005260016020526040600020549081156112ba575090565b602490604051907ff6ff4fb70000000000000000000000000000000000000000000000000000000082526004820152fd5b919082604091031261102057604051611303816110b7565b6020808294805184520151910152565b919082519283825260005b84811061133f575050826000602080949584010152601f8019910116010190565b60208183018101518483018201520161131e565b906001600160a01b036020919493946040845263ffffffff815116604085015282810151606085015260806113af611399604084015160a08489015260e0880190611313565b6060840151878203603f190160a0890152611313565b910151151560c08501529416910152565b9160209161144793604092839283516113d8816110b7565b600096818880935201526113eb8361129a565b63ffffffff8551946113fc8661109b565b16845260208401528383015260608201528360808201528151809581927fddc28c58000000000000000000000000000000000000000000000000000000008352309060048401611353565b03816001600160a01b037f0000000000000000000000000000000000000000000000000000000000000000165afa9283156114c6578293611489575b50505090565b9080929493503d83116114bf575b6114a181836110d3565b81019181830312610b1c576114b79293506112eb565b388080611483565b503d611497565b5051903d90823e3d90fd5b9061151057508051156114e657805190602001fd5b60046040517f1425ea42000000000000000000000000000000000000000000000000000000008152fd5b8151158061155b575b611521575090565b6024906001600160a01b03604051917f9996b315000000000000000000000000000000000000000000000000000000008352166004820152fd5b50803b1561151956fea2646970667358221220adbb6e7ff7da5a951146bfeb07012e4900f7a492265f9ec140749ab7f5ea854264736f6c63430008160033",
  "linkReferences": {},
  "deployedLinkReferences": {}
}